{
  "_format": "hh-sol-artifact-1",
  "contractName": "Groth16Verifier",
  "sourceName": "contracts/Groth16Verifier.sol",
  "abi": [
    {
      "anonymous": false,
      "inputs": [
        {
          "indexed": true,
          "internalType": "bool",
          "name": "result",
          "type": "bool"
        },
        {
          "indexed": true,
          "internalType": "address",
          "name": "verifier",
          "type": "address"
        }
      ],
      "name": "ProofVerified",
      "type": "event"
    },
    {
      "anonymous": false,
      "inputs": [],
      "name": "VerificationKeySet",
      "type": "event"
    },
    {
      "inputs": [
        {
          "internalType": "uint256[2][]",
          "name": "_proofs_a",
          "type": "uint256[2][]"
        },
        {
          "internalType": "uint256[2][2][]",
          "name": "_proofs_b",
          "type": "uint256[2][2][]"
        },
        {
          "internalType": "uint256[2][]",
          "name": "_proofs_c",
          "type": "uint256[2][]"
        },
        {
          "internalType": "uint256[2][]",
          "name": "_publicInputs",
          "type": "uint256[2][]"
        }
      ],
      "name": "batchVerify",
      "outputs": [
        {
          "internalType": "bool[]",
          "name": "",
          "type": "bool[]"
        }
      ],
      "stateMutability": "view",
      "type": "function"
    },
    {
      "inputs": [
        {
          "internalType": "uint256",
          "name": "_value",
          "type": "uint256"
        }
      ],
      "name": "isValidFieldElement",
      "outputs": [
        {
          "internalType": "bool",
          "name": "",
          "type": "bool"
        }
      ],
      "stateMutability": "pure",
      "type": "function"
    },
    {
      "inputs": [
        {
          "internalType": "uint256[2]",
          "name": "_alpha",
          "type": "uint256[2]"
        },
        {
          "internalType": "uint256[2]",
          "name": "_beta",
          "type": "uint256[2]"
        },
        {
          "internalType": "uint256[2]",
          "name": "_gamma",
          "type": "uint256[2]"
        },
        {
          "internalType": "uint256[2]",
          "name": "_delta",
          "type": "uint256[2]"
        },
        {
          "internalType": "uint256[2][]",
          "name": "_gamma_abc",
          "type": "uint256[2][]"
        }
      ],
      "name": "setVerificationKey",
      "outputs": [],
      "stateMutability": "nonpayable",
      "type": "function"
    },
    {
      "inputs": [
        {
          "internalType": "uint256[2]",
          "name": "_proof_a",
          "type": "uint256[2]"
        },
        {
          "internalType": "uint256[2][2]",
          "name": "_proof_b",
          "type": "uint256[2][2]"
        },
        {
          "internalType": "uint256[2]",
          "name": "_proof_c",
          "type": "uint256[2]"
        },
        {
          "internalType": "uint256[2]",
          "name": "_publicInputs",
          "type": "uint256[2]"
        }
      ],
      "name": "verifyProof",
      "outputs": [
        {
          "internalType": "bool",
          "name": "",
          "type": "bool"
        }
      ],
      "stateMutability": "view",
      "type": "function"
    },
    {
      "inputs": [],
      "name": "vkSet",
      "outputs": [
        {
          "internalType": "bool",
          "name": "",
          "type": "bool"
        }
      ],
      "stateMutability": "view",
      "type": "function"
    },
    {
      "inputs": [
        {
          "internalType": "uint256",
          "name": "",
          "type": "uint256"
        }
      ],
      "name": "vk_alpha",
      "outputs": [
        {
          "internalType": "uint256",
          "name": "",
          "type": "uint256"
        }
      ],
      "stateMutability": "view",
      "type": "function"
    },
    {
      "inputs": [
        {
          "internalType": "uint256",
          "name": "",
          "type": "uint256"
        }
      ],
      "name": "vk_beta",
      "outputs": [
        {
          "internalType": "uint256",
          "name": "",
          "type": "uint256"
        }
      ],
      "stateMutability": "view",
      "type": "function"
    },
    {
      "inputs": [
        {
          "internalType": "uint256",
          "name": "",
          "type": "uint256"
        }
      ],
      "name": "vk_delta",
      "outputs": [
        {
          "internalType": "uint256",
          "name": "",
          "type": "uint256"
        }
      ],
      "stateMutability": "view",
      "type": "function"
    },
    {
      "inputs": [
        {
          "internalType": "uint256",
          "name": "",
          "type": "uint256"
        }
      ],
      "name": "vk_gamma",
      "outputs": [
        {
          "internalType": "uint256",
          "name": "",
          "type": "uint256"
        }
      ],
      "stateMutability": "view",
      "type": "function"
    },
    {
      "inputs": [
        {
          "internalType": "uint256",
          "name": "",
          "type": "uint256"
        },
        {
          "internalType": "uint256",
          "name": "",
          "type": "uint256"
        }
      ],
      "name": "vk_gamma_abc",
      "outputs": [
        {
          "internalType": "uint256",
          "name": "",
          "type": "uint256"
        }
      ],
      "stateMutability": "view",
      "type": "function"
    }
  ],
  "bytecode": "0x608060405234801561001057600080fd5b50610aea806100206000396000f3fe608060405234801561001057600080fd5b506004361061009e5760003560e01c806353346abe1161006657806353346abe1461012c57806378f93def146101415780638b9dc51e14610154578063ae00024814610167578063f5c9d69e1461019a57600080fd5b806318242132146100a35780631cc6944d146100c9578063211e1fcc146100dc5780634996b401146100f95780634ca8654e1461010c575b600080fd5b6100b66100b1366004610664565b6101ad565b6040519081526020015b60405180910390f35b6100b66100d7366004610664565b6101c4565b6009546100e99060ff1681565b60405190151581526020016100c0565b6100b6610107366004610664565b6101d4565b61011f61011a366004610824565b6101e4565b6040516100c0919061092f565b61013f61013a366004610975565b6102ec565b005b6100b661014f3660046109fb565b610374565b6100b6610162366004610664565b6103a9565b6100e9610175366004610664565b7f30644e72e131a029b85045b68181585d2833e84879b9709143e1f593f00000011190565b6100e96101a8366004610a1d565b6103b9565b600281600281106101bd57600080fd5b0154905081565b600481600281106101bd57600080fd5b600081600281106101bd57600080fd5b835160609060008167ffffffffffffffff8111156102045761020461067d565b60405190808252806020026020018201604052801561022d578160200160208202803683370190505b50905060005b828110156102df576102ab88828151811061025057610250610a77565b602002602001015188838151811061026a5761026a610a77565b602002602001015188848151811061028457610284610a77565b602002602001015188858151811061029e5761029e610a77565b60200260200101516103b9565b8282815181106102bd576102bd610a77565b91151560209283029190910190910152806102d781610a8d565b915050610233565b509150505b949350505050565b6102f960008660026105a1565b50610306600285816105a1565b5061031460048460026105a1565b5061032260068360026105a1565b5080516103369060089060208401906105df565b506009805460ff191660011790556040517f995644dbefe20d811a13a1cd2f43fe847114c063f7b7b68577b486ce801e618690600090a15050505050565b6008828154811061038457600080fd5b906000526020600020906002020181600281106103a057600080fd5b01549150829050565b600681600281106101bd57600080fd5b60095460009060ff166104125760405162461bcd60e51b815260206004820152601860248201527f566572696669636174696f6e206b6579206e6f74207365740000000000000000604482015260640160405180910390fd5b6104438560005b60200201517f30644e72e131a029b85045b68181585d2833e84879b9709143e1f593f00000011190565b15806104575750610455856001610419565b155b15610464575060006102e4565b6104778460005b60200201516000610419565b158061049357506104918460005b60200201516001610419565b155b156104a0575060006102e4565b6104ab84600161046b565b15806104bf57506104bd846001610485565b155b156104cc575060006102e4565b6104d7836000610419565b15806104eb57506104e9836001610419565b155b156104f8575060006102e4565b6105048585858561050d565b95945050505050565b60006105198282610419565b158061052d575061052b826001610419565b155b1561053a575060006102e4565b845115801561054b57506020850151155b15610558575060006102e4565b83515115801561056b5750835160200151155b15610578575060006102e4565b825115801561058957506020830151155b15610596575060006102e4565b506001949350505050565b82600281019282156105cf579160200282015b828111156105cf5782518255916020019190600101906105b4565b506105db929150610635565b5090565b828054828255906000526020600020906002028101928215610629579160200282015b8281111561062957825161061990839060026105a1565b5091602001919060020190610602565b506105db92915061064a565b5b808211156105db5760008155600101610636565b808211156105db576000808255600182015560020161064a565b60006020828403121561067657600080fd5b5035919050565b634e487b7160e01b600052604160045260246000fd5b6040805190810167ffffffffffffffff811182821017156106b6576106b661067d565b60405290565b604051601f8201601f1916810167ffffffffffffffff811182821017156106e5576106e561067d565b604052919050565b600067ffffffffffffffff8211156107075761070761067d565b5060051b60200190565b600082601f83011261072257600080fd5b61072a610693565b80604084018581111561073c57600080fd5b845b8181101561075657803584526020938401930161073e565b509095945050505050565b600082601f83011261077257600080fd5b81356020610787610782836106ed565b6106bc565b82815260069290921b840181019181810190868411156107a657600080fd5b8286015b848110156107ca576107bc8882610711565b8352918301916040016107aa565b509695505050505050565b600082601f8301126107e657600080fd5b6107ee610693565b80608084018581111561080057600080fd5b845b81811015610756576108148782610711565b8452602090930192604001610802565b600080600080608080868803121561083b57600080fd5b853567ffffffffffffffff8082111561085357600080fd5b61085f89838a01610761565b965060209150818801358181111561087657600080fd5b8801601f81018a1361088757600080fd5b8035610895610782826106ed565b81815260079190911b8201840190848101908c8311156108b457600080fd5b928501925b828410156108da576108cb8d856107d5565b825292860192908501906108b9565b985050505060408801359250808311156108f357600080fd5b6108ff89848a01610761565b9450606088013592508083111561091557600080fd5b505061092387828801610761565b91505092959194509250565b6020808252825182820181905260009190848201906040850190845b8181101561096957835115158352928401929184019160010161094b565b50909695505050505050565b6000806000806000610120868803121561098e57600080fd5b6109988787610711565b94506109a78760408801610711565b93506109b68760808801610711565b92506109c58760c08801610711565b915061010086013567ffffffffffffffff8111156109e257600080fd5b6109ee88828901610761565b9150509295509295909350565b60008060408385031215610a0e57600080fd5b50508035926020909101359150565b6000806000806101408587031215610a3457600080fd5b610a3e8686610711565b9350610a4d86604087016107d5565b9250610a5c8660c08701610711565b9150610a6c866101008701610711565b905092959194509250565b634e487b7160e01b600052603260045260246000fd5b600060018201610aad57634e487b7160e01b600052601160045260246000fd5b506001019056fea2646970667358221220d3b9f2ac2b1783b3ae1c9bb838189b01056c65b60be80e2d8f66b3b4d72ced7c64736f6c63430008130033",
  "linkReferences": {},
  "deployedLinkReferences": {}
}