{
  "_format": "hh-sol-artifact-1",
  "contractName": "CredentialNFT",
  "sourceName": "contracts/CredentialNFT.sol",
  "abi": [
    {
      "anonymous": false,
      "inputs": [
        {
          "indexed": true,
          "internalType": "address",
          "name": "owner",
          "type": "address"
        },
        {
          "indexed": true,
          "internalType": "address",
          "name": "approved",
          "type": "address"
        },
        {
          "indexed": true,
          "internalType": "uint256",
          "name": "tokenId",
          "type": "uint256"
        }
      ],
      "name": "Approval",
      "type": "event"
    },
    {
      "anonymous": false,
      "inputs": [
        {
          "indexed": true,
          "internalType": "address",
          "name": "owner",
          "type": "address"
        },
        {
          "indexed": true,
          "internalType": "address",
          "name": "operator",
          "type": "address"
        },
        {
          "indexed": false,
          "internalType": "bool",
          "name": "approved",
          "type": "bool"
        }
      ],
      "name": "ApprovalForAll",
      "type": "event"
    },
    {
      "anonymous": false,
      "inputs": [
        {
          "indexed": true,
          "internalType": "uint256",
          "name": "tokenId",
          "type": "uint256"
        }
      ],
      "name": "CredentialNFTBurned",
      "type": "event"
    },
    {
      "anonymous": false,
      "inputs": [
        {
          "indexed": true,
          "internalType": "address",
          "name": "to",
          "type": "address"
        },
        {
          "indexed": true,
          "internalType": "uint256",
          "name": "tokenId",
          "type": "uint256"
        },
        {
          "indexed": false,
          "internalType": "uint256",
          "name": "credentialId",
          "type": "uint256"
        }
      ],
      "name": "CredentialNFTMinted",
      "type": "event"
    },
    {
      "anonymous": false,
      "inputs": [
        {
          "indexed": true,
          "internalType": "uint256",
          "name": "tokenId",
          "type": "uint256"
        },
        {
          "indexed": false,
          "internalType": "string",
          "name": "newTokenURI",
          "type": "string"
        }
      ],
      "name": "TokenURIUpdated",
      "type": "event"
    },
    {
      "anonymous": false,
      "inputs": [
        {
          "indexed": true,
          "internalType": "address",
          "name": "from",
          "type": "address"
        },
        {
          "indexed": true,
          "internalType": "address",
          "name": "to",
          "type": "address"
        },
        {
          "indexed": true,
          "internalType": "uint256",
          "name": "tokenId",
          "type": "uint256"
        }
      ],
      "name": "Transfer",
      "type": "event"
    },
    {
      "inputs": [],
      "name": "MAX_SUPPLY",
      "outputs": [
        {
          "internalType": "uint256",
          "name": "",
          "type": "uint256"
        }
      ],
      "stateMutability": "view",
      "type": "function"
    },
    {
      "inputs": [
        {
          "internalType": "address",
          "name": "to",
          "type": "address"
        },
        {
          "internalType": "uint256",
          "name": "tokenId",
          "type": "uint256"
        }
      ],
      "name": "approve",
      "outputs": [],
      "stateMutability": "nonpayable",
      "type": "function"
    },
    {
      "inputs": [
        {
          "internalType": "uint256",
          "name": "tokenId",
          "type": "uint256"
        }
      ],
      "name": "burn",
      "outputs": [],
      "stateMutability": "nonpayable",
      "type": "function"
    },
    {
      "inputs": [
        {
          "internalType": "uint256",
          "name": "tokenId",
          "type": "uint256"
        }
      ],
      "name": "checkRevoked",
      "outputs": [
        {
          "internalType": "bool",
          "name": "",
          "type": "bool"
        }
      ],
      "stateMutability": "view",
      "type": "function"
    },
    {
      "inputs": [
        {
          "internalType": "uint256",
          "name": "",
          "type": "uint256"
        }
      ],
      "name": "credentialIds",
      "outputs": [
        {
          "internalType": "uint256",
          "name": "",
          "type": "uint256"
        }
      ],
      "stateMutability": "view",
      "type": "function"
    },
    {
      "inputs": [
        {
          "internalType": "uint256",
          "name": "",
          "type": "uint256"
        }
      ],
      "name": "expiresAt",
      "outputs": [
        {
          "internalType": "uint256",
          "name": "",
          "type": "uint256"
        }
      ],
      "stateMutability": "view",
      "type": "function"
    },
    {
      "inputs": [
        {
          "internalType": "uint256",
          "name": "tokenId",
          "type": "uint256"
        }
      ],
      "name": "getApproved",
      "outputs": [
        {
          "internalType": "address",
          "name": "",
          "type": "address"
        }
      ],
      "stateMutability": "view",
      "type": "function"
    },
    {
      "inputs": [
        {
          "internalType": "uint256",
          "name": "tokenId",
          "type": "uint256"
        }
      ],
      "name": "getExpiration",
      "outputs": [
        {
          "internalType": "uint256",
          "name": "",
          "type": "uint256"
        }
      ],
      "stateMutability": "view",
      "type": "function"
    },
    {
      "inputs": [
        {
          "internalType": "address",
          "name": "holder",
          "type": "address"
        }
      ],
      "name": "getHolderTokenCount",
      "outputs": [
        {
          "internalType": "uint256",
          "name": "",
          "type": "uint256"
        }
      ],
      "stateMutability": "view",
      "type": "function"
    },
    {
      "inputs": [
        {
          "internalType": "address",
          "name": "holder",
          "type": "address"
        }
      ],
      "name": "getHolderTokens",
      "outputs": [
        {
          "internalType": "uint256[]",
          "name": "",
          "type": "uint256[]"
        }
      ],
      "stateMutability": "view",
      "type": "function"
    },
    {
      "inputs": [
        {
          "internalType": "uint256",
          "name": "tokenId",
          "type": "uint256"
        }
      ],
      "name": "getIssuanceTime",
      "outputs": [
        {
          "internalType": "uint256",
          "name": "",
          "type": "uint256"
        }
      ],
      "stateMutability": "view",
      "type": "function"
    },
    {
      "inputs": [
        {
          "internalType": "address",
          "name": "owner",
          "type": "address"
        },
        {
          "internalType": "address",
          "name": "operator",
          "type": "address"
        }
      ],
      "name": "isApprovedForAll",
      "outputs": [
        {
          "internalType": "bool",
          "name": "",
          "type": "bool"
        }
      ],
      "stateMutability": "view",
      "type": "function"
    },
    {
      "inputs": [
        {
          "internalType": "uint256",
          "name": "",
          "type": "uint256"
        }
      ],
      "name": "isRevoked",
      "outputs": [
        {
          "internalType": "bool",
          "name": "",
          "type": "bool"
        }
      ],
      "stateMutability": "view",
      "type": "function"
    },
    {
      "inputs": [
        {
          "internalType": "uint256",
          "name": "tokenId",
          "type": "uint256"
        }
      ],
      "name": "isTokenValid",
      "outputs": [
        {
          "internalType": "bool",
          "name": "",
          "type": "bool"
        }
      ],
      "stateMutability": "view",
      "type": "function"
    },
    {
      "inputs": [
        {
          "internalType": "uint256",
          "name": "",
          "type": "uint256"
        }
      ],
      "name": "issuedAt",
      "outputs": [
        {
          "internalType": "uint256",
          "name": "",
          "type": "uint256"
        }
      ],
      "stateMutability": "view",
      "type": "function"
    },
    {
      "inputs": [
        {
          "internalType": "address",
          "name": "_to",
          "type": "address"
        },
        {
          "internalType": "uint256",
          "name": "_credentialId",
          "type": "uint256"
        },
        {
          "internalType": "string",
          "name": "_tokenURI",
          "type": "string"
        },
        {
          "internalType": "uint256",
          "name": "_expirationDays",
          "type": "uint256"
        }
      ],
      "name": "mint",
      "outputs": [
        {
          "internalType": "uint256",
          "name": "",
          "type": "uint256"
        }
      ],
      "stateMutability": "nonpayable",
      "type": "function"
    },
    {
      "inputs": [
        {
          "internalType": "uint256",
          "name": "tokenId",
          "type": "uint256"
        }
      ],
      "name": "ownerOf",
      "outputs": [
        {
          "internalType": "address",
          "name": "",
          "type": "address"
        }
      ],
      "stateMutability": "view",
      "type": "function"
    },
    {
      "inputs": [
        {
          "internalType": "uint256",
          "name": "tokenId",
          "type": "uint256"
        }
      ],
      "name": "revokeCredentialNFT",
      "outputs": [],
      "stateMutability": "nonpayable",
      "type": "function"
    },
    {
      "inputs": [
        {
          "internalType": "address",
          "name": "from",
          "type": "address"
        },
        {
          "internalType": "address",
          "name": "to",
          "type": "address"
        },
        {
          "internalType": "uint256",
          "name": "tokenId",
          "type": "uint256"
        }
      ],
      "name": "safeTransferFrom",
      "outputs": [],
      "stateMutability": "nonpayable",
      "type": "function"
    },
    {
      "inputs": [
        {
          "internalType": "address",
          "name": "operator",
          "type": "address"
        },
        {
          "internalType": "bool",
          "name": "approved",
          "type": "bool"
        }
      ],
      "name": "setApprovalForAll",
      "outputs": [],
      "stateMutability": "nonpayable",
      "type": "function"
    },
    {
      "inputs": [
        {
          "internalType": "uint256",
          "name": "tokenId",
          "type": "uint256"
        }
      ],
      "name": "tokenURI",
      "outputs": [
        {
          "internalType": "string",
          "name": "",
          "type": "string"
        }
      ],
      "stateMutability": "view",
      "type": "function"
    },
    {
      "inputs": [],
      "name": "totalSupply",
      "outputs": [
        {
          "internalType": "uint256",
          "name": "",
          "type": "uint256"
        }
      ],
      "stateMutability": "view",
      "type": "function"
    },
    {
      "inputs": [
        {
          "internalType": "address",
          "name": "from",
          "type": "address"
        },
        {
          "internalType": "address",
          "name": "to",
          "type": "address"
        },
        {
          "internalType": "uint256",
          "name": "tokenId",
          "type": "uint256"
        }
      ],
      "name": "transferFrom",
      "outputs": [],
      "stateMutability": "nonpayable",
      "type": "function"
    },
    {
      "inputs": [
        {
          "internalType": "uint256",
          "name": "tokenId",
          "type": "uint256"
        },
        {
          "internalType": "string",
          "name": "newTokenURI",
          "type": "string"
        }
      ],
      "name": "updateTokenURI",
      "outputs": [],
      "stateMutability": "nonpayable",
      "type": "function"
    }
  ],
  "bytecode": "0x6080604052600160065534801561001557600080fd5b506115a7806100256000396000f3fe608060405234801561001057600080fd5b50600436106101585760003560e01c806342966c68116100c3578063b5ef63c91161007c578063b5ef63c914610346578063c87b56dd14610359578063c92243d814610379578063d39ebff21461038c578063e547e693146103af578063e985e9c5146103cf57600080fd5b806342966c68146102845780635ccc561e146102975780636352211e146102ca5780639f37e2fd146102f3578063a05b775f14610313578063a22cb4651461033357600080fd5b806318160ddd1161011557806318160ddd1461022357806318e97fd11461022b57806323b872dd1461023e57806326551f321461025157806332cb6b0c1461027a57806342842e0e1461023e57600080fd5b80630178b2af1461015d578063081812fc1461019057806308a8d7aa146101bb578063095ea7b3146101ce5780630ba78037146101e357806317c9570914610203575b600080fd5b61017d61016b366004610ff3565b60076020526000908152604090205481565b6040519081526020015b60405180910390f35b6101a361019e366004610ff3565b61040b565b6040516001600160a01b039091168152602001610187565b61017d6101c93660046110cb565b61046b565b6101e16101dc36600461112a565b610687565b005b61017d6101f1366004610ff3565b60009081526008602052604090205490565b61017d610211366004610ff3565b60096020526000908152604090205481565b60055461017d565b6101e1610239366004611154565b610790565b6101e161024c36600461119b565b610852565b61017d61025f3660046111d7565b6001600160a01b031660009081526001602052604090205490565b61017d620186a081565b6101e1610292366004610ff3565b61097d565b6102ba6102a5366004610ff3565b600a6020526000908152604090205460ff1681565b6040519015158152602001610187565b6101a36102d8366004610ff3565b6000908152600260205260409020546001600160a01b031690565b61017d610301366004610ff3565b60086020526000908152604090205481565b61017d610321366004610ff3565b60009081526009602052604090205490565b6101e16103413660046111f9565b610b33565b6101e1610354366004610ff3565b610bf7565b61036c610367366004610ff3565b610c7f565b6040516101879190611235565b6102ba610387366004610ff3565b610d57565b6102ba61039a366004610ff3565b6000908152600a602052604090205460ff1690565b6103c26103bd3660046111d7565b610dc1565b6040516101879190611283565b6102ba6103dd3660046112c7565b6001600160a01b03918216600090815260046020908152604080832093909416825291909152205460ff1690565b60008181526002602052604081205482906001600160a01b031661044a5760405162461bcd60e51b8152600401610441906112fa565b60405180910390fd5b6000838152600360205260409020546001600160a01b031691505b50919050565b60006001600160a01b0385166104d65760405162461bcd60e51b815260206004820152602a60248201527f43726564656e7469616c4e46543a2063616e6e6f74206d696e7420746f207a65604482015269726f206164647265737360b01b6064820152608401610441565b620186a060065411156105365760405162461bcd60e51b815260206004820152602260248201527f43726564656e7469616c4e46543a206d617820737570706c7920657863656564604482015261195960f21b6064820152608401610441565b600680546000918261054783611353565b90915550600081815260026020908152604080832080546001600160a01b0319166001600160a01b038c1617905560078252808320899055600890915290204290559050610598836201518061136c565b6105a29042611383565b600082815260096020908152604080832093909355819052206105c58582611419565b506001600160a01b0386166000908152600160208181526040832080549283018155835282200182905560058054916105fd83611353565b909155505060405181906001600160a01b038816906000907fddf252ad1be2c89b69c2b068fc378daa952ba7f163c4a11628f55a4df523b3ef908290a480866001600160a01b03167ffedb6860cf93892c40be28f314c913cec08084106dffc1d28fa3949266176d208760405161067691815260200190565b60405180910390a395945050505050565b60008181526002602052604090205481906001600160a01b03166106bd5760405162461bcd60e51b8152600401610441906112fa565b6000828152600260205260409020546001600160a01b031633146107365760405162461bcd60e51b815260206004820152602a60248201527f43726564656e7469616c4e46543a20617070726f76652063616c6c6572206973604482015269103737ba1037bbb732b960b11b6064820152608401610441565b60008281526003602052604080822080546001600160a01b0319166001600160a01b0387169081179091559051849233917f8c5be1e5ebec7d5bd14f71427d1e84f3dd0314c0f7b2291e5b200ac8c7c3b9259190a4505050565b60008281526002602052604090205482906001600160a01b03166107c65760405162461bcd60e51b8152600401610441906112fa565b6000838152600260205260409020546001600160a01b031633146107fc5760405162461bcd60e51b8152600401610441906114d9565b60008381526020819052604090206108148382611419565b50827f931f495b9a8e5d8e61946ea5d61e021f636cfe213a801f97589c18c152e408bd836040516108459190611235565b60405180910390a2505050565b60008181526002602052604090205481906001600160a01b03166108885760405162461bcd60e51b8152600401610441906112fa565b6000828152600260205260409020546001600160a01b038581169116146109065760405162461bcd60e51b815260206004820152602c60248201527f43726564656e7469616c4e46543a207472616e736665722066726f6d20696e6360448201526b37b93932b1ba1037bbb732b960a11b6064820152608401610441565b6001600160a01b03831661096c5760405162461bcd60e51b815260206004820152602760248201527f43726564656e7469616c4e46543a207472616e7366657220746f207a65726f206044820152666164647265737360c81b6064820152608401610441565b610977848484610e2d565b50505050565b60008181526002602052604090205481906001600160a01b03166109b35760405162461bcd60e51b8152600401610441906112fa565b6000828152600260205260409020546001600160a01b0316338114806109ef57506000838152600360205260409020546001600160a01b031633145b610a535760405162461bcd60e51b815260206004820152602f60248201527f43726564656e7469616c4e46543a2063616c6c6572206973206e6f74206f776e60448201526e195c881b9bdc88185c1c1c9bdd9959608a1b6064820152608401610441565b600083815260026020908152604080832080546001600160a01b0319169055600782528083208390556008825280832083905560098252808320839055908290528120610a9f91610f9d565b6000838152600a60205260408120805460ff191660011790556005805491610ac68361151b565b909155505060405183907fe61b81c6ca7f6642004d3f838f138f0bd8887e15f7986dc8678736943385a3ae90600090a260405183906000906001600160a01b038416907fddf252ad1be2c89b69c2b068fc378daa952ba7f163c4a11628f55a4df523b3ef908390a4505050565b6001600160a01b0382163303610b8b5760405162461bcd60e51b815260206004820181905260248201527f43726564656e7469616c4e46543a20617070726f766520746f2063616c6c65726044820152606401610441565b3360008181526004602090815260408083206001600160a01b03871680855290835292819020805460ff191686151590811790915590519081529192917f17307eab39ab6107e8899845ad3d59bd9653f200f220920489ca2b5937696c31910160405180910390a35050565b60008181526002602052604090205481906001600160a01b0316610c2d5760405162461bcd60e51b8152600401610441906112fa565b6000828152600260205260409020546001600160a01b03163314610c635760405162461bcd60e51b8152600401610441906114d9565b506000908152600a60205260409020805460ff19166001179055565b60008181526002602052604090205460609082906001600160a01b0316610cb85760405162461bcd60e51b8152600401610441906112fa565b60008381526020819052604090208054610cd190611396565b80601f0160208091040260200160405190810160405280929190818152602001828054610cfd90611396565b8015610d4a5780601f10610d1f57610100808354040283529160200191610d4a565b820191906000526020600020905b815481529060010190602001808311610d2d57829003601f168201915b5050505050915050919050565b6000818152600260205260408120546001600160a01b031615801590610d8c57506000828152600a602052604090205460ff16155b8015610dbb57506000828152600960205260409020541580610dbb575060008281526009602052604090205442105b92915050565b6001600160a01b038116600090815260016020908152604091829020805483518184028101840190945280845260609392830182828015610e2157602002820191906000526020600020905b815481526020019060010190808311610e0d575b50505050509050919050565b600081815260036020908152604080832080546001600160a01b0319908116909155600290925290912080549091166001600160a01b038416179055610e738382610ecf565b6001600160a01b0382811660008181526001602081815260408084208054938401815584529083209091018590555184938716917fddf252ad1be2c89b69c2b068fc378daa952ba7f163c4a11628f55a4df523b3ef91a4505050565b6001600160a01b0382166000908152600160205260408120905b81548110156109775782828281548110610f0557610f05611532565b906000526020600020015403610f8b5781548290610f2590600190611548565b81548110610f3557610f35611532565b9060005260206000200154828281548110610f5257610f52611532565b906000526020600020018190555081805480610f7057610f7061155b565b60019003818190600052602060002001600090559055610977565b80610f9581611353565b915050610ee9565b508054610fa990611396565b6000825580601f10610fb9575050565b601f016020900490600052602060002090810190610fd79190610fda565b50565b5b80821115610fef5760008155600101610fdb565b5090565b60006020828403121561100557600080fd5b5035919050565b80356001600160a01b038116811461102357600080fd5b919050565b634e487b7160e01b600052604160045260246000fd5b600082601f83011261104f57600080fd5b813567ffffffffffffffff8082111561106a5761106a611028565b604051601f8301601f19908116603f0116810190828211818310171561109257611092611028565b816040528381528660208588010111156110ab57600080fd5b836020870160208301376000602085830101528094505050505092915050565b600080600080608085870312156110e157600080fd5b6110ea8561100c565b935060208501359250604085013567ffffffffffffffff81111561110d57600080fd5b6111198782880161103e565b949793965093946060013593505050565b6000806040838503121561113d57600080fd5b6111468361100c565b946020939093013593505050565b6000806040838503121561116757600080fd5b82359150602083013567ffffffffffffffff81111561118557600080fd5b6111918582860161103e565b9150509250929050565b6000806000606084860312156111b057600080fd5b6111b98461100c565b92506111c76020850161100c565b9150604084013590509250925092565b6000602082840312156111e957600080fd5b6111f28261100c565b9392505050565b6000806040838503121561120c57600080fd5b6112158361100c565b91506020830135801515811461122a57600080fd5b809150509250929050565b600060208083528351808285015260005b8181101561126257858101830151858201604001528201611246565b506000604082860101526040601f19601f8301168501019250505092915050565b6020808252825182820181905260009190848201906040850190845b818110156112bb5783518352928401929184019160010161129f565b50909695505050505050565b600080604083850312156112da57600080fd5b6112e38361100c565b91506112f16020840161100c565b90509250929050565b60208082526023908201527f43726564656e7469616c4e46543a20746f6b656e20646f6573206e6f742065786040820152621a5cdd60ea1b606082015260800190565b634e487b7160e01b600052601160045260246000fd5b6000600182016113655761136561133d565b5060010190565b8082028115828204841417610dbb57610dbb61133d565b80820180821115610dbb57610dbb61133d565b600181811c908216806113aa57607f821691505b60208210810361046557634e487b7160e01b600052602260045260246000fd5b601f82111561141457600081815260208120601f850160051c810160208610156113f15750805b601f850160051c820191505b81811015611410578281556001016113fd565b5050505b505050565b815167ffffffffffffffff81111561143357611433611028565b611447816114418454611396565b846113ca565b602080601f83116001811461147c57600084156114645750858301515b600019600386901b1c1916600185901b178555611410565b600085815260208120601f198616915b828110156114ab5788860151825594840194600190910190840161148c565b50858210156114c95787850151600019600388901b60f8161c191681555b5050505050600190811b01905550565b60208082526022908201527f43726564656e7469616c4e46543a2063616c6c6572206973206e6f74206f776e60408201526132b960f11b606082015260800190565b60008161152a5761152a61133d565b506000190190565b634e487b7160e01b600052603260045260246000fd5b81810381811115610dbb57610dbb61133d565b634e487b7160e01b600052603160045260246000fdfea2646970667358221220cbb0a3936cb229d3088603e2e62e15ff6a4a2b86bf220207c82cc73776b1626a64736f6c63430008130033",
  "linkReferences": {},
  "deployedLinkReferences": {}
}