{
  "_format": "hh-sol-artifact-1",
  "contractName": "AccessControl",
  "sourceName": "contracts/AccessControl.sol",
  "abi": [
    {
      "inputs": [],
      "stateMutability": "nonpayable",
      "type": "constructor"
    },
    {
      "anonymous": false,
      "inputs": [
        {
          "indexed": true,
          "internalType": "address",
          "name": "previousOwner",
          "type": "address"
        },
        {
          "indexed": true,
          "internalType": "address",
          "name": "newOwner",
          "type": "address"
        }
      ],
      "name": "OwnershipTransferred",
      "type": "event"
    },
    {
      "anonymous": false,
      "inputs": [
        {
          "indexed": true,
          "internalType": "address",
          "name": "account",
          "type": "address"
        }
      ],
      "name": "Paused",
      "type": "event"
    },
    {
      "anonymous": false,
      "inputs": [
        {
          "indexed": true,
          "internalType": "bytes32",
          "name": "role",
          "type": "bytes32"
        },
        {
          "indexed": true,
          "internalType": "bytes32",
          "name": "previousAdminRole",
          "type": "bytes32"
        },
        {
          "indexed": true,
          "internalType": "bytes32",
          "name": "newAdminRole",
          "type": "bytes32"
        }
      ],
      "name": "RoleAdminChanged",
      "type": "event"
    },
    {
      "anonymous": false,
      "inputs": [
        {
          "indexed": true,
          "internalType": "address",
          "name": "account",
          "type": "address"
        },
        {
          "indexed": true,
          "internalType": "bytes32",
          "name": "role",
          "type": "bytes32"
        },
        {
          "indexed": true,
          "internalType": "address",
          "name": "grantor",
          "type": "address"
        }
      ],
      "name": "RoleGranted",
      "type": "event"
    },
    {
      "anonymous": false,
      "inputs": [
        {
          "indexed": true,
          "internalType": "address",
          "name": "account",
          "type": "address"
        },
        {
          "indexed": true,
          "internalType": "bytes32",
          "name": "role",
          "type": "bytes32"
        },
        {
          "indexed": true,
          "internalType": "address",
          "name": "revoker",
          "type": "address"
        }
      ],
      "name": "RoleRevoked",
      "type": "event"
    },
    {
      "anonymous": false,
      "inputs": [
        {
          "indexed": true,
          "internalType": "address",
          "name": "account",
          "type": "address"
        }
      ],
      "name": "Unpaused",
      "type": "event"
    },
    {
      "inputs": [],
      "name": "ADMIN_ROLE",
      "outputs": [
        {
          "internalType": "bytes32",
          "name": "",
          "type": "bytes32"
        }
      ],
      "stateMutability": "view",
      "type": "function"
    },
    {
      "inputs": [],
      "name": "BURNER_ROLE",
      "outputs": [
        {
          "internalType": "bytes32",
          "name": "",
          "type": "bytes32"
        }
      ],
      "stateMutability": "view",
      "type": "function"
    },
    {
      "inputs": [],
      "name": "ISSUER_ROLE",
      "outputs": [
        {
          "internalType": "bytes32",
          "name": "",
          "type": "bytes32"
        }
      ],
      "stateMutability": "view",
      "type": "function"
    },
    {
      "inputs": [],
      "name": "MINTER_ROLE",
      "outputs": [
        {
          "internalType": "bytes32",
          "name": "",
          "type": "bytes32"
        }
      ],
      "stateMutability": "view",
      "type": "function"
    },
    {
      "inputs": [],
      "name": "PAUSER_ROLE",
      "outputs": [
        {
          "internalType": "bytes32",
          "name": "",
          "type": "bytes32"
        }
      ],
      "stateMutability": "view",
      "type": "function"
    },
    {
      "inputs": [],
      "name": "USER_ROLE",
      "outputs": [
        {
          "internalType": "bytes32",
          "name": "",
          "type": "bytes32"
        }
      ],
      "stateMutability": "view",
      "type": "function"
    },
    {
      "inputs": [],
      "name": "VERIFIER_ROLE",
      "outputs": [
        {
          "internalType": "bytes32",
          "name": "",
          "type": "bytes32"
        }
      ],
      "stateMutability": "view",
      "type": "function"
    },
    {
      "inputs": [
        {
          "internalType": "address",
          "name": "_account",
          "type": "address"
        },
        {
          "internalType": "bytes32",
          "name": "_role",
          "type": "bytes32"
        }
      ],
      "name": "checkRole",
      "outputs": [
        {
          "internalType": "bool",
          "name": "",
          "type": "bool"
        }
      ],
      "stateMutability": "view",
      "type": "function"
    },
    {
      "inputs": [],
      "name": "emergencyPause",
      "outputs": [],
      "stateMutability": "nonpayable",
      "type": "function"
    },
    {
      "inputs": [],
      "name": "emergencyUnpause",
      "outputs": [],
      "stateMutability": "nonpayable",
      "type": "function"
    },
    {
      "inputs": [],
      "name": "getOwner",
      "outputs": [
        {
          "internalType": "address",
          "name": "",
          "type": "address"
        }
      ],
      "stateMutability": "view",
      "type": "function"
    },
    {
      "inputs": [],
      "name": "getRoleGrantCount",
      "outputs": [
        {
          "internalType": "uint256",
          "name": "",
          "type": "uint256"
        }
      ],
      "stateMutability": "view",
      "type": "function"
    },
    {
      "inputs": [
        {
          "internalType": "bytes32",
          "name": "_role",
          "type": "bytes32"
        }
      ],
      "name": "getRoleListLength",
      "outputs": [
        {
          "internalType": "uint256",
          "name": "",
          "type": "uint256"
        }
      ],
      "stateMutability": "view",
      "type": "function"
    },
    {
      "inputs": [
        {
          "internalType": "bytes32",
          "name": "_role",
          "type": "bytes32"
        },
        {
          "internalType": "uint256",
          "name": "_index",
          "type": "uint256"
        }
      ],
      "name": "getRoleMember",
      "outputs": [
        {
          "internalType": "address",
          "name": "",
          "type": "address"
        }
      ],
      "stateMutability": "view",
      "type": "function"
    },
    {
      "inputs": [
        {
          "internalType": "bytes32",
          "name": "_role",
          "type": "bytes32"
        }
      ],
      "name": "getRoleMemberCount",
      "outputs": [
        {
          "internalType": "uint256",
          "name": "",
          "type": "uint256"
        }
      ],
      "stateMutability": "view",
      "type": "function"
    },
    {
      "inputs": [],
      "name": "getRoleRevokeCount",
      "outputs": [
        {
          "internalType": "uint256",
          "name": "",
          "type": "uint256"
        }
      ],
      "stateMutability": "view",
      "type": "function"
    },
    {
      "inputs": [
        {
          "internalType": "address",
          "name": "_account",
          "type": "address"
        }
      ],
      "name": "getUserRoleCount",
      "outputs": [
        {
          "internalType": "uint256",
          "name": "",
          "type": "uint256"
        }
      ],
      "stateMutability": "view",
      "type": "function"
    },
    {
      "inputs": [
        {
          "internalType": "address",
          "name": "_account",
          "type": "address"
        }
      ],
      "name": "getUserRoles",
      "outputs": [
        {
          "internalType": "bytes32[]",
          "name": "",
          "type": "bytes32[]"
        }
      ],
      "stateMutability": "view",
      "type": "function"
    },
    {
      "inputs": [
        {
          "internalType": "address",
          "name": "_account",
          "type": "address"
        },
        {
          "internalType": "bytes32",
          "name": "_role",
          "type": "bytes32"
        }
      ],
      "name": "grantRole",
      "outputs": [],
      "stateMutability": "nonpayable",
      "type": "function"
    },
    {
      "inputs": [
        {
          "internalType": "address[]",
          "name": "_accounts",
          "type": "address[]"
        },
        {
          "internalType": "bytes32[]",
          "name": "_roles",
          "type": "bytes32[]"
        }
      ],
      "name": "grantRoles",
      "outputs": [],
      "stateMutability": "nonpayable",
      "type": "function"
    },
    {
      "inputs": [],
      "name": "isPaused",
      "outputs": [
        {
          "internalType": "bool",
          "name": "",
          "type": "bool"
        }
      ],
      "stateMutability": "view",
      "type": "function"
    },
    {
      "inputs": [],
      "name": "owner",
      "outputs": [
        {
          "internalType": "address",
          "name": "",
          "type": "address"
        }
      ],
      "stateMutability": "view",
      "type": "function"
    },
    {
      "inputs": [],
      "name": "pause",
      "outputs": [],
      "stateMutability": "nonpayable",
      "type": "function"
    },
    {
      "inputs": [],
      "name": "paused",
      "outputs": [
        {
          "internalType": "bool",
          "name": "",
          "type": "bool"
        }
      ],
      "stateMutability": "view",
      "type": "function"
    },
    {
      "inputs": [
        {
          "internalType": "bytes32",
          "name": "_role",
          "type": "bytes32"
        }
      ],
      "name": "renounceRole",
      "outputs": [],
      "stateMutability": "nonpayable",
      "type": "function"
    },
    {
      "inputs": [
        {
          "internalType": "address",
          "name": "_account",
          "type": "address"
        },
        {
          "internalType": "bytes32",
          "name": "_role",
          "type": "bytes32"
        }
      ],
      "name": "revokeRole",
      "outputs": [],
      "stateMutability": "nonpayable",
      "type": "function"
    },
    {
      "inputs": [
        {
          "internalType": "address[]",
          "name": "_accounts",
          "type": "address[]"
        },
        {
          "internalType": "bytes32[]",
          "name": "_roles",
          "type": "bytes32[]"
        }
      ],
      "name": "revokeRoles",
      "outputs": [],
      "stateMutability": "nonpayable",
      "type": "function"
    },
    {
      "inputs": [],
      "name": "roleGrantCount",
      "outputs": [
        {
          "internalType": "uint256",
          "name": "",
          "type": "uint256"
        }
      ],
      "stateMutability": "view",
      "type": "function"
    },
    {
      "inputs": [
        {
          "internalType": "bytes32",
          "name": "",
          "type": "bytes32"
        },
        {
          "internalType": "uint256",
          "name": "",
          "type": "uint256"
        }
      ],
      "name": "roleMembers",
      "outputs": [
        {
          "internalType": "address",
          "name": "",
          "type": "address"
        }
      ],
      "stateMutability": "view",
      "type": "function"
    },
    {
      "inputs": [],
      "name": "roleRevokeCount",
      "outputs": [
        {
          "internalType": "uint256",
          "name": "",
          "type": "uint256"
        }
      ],
      "stateMutability": "view",
      "type": "function"
    },
    {
      "inputs": [
        {
          "internalType": "address",
          "name": "",
          "type": "address"
        },
        {
          "internalType": "bytes32",
          "name": "",
          "type": "bytes32"
        }
      ],
      "name": "roles",
      "outputs": [
        {
          "internalType": "bool",
          "name": "",
          "type": "bool"
        }
      ],
      "stateMutability": "view",
      "type": "function"
    },
    {
      "inputs": [
        {
          "internalType": "address",
          "name": "newOwner",
          "type": "address"
        }
      ],
      "name": "transferOwnership",
      "outputs": [],
      "stateMutability": "nonpayable",
      "type": "function"
    },
    {
      "inputs": [],
      "name": "unpause",
      "outputs": [],
      "stateMutability": "nonpayable",
      "type": "function"
    },
    {
      "inputs": [
        {
          "internalType": "address",
          "name": "",
          "type": "address"
        },
        {
          "internalType": "uint256",
          "name": "",
          "type": "uint256"
        }
      ],
      "name": "userRoles",
      "outputs": [
        {
          "internalType": "bytes32",
          "name": "",
          "type": "bytes32"
        }
      ],
      "stateMutability": "view",
      "type": "function"
    }
  ],
  "bytecode": "0x60806040526003805460ff191690556000600481905560055534801561002457600080fd5b5060038054610100600160a81b0319163361010081029190911790915561006b907fa49807205ce4d355092ef5a8a18f56e8913cf4a201fbe287825b095693c21775610070565b61017d565b6001600160a01b03821660009081526020818152604080832084845290915290205460ff16610152576001600160a01b0382166000818152602081815260408083208584528252808320805460ff19166001908117909155808352818420805480830182559085528385200180546001600160a01b031916861790559383526002825282208054938401815582528120909101829055600580549161011483610156565b9091555050604051339082906001600160a01b038516907f2739f947da5133134a8e9c6a84d5ed6da396844d81b4a760121c8b9c668bdf9c90600090a45b5050565b60006001820161017657634e487b7160e01b600052601160045260246000fd5b5060010190565b61106f8061018c6000396000f3fe608060405234801561001057600080fd5b50600436106102065760003560e01c80637f5281551161011a578063ab2742dc116100ad578063d53913931161007c578063d539139314610472578063da90411114610499578063e63ab1e9146104c4578063e7705db6146104eb578063f2fde38b1461051257600080fd5b8063ab2742dc14610441578063b187bd2614610454578063b1cfaa861461045f578063ca15c8731461024957600080fd5b80638bb9c5bf116100e95780638bb9c5bf146103fb5780638da5cb5b1461040e5780639010d07c1461042657806393b1e5851461043957600080fd5b80637f5281551461038b57806382aefa24146103b65780638456cb59146103dd578063893d20e8146103e557600080fd5b80632ae8a7e31161019d5780635739d8411161016c5780635739d8411461032e5780635a9be762146103575780635c975abb146103605780636a8d73411461036d57806375b238fc1461037657600080fd5b80632ae8a7e3146102f35780633f4ba83a146103165780634a4e3bd51461031e57806351858e271461032657600080fd5b806313119161116101d9578063131191611461028a578063208dd1ff146102b157806324dfb984146102c4578063282c51f3146102cc57600080fd5b806306a36aee1461020b5780630b29f422146102345780630c6486af146102495780630dbb492914610277575b600080fd5b61021e610219366004610dd5565b610525565b60405161022b9190610df0565b60405180910390f35b610247610242366004610e80565b610591565b005b610269610257366004610eec565b60009081526001602052604090205490565b60405190815260200161022b565b610269610285366004610f05565b610654565b6102697f14823911f2da1b49f045a0929a60b8c1f2a7fc8c06c7284ca3e8ab4e193a08c881565b6102476102bf366004610f05565b610685565b600554610269565b6102697f3c11d16cbaffd01df69ce1c404f6340ee057498f5f00246190ea54220576a84881565b610306610301366004610f05565b6106c2565b604051901515815260200161022b565b6102476106d5565b61024761079b565b6102476107ca565b61026961033c366004610dd5565b6001600160a01b031660009081526002602052604090205490565b61026960045481565b6003546103069060ff1681565b61026960055481565b61026960008051602061101a83398151915281565b61039e610399366004610f2f565b610833565b6040516001600160a01b03909116815260200161022b565b6102697f114e74f6ea3bd819998f78687bfcb11b140da08e9b7d222fa9c1f1ba1f2aa12281565b61024761086b565b60035461010090046001600160a01b031661039e565b610247610409366004610eec565b6108f7565b60035461039e9061010090046001600160a01b031681565b61039e610434366004610f2f565b610904565b600454610269565b61024761044f366004610f05565b6109ae565b60035460ff16610306565b61024761046d366004610e80565b6109e7565b6102697f9f2df0fed2c77648de5860a4cc508cd0818c85b8b8a1ab4ceeef8d981c8956a681565b6103066104a7366004610f05565b600060208181529281526040808220909352908152205460ff1681565b6102697f65d7a28e3265b37a6474929f336521b332c1681b933f6cb9f3376673440d862a81565b6102697f0ce23c3e399818cfee81a7ab0880f714e53d7672b08df0fa62f2843416e1ea0981565b610247610520366004610dd5565b610a9a565b6001600160a01b03811660009081526002602090815260409182902080548351818402810184019094528084526060939283018282801561058557602002820191906000526020600020905b815481526020019060010190808311610571575b50505050509050919050565b60035461010090046001600160a01b031633146105c95760405162461bcd60e51b81526004016105c090610f51565b60405180910390fd5b8281146105e85760405162461bcd60e51b81526004016105c090610f97565b60005b8381101561064d5761063b85858381811061060857610608610fdc565b905060200201602081019061061d9190610dd5565b84848481811061062f5761062f610fdc565b90506020020135610bd1565b8061064581610ff2565b9150506105eb565b5050505050565b6002602052816000526040600020818154811061067057600080fd5b90600052602060002001600091509150505481565b60035461010090046001600160a01b031633146106b45760405162461bcd60e51b81526004016105c090610f51565b6106be8282610bd1565b5050565b60006106ce8383610c73565b9392505050565b60035461010090046001600160a01b031633146107045760405162461bcd60e51b81526004016105c090610f51565b60035460ff166107645760405162461bcd60e51b815260206004820152602560248201527f416363657373436f6e74726f6c3a20636f6e7472616374206973206e6f742070604482015264185d5cd95960da1b60648201526084016105c0565b6003805460ff1916905560405133907f5db9ee0a495bf2e6ff9c91a7834c1ba4fdd244a5e8aa4e537bd38aeae4b073aa90600090a2565b60035461010090046001600160a01b031633146107645760405162461bcd60e51b81526004016105c090610f51565b60035461010090046001600160a01b031633146107f95760405162461bcd60e51b81526004016105c090610f51565b6003805460ff1916600117905560405133907f62e78cea01bee320cd4e420270b5ea74000d11b0c9f74754ebdbfc544b05a25890600090a2565b6001602052816000526040600020818154811061084f57600080fd5b6000918252602090912001546001600160a01b03169150829050565b60035461010090046001600160a01b0316331461089a5760405162461bcd60e51b81526004016105c090610f51565b60035460ff16156107f95760405162461bcd60e51b815260206004820152602160248201527f416363657373436f6e74726f6c3a20636f6e74726163742069732070617573656044820152601960fa1b60648201526084016105c0565b6109013382610bd1565b50565b60008281526001602052604081205482106109725760405162461bcd60e51b815260206004820152602860248201527f416363657373436f6e74726f6c3a20696e76616c696420726f6c65206d656d626044820152670cae440d2dcc8caf60c31b60648201526084016105c0565b600083815260016020526040902080548390811061099257610992610fdc565b6000918252602090912001546001600160a01b03169392505050565b60035461010090046001600160a01b031633146109dd5760405162461bcd60e51b81526004016105c090610f51565b6106be8282610cd4565b60035461010090046001600160a01b03163314610a165760405162461bcd60e51b81526004016105c090610f51565b828114610a355760405162461bcd60e51b81526004016105c090610f97565b60005b8381101561064d57610a88858583818110610a5557610a55610fdc565b9050602002016020810190610a6a9190610dd5565b848484818110610a7c57610a7c610fdc565b90506020020135610cd4565b80610a9281610ff2565b915050610a38565b60035461010090046001600160a01b03163314610ac95760405162461bcd60e51b81526004016105c090610f51565b6001600160a01b038116610b345760405162461bcd60e51b815260206004820152602c60248201527f416363657373436f6e74726f6c3a206e6577206f776e6572206973207468652060448201526b7a65726f206164647265737360a01b60648201526084016105c0565b600380546001600160a01b03838116610100908102610100600160a81b031984161790935591900416610b758160008051602061101a833981519152610bd1565b610b8d8260008051602061101a833981519152610cd4565b816001600160a01b0316816001600160a01b03167f8be0079c531659141344cd1fd0a4f28419497f9722a3daafe3b4186f6b6457e060405160405180910390a35050565b6001600160a01b03821660009081526020818152604080832084845290915290205460ff16156106be576001600160a01b0382166000908152602081815260408083208484529091528120805460ff191690556004805491610c3283610ff2565b9091555050604051339082906001600160a01b038516907f8fa769283732af9aa4f65d966aceb1295944e96fcdd7031699b47da23286d28590600090a45050565b6001600160a01b03821660009081526020818152604080832084845290915281205460ff16806106ce575060008051602061101a833981519152821480156106ce57506003546001600160a01b038481166101009092041614905092915050565b6001600160a01b03821660009081526020818152604080832084845290915290205460ff166106be576001600160a01b0382166000818152602081815260408083208584528252808320805460ff19166001908117909155808352818420805480830182559085528385200180546001600160a01b0319168617905593835260028252822080549384018155825281209091018290556005805491610d7883610ff2565b9091555050604051339082906001600160a01b038516907f2739f947da5133134a8e9c6a84d5ed6da396844d81b4a760121c8b9c668bdf9c90600090a45050565b80356001600160a01b0381168114610dd057600080fd5b919050565b600060208284031215610de757600080fd5b6106ce82610db9565b6020808252825182820181905260009190848201906040850190845b81811015610e2857835183529284019291840191600101610e0c565b50909695505050505050565b60008083601f840112610e4657600080fd5b50813567ffffffffffffffff811115610e5e57600080fd5b6020830191508360208260051b8501011115610e7957600080fd5b9250929050565b60008060008060408587031215610e9657600080fd5b843567ffffffffffffffff80821115610eae57600080fd5b610eba88838901610e34565b90965094506020870135915080821115610ed357600080fd5b50610ee087828801610e34565b95989497509550505050565b600060208284031215610efe57600080fd5b5035919050565b60008060408385031215610f1857600080fd5b610f2183610db9565b946020939093013593505050565b60008060408385031215610f4257600080fd5b50508035926020909101359150565b60208082526026908201527f416363657373436f6e74726f6c3a2063616c6c6572206973206e6f74207468656040820152651037bbb732b960d11b606082015260800190565b60208082526025908201527f416363657373436f6e74726f6c3a20617272617973206c656e677468206d69736040820152640dac2e8c6d60db1b606082015260800190565b634e487b7160e01b600052603260045260246000fd5b60006001820161101257634e487b7160e01b600052601160045260246000fd5b506001019056fea49807205ce4d355092ef5a8a18f56e8913cf4a201fbe287825b095693c21775a264697066735822122037cd9ed53f4d5a4e420c3d45e85a84e8e7e45969a52d41334cca7fb6326052c664736f6c63430008130033",
  "linkReferences": {},
  "deployedLinkReferences": {}
}