{
  "_format": "hh-sol-artifact-1",
  "contractName": "RateLimiter",
  "sourceName": "contracts/RateLimiter.sol",
  "abi": [
    {
      "inputs": [
        {
          "internalType": "uint256",
          "name": "_globalMaxRequests",
          "type": "uint256"
        },
        {
          "internalType": "uint256",
          "name": "_globalTimeWindow",
          "type": "uint256"
        }
      ],
      "stateMutability": "nonpayable",
      "type": "constructor"
    },
    {
      "anonymous": false,
      "inputs": [
        {
          "indexed": false,
          "internalType": "uint256",
          "name": "maxRequests",
          "type": "uint256"
        },
        {
          "indexed": false,
          "internalType": "uint256",
          "name": "timeWindow",
          "type": "uint256"
        }
      ],
      "name": "GlobalLimitUpdated",
      "type": "event"
    },
    {
      "anonymous": false,
      "inputs": [
        {
          "indexed": true,
          "internalType": "address",
          "name": "user",
          "type": "address"
        },
        {
          "indexed": false,
          "internalType": "uint256",
          "name": "maxRequests",
          "type": "uint256"
        },
        {
          "indexed": false,
          "internalType": "uint256",
          "name": "timeWindow",
          "type": "uint256"
        }
      ],
      "name": "RateLimitSet",
      "type": "event"
    },
    {
      "anonymous": false,
      "inputs": [
        {
          "indexed": true,
          "internalType": "address",
          "name": "user",
          "type": "address"
        },
        {
          "indexed": false,
          "internalType": "uint256",
          "name": "currentCount",
          "type": "uint256"
        }
      ],
      "name": "RequestAllowed",
      "type": "event"
    },
    {
      "anonymous": false,
      "inputs": [
        {
          "indexed": true,
          "internalType": "address",
          "name": "user",
          "type": "address"
        },
        {
          "indexed": false,
          "internalType": "uint256",
          "name": "currentCount",
          "type": "uint256"
        },
        {
          "indexed": false,
          "internalType": "string",
          "name": "reason",
          "type": "string"
        }
      ],
      "name": "RequestBlocked",
      "type": "event"
    },
    {
      "anonymous": false,
      "inputs": [
        {
          "indexed": true,
          "internalType": "address",
          "name": "user",
          "type": "address"
        }
      ],
      "name": "UserBlacklisted",
      "type": "event"
    },
    {
      "anonymous": false,
      "inputs": [
        {
          "indexed": true,
          "internalType": "address",
          "name": "user",
          "type": "address"
        }
      ],
      "name": "UserWhitelisted",
      "type": "event"
    },
    {
      "inputs": [
        {
          "internalType": "address",
          "name": "_user",
          "type": "address"
        }
      ],
      "name": "activateUserLimit",
      "outputs": [],
      "stateMutability": "nonpayable",
      "type": "function"
    },
    {
      "inputs": [],
      "name": "admin",
      "outputs": [
        {
          "internalType": "address",
          "name": "",
          "type": "address"
        }
      ],
      "stateMutability": "view",
      "type": "function"
    },
    {
      "inputs": [
        {
          "internalType": "address[]",
          "name": "_users",
          "type": "address[]"
        }
      ],
      "name": "batchCheck",
      "outputs": [
        {
          "internalType": "bool[]",
          "name": "",
          "type": "bool[]"
        }
      ],
      "stateMutability": "nonpayable",
      "type": "function"
    },
    {
      "inputs": [
        {
          "internalType": "address",
          "name": "_user",
          "type": "address"
        }
      ],
      "name": "checkAndRecordRequest",
      "outputs": [
        {
          "internalType": "bool",
          "name": "",
          "type": "bool"
        }
      ],
      "stateMutability": "nonpayable",
      "type": "function"
    },
    {
      "inputs": [
        {
          "internalType": "address",
          "name": "_user",
          "type": "address"
        }
      ],
      "name": "deactivateUserLimit",
      "outputs": [],
      "stateMutability": "nonpayable",
      "type": "function"
    },
    {
      "inputs": [],
      "name": "getGlobalLimitStatus",
      "outputs": [
        {
          "internalType": "uint256",
          "name": "currentRequests",
          "type": "uint256"
        },
        {
          "internalType": "uint256",
          "name": "maxRequests",
          "type": "uint256"
        },
        {
          "internalType": "uint256",
          "name": "timeRemaining",
          "type": "uint256"
        }
      ],
      "stateMutability": "view",
      "type": "function"
    },
    {
      "inputs": [
        {
          "internalType": "address",
          "name": "_user",
          "type": "address"
        },
        {
          "internalType": "uint256",
          "name": "_since",
          "type": "uint256"
        }
      ],
      "name": "getRecentRequestCount",
      "outputs": [
        {
          "internalType": "uint256",
          "name": "",
          "type": "uint256"
        }
      ],
      "stateMutability": "view",
      "type": "function"
    },
    {
      "inputs": [
        {
          "internalType": "address",
          "name": "_user",
          "type": "address"
        }
      ],
      "name": "getUserLimitStatus",
      "outputs": [
        {
          "internalType": "uint256",
          "name": "currentRequests",
          "type": "uint256"
        },
        {
          "internalType": "uint256",
          "name": "maxRequests",
          "type": "uint256"
        },
        {
          "internalType": "uint256",
          "name": "timeRemaining",
          "type": "uint256"
        },
        {
          "internalType": "bool",
          "name": "isActive",
          "type": "bool"
        }
      ],
      "stateMutability": "view",
      "type": "function"
    },
    {
      "inputs": [
        {
          "internalType": "address",
          "name": "_user",
          "type": "address"
        }
      ],
      "name": "getUserRequestCount",
      "outputs": [
        {
          "internalType": "uint256",
          "name": "",
          "type": "uint256"
        }
      ],
      "stateMutability": "view",
      "type": "function"
    },
    {
      "inputs": [
        {
          "internalType": "address",
          "name": "_user",
          "type": "address"
        },
        {
          "internalType": "uint256",
          "name": "_count",
          "type": "uint256"
        }
      ],
      "name": "getUserTimestamps",
      "outputs": [
        {
          "internalType": "uint256[]",
          "name": "",
          "type": "uint256[]"
        }
      ],
      "stateMutability": "view",
      "type": "function"
    },
    {
      "inputs": [],
      "name": "globalCurrentRequests",
      "outputs": [
        {
          "internalType": "uint256",
          "name": "",
          "type": "uint256"
        }
      ],
      "stateMutability": "view",
      "type": "function"
    },
    {
      "inputs": [],
      "name": "globalMaxRequests",
      "outputs": [
        {
          "internalType": "uint256",
          "name": "",
          "type": "uint256"
        }
      ],
      "stateMutability": "view",
      "type": "function"
    },
    {
      "inputs": [],
      "name": "globalTimeWindow",
      "outputs": [
        {
          "internalType": "uint256",
          "name": "",
          "type": "uint256"
        }
      ],
      "stateMutability": "view",
      "type": "function"
    },
    {
      "inputs": [],
      "name": "globalWindowStart",
      "outputs": [
        {
          "internalType": "uint256",
          "name": "",
          "type": "uint256"
        }
      ],
      "stateMutability": "view",
      "type": "function"
    },
    {
      "inputs": [
        {
          "internalType": "address",
          "name": "_user",
          "type": "address"
        }
      ],
      "name": "isRateLimited",
      "outputs": [
        {
          "internalType": "bool",
          "name": "",
          "type": "bool"
        }
      ],
      "stateMutability": "view",
      "type": "function"
    },
    {
      "inputs": [
        {
          "internalType": "address",
          "name": "_user",
          "type": "address"
        }
      ],
      "name": "resetUserLimit",
      "outputs": [],
      "stateMutability": "nonpayable",
      "type": "function"
    },
    {
      "inputs": [
        {
          "internalType": "address",
          "name": "_user",
          "type": "address"
        },
        {
          "internalType": "uint256",
          "name": "_maxRequests",
          "type": "uint256"
        },
        {
          "internalType": "uint256",
          "name": "_timeWindow",
          "type": "uint256"
        }
      ],
      "name": "setUserRateLimit",
      "outputs": [],
      "stateMutability": "nonpayable",
      "type": "function"
    },
    {
      "inputs": [
        {
          "internalType": "address",
          "name": "newAdmin",
          "type": "address"
        }
      ],
      "name": "transferAdmin",
      "outputs": [],
      "stateMutability": "nonpayable",
      "type": "function"
    },
    {
      "inputs": [
        {
          "internalType": "uint256",
          "name": "_maxRequests",
          "type": "uint256"
        },
        {
          "internalType": "uint256",
          "name": "_timeWindow",
          "type": "uint256"
        }
      ],
      "name": "updateGlobalLimit",
      "outputs": [],
      "stateMutability": "nonpayable",
      "type": "function"
    },
    {
      "inputs": [
        {
          "internalType": "address",
          "name": "",
          "type": "address"
        }
      ],
      "name": "userLimits",
      "outputs": [
        {
          "internalType": "uint256",
          "name": "maxRequests",
          "type": "uint256"
        },
        {
          "internalType": "uint256",
          "name": "timeWindow",
          "type": "uint256"
        },
        {
          "internalType": "uint256",
          "name": "currentRequests",
          "type": "uint256"
        },
        {
          "internalType": "uint256",
          "name": "windowStart",
          "type": "uint256"
        },
        {
          "internalType": "bool",
          "name": "isActive",
          "type": "bool"
        }
      ],
      "stateMutability": "view",
      "type": "function"
    },
    {
      "inputs": [
        {
          "internalType": "address",
          "name": "",
          "type": "address"
        }
      ],
      "name": "userRequestCounts",
      "outputs": [
        {
          "internalType": "uint256",
          "name": "",
          "type": "uint256"
        }
      ],
      "stateMutability": "view",
      "type": "function"
    },
    {
      "inputs": [
        {
          "internalType": "address",
          "name": "",
          "type": "address"
        },
        {
          "internalType": "uint256",
          "name": "",
          "type": "uint256"
        }
      ],
      "name": "userRequestTimestamps",
      "outputs": [
        {
          "internalType": "uint256",
          "name": "",
          "type": "uint256"
        }
      ],
      "stateMutability": "view",
      "type": "function"
    }
  ],
  "bytecode": "0x608060405234801561001057600080fd5b5060405161124838038061124883398101604081905261002f91610102565b6000821161008e5760405162461bcd60e51b815260206004820152602160248201527f526174654c696d697465723a20696e76616c6964206d617820726571756573746044820152607360f81b60648201526084015b60405180910390fd5b600081116100de5760405162461bcd60e51b815260206004820181905260248201527f526174654c696d697465723a20696e76616c69642074696d652077696e646f776044820152606401610085565b600380546001600160a01b0319163317905560049190915560055542600755610126565b6000806040838503121561011557600080fd5b505080516020909101519092909150565b611113806101356000396000f3fe608060405234801561001057600080fd5b50600436106101405760003560e01c80635f640e42116100b8578063ba8237c41161007c578063ba8237c41461032e578063bbd2275d14610351578063c166c45814610364578063d14bf2bf1461038d578063ec179e8e146103a0578063f851a440146103b357600080fd5b80635f640e42146102b457806375829def146102c757806378f87348146102da5780638522e51a146102e357806396a323af1461030357600080fd5b80632a0200bb1161010a5780632a0200bb146101e25780632c1bc2b2146101eb57806337f1836c1461025557806338ae48e9146102755780634b7bed8b14610288578063543dbaac146102ab57600080fd5b806245062a14610145578062ae047c1461016e5780631b7bd2b81461018f57806326638b90146101a457806329e88501146101ad575b600080fd5b610158610153366004610e27565b6103de565b6040516101659190610e9c565b60405180910390f35b61018161017c366004610efe565b61052f565b604051908152602001610165565b6101a261019d366004610f28565b61059e565b005b61018160065481565b6101c06101bb366004610f5b565b610744565b6040805194855260208501939093529183015215156060820152608001610165565b61018160055481565b61022b6101f9366004610f5b565b600060208190529081526040902080546001820154600283015460038401546004909401549293919290919060ff1685565b6040805195865260208601949094529284019190915260608301521515608082015260a001610165565b610181610263366004610f5b565b60026020526000908152604090205481565b6101a2610283366004610f5b565b6107bf565b610290610810565b60408051938452602084019290925290820152606001610165565b61018160075481565b6101a26102c2366004610f5b565b610860565b6101a26102d5366004610f5b565b6108b2565b61018160045481565b6102f66102f1366004610efe565b610954565b6040516101659190610f7d565b610181610311366004610efe565b600160209081526000928352604080842090915290825290205481565b61034161033c366004610f5b565b610a06565b6040519015158152602001610165565b6101a261035f366004610f5b565b610aa3565b610181610372366004610f5b565b6001600160a01b031660009081526002602052604090205490565b61034161039b366004610f5b565b610af1565b6101a26103ae366004610fb5565b610b50565b6003546103c6906001600160a01b031681565b6040516001600160a01b039091168152602001610165565b606060008267ffffffffffffffff8111156103fb576103fb610fd7565b604051908082528060200260200182016040528015610424578160200160208202803683370190505b50905060005b83811015610525573063ba8237c486868481811061044a5761044a610fed565b905060200201602081019061045f9190610f5b565b6040516001600160e01b031960e084901b1681526001600160a01b0390911660048201526024016020604051808303816000875af19250505080156104c1575060408051601f3d908101601f191682019092526104be91810190611003565b60015b6104ee5760008282815181106104d9576104d9610fed565b91151560209283029190910190910152610513565b8083838151811061050157610501610fed565b91151560209283029190910190910152505b8061051d8161103b565b91505061042a565b5090505b92915050565b60008060015b6001600160a01b0385166000908152600260205260409020548111610525576001600160a01b0385166000908152600160209081526040808320848452909152902054841161058c57816105888161103b565b9250505b806105968161103b565b915050610535565b6003546001600160a01b031633146105d15760405162461bcd60e51b81526004016105c890611054565b60405180910390fd5b6001600160a01b0383166106275760405162461bcd60e51b815260206004820152601960248201527f526174654c696d697465723a20696e76616c696420757365720000000000000060448201526064016105c8565b600082116106475760405162461bcd60e51b81526004016105c890611089565b600081116106975760405162461bcd60e51b815260206004820181905260248201527f526174654c696d697465723a20696e76616c69642074696d652077696e646f7760448201526064016105c8565b6040805160a0810182528381526020808201848152600083850181815242606086019081526001608087018181526001600160a01b038c1680865285885294899020975188559451908701559051600286015551600385015590516004909301805460ff191693151593909317909255825185815290810184905290917f10345df3b9cfab7e87d4e163cf65dea3d884ce6d5092969c68702573b179b27d910160405180910390a2505050565b6001600160a01b03811660009081526020819052604081206001810154600382015483928392839283919061077990426110ca565b10156107a057600382015461078e90426110ca565b826001015461079d91906110ca565b90505b60028201548254600490930154909892975090955060ff169350915050565b6003546001600160a01b031633146107e95760405162461bcd60e51b81526004016105c890611054565b6001600160a01b03166000908152602081905260409020600401805460ff19166001179055565b600080600080600090506005546007544261082b91906110ca565b101561084e5760075461083e90426110ca565b60055461084b91906110ca565b90505b60065460045490959094509092509050565b6003546001600160a01b0316331461088a5760405162461bcd60e51b81526004016105c890611054565b6001600160a01b03166000908152602081905260408120600281019190915542600390910155565b6003546001600160a01b031633146108dc5760405162461bcd60e51b81526004016105c890611054565b6001600160a01b0381166109325760405162461bcd60e51b815260206004820152601a60248201527f526174654c696d697465723a20696e76616c69642061646d696e00000000000060448201526064016105c8565b600380546001600160a01b0319166001600160a01b0392909216919091179055565b606060008267ffffffffffffffff81111561097157610971610fd7565b60405190808252806020026020018201604052801561099a578160200160208202803683370190505b50905060015b838111610525576001600160a01b0385166000908152600160208181526040808420858552909152909120549083906109d990846110ca565b815181106109e9576109e9610fed565b6020908102919091010152806109fe8161103b565b9150506109a0565b6000610a10610c31565b6001600160a01b03821660009081526020819052604090206004015460ff1615610a3d57610a3d82610cb0565b610a4682610d3d565b610a4e610df0565b6001600160a01b0382166000818152600260209081526040918290205491519182527fc7c54d18fbba7b073f950d9ec264f66e19315ed77207d2fd33e29e948b26c0ad910160405180910390a2506001919050565b6003546001600160a01b03163314610acd5760405162461bcd60e51b81526004016105c890611054565b6001600160a01b03166000908152602081905260409020600401805460ff19169055565b6001600160a01b0381166000908152602081905260408120600481015460ff16610b1e5750600092915050565b60018101546003820154610b3290426110ca565b10610b405750600092915050565b8054600290910154101592915050565b6003546001600160a01b03163314610b7a5760405162461bcd60e51b81526004016105c890611054565b60008211610b9a5760405162461bcd60e51b81526004016105c890611089565b60008111610bea5760405162461bcd60e51b815260206004820181905260248201527f526174654c696d697465723a20696e76616c69642074696d652077696e646f7760448201526064016105c8565b6004829055600581905560408051838152602081018390527f36eb9e9692da0306168138c0321919c150142c93694f3fa952499fb1a4ed4949910160405180910390a15050565b600554600754610c4190426110ca565b10610c50576000600655426007555b60045460065410610cae5760405162461bcd60e51b815260206004820152602260248201527f526174654c696d697465723a20676c6f62616c206c696d697420657863656564604482015261195960f21b60648201526084016105c8565b565b6001600160a01b038116600090815260208190526040902060018101546003820154610cdc90426110ca565b10610ce5575050565b8054600282015410610d395760405162461bcd60e51b815260206004820181905260248201527f526174654c696d697465723a2075736572206c696d697420657863656564656460448201526064016105c8565b5050565b6001600160a01b038116600090815260208190526040902060018101546003820154610d6990426110ca565b10610d805760016002820155426003820155610d98565b600281018054906000610d928361103b565b91905055505b6001600160a01b0382166000908152600260205260408120805491610dbc8361103b565b9091555050506001600160a01b03166000908152600160209081526040808320600283528184205484529091529020429055565b600554600754610e0090426110ca565b10610e1057600160065542600755565b60068054906000610e208361103b565b9190505550565b60008060208385031215610e3a57600080fd5b823567ffffffffffffffff80821115610e5257600080fd5b818501915085601f830112610e6657600080fd5b813581811115610e7557600080fd5b8660208260051b8501011115610e8a57600080fd5b60209290920196919550909350505050565b6020808252825182820181905260009190848201906040850190845b81811015610ed6578351151583529284019291840191600101610eb8565b50909695505050505050565b80356001600160a01b0381168114610ef957600080fd5b919050565b60008060408385031215610f1157600080fd5b610f1a83610ee2565b946020939093013593505050565b600080600060608486031215610f3d57600080fd5b610f4684610ee2565b95602085013595506040909401359392505050565b600060208284031215610f6d57600080fd5b610f7682610ee2565b9392505050565b6020808252825182820181905260009190848201906040850190845b81811015610ed657835183529284019291840191600101610f99565b60008060408385031215610fc857600080fd5b50508035926020909101359150565b634e487b7160e01b600052604160045260246000fd5b634e487b7160e01b600052603260045260246000fd5b60006020828403121561101557600080fd5b81518015158114610f7657600080fd5b634e487b7160e01b600052601160045260246000fd5b60006001820161104d5761104d611025565b5060010190565b6020808252818101527f526174654c696d697465723a2063616c6c6572206973206e6f742061646d696e604082015260600190565b60208082526021908201527f526174654c696d697465723a20696e76616c6964206d617820726571756573746040820152607360f81b606082015260800190565b818103818111156105295761052961102556fea26469706673582212208536183de6df2bbb5dd734cdde08ba9639aa4cde4fdfa43dfd22fabd63ef081a64736f6c63430008130033",
  "linkReferences": {},
  "deployedLinkReferences": {}
}