{"contracts/RateLimiter.sol":{"RateLimiter":{"abi":[{"inputs":[{"internalType":"uint256","name":"_globalMaxRequests","type":"uint256"},{"internalType":"uint256","name":"_globalTimeWindow","type":"uint256"}],"stateMutability":"nonpayable","type":"constructor"},{"anonymous":false,"inputs":[{"indexed":false,"internalType":"uint256","name":"maxRequests","type":"uint256"},{"indexed":false,"internalType":"uint256","name":"timeWindow","type":"uint256"}],"name":"GlobalLimitUpdated","type":"event"},{"anonymous":false,"inputs":[{"indexed":true,"internalType":"address","name":"user","type":"address"},{"indexed":false,"internalType":"uint256","name":"maxRequests","type":"uint256"},{"indexed":false,"internalType":"uint256","name":"timeWindow","type":"uint256"}],"name":"RateLimitSet","type":"event"},{"anonymous":false,"inputs":[{"indexed":true,"internalType":"address","name":"user","type":"address"},{"indexed":false,"internalType":"uint256","name":"currentCount","type":"uint256"}],"name":"RequestAllowed","type":"event"},{"anonymous":false,"inputs":[{"indexed":true,"internalType":"address","name":"user","type":"address"},{"indexed":false,"internalType":"uint256","name":"currentCount","type":"uint256"},{"indexed":false,"internalType":"string","name":"reason","type":"string"}],"name":"RequestBlocked","type":"event"},{"anonymous":false,"inputs":[{"indexed":true,"internalType":"address","name":"user","type":"address"}],"name":"UserBlacklisted","type":"event"},{"anonymous":false,"inputs":[{"indexed":true,"internalType":"address","name":"user","type":"address"}],"name":"UserWhitelisted","type":"event"},{"inputs":[{"internalType":"address","name":"_user","type":"address"}],"name":"activateUserLimit","outputs":[],"stateMutability":"nonpayable","type":"function"},{"inputs":[],"name":"admin","outputs":[{"internalType":"address","name":"","type":"address"}],"stateMutability":"view","type":"function"},{"inputs":[{"internalType":"address[]","name":"_users","type":"address[]"}],"name":"batchCheck","outputs":[{"internalType":"bool[]","name":"","type":"bool[]"}],"stateMutability":"nonpayable","type":"function"},{"inputs":[{"internalType":"address","name":"_user","type":"address"}],"name":"checkAndRecordRequest","outputs":[{"internalType":"bool","name":"","type":"bool"}],"stateMutability":"nonpayable","type":"function"},{"inputs":[{"internalType":"address","name":"_user","type":"address"}],"name":"deactivateUserLimit","outputs":[],"stateMutability":"nonpayable","type":"function"},{"inputs":[],"name":"getGlobalLimitStatus","outputs":[{"internalType":"uint256","name":"currentRequests","type":"uint256"},{"internalType":"uint256","name":"maxRequests","type":"uint256"},{"internalType":"uint256","name":"timeRemaining","type":"uint256"}],"stateMutability":"view","type":"function"},{"inputs":[{"internalType":"address","name":"_user","type":"address"},{"internalType":"uint256","name":"_since","type":"uint256"}],"name":"getRecentRequestCount","outputs":[{"internalType":"uint256","name":"","type":"uint256"}],"stateMutability":"view","type":"function"},{"inputs":[{"internalType":"address","name":"_user","type":"address"}],"name":"getUserLimitStatus","outputs":[{"internalType":"uint256","name":"currentRequests","type":"uint256"},{"internalType":"uint256","name":"maxRequests","type":"uint256"},{"internalType":"uint256","name":"timeRemaining","type":"uint256"},{"internalType":"bool","name":"isActive","type":"bool"}],"stateMutability":"view","type":"function"},{"inputs":[{"internalType":"address","name":"_user","type":"address"}],"name":"getUserRequestCount","outputs":[{"internalType":"uint256","name":"","type":"uint256"}],"stateMutability":"view","type":"function"},{"inputs":[{"internalType":"address","name":"_user","type":"address"},{"internalType":"uint256","name":"_count","type":"uint256"}],"name":"getUserTimestamps","outputs":[{"internalType":"uint256[]","name":"","type":"uint256[]"}],"stateMutability":"view","type":"function"},{"inputs":[],"name":"globalCurrentRequests","outputs":[{"internalType":"uint256","name":"","type":"uint256"}],"stateMutability":"view","type":"function"},{"inputs":[],"name":"globalMaxRequests","outputs":[{"internalType":"uint256","name":"","type":"uint256"}],"stateMutability":"view","type":"function"},{"inputs":[],"name":"globalTimeWindow","outputs":[{"internalType":"uint256","name":"","type":"uint256"}],"stateMutability":"view","type":"function"},{"inputs":[],"name":"globalWindowStart","outputs":[{"internalType":"uint256","name":"","type":"uint256"}],"stateMutability":"view","type":"function"},{"inputs":[{"internalType":"address","name":"_user","type":"address"}],"name":"isRateLimited","outputs":[{"internalType":"bool","name":"","type":"bool"}],"stateMutability":"view","type":"function"},{"inputs":[{"internalType":"address","name":"_user","type":"address"}],"name":"resetUserLimit","outputs":[],"stateMutability":"nonpayable","type":"function"},{"inputs":[{"internalType":"address","name":"_user","type":"address"},{"internalType":"uint256","name":"_maxRequests","type":"uint256"},{"internalType":"uint256","name":"_timeWindow","type":"uint256"}],"name":"setUserRateLimit","outputs":[],"stateMutability":"nonpayable","type":"function"},{"inputs":[{"internalType":"address","name":"newAdmin","type":"address"}],"name":"transferAdmin","outputs":[],"stateMutability":"nonpayable","type":"function"},{"inputs":[{"internalType":"uint256","name":"_maxRequests","type":"uint256"},{"internalType":"uint256","name":"_timeWindow","type":"uint256"}],"name":"updateGlobalLimit","outputs":[],"stateMutability":"nonpayable","type":"function"},{"inputs":[{"internalType":"address","name":"","type":"address"}],"name":"userLimits","outputs":[{"internalType":"uint256","name":"maxRequests","type":"uint256"},{"internalType":"uint256","name":"timeWindow","type":"uint256"},{"internalType":"uint256","name":"currentRequests","type":"uint256"},{"internalType":"uint256","name":"windowStart","type":"uint256"},{"internalType":"bool","name":"isActive","type":"bool"}],"stateMutability":"view","type":"function"},{"inputs":[{"internalType":"address","name":"","type":"address"}],"name":"userRequestCounts","outputs":[{"internalType":"uint256","name":"","type":"uint256"}],"stateMutability":"view","type":"function"},{"inputs":[{"internalType":"address","name":"","type":"address"},{"internalType":"uint256","name":"","type":"uint256"}],"name":"userRequestTimestamps","outputs":[{"internalType":"uint256","name":"","type":"uint256"}],"stateMutability":"view","type":"function"}],"evm":{"bytecode":{"linkReferences":{},"object":"608060405234801561001057600080fd5b5060405161124838038061124883398101604081905261002f91610102565b6000821161008e5760405162461bcd60e51b815260206004820152602160248201527f526174654c696d697465723a20696e76616c6964206d617820726571756573746044820152607360f81b60648201526084015b60405180910390fd5b600081116100de5760405162461bcd60e51b815260206004820181905260248201527f526174654c696d697465723a20696e76616c69642074696d652077696e646f776044820152606401610085565b600380546001600160a01b0319163317905560049190915560055542600755610126565b6000806040838503121561011557600080fd5b505080516020909101519092909150565b611113806101356000396000f3fe608060405234801561001057600080fd5b50600436106101405760003560e01c80635f640e42116100b8578063ba8237c41161007c578063ba8237c41461032e578063bbd2275d14610351578063c166c45814610364578063d14bf2bf1461038d578063ec179e8e146103a0578063f851a440146103b357600080fd5b80635f640e42146102b457806375829def146102c757806378f87348146102da5780638522e51a146102e357806396a323af1461030357600080fd5b80632a0200bb1161010a5780632a0200bb146101e25780632c1bc2b2146101eb57806337f1836c1461025557806338ae48e9146102755780634b7bed8b14610288578063543dbaac146102ab57600080fd5b806245062a14610145578062ae047c1461016e5780631b7bd2b81461018f57806326638b90146101a457806329e88501146101ad575b600080fd5b610158610153366004610e27565b6103de565b6040516101659190610e9c565b60405180910390f35b61018161017c366004610efe565b61052f565b604051908152602001610165565b6101a261019d366004610f28565b61059e565b005b61018160065481565b6101c06101bb366004610f5b565b610744565b6040805194855260208501939093529183015215156060820152608001610165565b61018160055481565b61022b6101f9366004610f5b565b600060208190529081526040902080546001820154600283015460038401546004909401549293919290919060ff1685565b6040805195865260208601949094529284019190915260608301521515608082015260a001610165565b610181610263366004610f5b565b60026020526000908152604090205481565b6101a2610283366004610f5b565b6107bf565b610290610810565b60408051938452602084019290925290820152606001610165565b61018160075481565b6101a26102c2366004610f5b565b610860565b6101a26102d5366004610f5b565b6108b2565b61018160045481565b6102f66102f1366004610efe565b610954565b6040516101659190610f7d565b610181610311366004610efe565b600160209081526000928352604080842090915290825290205481565b61034161033c366004610f5b565b610a06565b6040519015158152602001610165565b6101a261035f366004610f5b565b610aa3565b610181610372366004610f5b565b6001600160a01b031660009081526002602052604090205490565b61034161039b366004610f5b565b610af1565b6101a26103ae366004610fb5565b610b50565b6003546103c6906001600160a01b031681565b6040516001600160a01b039091168152602001610165565b606060008267ffffffffffffffff8111156103fb576103fb610fd7565b604051908082528060200260200182016040528015610424578160200160208202803683370190505b50905060005b83811015610525573063ba8237c486868481811061044a5761044a610fed565b905060200201602081019061045f9190610f5b565b6040516001600160e01b031960e084901b1681526001600160a01b0390911660048201526024016020604051808303816000875af19250505080156104c1575060408051601f3d908101601f191682019092526104be91810190611003565b60015b6104ee5760008282815181106104d9576104d9610fed565b91151560209283029190910190910152610513565b8083838151811061050157610501610fed565b91151560209283029190910190910152505b8061051d8161103b565b91505061042a565b5090505b92915050565b60008060015b6001600160a01b0385166000908152600260205260409020548111610525576001600160a01b0385166000908152600160209081526040808320848452909152902054841161058c57816105888161103b565b9250505b806105968161103b565b915050610535565b6003546001600160a01b031633146105d15760405162461bcd60e51b81526004016105c890611054565b60405180910390fd5b6001600160a01b0383166106275760405162461bcd60e51b815260206004820152601960248201527f526174654c696d697465723a20696e76616c696420757365720000000000000060448201526064016105c8565b600082116106475760405162461bcd60e51b81526004016105c890611089565b600081116106975760405162461bcd60e51b815260206004820181905260248201527f526174654c696d697465723a20696e76616c69642074696d652077696e646f7760448201526064016105c8565b6040805160a0810182528381526020808201848152600083850181815242606086019081526001608087018181526001600160a01b038c1680865285885294899020975188559451908701559051600286015551600385015590516004909301805460ff191693151593909317909255825185815290810184905290917f10345df3b9cfab7e87d4e163cf65dea3d884ce6d5092969c68702573b179b27d910160405180910390a2505050565b6001600160a01b03811660009081526020819052604081206001810154600382015483928392839283919061077990426110ca565b10156107a057600382015461078e90426110ca565b826001015461079d91906110ca565b90505b60028201548254600490930154909892975090955060ff169350915050565b6003546001600160a01b031633146107e95760405162461bcd60e51b81526004016105c890611054565b6001600160a01b03166000908152602081905260409020600401805460ff19166001179055565b600080600080600090506005546007544261082b91906110ca565b101561084e5760075461083e90426110ca565b60055461084b91906110ca565b90505b60065460045490959094509092509050565b6003546001600160a01b0316331461088a5760405162461bcd60e51b81526004016105c890611054565b6001600160a01b03166000908152602081905260408120600281019190915542600390910155565b6003546001600160a01b031633146108dc5760405162461bcd60e51b81526004016105c890611054565b6001600160a01b0381166109325760405162461bcd60e51b815260206004820152601a60248201527f526174654c696d697465723a20696e76616c69642061646d696e00000000000060448201526064016105c8565b600380546001600160a01b0319166001600160a01b0392909216919091179055565b606060008267ffffffffffffffff81111561097157610971610fd7565b60405190808252806020026020018201604052801561099a578160200160208202803683370190505b50905060015b838111610525576001600160a01b0385166000908152600160208181526040808420858552909152909120549083906109d990846110ca565b815181106109e9576109e9610fed565b6020908102919091010152806109fe8161103b565b9150506109a0565b6000610a10610c31565b6001600160a01b03821660009081526020819052604090206004015460ff1615610a3d57610a3d82610cb0565b610a4682610d3d565b610a4e610df0565b6001600160a01b0382166000818152600260209081526040918290205491519182527fc7c54d18fbba7b073f950d9ec264f66e19315ed77207d2fd33e29e948b26c0ad910160405180910390a2506001919050565b6003546001600160a01b03163314610acd5760405162461bcd60e51b81526004016105c890611054565b6001600160a01b03166000908152602081905260409020600401805460ff19169055565b6001600160a01b0381166000908152602081905260408120600481015460ff16610b1e5750600092915050565b60018101546003820154610b3290426110ca565b10610b405750600092915050565b8054600290910154101592915050565b6003546001600160a01b03163314610b7a5760405162461bcd60e51b81526004016105c890611054565b60008211610b9a5760405162461bcd60e51b81526004016105c890611089565b60008111610bea5760405162461bcd60e51b815260206004820181905260248201527f526174654c696d697465723a20696e76616c69642074696d652077696e646f7760448201526064016105c8565b6004829055600581905560408051838152602081018390527f36eb9e9692da0306168138c0321919c150142c93694f3fa952499fb1a4ed4949910160405180910390a15050565b600554600754610c4190426110ca565b10610c50576000600655426007555b60045460065410610cae5760405162461bcd60e51b815260206004820152602260248201527f526174654c696d697465723a20676c6f62616c206c696d697420657863656564604482015261195960f21b60648201526084016105c8565b565b6001600160a01b038116600090815260208190526040902060018101546003820154610cdc90426110ca565b10610ce5575050565b8054600282015410610d395760405162461bcd60e51b815260206004820181905260248201527f526174654c696d697465723a2075736572206c696d697420657863656564656460448201526064016105c8565b5050565b6001600160a01b038116600090815260208190526040902060018101546003820154610d6990426110ca565b10610d805760016002820155426003820155610d98565b600281018054906000610d928361103b565b91905055505b6001600160a01b0382166000908152600260205260408120805491610dbc8361103b565b9091555050506001600160a01b03166000908152600160209081526040808320600283528184205484529091529020429055565b600554600754610e0090426110ca565b10610e1057600160065542600755565b60068054906000610e208361103b565b9190505550565b60008060208385031215610e3a57600080fd5b823567ffffffffffffffff80821115610e5257600080fd5b818501915085601f830112610e6657600080fd5b813581811115610e7557600080fd5b8660208260051b8501011115610e8a57600080fd5b60209290920196919550909350505050565b6020808252825182820181905260009190848201906040850190845b81811015610ed6578351151583529284019291840191600101610eb8565b50909695505050505050565b80356001600160a01b0381168114610ef957600080fd5b919050565b60008060408385031215610f1157600080fd5b610f1a83610ee2565b946020939093013593505050565b600080600060608486031215610f3d57600080fd5b610f4684610ee2565b95602085013595506040909401359392505050565b600060208284031215610f6d57600080fd5b610f7682610ee2565b9392505050565b6020808252825182820181905260009190848201906040850190845b81811015610ed657835183529284019291840191600101610f99565b60008060408385031215610fc857600080fd5b50508035926020909101359150565b634e487b7160e01b600052604160045260246000fd5b634e487b7160e01b600052603260045260246000fd5b60006020828403121561101557600080fd5b81518015158114610f7657600080fd5b634e487b7160e01b600052601160045260246000fd5b60006001820161104d5761104d611025565b5060010190565b6020808252818101527f526174654c696d697465723a2063616c6c6572206973206e6f742061646d696e604082015260600190565b60208082526021908201527f526174654c696d697465723a20696e76616c6964206d617820726571756573746040820152607360f81b606082015260800190565b818103818111156105295761052961102556fea26469706673582212208536183de6df2bbb5dd734cdde08ba9639aa4cde4fdfa43dfd22fabd63ef081a64736f6c63430008130033","opcodes":"PUSH1 0x80 PUSH1 0x40 MSTORE CALLVALUE DUP1 ISZERO PUSH2 0x10 JUMPI PUSH1 0x0 DUP1 REVERT JUMPDEST POP PUSH1 0x40 MLOAD PUSH2 0x1248 CODESIZE SUB DUP1 PUSH2 0x1248 DUP4 CODECOPY DUP2 ADD PUSH1 0x40 DUP2 SWAP1 MSTORE PUSH2 0x2F SWAP2 PUSH2 0x102 JUMP JUMPDEST PUSH1 0x0 DUP3 GT PUSH2 0x8E JUMPI PUSH1 0x40 MLOAD PUSH3 0x461BCD PUSH1 0xE5 SHL DUP2 MSTORE PUSH1 0x20 PUSH1 0x4 DUP3 ADD MSTORE PUSH1 0x21 PUSH1 0x24 DUP3 ADD MSTORE PUSH32 0x526174654C696D697465723A20696E76616C6964206D61782072657175657374 PUSH1 0x44 DUP3 ADD MSTORE PUSH1 0x73 PUSH1 0xF8 SHL PUSH1 0x64 DUP3 ADD MSTORE PUSH1 0x84 ADD JUMPDEST PUSH1 0x40 MLOAD DUP1 SWAP2 SUB SWAP1 REVERT JUMPDEST PUSH1 0x0 DUP2 GT PUSH2 0xDE JUMPI PUSH1 0x40 MLOAD PUSH3 0x461BCD PUSH1 0xE5 SHL DUP2 MSTORE PUSH1 0x20 PUSH1 0x4 DUP3 ADD DUP2 SWAP1 MSTORE PUSH1 0x24 DUP3 ADD MSTORE PUSH32 0x526174654C696D697465723A20696E76616C69642074696D652077696E646F77 PUSH1 0x44 DUP3 ADD MSTORE PUSH1 0x64 ADD PUSH2 0x85 JUMP JUMPDEST PUSH1 0x3 DUP1 SLOAD PUSH1 0x1 PUSH1 0x1 PUSH1 0xA0 SHL SUB NOT AND CALLER OR SWAP1 SSTORE PUSH1 0x4 SWAP2 SWAP1 SWAP2 SSTORE PUSH1 0x5 SSTORE TIMESTAMP PUSH1 0x7 SSTORE PUSH2 0x126 JUMP JUMPDEST PUSH1 0x0 DUP1 PUSH1 0x40 DUP4 DUP6 SUB SLT ISZERO PUSH2 0x115 JUMPI PUSH1 0x0 DUP1 REVERT JUMPDEST POP POP DUP1 MLOAD PUSH1 0x20 SWAP1 SWAP2 ADD MLOAD SWAP1 SWAP3 SWAP1 SWAP2 POP JUMP JUMPDEST PUSH2 0x1113 DUP1 PUSH2 0x135 PUSH1 0x0 CODECOPY PUSH1 0x0 RETURN INVALID PUSH1 0x80 PUSH1 0x40 MSTORE CALLVALUE DUP1 ISZERO PUSH2 0x10 JUMPI PUSH1 0x0 DUP1 REVERT JUMPDEST POP PUSH1 0x4 CALLDATASIZE LT PUSH2 0x140 JUMPI PUSH1 0x0 CALLDATALOAD PUSH1 0xE0 SHR DUP1 PUSH4 0x5F640E42 GT PUSH2 0xB8 JUMPI DUP1 PUSH4 0xBA8237C4 GT PUSH2 0x7C JUMPI DUP1 PUSH4 0xBA8237C4 EQ PUSH2 0x32E JUMPI DUP1 PUSH4 0xBBD2275D EQ PUSH2 0x351 JUMPI DUP1 PUSH4 0xC166C458 EQ PUSH2 0x364 JUMPI DUP1 PUSH4 0xD14BF2BF EQ PUSH2 0x38D JUMPI DUP1 PUSH4 0xEC179E8E EQ PUSH2 0x3A0 JUMPI DUP1 PUSH4 0xF851A440 EQ PUSH2 0x3B3 JUMPI PUSH1 0x0 DUP1 REVERT JUMPDEST DUP1 PUSH4 0x5F640E42 EQ PUSH2 0x2B4 JUMPI DUP1 PUSH4 0x75829DEF EQ PUSH2 0x2C7 JUMPI DUP1 PUSH4 0x78F87348 EQ PUSH2 0x2DA JUMPI DUP1 PUSH4 0x8522E51A EQ PUSH2 0x2E3 JUMPI DUP1 PUSH4 0x96A323AF EQ PUSH2 0x303 JUMPI PUSH1 0x0 DUP1 REVERT JUMPDEST DUP1 PUSH4 0x2A0200BB GT PUSH2 0x10A JUMPI DUP1 PUSH4 0x2A0200BB EQ PUSH2 0x1E2 JUMPI DUP1 PUSH4 0x2C1BC2B2 EQ PUSH2 0x1EB JUMPI DUP1 PUSH4 0x37F1836C EQ PUSH2 0x255 JUMPI DUP1 PUSH4 0x38AE48E9 EQ PUSH2 0x275 JUMPI DUP1 PUSH4 0x4B7BED8B EQ PUSH2 0x288 JUMPI DUP1 PUSH4 0x543DBAAC EQ PUSH2 0x2AB JUMPI PUSH1 0x0 DUP1 REVERT JUMPDEST DUP1 PUSH3 0x45062A EQ PUSH2 0x145 JUMPI DUP1 PUSH3 0xAE047C EQ PUSH2 0x16E JUMPI DUP1 PUSH4 0x1B7BD2B8 EQ PUSH2 0x18F JUMPI DUP1 PUSH4 0x26638B90 EQ PUSH2 0x1A4 JUMPI DUP1 PUSH4 0x29E88501 EQ PUSH2 0x1AD JUMPI JUMPDEST PUSH1 0x0 DUP1 REVERT JUMPDEST PUSH2 0x158 PUSH2 0x153 CALLDATASIZE PUSH1 0x4 PUSH2 0xE27 JUMP JUMPDEST PUSH2 0x3DE JUMP JUMPDEST PUSH1 0x40 MLOAD PUSH2 0x165 SWAP2 SWAP1 PUSH2 0xE9C JUMP JUMPDEST PUSH1 0x40 MLOAD DUP1 SWAP2 SUB SWAP1 RETURN JUMPDEST PUSH2 0x181 PUSH2 0x17C CALLDATASIZE PUSH1 0x4 PUSH2 0xEFE JUMP JUMPDEST PUSH2 0x52F JUMP JUMPDEST PUSH1 0x40 MLOAD SWAP1 DUP2 MSTORE PUSH1 0x20 ADD PUSH2 0x165 JUMP JUMPDEST PUSH2 0x1A2 PUSH2 0x19D CALLDATASIZE PUSH1 0x4 PUSH2 0xF28 JUMP JUMPDEST PUSH2 0x59E JUMP JUMPDEST STOP JUMPDEST PUSH2 0x181 PUSH1 0x6 SLOAD DUP2 JUMP JUMPDEST PUSH2 0x1C0 PUSH2 0x1BB CALLDATASIZE PUSH1 0x4 PUSH2 0xF5B JUMP JUMPDEST PUSH2 0x744 JUMP JUMPDEST PUSH1 0x40 DUP1 MLOAD SWAP5 DUP6 MSTORE PUSH1 0x20 DUP6 ADD SWAP4 SWAP1 SWAP4 MSTORE SWAP2 DUP4 ADD MSTORE ISZERO ISZERO PUSH1 0x60 DUP3 ADD MSTORE PUSH1 0x80 ADD PUSH2 0x165 JUMP JUMPDEST PUSH2 0x181 PUSH1 0x5 SLOAD DUP2 JUMP JUMPDEST PUSH2 0x22B PUSH2 0x1F9 CALLDATASIZE PUSH1 0x4 PUSH2 0xF5B JUMP JUMPDEST PUSH1 0x0 PUSH1 0x20 DUP2 SWAP1 MSTORE SWAP1 DUP2 MSTORE PUSH1 0x40 SWAP1 KECCAK256 DUP1 SLOAD PUSH1 0x1 DUP3 ADD SLOAD PUSH1 0x2 DUP4 ADD SLOAD PUSH1 0x3 DUP5 ADD SLOAD PUSH1 0x4 SWAP1 SWAP5 ADD SLOAD SWAP3 SWAP4 SWAP2 SWAP3 SWAP1 SWAP2 SWAP1 PUSH1 0xFF AND DUP6 JUMP JUMPDEST PUSH1 0x40 DUP1 MLOAD SWAP6 DUP7 MSTORE PUSH1 0x20 DUP7 ADD SWAP5 SWAP1 SWAP5 MSTORE SWAP3 DUP5 ADD SWAP2 SWAP1 SWAP2 MSTORE PUSH1 0x60 DUP4 ADD MSTORE ISZERO ISZERO PUSH1 0x80 DUP3 ADD MSTORE PUSH1 0xA0 ADD PUSH2 0x165 JUMP JUMPDEST PUSH2 0x181 PUSH2 0x263 CALLDATASIZE PUSH1 0x4 PUSH2 0xF5B JUMP JUMPDEST PUSH1 0x2 PUSH1 0x20 MSTORE PUSH1 0x0 SWAP1 DUP2 MSTORE PUSH1 0x40 SWAP1 KECCAK256 SLOAD DUP2 JUMP JUMPDEST PUSH2 0x1A2 PUSH2 0x283 CALLDATASIZE PUSH1 0x4 PUSH2 0xF5B JUMP JUMPDEST PUSH2 0x7BF JUMP JUMPDEST PUSH2 0x290 PUSH2 0x810 JUMP JUMPDEST PUSH1 0x40 DUP1 MLOAD SWAP4 DUP5 MSTORE PUSH1 0x20 DUP5 ADD SWAP3 SWAP1 SWAP3 MSTORE SWAP1 DUP3 ADD MSTORE PUSH1 0x60 ADD PUSH2 0x165 JUMP JUMPDEST PUSH2 0x181 PUSH1 0x7 SLOAD DUP2 JUMP JUMPDEST PUSH2 0x1A2 PUSH2 0x2C2 CALLDATASIZE PUSH1 0x4 PUSH2 0xF5B JUMP JUMPDEST PUSH2 0x860 JUMP JUMPDEST PUSH2 0x1A2 PUSH2 0x2D5 CALLDATASIZE PUSH1 0x4 PUSH2 0xF5B JUMP JUMPDEST PUSH2 0x8B2 JUMP JUMPDEST PUSH2 0x181 PUSH1 0x4 SLOAD DUP2 JUMP JUMPDEST PUSH2 0x2F6 PUSH2 0x2F1 CALLDATASIZE PUSH1 0x4 PUSH2 0xEFE JUMP JUMPDEST PUSH2 0x954 JUMP JUMPDEST PUSH1 0x40 MLOAD PUSH2 0x165 SWAP2 SWAP1 PUSH2 0xF7D JUMP JUMPDEST PUSH2 0x181 PUSH2 0x311 CALLDATASIZE PUSH1 0x4 PUSH2 0xEFE JUMP JUMPDEST PUSH1 0x1 PUSH1 0x20 SWAP1 DUP2 MSTORE PUSH1 0x0 SWAP3 DUP4 MSTORE PUSH1 0x40 DUP1 DUP5 KECCAK256 SWAP1 SWAP2 MSTORE SWAP1 DUP3 MSTORE SWAP1 KECCAK256 SLOAD DUP2 JUMP JUMPDEST PUSH2 0x341 PUSH2 0x33C CALLDATASIZE PUSH1 0x4 PUSH2 0xF5B JUMP JUMPDEST PUSH2 0xA06 JUMP JUMPDEST PUSH1 0x40 MLOAD SWAP1 ISZERO ISZERO DUP2 MSTORE PUSH1 0x20 ADD PUSH2 0x165 JUMP JUMPDEST PUSH2 0x1A2 PUSH2 0x35F CALLDATASIZE PUSH1 0x4 PUSH2 0xF5B JUMP JUMPDEST PUSH2 0xAA3 JUMP JUMPDEST PUSH2 0x181 PUSH2 0x372 CALLDATASIZE PUSH1 0x4 PUSH2 0xF5B JUMP JUMPDEST PUSH1 0x1 PUSH1 0x1 PUSH1 0xA0 SHL SUB AND PUSH1 0x0 SWAP1 DUP2 MSTORE PUSH1 0x2 PUSH1 0x20 MSTORE PUSH1 0x40 SWAP1 KECCAK256 SLOAD SWAP1 JUMP JUMPDEST PUSH2 0x341 PUSH2 0x39B CALLDATASIZE PUSH1 0x4 PUSH2 0xF5B JUMP JUMPDEST PUSH2 0xAF1 JUMP JUMPDEST PUSH2 0x1A2 PUSH2 0x3AE CALLDATASIZE PUSH1 0x4 PUSH2 0xFB5 JUMP JUMPDEST PUSH2 0xB50 JUMP JUMPDEST PUSH1 0x3 SLOAD PUSH2 0x3C6 SWAP1 PUSH1 0x1 PUSH1 0x1 PUSH1 0xA0 SHL SUB AND DUP2 JUMP JUMPDEST PUSH1 0x40 MLOAD PUSH1 0x1 PUSH1 0x1 PUSH1 0xA0 SHL SUB SWAP1 SWAP2 AND DUP2 MSTORE PUSH1 0x20 ADD PUSH2 0x165 JUMP JUMPDEST PUSH1 0x60 PUSH1 0x0 DUP3 PUSH8 0xFFFFFFFFFFFFFFFF DUP2 GT ISZERO PUSH2 0x3FB JUMPI PUSH2 0x3FB PUSH2 0xFD7 JUMP JUMPDEST PUSH1 0x40 MLOAD SWAP1 DUP1 DUP3 MSTORE DUP1 PUSH1 0x20 MUL PUSH1 0x20 ADD DUP3 ADD PUSH1 0x40 MSTORE DUP1 ISZERO PUSH2 0x424 JUMPI DUP2 PUSH1 0x20 ADD PUSH1 0x20 DUP3 MUL DUP1 CALLDATASIZE DUP4 CALLDATACOPY ADD SWAP1 POP JUMPDEST POP SWAP1 POP PUSH1 0x0 JUMPDEST DUP4 DUP2 LT ISZERO PUSH2 0x525 JUMPI ADDRESS PUSH4 0xBA8237C4 DUP7 DUP7 DUP5 DUP2 DUP2 LT PUSH2 0x44A JUMPI PUSH2 0x44A PUSH2 0xFED JUMP JUMPDEST SWAP1 POP PUSH1 0x20 MUL ADD PUSH1 0x20 DUP2 ADD SWAP1 PUSH2 0x45F SWAP2 SWAP1 PUSH2 0xF5B JUMP JUMPDEST PUSH1 0x40 MLOAD PUSH1 0x1 PUSH1 0x1 PUSH1 0xE0 SHL SUB NOT PUSH1 0xE0 DUP5 SWAP1 SHL AND DUP2 MSTORE PUSH1 0x1 PUSH1 0x1 PUSH1 0xA0 SHL SUB SWAP1 SWAP2 AND PUSH1 0x4 DUP3 ADD MSTORE PUSH1 0x24 ADD PUSH1 0x20 PUSH1 0x40 MLOAD DUP1 DUP4 SUB DUP2 PUSH1 0x0 DUP8 GAS CALL SWAP3 POP POP POP DUP1 ISZERO PUSH2 0x4C1 JUMPI POP PUSH1 0x40 DUP1 MLOAD PUSH1 0x1F RETURNDATASIZE SWAP1 DUP2 ADD PUSH1 0x1F NOT AND DUP3 ADD SWAP1 SWAP3 MSTORE PUSH2 0x4BE SWAP2 DUP2 ADD SWAP1 PUSH2 0x1003 JUMP JUMPDEST PUSH1 0x1 JUMPDEST PUSH2 0x4EE JUMPI PUSH1 0x0 DUP3 DUP3 DUP2 MLOAD DUP2 LT PUSH2 0x4D9 JUMPI PUSH2 0x4D9 PUSH2 0xFED JUMP JUMPDEST SWAP2 ISZERO ISZERO PUSH1 0x20 SWAP3 DUP4 MUL SWAP2 SWAP1 SWAP2 ADD SWAP1 SWAP2 ADD MSTORE PUSH2 0x513 JUMP JUMPDEST DUP1 DUP4 DUP4 DUP2 MLOAD DUP2 LT PUSH2 0x501 JUMPI PUSH2 0x501 PUSH2 0xFED JUMP JUMPDEST SWAP2 ISZERO ISZERO PUSH1 0x20 SWAP3 DUP4 MUL SWAP2 SWAP1 SWAP2 ADD SWAP1 SWAP2 ADD MSTORE POP JUMPDEST DUP1 PUSH2 0x51D DUP2 PUSH2 0x103B JUMP JUMPDEST SWAP2 POP POP PUSH2 0x42A JUMP JUMPDEST POP SWAP1 POP JUMPDEST SWAP3 SWAP2 POP POP JUMP JUMPDEST PUSH1 0x0 DUP1 PUSH1 0x1 JUMPDEST PUSH1 0x1 PUSH1 0x1 PUSH1 0xA0 SHL SUB DUP6 AND PUSH1 0x0 SWAP1 DUP2 MSTORE PUSH1 0x2 PUSH1 0x20 MSTORE PUSH1 0x40 SWAP1 KECCAK256 SLOAD DUP2 GT PUSH2 0x525 JUMPI PUSH1 0x1 PUSH1 0x1 PUSH1 0xA0 SHL SUB DUP6 AND PUSH1 0x0 SWAP1 DUP2 MSTORE PUSH1 0x1 PUSH1 0x20 SWAP1 DUP2 MSTORE PUSH1 0x40 DUP1 DUP4 KECCAK256 DUP5 DUP5 MSTORE SWAP1 SWAP2 MSTORE SWAP1 KECCAK256 SLOAD DUP5 GT PUSH2 0x58C JUMPI DUP2 PUSH2 0x588 DUP2 PUSH2 0x103B JUMP JUMPDEST SWAP3 POP POP JUMPDEST DUP1 PUSH2 0x596 DUP2 PUSH2 0x103B JUMP JUMPDEST SWAP2 POP POP PUSH2 0x535 JUMP JUMPDEST PUSH1 0x3 SLOAD PUSH1 0x1 PUSH1 0x1 PUSH1 0xA0 SHL SUB AND CALLER EQ PUSH2 0x5D1 JUMPI PUSH1 0x40 MLOAD PUSH3 0x461BCD PUSH1 0xE5 SHL DUP2 MSTORE PUSH1 0x4 ADD PUSH2 0x5C8 SWAP1 PUSH2 0x1054 JUMP JUMPDEST PUSH1 0x40 MLOAD DUP1 SWAP2 SUB SWAP1 REVERT JUMPDEST PUSH1 0x1 PUSH1 0x1 PUSH1 0xA0 SHL SUB DUP4 AND PUSH2 0x627 JUMPI PUSH1 0x40 MLOAD PUSH3 0x461BCD PUSH1 0xE5 SHL DUP2 MSTORE PUSH1 0x20 PUSH1 0x4 DUP3 ADD MSTORE PUSH1 0x19 PUSH1 0x24 DUP3 ADD MSTORE PUSH32 0x526174654C696D697465723A20696E76616C6964207573657200000000000000 PUSH1 0x44 DUP3 ADD MSTORE PUSH1 0x64 ADD PUSH2 0x5C8 JUMP JUMPDEST PUSH1 0x0 DUP3 GT PUSH2 0x647 JUMPI PUSH1 0x40 MLOAD PUSH3 0x461BCD PUSH1 0xE5 SHL DUP2 MSTORE PUSH1 0x4 ADD PUSH2 0x5C8 SWAP1 PUSH2 0x1089 JUMP JUMPDEST PUSH1 0x0 DUP2 GT PUSH2 0x697 JUMPI PUSH1 0x40 MLOAD PUSH3 0x461BCD PUSH1 0xE5 SHL DUP2 MSTORE PUSH1 0x20 PUSH1 0x4 DUP3 ADD DUP2 SWAP1 MSTORE PUSH1 0x24 DUP3 ADD MSTORE PUSH32 0x526174654C696D697465723A20696E76616C69642074696D652077696E646F77 PUSH1 0x44 DUP3 ADD MSTORE PUSH1 0x64 ADD PUSH2 0x5C8 JUMP JUMPDEST PUSH1 0x40 DUP1 MLOAD PUSH1 0xA0 DUP2 ADD DUP3 MSTORE DUP4 DUP2 MSTORE PUSH1 0x20 DUP1 DUP3 ADD DUP5 DUP2 MSTORE PUSH1 0x0 DUP4 DUP6 ADD DUP2 DUP2 MSTORE TIMESTAMP PUSH1 0x60 DUP7 ADD SWAP1 DUP2 MSTORE PUSH1 0x1 PUSH1 0x80 DUP8 ADD DUP2 DUP2 MSTORE PUSH1 0x1 PUSH1 0x1 PUSH1 0xA0 SHL SUB DUP13 AND DUP1 DUP7 MSTORE DUP6 DUP9 MSTORE SWAP5 DUP10 SWAP1 KECCAK256 SWAP8 MLOAD DUP9 SSTORE SWAP5 MLOAD SWAP1 DUP8 ADD SSTORE SWAP1 MLOAD PUSH1 0x2 DUP7 ADD SSTORE MLOAD PUSH1 0x3 DUP6 ADD SSTORE SWAP1 MLOAD PUSH1 0x4 SWAP1 SWAP4 ADD DUP1 SLOAD PUSH1 0xFF NOT AND SWAP4 ISZERO ISZERO SWAP4 SWAP1 SWAP4 OR SWAP1 SWAP3 SSTORE DUP3 MLOAD DUP6 DUP2 MSTORE SWAP1 DUP2 ADD DUP5 SWAP1 MSTORE SWAP1 SWAP2 PUSH32 0x10345DF3B9CFAB7E87D4E163CF65DEA3D884CE6D5092969C68702573B179B27D SWAP2 ADD PUSH1 0x40 MLOAD DUP1 SWAP2 SUB SWAP1 LOG2 POP POP POP JUMP JUMPDEST PUSH1 0x1 PUSH1 0x1 PUSH1 0xA0 SHL SUB DUP2 AND PUSH1 0x0 SWAP1 DUP2 MSTORE PUSH1 0x20 DUP2 SWAP1 MSTORE PUSH1 0x40 DUP2 KECCAK256 PUSH1 0x1 DUP2 ADD SLOAD PUSH1 0x3 DUP3 ADD SLOAD DUP4 SWAP3 DUP4 SWAP3 DUP4 SWAP3 DUP4 SWAP2 SWAP1 PUSH2 0x779 SWAP1 TIMESTAMP PUSH2 0x10CA JUMP JUMPDEST LT ISZERO PUSH2 0x7A0 JUMPI PUSH1 0x3 DUP3 ADD SLOAD PUSH2 0x78E SWAP1 TIMESTAMP PUSH2 0x10CA JUMP JUMPDEST DUP3 PUSH1 0x1 ADD SLOAD PUSH2 0x79D SWAP2 SWAP1 PUSH2 0x10CA JUMP JUMPDEST SWAP1 POP JUMPDEST PUSH1 0x2 DUP3 ADD SLOAD DUP3 SLOAD PUSH1 0x4 SWAP1 SWAP4 ADD SLOAD SWAP1 SWAP9 SWAP3 SWAP8 POP SWAP1 SWAP6 POP PUSH1 0xFF AND SWAP4 POP SWAP2 POP POP JUMP JUMPDEST PUSH1 0x3 SLOAD PUSH1 0x1 PUSH1 0x1 PUSH1 0xA0 SHL SUB AND CALLER EQ PUSH2 0x7E9 JUMPI PUSH1 0x40 MLOAD PUSH3 0x461BCD PUSH1 0xE5 SHL DUP2 MSTORE PUSH1 0x4 ADD PUSH2 0x5C8 SWAP1 PUSH2 0x1054 JUMP JUMPDEST PUSH1 0x1 PUSH1 0x1 PUSH1 0xA0 SHL SUB AND PUSH1 0x0 SWAP1 DUP2 MSTORE PUSH1 0x20 DUP2 SWAP1 MSTORE PUSH1 0x40 SWAP1 KECCAK256 PUSH1 0x4 ADD DUP1 SLOAD PUSH1 0xFF NOT AND PUSH1 0x1 OR SWAP1 SSTORE JUMP JUMPDEST PUSH1 0x0 DUP1 PUSH1 0x0 DUP1 PUSH1 0x0 SWAP1 POP PUSH1 0x5 SLOAD PUSH1 0x7 SLOAD TIMESTAMP PUSH2 0x82B SWAP2 SWAP1 PUSH2 0x10CA JUMP JUMPDEST LT ISZERO PUSH2 0x84E JUMPI PUSH1 0x7 SLOAD PUSH2 0x83E SWAP1 TIMESTAMP PUSH2 0x10CA JUMP JUMPDEST PUSH1 0x5 SLOAD PUSH2 0x84B SWAP2 SWAP1 PUSH2 0x10CA JUMP JUMPDEST SWAP1 POP JUMPDEST PUSH1 0x6 SLOAD PUSH1 0x4 SLOAD SWAP1 SWAP6 SWAP1 SWAP5 POP SWAP1 SWAP3 POP SWAP1 POP JUMP JUMPDEST PUSH1 0x3 SLOAD PUSH1 0x1 PUSH1 0x1 PUSH1 0xA0 SHL SUB AND CALLER EQ PUSH2 0x88A JUMPI PUSH1 0x40 MLOAD PUSH3 0x461BCD PUSH1 0xE5 SHL DUP2 MSTORE PUSH1 0x4 ADD PUSH2 0x5C8 SWAP1 PUSH2 0x1054 JUMP JUMPDEST PUSH1 0x1 PUSH1 0x1 PUSH1 0xA0 SHL SUB AND PUSH1 0x0 SWAP1 DUP2 MSTORE PUSH1 0x20 DUP2 SWAP1 MSTORE PUSH1 0x40 DUP2 KECCAK256 PUSH1 0x2 DUP2 ADD SWAP2 SWAP1 SWAP2 SSTORE TIMESTAMP PUSH1 0x3 SWAP1 SWAP2 ADD SSTORE JUMP JUMPDEST PUSH1 0x3 SLOAD PUSH1 0x1 PUSH1 0x1 PUSH1 0xA0 SHL SUB AND CALLER EQ PUSH2 0x8DC JUMPI PUSH1 0x40 MLOAD PUSH3 0x461BCD PUSH1 0xE5 SHL DUP2 MSTORE PUSH1 0x4 ADD PUSH2 0x5C8 SWAP1 PUSH2 0x1054 JUMP JUMPDEST PUSH1 0x1 PUSH1 0x1 PUSH1 0xA0 SHL SUB DUP2 AND PUSH2 0x932 JUMPI PUSH1 0x40 MLOAD PUSH3 0x461BCD PUSH1 0xE5 SHL DUP2 MSTORE PUSH1 0x20 PUSH1 0x4 DUP3 ADD MSTORE PUSH1 0x1A PUSH1 0x24 DUP3 ADD MSTORE PUSH32 0x526174654C696D697465723A20696E76616C69642061646D696E000000000000 PUSH1 0x44 DUP3 ADD MSTORE PUSH1 0x64 ADD PUSH2 0x5C8 JUMP JUMPDEST PUSH1 0x3 DUP1 SLOAD PUSH1 0x1 PUSH1 0x1 PUSH1 0xA0 SHL SUB NOT AND PUSH1 0x1 PUSH1 0x1 PUSH1 0xA0 SHL SUB SWAP3 SWAP1 SWAP3 AND SWAP2 SWAP1 SWAP2 OR SWAP1 SSTORE JUMP JUMPDEST PUSH1 0x60 PUSH1 0x0 DUP3 PUSH8 0xFFFFFFFFFFFFFFFF DUP2 GT ISZERO PUSH2 0x971 JUMPI PUSH2 0x971 PUSH2 0xFD7 JUMP JUMPDEST PUSH1 0x40 MLOAD SWAP1 DUP1 DUP3 MSTORE DUP1 PUSH1 0x20 MUL PUSH1 0x20 ADD DUP3 ADD PUSH1 0x40 MSTORE DUP1 ISZERO PUSH2 0x99A JUMPI DUP2 PUSH1 0x20 ADD PUSH1 0x20 DUP3 MUL DUP1 CALLDATASIZE DUP4 CALLDATACOPY ADD SWAP1 POP JUMPDEST POP SWAP1 POP PUSH1 0x1 JUMPDEST DUP4 DUP2 GT PUSH2 0x525 JUMPI PUSH1 0x1 PUSH1 0x1 PUSH1 0xA0 SHL SUB DUP6 AND PUSH1 0x0 SWAP1 DUP2 MSTORE PUSH1 0x1 PUSH1 0x20 DUP2 DUP2 MSTORE PUSH1 0x40 DUP1 DUP5 KECCAK256 DUP6 DUP6 MSTORE SWAP1 SWAP2 MSTORE SWAP1 SWAP2 KECCAK256 SLOAD SWAP1 DUP4 SWAP1 PUSH2 0x9D9 SWAP1 DUP5 PUSH2 0x10CA JUMP JUMPDEST DUP2 MLOAD DUP2 LT PUSH2 0x9E9 JUMPI PUSH2 0x9E9 PUSH2 0xFED JUMP JUMPDEST PUSH1 0x20 SWAP1 DUP2 MUL SWAP2 SWAP1 SWAP2 ADD ADD MSTORE DUP1 PUSH2 0x9FE DUP2 PUSH2 0x103B JUMP JUMPDEST SWAP2 POP POP PUSH2 0x9A0 JUMP JUMPDEST PUSH1 0x0 PUSH2 0xA10 PUSH2 0xC31 JUMP JUMPDEST PUSH1 0x1 PUSH1 0x1 PUSH1 0xA0 SHL SUB DUP3 AND PUSH1 0x0 SWAP1 DUP2 MSTORE PUSH1 0x20 DUP2 SWAP1 MSTORE PUSH1 0x40 SWAP1 KECCAK256 PUSH1 0x4 ADD SLOAD PUSH1 0xFF AND ISZERO PUSH2 0xA3D JUMPI PUSH2 0xA3D DUP3 PUSH2 0xCB0 JUMP JUMPDEST PUSH2 0xA46 DUP3 PUSH2 0xD3D JUMP JUMPDEST PUSH2 0xA4E PUSH2 0xDF0 JUMP JUMPDEST PUSH1 0x1 PUSH1 0x1 PUSH1 0xA0 SHL SUB DUP3 AND PUSH1 0x0 DUP2 DUP2 MSTORE PUSH1 0x2 PUSH1 0x20 SWAP1 DUP2 MSTORE PUSH1 0x40 SWAP2 DUP3 SWAP1 KECCAK256 SLOAD SWAP2 MLOAD SWAP2 DUP3 MSTORE PUSH32 0xC7C54D18FBBA7B073F950D9EC264F66E19315ED77207D2FD33E29E948B26C0AD SWAP2 ADD PUSH1 0x40 MLOAD DUP1 SWAP2 SUB SWAP1 LOG2 POP PUSH1 0x1 SWAP2 SWAP1 POP JUMP JUMPDEST PUSH1 0x3 SLOAD PUSH1 0x1 PUSH1 0x1 PUSH1 0xA0 SHL SUB AND CALLER EQ PUSH2 0xACD JUMPI PUSH1 0x40 MLOAD PUSH3 0x461BCD PUSH1 0xE5 SHL DUP2 MSTORE PUSH1 0x4 ADD PUSH2 0x5C8 SWAP1 PUSH2 0x1054 JUMP JUMPDEST PUSH1 0x1 PUSH1 0x1 PUSH1 0xA0 SHL SUB AND PUSH1 0x0 SWAP1 DUP2 MSTORE PUSH1 0x20 DUP2 SWAP1 MSTORE PUSH1 0x40 SWAP1 KECCAK256 PUSH1 0x4 ADD DUP1 SLOAD PUSH1 0xFF NOT AND SWAP1 SSTORE JUMP JUMPDEST PUSH1 0x1 PUSH1 0x1 PUSH1 0xA0 SHL SUB DUP2 AND PUSH1 0x0 SWAP1 DUP2 MSTORE PUSH1 0x20 DUP2 SWAP1 MSTORE PUSH1 0x40 DUP2 KECCAK256 PUSH1 0x4 DUP2 ADD SLOAD PUSH1 0xFF AND PUSH2 0xB1E JUMPI POP PUSH1 0x0 SWAP3 SWAP2 POP POP JUMP JUMPDEST PUSH1 0x1 DUP2 ADD SLOAD PUSH1 0x3 DUP3 ADD SLOAD PUSH2 0xB32 SWAP1 TIMESTAMP PUSH2 0x10CA JUMP JUMPDEST LT PUSH2 0xB40 JUMPI POP PUSH1 0x0 SWAP3 SWAP2 POP POP JUMP JUMPDEST DUP1 SLOAD PUSH1 0x2 SWAP1 SWAP2 ADD SLOAD LT ISZERO SWAP3 SWAP2 POP POP JUMP JUMPDEST PUSH1 0x3 SLOAD PUSH1 0x1 PUSH1 0x1 PUSH1 0xA0 SHL SUB AND CALLER EQ PUSH2 0xB7A JUMPI PUSH1 0x40 MLOAD PUSH3 0x461BCD PUSH1 0xE5 SHL DUP2 MSTORE PUSH1 0x4 ADD PUSH2 0x5C8 SWAP1 PUSH2 0x1054 JUMP JUMPDEST PUSH1 0x0 DUP3 GT PUSH2 0xB9A JUMPI PUSH1 0x40 MLOAD PUSH3 0x461BCD PUSH1 0xE5 SHL DUP2 MSTORE PUSH1 0x4 ADD PUSH2 0x5C8 SWAP1 PUSH2 0x1089 JUMP JUMPDEST PUSH1 0x0 DUP2 GT PUSH2 0xBEA JUMPI PUSH1 0x40 MLOAD PUSH3 0x461BCD PUSH1 0xE5 SHL DUP2 MSTORE PUSH1 0x20 PUSH1 0x4 DUP3 ADD DUP2 SWAP1 MSTORE PUSH1 0x24 DUP3 ADD MSTORE PUSH32 0x526174654C696D697465723A20696E76616C69642074696D652077696E646F77 PUSH1 0x44 DUP3 ADD MSTORE PUSH1 0x64 ADD PUSH2 0x5C8 JUMP JUMPDEST PUSH1 0x4 DUP3 SWAP1 SSTORE PUSH1 0x5 DUP2 SWAP1 SSTORE PUSH1 0x40 DUP1 MLOAD DUP4 DUP2 MSTORE PUSH1 0x20 DUP2 ADD DUP4 SWAP1 MSTORE PUSH32 0x36EB9E9692DA0306168138C0321919C150142C93694F3FA952499FB1A4ED4949 SWAP2 ADD PUSH1 0x40 MLOAD DUP1 SWAP2 SUB SWAP1 LOG1 POP POP JUMP JUMPDEST PUSH1 0x5 SLOAD PUSH1 0x7 SLOAD PUSH2 0xC41 SWAP1 TIMESTAMP PUSH2 0x10CA JUMP JUMPDEST LT PUSH2 0xC50 JUMPI PUSH1 0x0 PUSH1 0x6 SSTORE TIMESTAMP PUSH1 0x7 SSTORE JUMPDEST PUSH1 0x4 SLOAD PUSH1 0x6 SLOAD LT PUSH2 0xCAE JUMPI PUSH1 0x40 MLOAD PUSH3 0x461BCD PUSH1 0xE5 SHL DUP2 MSTORE PUSH1 0x20 PUSH1 0x4 DUP3 ADD MSTORE PUSH1 0x22 PUSH1 0x24 DUP3 ADD MSTORE PUSH32 0x526174654C696D697465723A20676C6F62616C206C696D697420657863656564 PUSH1 0x44 DUP3 ADD MSTORE PUSH2 0x1959 PUSH1 0xF2 SHL PUSH1 0x64 DUP3 ADD MSTORE PUSH1 0x84 ADD PUSH2 0x5C8 JUMP JUMPDEST JUMP JUMPDEST PUSH1 0x1 PUSH1 0x1 PUSH1 0xA0 SHL SUB DUP2 AND PUSH1 0x0 SWAP1 DUP2 MSTORE PUSH1 0x20 DUP2 SWAP1 MSTORE PUSH1 0x40 SWAP1 KECCAK256 PUSH1 0x1 DUP2 ADD SLOAD PUSH1 0x3 DUP3 ADD SLOAD PUSH2 0xCDC SWAP1 TIMESTAMP PUSH2 0x10CA JUMP JUMPDEST LT PUSH2 0xCE5 JUMPI POP POP JUMP JUMPDEST DUP1 SLOAD PUSH1 0x2 DUP3 ADD SLOAD LT PUSH2 0xD39 JUMPI PUSH1 0x40 MLOAD PUSH3 0x461BCD PUSH1 0xE5 SHL DUP2 MSTORE PUSH1 0x20 PUSH1 0x4 DUP3 ADD DUP2 SWAP1 MSTORE PUSH1 0x24 DUP3 ADD MSTORE PUSH32 0x526174654C696D697465723A2075736572206C696D6974206578636565646564 PUSH1 0x44 DUP3 ADD MSTORE PUSH1 0x64 ADD PUSH2 0x5C8 JUMP JUMPDEST POP POP JUMP JUMPDEST PUSH1 0x1 PUSH1 0x1 PUSH1 0xA0 SHL SUB DUP2 AND PUSH1 0x0 SWAP1 DUP2 MSTORE PUSH1 0x20 DUP2 SWAP1 MSTORE PUSH1 0x40 SWAP1 KECCAK256 PUSH1 0x1 DUP2 ADD SLOAD PUSH1 0x3 DUP3 ADD SLOAD PUSH2 0xD69 SWAP1 TIMESTAMP PUSH2 0x10CA JUMP JUMPDEST LT PUSH2 0xD80 JUMPI PUSH1 0x1 PUSH1 0x2 DUP3 ADD SSTORE TIMESTAMP PUSH1 0x3 DUP3 ADD SSTORE PUSH2 0xD98 JUMP JUMPDEST PUSH1 0x2 DUP2 ADD DUP1 SLOAD SWAP1 PUSH1 0x0 PUSH2 0xD92 DUP4 PUSH2 0x103B JUMP JUMPDEST SWAP2 SWAP1 POP SSTORE POP JUMPDEST PUSH1 0x1 PUSH1 0x1 PUSH1 0xA0 SHL SUB DUP3 AND PUSH1 0x0 SWAP1 DUP2 MSTORE PUSH1 0x2 PUSH1 0x20 MSTORE PUSH1 0x40 DUP2 KECCAK256 DUP1 SLOAD SWAP2 PUSH2 0xDBC DUP4 PUSH2 0x103B JUMP JUMPDEST SWAP1 SWAP2 SSTORE POP POP POP PUSH1 0x1 PUSH1 0x1 PUSH1 0xA0 SHL SUB AND PUSH1 0x0 SWAP1 DUP2 MSTORE PUSH1 0x1 PUSH1 0x20 SWAP1 DUP2 MSTORE PUSH1 0x40 DUP1 DUP4 KECCAK256 PUSH1 0x2 DUP4 MSTORE DUP2 DUP5 KECCAK256 SLOAD DUP5 MSTORE SWAP1 SWAP2 MSTORE SWAP1 KECCAK256 TIMESTAMP SWAP1 SSTORE JUMP JUMPDEST PUSH1 0x5 SLOAD PUSH1 0x7 SLOAD PUSH2 0xE00 SWAP1 TIMESTAMP PUSH2 0x10CA JUMP JUMPDEST LT PUSH2 0xE10 JUMPI PUSH1 0x1 PUSH1 0x6 SSTORE TIMESTAMP PUSH1 0x7 SSTORE JUMP JUMPDEST PUSH1 0x6 DUP1 SLOAD SWAP1 PUSH1 0x0 PUSH2 0xE20 DUP4 PUSH2 0x103B JUMP JUMPDEST SWAP2 SWAP1 POP SSTORE POP JUMP JUMPDEST PUSH1 0x0 DUP1 PUSH1 0x20 DUP4 DUP6 SUB SLT ISZERO PUSH2 0xE3A JUMPI PUSH1 0x0 DUP1 REVERT JUMPDEST DUP3 CALLDATALOAD PUSH8 0xFFFFFFFFFFFFFFFF DUP1 DUP3 GT ISZERO PUSH2 0xE52 JUMPI PUSH1 0x0 DUP1 REVERT JUMPDEST DUP2 DUP6 ADD SWAP2 POP DUP6 PUSH1 0x1F DUP4 ADD SLT PUSH2 0xE66 JUMPI PUSH1 0x0 DUP1 REVERT JUMPDEST DUP2 CALLDATALOAD DUP2 DUP2 GT ISZERO PUSH2 0xE75 JUMPI PUSH1 0x0 DUP1 REVERT JUMPDEST DUP7 PUSH1 0x20 DUP3 PUSH1 0x5 SHL DUP6 ADD ADD GT ISZERO PUSH2 0xE8A JUMPI PUSH1 0x0 DUP1 REVERT JUMPDEST PUSH1 0x20 SWAP3 SWAP1 SWAP3 ADD SWAP7 SWAP2 SWAP6 POP SWAP1 SWAP4 POP POP POP POP JUMP JUMPDEST PUSH1 0x20 DUP1 DUP3 MSTORE DUP3 MLOAD DUP3 DUP3 ADD DUP2 SWAP1 MSTORE PUSH1 0x0 SWAP2 SWAP1 DUP5 DUP3 ADD SWAP1 PUSH1 0x40 DUP6 ADD SWAP1 DUP5 JUMPDEST DUP2 DUP2 LT ISZERO PUSH2 0xED6 JUMPI DUP4 MLOAD ISZERO ISZERO DUP4 MSTORE SWAP3 DUP5 ADD SWAP3 SWAP2 DUP5 ADD SWAP2 PUSH1 0x1 ADD PUSH2 0xEB8 JUMP JUMPDEST POP SWAP1 SWAP7 SWAP6 POP POP POP POP POP POP JUMP JUMPDEST DUP1 CALLDATALOAD PUSH1 0x1 PUSH1 0x1 PUSH1 0xA0 SHL SUB DUP2 AND DUP2 EQ PUSH2 0xEF9 JUMPI PUSH1 0x0 DUP1 REVERT JUMPDEST SWAP2 SWAP1 POP JUMP JUMPDEST PUSH1 0x0 DUP1 PUSH1 0x40 DUP4 DUP6 SUB SLT ISZERO PUSH2 0xF11 JUMPI PUSH1 0x0 DUP1 REVERT JUMPDEST PUSH2 0xF1A DUP4 PUSH2 0xEE2 JUMP JUMPDEST SWAP5 PUSH1 0x20 SWAP4 SWAP1 SWAP4 ADD CALLDATALOAD SWAP4 POP POP POP JUMP JUMPDEST PUSH1 0x0 DUP1 PUSH1 0x0 PUSH1 0x60 DUP5 DUP7 SUB SLT ISZERO PUSH2 0xF3D JUMPI PUSH1 0x0 DUP1 REVERT JUMPDEST PUSH2 0xF46 DUP5 PUSH2 0xEE2 JUMP JUMPDEST SWAP6 PUSH1 0x20 DUP6 ADD CALLDATALOAD SWAP6 POP PUSH1 0x40 SWAP1 SWAP5 ADD CALLDATALOAD SWAP4 SWAP3 POP POP POP JUMP JUMPDEST PUSH1 0x0 PUSH1 0x20 DUP3 DUP5 SUB SLT ISZERO PUSH2 0xF6D JUMPI PUSH1 0x0 DUP1 REVERT JUMPDEST PUSH2 0xF76 DUP3 PUSH2 0xEE2 JUMP JUMPDEST SWAP4 SWAP3 POP POP POP JUMP JUMPDEST PUSH1 0x20 DUP1 DUP3 MSTORE DUP3 MLOAD DUP3 DUP3 ADD DUP2 SWAP1 MSTORE PUSH1 0x0 SWAP2 SWAP1 DUP5 DUP3 ADD SWAP1 PUSH1 0x40 DUP6 ADD SWAP1 DUP5 JUMPDEST DUP2 DUP2 LT ISZERO PUSH2 0xED6 JUMPI DUP4 MLOAD DUP4 MSTORE SWAP3 DUP5 ADD SWAP3 SWAP2 DUP5 ADD SWAP2 PUSH1 0x1 ADD PUSH2 0xF99 JUMP JUMPDEST PUSH1 0x0 DUP1 PUSH1 0x40 DUP4 DUP6 SUB SLT ISZERO PUSH2 0xFC8 JUMPI PUSH1 0x0 DUP1 REVERT JUMPDEST POP POP DUP1 CALLDATALOAD SWAP3 PUSH1 0x20 SWAP1 SWAP2 ADD CALLDATALOAD SWAP2 POP JUMP JUMPDEST PUSH4 0x4E487B71 PUSH1 0xE0 SHL PUSH1 0x0 MSTORE PUSH1 0x41 PUSH1 0x4 MSTORE PUSH1 0x24 PUSH1 0x0 REVERT JUMPDEST PUSH4 0x4E487B71 PUSH1 0xE0 SHL PUSH1 0x0 MSTORE PUSH1 0x32 PUSH1 0x4 MSTORE PUSH1 0x24 PUSH1 0x0 REVERT JUMPDEST PUSH1 0x0 PUSH1 0x20 DUP3 DUP5 SUB SLT ISZERO PUSH2 0x1015 JUMPI PUSH1 0x0 DUP1 REVERT JUMPDEST DUP2 MLOAD DUP1 ISZERO ISZERO DUP2 EQ PUSH2 0xF76 JUMPI PUSH1 0x0 DUP1 REVERT JUMPDEST PUSH4 0x4E487B71 PUSH1 0xE0 SHL PUSH1 0x0 MSTORE PUSH1 0x11 PUSH1 0x4 MSTORE PUSH1 0x24 PUSH1 0x0 REVERT JUMPDEST PUSH1 0x0 PUSH1 0x1 DUP3 ADD PUSH2 0x104D JUMPI PUSH2 0x104D PUSH2 0x1025 JUMP JUMPDEST POP PUSH1 0x1 ADD SWAP1 JUMP JUMPDEST PUSH1 0x20 DUP1 DUP3 MSTORE DUP2 DUP2 ADD MSTORE PUSH32 0x526174654C696D697465723A2063616C6C6572206973206E6F742061646D696E PUSH1 0x40 DUP3 ADD MSTORE PUSH1 0x60 ADD SWAP1 JUMP JUMPDEST PUSH1 0x20 DUP1 DUP3 MSTORE PUSH1 0x21 SWAP1 DUP3 ADD MSTORE PUSH32 0x526174654C696D697465723A20696E76616C6964206D61782072657175657374 PUSH1 0x40 DUP3 ADD MSTORE PUSH1 0x73 PUSH1 0xF8 SHL PUSH1 0x60 DUP3 ADD MSTORE PUSH1 0x80 ADD SWAP1 JUMP JUMPDEST DUP2 DUP2 SUB DUP2 DUP2 GT ISZERO PUSH2 0x529 JUMPI PUSH2 0x529 PUSH2 0x1025 JUMP INVALID LOG2 PUSH5 0x6970667358 0x22 SLT KECCAK256 DUP6 CALLDATASIZE XOR RETURNDATASIZE 0xE6 0xDF 0x2B 0xBB 0x5D 0xD7 CALLVALUE 0xCD 0xDE ADDMOD 0xBA SWAP7 CODECOPY 0xAA 0x4C 0xDE 0x4F 0xDF LOG4 RETURNDATASIZE REVERT 0x22 STATICCALL 0xBD PUSH4 0xEF081A64 PUSH20 0x6F6C634300081300330000000000000000000000 "},"methodIdentifiers":{"activateUserLimit(address)":"38ae48e9","admin()":"f851a440","batchCheck(address[])":"0045062a","checkAndRecordRequest(address)":"ba8237c4","deactivateUserLimit(address)":"bbd2275d","getGlobalLimitStatus()":"4b7bed8b","getRecentRequestCount(address,uint256)":"00ae047c","getUserLimitStatus(address)":"29e88501","getUserRequestCount(address)":"c166c458","getUserTimestamps(address,uint256)":"8522e51a","globalCurrentRequests()":"26638b90","globalMaxRequests()":"78f87348","globalTimeWindow()":"2a0200bb","globalWindowStart()":"543dbaac","isRateLimited(address)":"d14bf2bf","resetUserLimit(address)":"5f640e42","setUserRateLimit(address,uint256,uint256)":"1b7bd2b8","transferAdmin(address)":"75829def","updateGlobalLimit(uint256,uint256)":"ec179e8e","userLimits(address)":"2c1bc2b2","userRequestCounts(address)":"37f1836c","userRequestTimestamps(address,uint256)":"96a323af"}}}}}