{"contracts/ZKCredentialVerifier.sol":{"ZKCredentialVerifier":{"abi":[{"inputs":[],"stateMutability":"nonpayable","type":"constructor"},{"anonymous":false,"inputs":[{"indexed":true,"internalType":"address","name":"oldKey","type":"address"},{"indexed":true,"internalType":"address","name":"newKey","type":"address"}],"name":"VerifierKeyUpdated","type":"event"},{"anonymous":false,"inputs":[{"indexed":true,"internalType":"bytes32","name":"proofId","type":"bytes32"},{"indexed":true,"internalType":"address","name":"holder","type":"address"},{"indexed":false,"internalType":"bytes32","name":"credentialHash","type":"bytes32"}],"name":"ZKProofSubmitted","type":"event"},{"anonymous":false,"inputs":[{"indexed":true,"internalType":"bytes32","name":"proofId","type":"bytes32"},{"indexed":true,"internalType":"address","name":"verifier","type":"address"},{"indexed":false,"internalType":"bool","name":"isValid","type":"bool"}],"name":"ZKProofVerified","type":"event"},{"inputs":[],"name":"FIELD_SIZE","outputs":[{"internalType":"uint256","name":"","type":"uint256"}],"stateMutability":"view","type":"function"},{"inputs":[{"internalType":"bytes32[]","name":"_proofIds","type":"bytes32[]"}],"name":"batchVerify","outputs":[{"internalType":"bool[]","name":"","type":"bool[]"}],"stateMutability":"nonpayable","type":"function"},{"inputs":[{"internalType":"bytes32","name":"_dataHash","type":"bytes32"},{"internalType":"bytes32","name":"_secret","type":"bytes32"}],"name":"createCommitment","outputs":[{"internalType":"bytes32","name":"","type":"bytes32"}],"stateMutability":"pure","type":"function"},{"inputs":[{"internalType":"address","name":"_holder","type":"address"}],"name":"getHolderProofs","outputs":[{"internalType":"bytes32[]","name":"","type":"bytes32[]"}],"stateMutability":"view","type":"function"},{"inputs":[{"internalType":"bytes32","name":"_proofId","type":"bytes32"}],"name":"getProof","outputs":[{"components":[{"internalType":"bytes32","name":"proofId","type":"bytes32"},{"internalType":"address","name":"holder","type":"address"},{"internalType":"bytes32","name":"credentialHash","type":"bytes32"},{"internalType":"uint256[2]","name":"a","type":"uint256[2]"},{"internalType":"uint256[2]","name":"b","type":"uint256[2]"},{"internalType":"uint256[2]","name":"c","type":"uint256[2]"},{"internalType":"uint256","name":"timestamp","type":"uint256"},{"internalType":"bool","name":"isValid","type":"bool"},{"internalType":"bytes","name":"publicSignals","type":"bytes"}],"internalType":"struct ZKCredentialVerifier.ZKProof","name":"","type":"tuple"}],"stateMutability":"view","type":"function"},{"inputs":[{"internalType":"address","name":"_holder","type":"address"}],"name":"getVerificationCount","outputs":[{"internalType":"uint256","name":"","type":"uint256"}],"stateMutability":"view","type":"function"},{"inputs":[{"internalType":"address","name":"","type":"address"},{"internalType":"uint256","name":"","type":"uint256"}],"name":"holderProofs","outputs":[{"internalType":"bytes32","name":"","type":"bytes32"}],"stateMutability":"view","type":"function"},{"inputs":[{"internalType":"bytes32","name":"","type":"bytes32"}],"name":"proofs","outputs":[{"internalType":"bytes32","name":"proofId","type":"bytes32"},{"internalType":"address","name":"holder","type":"address"},{"internalType":"bytes32","name":"credentialHash","type":"bytes32"},{"internalType":"uint256","name":"timestamp","type":"uint256"},{"internalType":"bool","name":"isValid","type":"bool"},{"internalType":"bytes","name":"publicSignals","type":"bytes"}],"stateMutability":"view","type":"function"},{"inputs":[{"internalType":"address","name":"_holder","type":"address"},{"internalType":"bytes32","name":"_credentialHash","type":"bytes32"},{"internalType":"uint256[2]","name":"_a","type":"uint256[2]"},{"internalType":"uint256[2]","name":"_b","type":"uint256[2]"},{"internalType":"uint256[2]","name":"_c","type":"uint256[2]"},{"internalType":"bytes","name":"_publicSignals","type":"bytes"}],"name":"submitProof","outputs":[{"internalType":"bytes32","name":"","type":"bytes32"}],"stateMutability":"nonpayable","type":"function"},{"inputs":[{"internalType":"address","name":"_newKey","type":"address"}],"name":"updateVerifierKey","outputs":[],"stateMutability":"nonpayable","type":"function"},{"inputs":[{"internalType":"address","name":"","type":"address"}],"name":"verificationCounts","outputs":[{"internalType":"uint256","name":"","type":"uint256"}],"stateMutability":"view","type":"function"},{"inputs":[],"name":"verifierKey","outputs":[{"internalType":"address","name":"","type":"address"}],"stateMutability":"view","type":"function"},{"inputs":[{"internalType":"address","name":"_holder","type":"address"},{"internalType":"bytes32","name":"_proofId","type":"bytes32"}],"name":"verifyCredentialOwnership","outputs":[{"internalType":"bool","name":"","type":"bool"}],"stateMutability":"view","type":"function"},{"inputs":[{"internalType":"bytes32","name":"_proofId","type":"bytes32"},{"internalType":"bytes32","name":"_credentialHash","type":"bytes32"}],"name":"verifyCriteria","outputs":[{"internalType":"bool","name":"","type":"bool"}],"stateMutability":"view","type":"function"},{"inputs":[{"internalType":"bytes32","name":"_proofId","type":"bytes32"}],"name":"verifyProof","outputs":[{"internalType":"bool","name":"","type":"bool"}],"stateMutability":"view","type":"function"},{"inputs":[{"internalType":"bytes32","name":"_proofId","type":"bytes32"}],"name":"verifyProofAndCount","outputs":[{"internalType":"bool","name":"","type":"bool"}],"stateMutability":"nonpayable","type":"function"}],"evm":{"bytecode":{"linkReferences":{},"object":"608060405234801561001057600080fd5b50600380546001600160a01b03191633179055611ba0806100326000396000f3fe608060405234801561001057600080fd5b50600436106101005760003560e01c8063aa55572611610097578063c8fa615711610066578063c8fa615714610265578063cf351f9814610285578063f017c5a6146102bf578063f4a254ea146102e857600080fd5b8063aa555726146101f4578063b03f82bf14610214578063b142b4ec14610227578063b6299fda1461023a57600080fd5b80633e4f29e6116100d35780633e4f29e614610192578063414a37ba146101a5578063444d95b0146101ba57806384d28c40146101df57600080fd5b80631b80bb3a1461010557806325b4ca6c1461012e57806337ca76831461015c5780633d1abaa31461016f575b600080fd5b61011861011336600461153e565b6102fb565b60405161012591906115c6565b60405180910390f35b61014e61013c366004611680565b60026020526000908152604090205481565b604051908152602001610125565b61014e61016a3660046116a2565b61049d565b61018261017d36600461153e565b6104ce565b6040519015158152602001610125565b6101826101a03660046116a2565b61074e565b61014e600080516020611b4b83398151915281565b6101cd6101c836600461153e565b610931565b604051610125969594939291906116cc565b6101f26101ed366004611680565b610a00565b005b610207610202366004611680565b610af4565b6040516101259190611713565b61014e61022236600461180e565b610b60565b61018261023536600461153e565b610dd3565b60035461024d906001600160a01b031681565b6040516001600160a01b039091168152602001610125565b6102786102733660046118f3565b610f46565b6040516101259190611968565b61014e6102933660046119a2565b604080516020808201949094528082019290925280518083038201815260609092019052805191012090565b61014e6102cd366004611680565b6001600160a01b031660009081526002602052604090205490565b6101826102f63660046119a2565b6111f0565b610303611470565b600082815260208181526040918290208251610120810184528154815260018201546001600160a01b031692810192909252600280820154838501528351808501948590529293919260608501929091600385019182845b81548152602001906001019080831161035b575050509183525050604080518082019182905260209092019190600584019060029082845b815481526020019060010190808311610393575050509183525050604080518082019182905260209092019190600784019060029082845b8154815260200190600101908083116103cb57505050918352505060098201546020820152600a82015460ff1615156040820152600b82018054606090920191610414906119c4565b80601f0160208091040260200160405190810160405280929190818152602001828054610440906119c4565b801561048d5780601f106104625761010080835404028352916020019161048d565b820191906000526020600020905b81548152906001019060200180831161047057829003601f168201915b5050505050815250509050919050565b600160205281600052604060002081815481106104b957600080fd5b90600052602060002001600091509150505481565b600081815260208190526040812060018101546001600160a01b03166105365760405162461bcd60e51b81526020600482015260186024820152771692ce881c1c9bdbd988191bd95cc81b9bdd08195e1a5cdd60421b60448201526064015b60405180910390fd5b60408051610120810182528254815260018301546001600160a01b03166020820152600280840154828401528251808401938490526000936106c49392869260608501929091600385019182845b815481526020019060010190808311610584575050509183525050604080518082019182905260209092019190600584019060029082845b8154815260200190600101908083116105bc575050509183525050604080518082019182905260209092019190600784019060029082845b8154815260200190600101908083116105f457505050918352505060098201546020820152600a82015460ff1615156040820152600b8201805460609092019161063d906119c4565b80601f0160208091040260200160405190810160405280929190818152602001828054610669906119c4565b80156106b65780601f1061068b576101008083540402835291602001916106b6565b820191906000526020600020905b81548152906001019060200180831161069957829003601f168201915b505050505081525050611396565b600a8301805460ff1916821580159190911790915590915061070e5760018201546001600160a01b03166000908152600260205260408120805491610708836119fe565b91905055505b6040518115158152339085907f5ac8109f4e711ae4b00b1e6d6b38e1677906e71053c83680c25bd34fba4aa2cb9060200160405180910390a39392505050565b6000818152602081815260408083208151610120810183528154815260018201546001600160a01b031693810193909352600280820154848401528251808401938490528594936060850192600385019182845b8154815260200190600101908083116107a2575050509183525050604080518082019182905260209092019190600584019060029082845b8154815260200190600101908083116107da575050509183525050604080518082019182905260209092019190600784019060029082845b81548152602001906001019080831161081257505050918352505060098201546020820152600a82015460ff1615156040820152600b8201805460609092019161085b906119c4565b80601f0160208091040260200160405190810160405280929190818152602001828054610887906119c4565b80156108d45780601f106108a9576101008083540402835291602001916108d4565b820191906000526020600020905b8154815290600101906020018083116108b757829003601f168201915b5050505050815250509050836001600160a01b031681602001516001600160a01b031614158061090f575060208101516001600160a01b0316155b1561091e57600091505061092b565b61092781611396565b9150505b92915050565b60006020819052908152604090208054600182015460028301546009840154600a850154600b8601805495966001600160a01b03909516959394929360ff909216929161097d906119c4565b80601f01602080910402602001604051908101604052809291908181526020018280546109a9906119c4565b80156109f65780601f106109cb576101008083540402835291602001916109f6565b820191906000526020600020905b8154815290600101906020018083116109d957829003601f168201915b5050505050905086565b6003546001600160a01b03163314610a5a5760405162461bcd60e51b815260206004820152601c60248201527f5a4b3a206f6e6c792076657269666965722063616e2075706461746500000000604482015260640161052d565b6001600160a01b038116610aa25760405162461bcd60e51b815260206004820152600f60248201526e5a4b3a20696e76616c6964206b657960881b604482015260640161052d565b600380546001600160a01b038381166001600160a01b0319831681179093556040519116919082907f1914822f7de3a151719fac758a05e5f670c192a35410e39ac4786c30f4ba5c7490600090a35050565b6001600160a01b038116600090815260016020908152604091829020805483518184028101840190945280845260609392830182828015610b5457602002820191906000526020600020905b815481526020019060010190808311610b40575b50505050509050919050565b60006001600160a01b038716610bb85760405162461bcd60e51b815260206004820152601a60248201527f5a4b3a20696e76616c696420686f6c6465722061646472657373000000000000604482015260640161052d565b85610c055760405162461bcd60e51b815260206004820152601b60248201527f5a4b3a20696e76616c69642063726564656e7469616c20686173680000000000604482015260640161052d565b8451845184516040516bffffffffffffffffffffffff1960608c901b166020820152603481018a90524260548201526074810193909352609483019190915260b482015260009060d40160408051808303601f190181528282528051602091820120610120840183528084526001600160a01b038c81168386019081528585018d8152606087018d8152608088018d905260a088018c90524260c0890152600060e0890181905261010089018c905285815295869052959094208651815590516001820180546001600160a01b0319169190931617909155915160028084019190915592519094509091610cfd9160038401916114cd565b506080820151610d1390600583019060026114cd565b5060a0820151610d2990600783019060026114cd565b5060c0820151600982015560e0820151600a8201805460ff1916911515919091179055610100820151600b820190610d619082611a8a565b5050506001600160a01b03881660008181526001602081815260408084208054938401815584529220018390555182907f1eac577a2d253e04279c353521fe048b4922394196615f448279e0a83ae4840490610dc0908b815260200190565b60405180910390a3979650505050505050565b600081815260208190526040812060018101546001600160a01b0316610e365760405162461bcd60e51b81526020600482015260186024820152771692ce881c1c9bdbd988191bd95cc81b9bdd08195e1a5cdd60421b604482015260640161052d565b60408051610120810182528254815260018301546001600160a01b03166020820152600280840154828401528251808401909352600092610f3e9291859160608401916003840190828282602002820191815481526020019060010190808311610584575050509183525050604080518082019182905260058401805482526020938401939192909160029190600687019085018083116105bc575050509183525050604080518082019182905260078401805482526020938401939192909160029190600887019085018083116105f457505050918352505060098201546020820152600a82015460ff1615156040820152600b8201805460609092019161063d906119c4565b949350505050565b606060008267ffffffffffffffff811115610f6357610f63611757565b604051908082528060200260200182016040528015610f8c578160200160208202803683370190505b50905060005b838110156111e8576000806000878785818110610fb157610fb1611a25565b6020908102929092013583525081019190915260400160002060018101549091506001600160a01b0316156111b05760408051610120810182528254815260018301546001600160a01b031660208201526002808401548284015282518084019093526000926110e89291859160608401916003840190828282602002820191815481526020019060010190808311610584575050509183525050604080518082019182905260058401805482526020938401939192909160029190600687019085018083116105bc575050509183525050604080518082019182905260078401805482526020938401939192909160029190600887019085018083116105f457505050918352505060098201546020820152600a82015460ff1615156040820152600b8201805460609092019161063d906119c4565b600a8301805460ff191682158015919091179091559091506111325760018201546001600160a01b0316600090815260026020526040812080549161112c836119fe565b91905055505b3387878581811061114557611145611a25565b905060200201357f5ac8109f4e711ae4b00b1e6d6b38e1677906e71053c83680c25bd34fba4aa2cb8360405161117f911515815260200190565b60405180910390a38084848151811061119a5761119a611a25565b91151560209283029190910190910152506111d5565b60008383815181106111c4576111c4611a25565b911515602092830291909101909101525b50806111e0816119fe565b915050610f92565b509392505050565b6000828152602081815260408083208151610120810183528154815260018201546001600160a01b031693810193909352600280820154848401528251808401938490528594936060850192600385019182845b815481526020019060010190808311611244575050509183525050604080518082019182905260209092019190600584019060029082845b81548152602001906001019080831161127c575050509183525050604080518082019182905260209092019190600784019060029082845b8154815260200190600101908083116112b457505050918352505060098201546020820152600a82015460ff1615156040820152600b820180546060909201916112fd906119c4565b80601f0160208091040260200160405190810160405280929190818152602001828054611329906119c4565b80156113765780601f1061134b57610100808354040283529160200191611376565b820191906000526020600020905b81548152906001019060200180831161135957829003601f168201915b50505050508152505090508281604001511461091e57600091505061092b565b606081015151600090600080516020611b4b8339815191521115806113d15750606082015160200151600080516020611b4b83398151915211155b156113de57506000919050565b608082015151600080516020611b4b8339815191521115806114165750608082015160200151600080516020611b4b83398151915211155b1561142357506000919050565b60a082015151600080516020611b4b83398151915211158061145b575060a082015160200151600080516020611b4b83398151915211155b1561146857506000919050565b506001919050565b6040805161012081018252600080825260208201819052918101919091526060810161149a61150b565b81526020016114a761150b565b81526020016114b461150b565b8152600060208201819052604082015260609081015290565b82600281019282156114fb579160200282015b828111156114fb5782518255916020019190600101906114e0565b50611507929150611529565b5090565b60405180604001604052806002906020820280368337509192915050565b5b80821115611507576000815560010161152a565b60006020828403121561155057600080fd5b5035919050565b8060005b600281101561157a57815184526020938401939091019060010161155b565b50505050565b6000815180845260005b818110156115a65760208185018101518683018201520161158a565b506000602082860101526020601f19601f83011685010191505092915050565b6020815281516020820152600060208301516115ed60408401826001600160a01b03169052565b5060408301516060830152606083015161160a6080840182611557565b50608083015161161d60c0840182611557565b5060a083015161010061163281850183611557565b60c085015161014085015260e085015115156101608501528401516101808085015290506109276101a0840182611580565b80356001600160a01b038116811461167b57600080fd5b919050565b60006020828403121561169257600080fd5b61169b82611664565b9392505050565b600080604083850312156116b557600080fd5b6116be83611664565b946020939093013593505050565b86815260018060a01b0386166020820152846040820152836060820152821515608082015260c060a0820152600061170760c0830184611580565b98975050505050505050565b6020808252825182820181905260009190848201906040850190845b8181101561174b5783518352928401929184019160010161172f565b50909695505050505050565b634e487b7160e01b600052604160045260246000fd5b604051601f8201601f1916810167ffffffffffffffff8111828210171561179657611796611757565b604052919050565b600082601f8301126117af57600080fd5b6040516040810181811067ffffffffffffffff821117156117d2576117d2611757565b80604052508060408401858111156117e957600080fd5b845b818110156118035780358352602092830192016117eb565b509195945050505050565b600080600080600080610120878903121561182857600080fd5b61183187611664565b955060208088013595506118488960408a0161179e565b94506118578960808a0161179e565b93506118668960c08a0161179e565b925061010088013567ffffffffffffffff8082111561188457600080fd5b818a0191508a601f83011261189857600080fd5b8135818111156118aa576118aa611757565b6118bc601f8201601f1916850161176d565b91508082528b848285010111156118d257600080fd5b80848401858401376000848284010152508093505050509295509295509295565b6000806020838503121561190657600080fd5b823567ffffffffffffffff8082111561191e57600080fd5b818501915085601f83011261193257600080fd5b81358181111561194157600080fd5b8660208260051b850101111561195657600080fd5b60209290920196919550909350505050565b6020808252825182820181905260009190848201906040850190845b8181101561174b578351151583529284019291840191600101611984565b600080604083850312156119b557600080fd5b50508035926020909101359150565b600181811c908216806119d857607f821691505b6020821081036119f857634e487b7160e01b600052602260045260246000fd5b50919050565b600060018201611a1e57634e487b7160e01b600052601160045260246000fd5b5060010190565b634e487b7160e01b600052603260045260246000fd5b601f821115611a8557600081815260208120601f850160051c81016020861015611a625750805b601f850160051c820191505b81811015611a8157828155600101611a6e565b5050505b505050565b815167ffffffffffffffff811115611aa457611aa4611757565b611ab881611ab284546119c4565b84611a3b565b602080601f831160018114611aed5760008415611ad55750858301515b600019600386901b1c1916600185901b178555611a81565b600085815260208120601f198616915b82811015611b1c57888601518255948401946001909101908401611afd565b5085821015611b3a5787850151600019600388901b60f8161c191681555b5050505050600190811b0190555056fe30644e72e131a029b85045b68181585d2833e84879b9709143e1f593f0000001a2646970667358221220bdd1a9f7f766e90ddccad0e30efa8b571d93a79a4499c9d2af460d08510898e864736f6c63430008130033","opcodes":"PUSH1 0x80 PUSH1 0x40 MSTORE CALLVALUE DUP1 ISZERO PUSH2 0x10 JUMPI PUSH1 0x0 DUP1 REVERT JUMPDEST POP PUSH1 0x3 DUP1 SLOAD PUSH1 0x1 PUSH1 0x1 PUSH1 0xA0 SHL SUB NOT AND CALLER OR SWAP1 SSTORE PUSH2 0x1BA0 DUP1 PUSH2 0x32 PUSH1 0x0 CODECOPY PUSH1 0x0 RETURN INVALID PUSH1 0x80 PUSH1 0x40 MSTORE CALLVALUE DUP1 ISZERO PUSH2 0x10 JUMPI PUSH1 0x0 DUP1 REVERT JUMPDEST POP PUSH1 0x4 CALLDATASIZE LT PUSH2 0x100 JUMPI PUSH1 0x0 CALLDATALOAD PUSH1 0xE0 SHR DUP1 PUSH4 0xAA555726 GT PUSH2 0x97 JUMPI DUP1 PUSH4 0xC8FA6157 GT PUSH2 0x66 JUMPI DUP1 PUSH4 0xC8FA6157 EQ PUSH2 0x265 JUMPI DUP1 PUSH4 0xCF351F98 EQ PUSH2 0x285 JUMPI DUP1 PUSH4 0xF017C5A6 EQ PUSH2 0x2BF JUMPI DUP1 PUSH4 0xF4A254EA EQ PUSH2 0x2E8 JUMPI PUSH1 0x0 DUP1 REVERT JUMPDEST DUP1 PUSH4 0xAA555726 EQ PUSH2 0x1F4 JUMPI DUP1 PUSH4 0xB03F82BF EQ PUSH2 0x214 JUMPI DUP1 PUSH4 0xB142B4EC EQ PUSH2 0x227 JUMPI DUP1 PUSH4 0xB6299FDA EQ PUSH2 0x23A JUMPI PUSH1 0x0 DUP1 REVERT JUMPDEST DUP1 PUSH4 0x3E4F29E6 GT PUSH2 0xD3 JUMPI DUP1 PUSH4 0x3E4F29E6 EQ PUSH2 0x192 JUMPI DUP1 PUSH4 0x414A37BA EQ PUSH2 0x1A5 JUMPI DUP1 PUSH4 0x444D95B0 EQ PUSH2 0x1BA JUMPI DUP1 PUSH4 0x84D28C40 EQ PUSH2 0x1DF JUMPI PUSH1 0x0 DUP1 REVERT JUMPDEST DUP1 PUSH4 0x1B80BB3A EQ PUSH2 0x105 JUMPI DUP1 PUSH4 0x25B4CA6C EQ PUSH2 0x12E JUMPI DUP1 PUSH4 0x37CA7683 EQ PUSH2 0x15C JUMPI DUP1 PUSH4 0x3D1ABAA3 EQ PUSH2 0x16F JUMPI JUMPDEST PUSH1 0x0 DUP1 REVERT JUMPDEST PUSH2 0x118 PUSH2 0x113 CALLDATASIZE PUSH1 0x4 PUSH2 0x153E JUMP JUMPDEST PUSH2 0x2FB JUMP JUMPDEST PUSH1 0x40 MLOAD PUSH2 0x125 SWAP2 SWAP1 PUSH2 0x15C6 JUMP JUMPDEST PUSH1 0x40 MLOAD DUP1 SWAP2 SUB SWAP1 RETURN JUMPDEST PUSH2 0x14E PUSH2 0x13C CALLDATASIZE PUSH1 0x4 PUSH2 0x1680 JUMP JUMPDEST PUSH1 0x2 PUSH1 0x20 MSTORE PUSH1 0x0 SWAP1 DUP2 MSTORE PUSH1 0x40 SWAP1 KECCAK256 SLOAD DUP2 JUMP JUMPDEST PUSH1 0x40 MLOAD SWAP1 DUP2 MSTORE PUSH1 0x20 ADD PUSH2 0x125 JUMP JUMPDEST PUSH2 0x14E PUSH2 0x16A CALLDATASIZE PUSH1 0x4 PUSH2 0x16A2 JUMP JUMPDEST PUSH2 0x49D JUMP JUMPDEST PUSH2 0x182 PUSH2 0x17D CALLDATASIZE PUSH1 0x4 PUSH2 0x153E JUMP JUMPDEST PUSH2 0x4CE JUMP JUMPDEST PUSH1 0x40 MLOAD SWAP1 ISZERO ISZERO DUP2 MSTORE PUSH1 0x20 ADD PUSH2 0x125 JUMP JUMPDEST PUSH2 0x182 PUSH2 0x1A0 CALLDATASIZE PUSH1 0x4 PUSH2 0x16A2 JUMP JUMPDEST PUSH2 0x74E JUMP JUMPDEST PUSH2 0x14E PUSH1 0x0 DUP1 MLOAD PUSH1 0x20 PUSH2 0x1B4B DUP4 CODECOPY DUP2 MLOAD SWAP2 MSTORE DUP2 JUMP JUMPDEST PUSH2 0x1CD PUSH2 0x1C8 CALLDATASIZE PUSH1 0x4 PUSH2 0x153E JUMP JUMPDEST PUSH2 0x931 JUMP JUMPDEST PUSH1 0x40 MLOAD PUSH2 0x125 SWAP7 SWAP6 SWAP5 SWAP4 SWAP3 SWAP2 SWAP1 PUSH2 0x16CC JUMP JUMPDEST PUSH2 0x1F2 PUSH2 0x1ED CALLDATASIZE PUSH1 0x4 PUSH2 0x1680 JUMP JUMPDEST PUSH2 0xA00 JUMP JUMPDEST STOP JUMPDEST PUSH2 0x207 PUSH2 0x202 CALLDATASIZE PUSH1 0x4 PUSH2 0x1680 JUMP JUMPDEST PUSH2 0xAF4 JUMP JUMPDEST PUSH1 0x40 MLOAD PUSH2 0x125 SWAP2 SWAP1 PUSH2 0x1713 JUMP JUMPDEST PUSH2 0x14E PUSH2 0x222 CALLDATASIZE PUSH1 0x4 PUSH2 0x180E JUMP JUMPDEST PUSH2 0xB60 JUMP JUMPDEST PUSH2 0x182 PUSH2 0x235 CALLDATASIZE PUSH1 0x4 PUSH2 0x153E JUMP JUMPDEST PUSH2 0xDD3 JUMP JUMPDEST PUSH1 0x3 SLOAD PUSH2 0x24D SWAP1 PUSH1 0x1 PUSH1 0x1 PUSH1 0xA0 SHL SUB AND DUP2 JUMP JUMPDEST PUSH1 0x40 MLOAD PUSH1 0x1 PUSH1 0x1 PUSH1 0xA0 SHL SUB SWAP1 SWAP2 AND DUP2 MSTORE PUSH1 0x20 ADD PUSH2 0x125 JUMP JUMPDEST PUSH2 0x278 PUSH2 0x273 CALLDATASIZE PUSH1 0x4 PUSH2 0x18F3 JUMP JUMPDEST PUSH2 0xF46 JUMP JUMPDEST PUSH1 0x40 MLOAD PUSH2 0x125 SWAP2 SWAP1 PUSH2 0x1968 JUMP JUMPDEST PUSH2 0x14E PUSH2 0x293 CALLDATASIZE PUSH1 0x4 PUSH2 0x19A2 JUMP JUMPDEST PUSH1 0x40 DUP1 MLOAD PUSH1 0x20 DUP1 DUP3 ADD SWAP5 SWAP1 SWAP5 MSTORE DUP1 DUP3 ADD SWAP3 SWAP1 SWAP3 MSTORE DUP1 MLOAD DUP1 DUP4 SUB DUP3 ADD DUP2 MSTORE PUSH1 0x60 SWAP1 SWAP3 ADD SWAP1 MSTORE DUP1 MLOAD SWAP2 ADD KECCAK256 SWAP1 JUMP JUMPDEST PUSH2 0x14E PUSH2 0x2CD CALLDATASIZE PUSH1 0x4 PUSH2 0x1680 JUMP JUMPDEST PUSH1 0x1 PUSH1 0x1 PUSH1 0xA0 SHL SUB AND PUSH1 0x0 SWAP1 DUP2 MSTORE PUSH1 0x2 PUSH1 0x20 MSTORE PUSH1 0x40 SWAP1 KECCAK256 SLOAD SWAP1 JUMP JUMPDEST PUSH2 0x182 PUSH2 0x2F6 CALLDATASIZE PUSH1 0x4 PUSH2 0x19A2 JUMP JUMPDEST PUSH2 0x11F0 JUMP JUMPDEST PUSH2 0x303 PUSH2 0x1470 JUMP JUMPDEST PUSH1 0x0 DUP3 DUP2 MSTORE PUSH1 0x20 DUP2 DUP2 MSTORE PUSH1 0x40 SWAP2 DUP3 SWAP1 KECCAK256 DUP3 MLOAD PUSH2 0x120 DUP2 ADD DUP5 MSTORE DUP2 SLOAD DUP2 MSTORE PUSH1 0x1 DUP3 ADD SLOAD PUSH1 0x1 PUSH1 0x1 PUSH1 0xA0 SHL SUB AND SWAP3 DUP2 ADD SWAP3 SWAP1 SWAP3 MSTORE PUSH1 0x2 DUP1 DUP3 ADD SLOAD DUP4 DUP6 ADD MSTORE DUP4 MLOAD DUP1 DUP6 ADD SWAP5 DUP6 SWAP1 MSTORE SWAP3 SWAP4 SWAP2 SWAP3 PUSH1 0x60 DUP6 ADD SWAP3 SWAP1 SWAP2 PUSH1 0x3 DUP6 ADD SWAP2 DUP3 DUP5 JUMPDEST DUP2 SLOAD DUP2 MSTORE PUSH1 0x20 ADD SWAP1 PUSH1 0x1 ADD SWAP1 DUP1 DUP4 GT PUSH2 0x35B JUMPI POP POP POP SWAP2 DUP4 MSTORE POP POP PUSH1 0x40 DUP1 MLOAD DUP1 DUP3 ADD SWAP2 DUP3 SWAP1 MSTORE PUSH1 0x20 SWAP1 SWAP3 ADD SWAP2 SWAP1 PUSH1 0x5 DUP5 ADD SWAP1 PUSH1 0x2 SWAP1 DUP3 DUP5 JUMPDEST DUP2 SLOAD DUP2 MSTORE PUSH1 0x20 ADD SWAP1 PUSH1 0x1 ADD SWAP1 DUP1 DUP4 GT PUSH2 0x393 JUMPI POP POP POP SWAP2 DUP4 MSTORE POP POP PUSH1 0x40 DUP1 MLOAD DUP1 DUP3 ADD SWAP2 DUP3 SWAP1 MSTORE PUSH1 0x20 SWAP1 SWAP3 ADD SWAP2 SWAP1 PUSH1 0x7 DUP5 ADD SWAP1 PUSH1 0x2 SWAP1 DUP3 DUP5 JUMPDEST DUP2 SLOAD DUP2 MSTORE PUSH1 0x20 ADD SWAP1 PUSH1 0x1 ADD SWAP1 DUP1 DUP4 GT PUSH2 0x3CB JUMPI POP POP POP SWAP2 DUP4 MSTORE POP POP PUSH1 0x9 DUP3 ADD SLOAD PUSH1 0x20 DUP3 ADD MSTORE PUSH1 0xA DUP3 ADD SLOAD PUSH1 0xFF AND ISZERO ISZERO PUSH1 0x40 DUP3 ADD MSTORE PUSH1 0xB DUP3 ADD DUP1 SLOAD PUSH1 0x60 SWAP1 SWAP3 ADD SWAP2 PUSH2 0x414 SWAP1 PUSH2 0x19C4 JUMP JUMPDEST DUP1 PUSH1 0x1F ADD PUSH1 0x20 DUP1 SWAP2 DIV MUL PUSH1 0x20 ADD PUSH1 0x40 MLOAD SWAP1 DUP2 ADD PUSH1 0x40 MSTORE DUP1 SWAP3 SWAP2 SWAP1 DUP2 DUP2 MSTORE PUSH1 0x20 ADD DUP3 DUP1 SLOAD PUSH2 0x440 SWAP1 PUSH2 0x19C4 JUMP JUMPDEST DUP1 ISZERO PUSH2 0x48D JUMPI DUP1 PUSH1 0x1F LT PUSH2 0x462 JUMPI PUSH2 0x100 DUP1 DUP4 SLOAD DIV MUL DUP4 MSTORE SWAP2 PUSH1 0x20 ADD SWAP2 PUSH2 0x48D JUMP JUMPDEST DUP3 ADD SWAP2 SWAP1 PUSH1 0x0 MSTORE PUSH1 0x20 PUSH1 0x0 KECCAK256 SWAP1 JUMPDEST DUP2 SLOAD DUP2 MSTORE SWAP1 PUSH1 0x1 ADD SWAP1 PUSH1 0x20 ADD DUP1 DUP4 GT PUSH2 0x470 JUMPI DUP3 SWAP1 SUB PUSH1 0x1F AND DUP3 ADD SWAP2 JUMPDEST POP POP POP POP POP DUP2 MSTORE POP POP SWAP1 POP SWAP2 SWAP1 POP JUMP JUMPDEST PUSH1 0x1 PUSH1 0x20 MSTORE DUP2 PUSH1 0x0 MSTORE PUSH1 0x40 PUSH1 0x0 KECCAK256 DUP2 DUP2 SLOAD DUP2 LT PUSH2 0x4B9 JUMPI PUSH1 0x0 DUP1 REVERT JUMPDEST SWAP1 PUSH1 0x0 MSTORE PUSH1 0x20 PUSH1 0x0 KECCAK256 ADD PUSH1 0x0 SWAP2 POP SWAP2 POP POP SLOAD DUP2 JUMP JUMPDEST PUSH1 0x0 DUP2 DUP2 MSTORE PUSH1 0x20 DUP2 SWAP1 MSTORE PUSH1 0x40 DUP2 KECCAK256 PUSH1 0x1 DUP2 ADD SLOAD PUSH1 0x1 PUSH1 0x1 PUSH1 0xA0 SHL SUB AND PUSH2 0x536 JUMPI PUSH1 0x40 MLOAD PUSH3 0x461BCD PUSH1 0xE5 SHL DUP2 MSTORE PUSH1 0x20 PUSH1 0x4 DUP3 ADD MSTORE PUSH1 0x18 PUSH1 0x24 DUP3 ADD MSTORE PUSH24 0x1692CE881C1C9BDBD988191BD95CC81B9BDD08195E1A5CDD PUSH1 0x42 SHL PUSH1 0x44 DUP3 ADD MSTORE PUSH1 0x64 ADD JUMPDEST PUSH1 0x40 MLOAD DUP1 SWAP2 SUB SWAP1 REVERT JUMPDEST PUSH1 0x40 DUP1 MLOAD PUSH2 0x120 DUP2 ADD DUP3 MSTORE DUP3 SLOAD DUP2 MSTORE PUSH1 0x1 DUP4 ADD SLOAD PUSH1 0x1 PUSH1 0x1 PUSH1 0xA0 SHL SUB AND PUSH1 0x20 DUP3 ADD MSTORE PUSH1 0x2 DUP1 DUP5 ADD SLOAD DUP3 DUP5 ADD MSTORE DUP3 MLOAD DUP1 DUP5 ADD SWAP4 DUP5 SWAP1 MSTORE PUSH1 0x0 SWAP4 PUSH2 0x6C4 SWAP4 SWAP3 DUP7 SWAP3 PUSH1 0x60 DUP6 ADD SWAP3 SWAP1 SWAP2 PUSH1 0x3 DUP6 ADD SWAP2 DUP3 DUP5 JUMPDEST DUP2 SLOAD DUP2 MSTORE PUSH1 0x20 ADD SWAP1 PUSH1 0x1 ADD SWAP1 DUP1 DUP4 GT PUSH2 0x584 JUMPI POP POP POP SWAP2 DUP4 MSTORE POP POP PUSH1 0x40 DUP1 MLOAD DUP1 DUP3 ADD SWAP2 DUP3 SWAP1 MSTORE PUSH1 0x20 SWAP1 SWAP3 ADD SWAP2 SWAP1 PUSH1 0x5 DUP5 ADD SWAP1 PUSH1 0x2 SWAP1 DUP3 DUP5 JUMPDEST DUP2 SLOAD DUP2 MSTORE PUSH1 0x20 ADD SWAP1 PUSH1 0x1 ADD SWAP1 DUP1 DUP4 GT PUSH2 0x5BC JUMPI POP POP POP SWAP2 DUP4 MSTORE POP POP PUSH1 0x40 DUP1 MLOAD DUP1 DUP3 ADD SWAP2 DUP3 SWAP1 MSTORE PUSH1 0x20 SWAP1 SWAP3 ADD SWAP2 SWAP1 PUSH1 0x7 DUP5 ADD SWAP1 PUSH1 0x2 SWAP1 DUP3 DUP5 JUMPDEST DUP2 SLOAD DUP2 MSTORE PUSH1 0x20 ADD SWAP1 PUSH1 0x1 ADD SWAP1 DUP1 DUP4 GT PUSH2 0x5F4 JUMPI POP POP POP SWAP2 DUP4 MSTORE POP POP PUSH1 0x9 DUP3 ADD SLOAD PUSH1 0x20 DUP3 ADD MSTORE PUSH1 0xA DUP3 ADD SLOAD PUSH1 0xFF AND ISZERO ISZERO PUSH1 0x40 DUP3 ADD MSTORE PUSH1 0xB DUP3 ADD DUP1 SLOAD PUSH1 0x60 SWAP1 SWAP3 ADD SWAP2 PUSH2 0x63D SWAP1 PUSH2 0x19C4 JUMP JUMPDEST DUP1 PUSH1 0x1F ADD PUSH1 0x20 DUP1 SWAP2 DIV MUL PUSH1 0x20 ADD PUSH1 0x40 MLOAD SWAP1 DUP2 ADD PUSH1 0x40 MSTORE DUP1 SWAP3 SWAP2 SWAP1 DUP2 DUP2 MSTORE PUSH1 0x20 ADD DUP3 DUP1 SLOAD PUSH2 0x669 SWAP1 PUSH2 0x19C4 JUMP JUMPDEST DUP1 ISZERO PUSH2 0x6B6 JUMPI DUP1 PUSH1 0x1F LT PUSH2 0x68B JUMPI PUSH2 0x100 DUP1 DUP4 SLOAD DIV MUL DUP4 MSTORE SWAP2 PUSH1 0x20 ADD SWAP2 PUSH2 0x6B6 JUMP JUMPDEST DUP3 ADD SWAP2 SWAP1 PUSH1 0x0 MSTORE PUSH1 0x20 PUSH1 0x0 KECCAK256 SWAP1 JUMPDEST DUP2 SLOAD DUP2 MSTORE SWAP1 PUSH1 0x1 ADD SWAP1 PUSH1 0x20 ADD DUP1 DUP4 GT PUSH2 0x699 JUMPI DUP3 SWAP1 SUB PUSH1 0x1F AND DUP3 ADD SWAP2 JUMPDEST POP POP POP POP POP DUP2 MSTORE POP POP PUSH2 0x1396 JUMP JUMPDEST PUSH1 0xA DUP4 ADD DUP1 SLOAD PUSH1 0xFF NOT AND DUP3 ISZERO DUP1 ISZERO SWAP2 SWAP1 SWAP2 OR SWAP1 SWAP2 SSTORE SWAP1 SWAP2 POP PUSH2 0x70E JUMPI PUSH1 0x1 DUP3 ADD SLOAD PUSH1 0x1 PUSH1 0x1 PUSH1 0xA0 SHL SUB AND PUSH1 0x0 SWAP1 DUP2 MSTORE PUSH1 0x2 PUSH1 0x20 MSTORE PUSH1 0x40 DUP2 KECCAK256 DUP1 SLOAD SWAP2 PUSH2 0x708 DUP4 PUSH2 0x19FE JUMP JUMPDEST SWAP2 SWAP1 POP SSTORE POP JUMPDEST PUSH1 0x40 MLOAD DUP2 ISZERO ISZERO DUP2 MSTORE CALLER SWAP1 DUP6 SWAP1 PUSH32 0x5AC8109F4E711AE4B00B1E6D6B38E1677906E71053C83680C25BD34FBA4AA2CB SWAP1 PUSH1 0x20 ADD PUSH1 0x40 MLOAD DUP1 SWAP2 SUB SWAP1 LOG3 SWAP4 SWAP3 POP POP POP JUMP JUMPDEST PUSH1 0x0 DUP2 DUP2 MSTORE PUSH1 0x20 DUP2 DUP2 MSTORE PUSH1 0x40 DUP1 DUP4 KECCAK256 DUP2 MLOAD PUSH2 0x120 DUP2 ADD DUP4 MSTORE DUP2 SLOAD DUP2 MSTORE PUSH1 0x1 DUP3 ADD SLOAD PUSH1 0x1 PUSH1 0x1 PUSH1 0xA0 SHL SUB AND SWAP4 DUP2 ADD SWAP4 SWAP1 SWAP4 MSTORE PUSH1 0x2 DUP1 DUP3 ADD SLOAD DUP5 DUP5 ADD MSTORE DUP3 MLOAD DUP1 DUP5 ADD SWAP4 DUP5 SWAP1 MSTORE DUP6 SWAP5 SWAP4 PUSH1 0x60 DUP6 ADD SWAP3 PUSH1 0x3 DUP6 ADD SWAP2 DUP3 DUP5 JUMPDEST DUP2 SLOAD DUP2 MSTORE PUSH1 0x20 ADD SWAP1 PUSH1 0x1 ADD SWAP1 DUP1 DUP4 GT PUSH2 0x7A2 JUMPI POP POP POP SWAP2 DUP4 MSTORE POP POP PUSH1 0x40 DUP1 MLOAD DUP1 DUP3 ADD SWAP2 DUP3 SWAP1 MSTORE PUSH1 0x20 SWAP1 SWAP3 ADD SWAP2 SWAP1 PUSH1 0x5 DUP5 ADD SWAP1 PUSH1 0x2 SWAP1 DUP3 DUP5 JUMPDEST DUP2 SLOAD DUP2 MSTORE PUSH1 0x20 ADD SWAP1 PUSH1 0x1 ADD SWAP1 DUP1 DUP4 GT PUSH2 0x7DA JUMPI POP POP POP SWAP2 DUP4 MSTORE POP POP PUSH1 0x40 DUP1 MLOAD DUP1 DUP3 ADD SWAP2 DUP3 SWAP1 MSTORE PUSH1 0x20 SWAP1 SWAP3 ADD SWAP2 SWAP1 PUSH1 0x7 DUP5 ADD SWAP1 PUSH1 0x2 SWAP1 DUP3 DUP5 JUMPDEST DUP2 SLOAD DUP2 MSTORE PUSH1 0x20 ADD SWAP1 PUSH1 0x1 ADD SWAP1 DUP1 DUP4 GT PUSH2 0x812 JUMPI POP POP POP SWAP2 DUP4 MSTORE POP POP PUSH1 0x9 DUP3 ADD SLOAD PUSH1 0x20 DUP3 ADD MSTORE PUSH1 0xA DUP3 ADD SLOAD PUSH1 0xFF AND ISZERO ISZERO PUSH1 0x40 DUP3 ADD MSTORE PUSH1 0xB DUP3 ADD DUP1 SLOAD PUSH1 0x60 SWAP1 SWAP3 ADD SWAP2 PUSH2 0x85B SWAP1 PUSH2 0x19C4 JUMP JUMPDEST DUP1 PUSH1 0x1F ADD PUSH1 0x20 DUP1 SWAP2 DIV MUL PUSH1 0x20 ADD PUSH1 0x40 MLOAD SWAP1 DUP2 ADD PUSH1 0x40 MSTORE DUP1 SWAP3 SWAP2 SWAP1 DUP2 DUP2 MSTORE PUSH1 0x20 ADD DUP3 DUP1 SLOAD PUSH2 0x887 SWAP1 PUSH2 0x19C4 JUMP JUMPDEST DUP1 ISZERO PUSH2 0x8D4 JUMPI DUP1 PUSH1 0x1F LT PUSH2 0x8A9 JUMPI PUSH2 0x100 DUP1 DUP4 SLOAD DIV MUL DUP4 MSTORE SWAP2 PUSH1 0x20 ADD SWAP2 PUSH2 0x8D4 JUMP JUMPDEST DUP3 ADD SWAP2 SWAP1 PUSH1 0x0 MSTORE PUSH1 0x20 PUSH1 0x0 KECCAK256 SWAP1 JUMPDEST DUP2 SLOAD DUP2 MSTORE SWAP1 PUSH1 0x1 ADD SWAP1 PUSH1 0x20 ADD DUP1 DUP4 GT PUSH2 0x8B7 JUMPI DUP3 SWAP1 SUB PUSH1 0x1F AND DUP3 ADD SWAP2 JUMPDEST POP POP POP POP POP DUP2 MSTORE POP POP SWAP1 POP DUP4 PUSH1 0x1 PUSH1 0x1 PUSH1 0xA0 SHL SUB AND DUP2 PUSH1 0x20 ADD MLOAD PUSH1 0x1 PUSH1 0x1 PUSH1 0xA0 SHL SUB AND EQ ISZERO DUP1 PUSH2 0x90F JUMPI POP PUSH1 0x20 DUP2 ADD MLOAD PUSH1 0x1 PUSH1 0x1 PUSH1 0xA0 SHL SUB AND ISZERO JUMPDEST ISZERO PUSH2 0x91E JUMPI PUSH1 0x0 SWAP2 POP POP PUSH2 0x92B JUMP JUMPDEST PUSH2 0x927 DUP2 PUSH2 0x1396 JUMP JUMPDEST SWAP2 POP POP JUMPDEST SWAP3 SWAP2 POP POP JUMP JUMPDEST PUSH1 0x0 PUSH1 0x20 DUP2 SWAP1 MSTORE SWAP1 DUP2 MSTORE PUSH1 0x40 SWAP1 KECCAK256 DUP1 SLOAD PUSH1 0x1 DUP3 ADD SLOAD PUSH1 0x2 DUP4 ADD SLOAD PUSH1 0x9 DUP5 ADD SLOAD PUSH1 0xA DUP6 ADD SLOAD PUSH1 0xB DUP7 ADD DUP1 SLOAD SWAP6 SWAP7 PUSH1 0x1 PUSH1 0x1 PUSH1 0xA0 SHL SUB SWAP1 SWAP6 AND SWAP6 SWAP4 SWAP5 SWAP3 SWAP4 PUSH1 0xFF SWAP1 SWAP3 AND SWAP3 SWAP2 PUSH2 0x97D SWAP1 PUSH2 0x19C4 JUMP JUMPDEST DUP1 PUSH1 0x1F ADD PUSH1 0x20 DUP1 SWAP2 DIV MUL PUSH1 0x20 ADD PUSH1 0x40 MLOAD SWAP1 DUP2 ADD PUSH1 0x40 MSTORE DUP1 SWAP3 SWAP2 SWAP1 DUP2 DUP2 MSTORE PUSH1 0x20 ADD DUP3 DUP1 SLOAD PUSH2 0x9A9 SWAP1 PUSH2 0x19C4 JUMP JUMPDEST DUP1 ISZERO PUSH2 0x9F6 JUMPI DUP1 PUSH1 0x1F LT PUSH2 0x9CB JUMPI PUSH2 0x100 DUP1 DUP4 SLOAD DIV MUL DUP4 MSTORE SWAP2 PUSH1 0x20 ADD SWAP2 PUSH2 0x9F6 JUMP JUMPDEST DUP3 ADD SWAP2 SWAP1 PUSH1 0x0 MSTORE PUSH1 0x20 PUSH1 0x0 KECCAK256 SWAP1 JUMPDEST DUP2 SLOAD DUP2 MSTORE SWAP1 PUSH1 0x1 ADD SWAP1 PUSH1 0x20 ADD DUP1 DUP4 GT PUSH2 0x9D9 JUMPI DUP3 SWAP1 SUB PUSH1 0x1F AND DUP3 ADD SWAP2 JUMPDEST POP POP POP POP POP SWAP1 POP DUP7 JUMP JUMPDEST PUSH1 0x3 SLOAD PUSH1 0x1 PUSH1 0x1 PUSH1 0xA0 SHL SUB AND CALLER EQ PUSH2 0xA5A JUMPI PUSH1 0x40 MLOAD PUSH3 0x461BCD PUSH1 0xE5 SHL DUP2 MSTORE PUSH1 0x20 PUSH1 0x4 DUP3 ADD MSTORE PUSH1 0x1C PUSH1 0x24 DUP3 ADD MSTORE PUSH32 0x5A4B3A206F6E6C792076657269666965722063616E2075706461746500000000 PUSH1 0x44 DUP3 ADD MSTORE PUSH1 0x64 ADD PUSH2 0x52D JUMP JUMPDEST PUSH1 0x1 PUSH1 0x1 PUSH1 0xA0 SHL SUB DUP2 AND PUSH2 0xAA2 JUMPI PUSH1 0x40 MLOAD PUSH3 0x461BCD PUSH1 0xE5 SHL DUP2 MSTORE PUSH1 0x20 PUSH1 0x4 DUP3 ADD MSTORE PUSH1 0xF PUSH1 0x24 DUP3 ADD MSTORE PUSH15 0x5A4B3A20696E76616C6964206B6579 PUSH1 0x88 SHL PUSH1 0x44 DUP3 ADD MSTORE PUSH1 0x64 ADD PUSH2 0x52D JUMP JUMPDEST PUSH1 0x3 DUP1 SLOAD PUSH1 0x1 PUSH1 0x1 PUSH1 0xA0 SHL SUB DUP4 DUP2 AND PUSH1 0x1 PUSH1 0x1 PUSH1 0xA0 SHL SUB NOT DUP4 AND DUP2 OR SWAP1 SWAP4 SSTORE PUSH1 0x40 MLOAD SWAP2 AND SWAP2 SWAP1 DUP3 SWAP1 PUSH32 0x1914822F7DE3A151719FAC758A05E5F670C192A35410E39AC4786C30F4BA5C74 SWAP1 PUSH1 0x0 SWAP1 LOG3 POP POP JUMP JUMPDEST PUSH1 0x1 PUSH1 0x1 PUSH1 0xA0 SHL SUB DUP2 AND PUSH1 0x0 SWAP1 DUP2 MSTORE PUSH1 0x1 PUSH1 0x20 SWAP1 DUP2 MSTORE PUSH1 0x40 SWAP2 DUP3 SWAP1 KECCAK256 DUP1 SLOAD DUP4 MLOAD DUP2 DUP5 MUL DUP2 ADD DUP5 ADD SWAP1 SWAP5 MSTORE DUP1 DUP5 MSTORE PUSH1 0x60 SWAP4 SWAP3 DUP4 ADD DUP3 DUP3 DUP1 ISZERO PUSH2 0xB54 JUMPI PUSH1 0x20 MUL DUP3 ADD SWAP2 SWAP1 PUSH1 0x0 MSTORE PUSH1 0x20 PUSH1 0x0 KECCAK256 SWAP1 JUMPDEST DUP2 SLOAD DUP2 MSTORE PUSH1 0x20 ADD SWAP1 PUSH1 0x1 ADD SWAP1 DUP1 DUP4 GT PUSH2 0xB40 JUMPI JUMPDEST POP POP POP POP POP SWAP1 POP SWAP2 SWAP1 POP JUMP JUMPDEST PUSH1 0x0 PUSH1 0x1 PUSH1 0x1 PUSH1 0xA0 SHL SUB DUP8 AND PUSH2 0xBB8 JUMPI PUSH1 0x40 MLOAD PUSH3 0x461BCD PUSH1 0xE5 SHL DUP2 MSTORE PUSH1 0x20 PUSH1 0x4 DUP3 ADD MSTORE PUSH1 0x1A PUSH1 0x24 DUP3 ADD MSTORE PUSH32 0x5A4B3A20696E76616C696420686F6C6465722061646472657373000000000000 PUSH1 0x44 DUP3 ADD MSTORE PUSH1 0x64 ADD PUSH2 0x52D JUMP JUMPDEST DUP6 PUSH2 0xC05 JUMPI PUSH1 0x40 MLOAD PUSH3 0x461BCD PUSH1 0xE5 SHL DUP2 MSTORE PUSH1 0x20 PUSH1 0x4 DUP3 ADD MSTORE PUSH1 0x1B PUSH1 0x24 DUP3 ADD MSTORE PUSH32 0x5A4B3A20696E76616C69642063726564656E7469616C20686173680000000000 PUSH1 0x44 DUP3 ADD MSTORE PUSH1 0x64 ADD PUSH2 0x52D JUMP JUMPDEST DUP5 MLOAD DUP5 MLOAD DUP5 MLOAD PUSH1 0x40 MLOAD PUSH12 0xFFFFFFFFFFFFFFFFFFFFFFFF NOT PUSH1 0x60 DUP13 SWAP1 SHL AND PUSH1 0x20 DUP3 ADD MSTORE PUSH1 0x34 DUP2 ADD DUP11 SWAP1 MSTORE TIMESTAMP PUSH1 0x54 DUP3 ADD MSTORE PUSH1 0x74 DUP2 ADD SWAP4 SWAP1 SWAP4 MSTORE PUSH1 0x94 DUP4 ADD SWAP2 SWAP1 SWAP2 MSTORE PUSH1 0xB4 DUP3 ADD MSTORE PUSH1 0x0 SWAP1 PUSH1 0xD4 ADD PUSH1 0x40 DUP1 MLOAD DUP1 DUP4 SUB PUSH1 0x1F NOT ADD DUP2 MSTORE DUP3 DUP3 MSTORE DUP1 MLOAD PUSH1 0x20 SWAP2 DUP3 ADD KECCAK256 PUSH2 0x120 DUP5 ADD DUP4 MSTORE DUP1 DUP5 MSTORE PUSH1 0x1 PUSH1 0x1 PUSH1 0xA0 SHL SUB DUP13 DUP2 AND DUP4 DUP7 ADD SWAP1 DUP2 MSTORE DUP6 DUP6 ADD DUP14 DUP2 MSTORE PUSH1 0x60 DUP8 ADD DUP14 DUP2 MSTORE PUSH1 0x80 DUP9 ADD DUP14 SWAP1 MSTORE PUSH1 0xA0 DUP9 ADD DUP13 SWAP1 MSTORE TIMESTAMP PUSH1 0xC0 DUP10 ADD MSTORE PUSH1 0x0 PUSH1 0xE0 DUP10 ADD DUP2 SWAP1 MSTORE PUSH2 0x100 DUP10 ADD DUP13 SWAP1 MSTORE DUP6 DUP2 MSTORE SWAP6 DUP7 SWAP1 MSTORE SWAP6 SWAP1 SWAP5 KECCAK256 DUP7 MLOAD DUP2 SSTORE SWAP1 MLOAD PUSH1 0x1 DUP3 ADD DUP1 SLOAD PUSH1 0x1 PUSH1 0x1 PUSH1 0xA0 SHL SUB NOT AND SWAP2 SWAP1 SWAP4 AND OR SWAP1 SWAP2 SSTORE SWAP2 MLOAD PUSH1 0x2 DUP1 DUP5 ADD SWAP2 SWAP1 SWAP2 SSTORE SWAP3 MLOAD SWAP1 SWAP5 POP SWAP1 SWAP2 PUSH2 0xCFD SWAP2 PUSH1 0x3 DUP5 ADD SWAP2 PUSH2 0x14CD JUMP JUMPDEST POP PUSH1 0x80 DUP3 ADD MLOAD PUSH2 0xD13 SWAP1 PUSH1 0x5 DUP4 ADD SWAP1 PUSH1 0x2 PUSH2 0x14CD JUMP JUMPDEST POP PUSH1 0xA0 DUP3 ADD MLOAD PUSH2 0xD29 SWAP1 PUSH1 0x7 DUP4 ADD SWAP1 PUSH1 0x2 PUSH2 0x14CD JUMP JUMPDEST POP PUSH1 0xC0 DUP3 ADD MLOAD PUSH1 0x9 DUP3 ADD SSTORE PUSH1 0xE0 DUP3 ADD MLOAD PUSH1 0xA DUP3 ADD DUP1 SLOAD PUSH1 0xFF NOT AND SWAP2 ISZERO ISZERO SWAP2 SWAP1 SWAP2 OR SWAP1 SSTORE PUSH2 0x100 DUP3 ADD MLOAD PUSH1 0xB DUP3 ADD SWAP1 PUSH2 0xD61 SWAP1 DUP3 PUSH2 0x1A8A JUMP JUMPDEST POP POP POP PUSH1 0x1 PUSH1 0x1 PUSH1 0xA0 SHL SUB DUP9 AND PUSH1 0x0 DUP2 DUP2 MSTORE PUSH1 0x1 PUSH1 0x20 DUP2 DUP2 MSTORE PUSH1 0x40 DUP1 DUP5 KECCAK256 DUP1 SLOAD SWAP4 DUP5 ADD DUP2 SSTORE DUP5 MSTORE SWAP3 KECCAK256 ADD DUP4 SWAP1 SSTORE MLOAD DUP3 SWAP1 PUSH32 0x1EAC577A2D253E04279C353521FE048B4922394196615F448279E0A83AE48404 SWAP1 PUSH2 0xDC0 SWAP1 DUP12 DUP2 MSTORE PUSH1 0x20 ADD SWAP1 JUMP JUMPDEST PUSH1 0x40 MLOAD DUP1 SWAP2 SUB SWAP1 LOG3 SWAP8 SWAP7 POP POP POP POP POP POP POP JUMP JUMPDEST PUSH1 0x0 DUP2 DUP2 MSTORE PUSH1 0x20 DUP2 SWAP1 MSTORE PUSH1 0x40 DUP2 KECCAK256 PUSH1 0x1 DUP2 ADD SLOAD PUSH1 0x1 PUSH1 0x1 PUSH1 0xA0 SHL SUB AND PUSH2 0xE36 JUMPI PUSH1 0x40 MLOAD PUSH3 0x461BCD PUSH1 0xE5 SHL DUP2 MSTORE PUSH1 0x20 PUSH1 0x4 DUP3 ADD MSTORE PUSH1 0x18 PUSH1 0x24 DUP3 ADD MSTORE PUSH24 0x1692CE881C1C9BDBD988191BD95CC81B9BDD08195E1A5CDD PUSH1 0x42 SHL PUSH1 0x44 DUP3 ADD MSTORE PUSH1 0x64 ADD PUSH2 0x52D JUMP JUMPDEST PUSH1 0x40 DUP1 MLOAD PUSH2 0x120 DUP2 ADD DUP3 MSTORE DUP3 SLOAD DUP2 MSTORE PUSH1 0x1 DUP4 ADD SLOAD PUSH1 0x1 PUSH1 0x1 PUSH1 0xA0 SHL SUB AND PUSH1 0x20 DUP3 ADD MSTORE PUSH1 0x2 DUP1 DUP5 ADD SLOAD DUP3 DUP5 ADD MSTORE DUP3 MLOAD DUP1 DUP5 ADD SWAP1 SWAP4 MSTORE PUSH1 0x0 SWAP3 PUSH2 0xF3E SWAP3 SWAP2 DUP6 SWAP2 PUSH1 0x60 DUP5 ADD SWAP2 PUSH1 0x3 DUP5 ADD SWAP1 DUP3 DUP3 DUP3 PUSH1 0x20 MUL DUP3 ADD SWAP2 DUP2 SLOAD DUP2 MSTORE PUSH1 0x20 ADD SWAP1 PUSH1 0x1 ADD SWAP1 DUP1 DUP4 GT PUSH2 0x584 JUMPI POP POP POP SWAP2 DUP4 MSTORE POP POP PUSH1 0x40 DUP1 MLOAD DUP1 DUP3 ADD SWAP2 DUP3 SWAP1 MSTORE PUSH1 0x5 DUP5 ADD DUP1 SLOAD DUP3 MSTORE PUSH1 0x20 SWAP4 DUP5 ADD SWAP4 SWAP2 SWAP3 SWAP1 SWAP2 PUSH1 0x2 SWAP2 SWAP1 PUSH1 0x6 DUP8 ADD SWAP1 DUP6 ADD DUP1 DUP4 GT PUSH2 0x5BC JUMPI POP POP POP SWAP2 DUP4 MSTORE POP POP PUSH1 0x40 DUP1 MLOAD DUP1 DUP3 ADD SWAP2 DUP3 SWAP1 MSTORE PUSH1 0x7 DUP5 ADD DUP1 SLOAD DUP3 MSTORE PUSH1 0x20 SWAP4 DUP5 ADD SWAP4 SWAP2 SWAP3 SWAP1 SWAP2 PUSH1 0x2 SWAP2 SWAP1 PUSH1 0x8 DUP8 ADD SWAP1 DUP6 ADD DUP1 DUP4 GT PUSH2 0x5F4 JUMPI POP POP POP SWAP2 DUP4 MSTORE POP POP PUSH1 0x9 DUP3 ADD SLOAD PUSH1 0x20 DUP3 ADD MSTORE PUSH1 0xA DUP3 ADD SLOAD PUSH1 0xFF AND ISZERO ISZERO PUSH1 0x40 DUP3 ADD MSTORE PUSH1 0xB DUP3 ADD DUP1 SLOAD PUSH1 0x60 SWAP1 SWAP3 ADD SWAP2 PUSH2 0x63D SWAP1 PUSH2 0x19C4 JUMP JUMPDEST SWAP5 SWAP4 POP POP POP POP JUMP JUMPDEST PUSH1 0x60 PUSH1 0x0 DUP3 PUSH8 0xFFFFFFFFFFFFFFFF DUP2 GT ISZERO PUSH2 0xF63 JUMPI PUSH2 0xF63 PUSH2 0x1757 JUMP JUMPDEST PUSH1 0x40 MLOAD SWAP1 DUP1 DUP3 MSTORE DUP1 PUSH1 0x20 MUL PUSH1 0x20 ADD DUP3 ADD PUSH1 0x40 MSTORE DUP1 ISZERO PUSH2 0xF8C JUMPI DUP2 PUSH1 0x20 ADD PUSH1 0x20 DUP3 MUL DUP1 CALLDATASIZE DUP4 CALLDATACOPY ADD SWAP1 POP JUMPDEST POP SWAP1 POP PUSH1 0x0 JUMPDEST DUP4 DUP2 LT ISZERO PUSH2 0x11E8 JUMPI PUSH1 0x0 DUP1 PUSH1 0x0 DUP8 DUP8 DUP6 DUP2 DUP2 LT PUSH2 0xFB1 JUMPI PUSH2 0xFB1 PUSH2 0x1A25 JUMP JUMPDEST PUSH1 0x20 SWAP1 DUP2 MUL SWAP3 SWAP1 SWAP3 ADD CALLDATALOAD DUP4 MSTORE POP DUP2 ADD SWAP2 SWAP1 SWAP2 MSTORE PUSH1 0x40 ADD PUSH1 0x0 KECCAK256 PUSH1 0x1 DUP2 ADD SLOAD SWAP1 SWAP2 POP PUSH1 0x1 PUSH1 0x1 PUSH1 0xA0 SHL SUB AND ISZERO PUSH2 0x11B0 JUMPI PUSH1 0x40 DUP1 MLOAD PUSH2 0x120 DUP2 ADD DUP3 MSTORE DUP3 SLOAD DUP2 MSTORE PUSH1 0x1 DUP4 ADD SLOAD PUSH1 0x1 PUSH1 0x1 PUSH1 0xA0 SHL SUB AND PUSH1 0x20 DUP3 ADD MSTORE PUSH1 0x2 DUP1 DUP5 ADD SLOAD DUP3 DUP5 ADD MSTORE DUP3 MLOAD DUP1 DUP5 ADD SWAP1 SWAP4 MSTORE PUSH1 0x0 SWAP3 PUSH2 0x10E8 SWAP3 SWAP2 DUP6 SWAP2 PUSH1 0x60 DUP5 ADD SWAP2 PUSH1 0x3 DUP5 ADD SWAP1 DUP3 DUP3 DUP3 PUSH1 0x20 MUL DUP3 ADD SWAP2 DUP2 SLOAD DUP2 MSTORE PUSH1 0x20 ADD SWAP1 PUSH1 0x1 ADD SWAP1 DUP1 DUP4 GT PUSH2 0x584 JUMPI POP POP POP SWAP2 DUP4 MSTORE POP POP PUSH1 0x40 DUP1 MLOAD DUP1 DUP3 ADD SWAP2 DUP3 SWAP1 MSTORE PUSH1 0x5 DUP5 ADD DUP1 SLOAD DUP3 MSTORE PUSH1 0x20 SWAP4 DUP5 ADD SWAP4 SWAP2 SWAP3 SWAP1 SWAP2 PUSH1 0x2 SWAP2 SWAP1 PUSH1 0x6 DUP8 ADD SWAP1 DUP6 ADD DUP1 DUP4 GT PUSH2 0x5BC JUMPI POP POP POP SWAP2 DUP4 MSTORE POP POP PUSH1 0x40 DUP1 MLOAD DUP1 DUP3 ADD SWAP2 DUP3 SWAP1 MSTORE PUSH1 0x7 DUP5 ADD DUP1 SLOAD DUP3 MSTORE PUSH1 0x20 SWAP4 DUP5 ADD SWAP4 SWAP2 SWAP3 SWAP1 SWAP2 PUSH1 0x2 SWAP2 SWAP1 PUSH1 0x8 DUP8 ADD SWAP1 DUP6 ADD DUP1 DUP4 GT PUSH2 0x5F4 JUMPI POP POP POP SWAP2 DUP4 MSTORE POP POP PUSH1 0x9 DUP3 ADD SLOAD PUSH1 0x20 DUP3 ADD MSTORE PUSH1 0xA DUP3 ADD SLOAD PUSH1 0xFF AND ISZERO ISZERO PUSH1 0x40 DUP3 ADD MSTORE PUSH1 0xB DUP3 ADD DUP1 SLOAD PUSH1 0x60 SWAP1 SWAP3 ADD SWAP2 PUSH2 0x63D SWAP1 PUSH2 0x19C4 JUMP JUMPDEST PUSH1 0xA DUP4 ADD DUP1 SLOAD PUSH1 0xFF NOT AND DUP3 ISZERO DUP1 ISZERO SWAP2 SWAP1 SWAP2 OR SWAP1 SWAP2 SSTORE SWAP1 SWAP2 POP PUSH2 0x1132 JUMPI PUSH1 0x1 DUP3 ADD SLOAD PUSH1 0x1 PUSH1 0x1 PUSH1 0xA0 SHL SUB AND PUSH1 0x0 SWAP1 DUP2 MSTORE PUSH1 0x2 PUSH1 0x20 MSTORE PUSH1 0x40 DUP2 KECCAK256 DUP1 SLOAD SWAP2 PUSH2 0x112C DUP4 PUSH2 0x19FE JUMP JUMPDEST SWAP2 SWAP1 POP SSTORE POP JUMPDEST CALLER DUP8 DUP8 DUP6 DUP2 DUP2 LT PUSH2 0x1145 JUMPI PUSH2 0x1145 PUSH2 0x1A25 JUMP JUMPDEST SWAP1 POP PUSH1 0x20 MUL ADD CALLDATALOAD PUSH32 0x5AC8109F4E711AE4B00B1E6D6B38E1677906E71053C83680C25BD34FBA4AA2CB DUP4 PUSH1 0x40 MLOAD PUSH2 0x117F SWAP2 ISZERO ISZERO DUP2 MSTORE PUSH1 0x20 ADD SWAP1 JUMP JUMPDEST PUSH1 0x40 MLOAD DUP1 SWAP2 SUB SWAP1 LOG3 DUP1 DUP5 DUP5 DUP2 MLOAD DUP2 LT PUSH2 0x119A JUMPI PUSH2 0x119A PUSH2 0x1A25 JUMP JUMPDEST SWAP2 ISZERO ISZERO PUSH1 0x20 SWAP3 DUP4 MUL SWAP2 SWAP1 SWAP2 ADD SWAP1 SWAP2 ADD MSTORE POP PUSH2 0x11D5 JUMP JUMPDEST PUSH1 0x0 DUP4 DUP4 DUP2 MLOAD DUP2 LT PUSH2 0x11C4 JUMPI PUSH2 0x11C4 PUSH2 0x1A25 JUMP JUMPDEST SWAP2 ISZERO ISZERO PUSH1 0x20 SWAP3 DUP4 MUL SWAP2 SWAP1 SWAP2 ADD SWAP1 SWAP2 ADD MSTORE JUMPDEST POP DUP1 PUSH2 0x11E0 DUP2 PUSH2 0x19FE JUMP JUMPDEST SWAP2 POP POP PUSH2 0xF92 JUMP JUMPDEST POP SWAP4 SWAP3 POP POP POP JUMP JUMPDEST PUSH1 0x0 DUP3 DUP2 MSTORE PUSH1 0x20 DUP2 DUP2 MSTORE PUSH1 0x40 DUP1 DUP4 KECCAK256 DUP2 MLOAD PUSH2 0x120 DUP2 ADD DUP4 MSTORE DUP2 SLOAD DUP2 MSTORE PUSH1 0x1 DUP3 ADD SLOAD PUSH1 0x1 PUSH1 0x1 PUSH1 0xA0 SHL SUB AND SWAP4 DUP2 ADD SWAP4 SWAP1 SWAP4 MSTORE PUSH1 0x2 DUP1 DUP3 ADD SLOAD DUP5 DUP5 ADD MSTORE DUP3 MLOAD DUP1 DUP5 ADD SWAP4 DUP5 SWAP1 MSTORE DUP6 SWAP5 SWAP4 PUSH1 0x60 DUP6 ADD SWAP3 PUSH1 0x3 DUP6 ADD SWAP2 DUP3 DUP5 JUMPDEST DUP2 SLOAD DUP2 MSTORE PUSH1 0x20 ADD SWAP1 PUSH1 0x1 ADD SWAP1 DUP1 DUP4 GT PUSH2 0x1244 JUMPI POP POP POP SWAP2 DUP4 MSTORE POP POP PUSH1 0x40 DUP1 MLOAD DUP1 DUP3 ADD SWAP2 DUP3 SWAP1 MSTORE PUSH1 0x20 SWAP1 SWAP3 ADD SWAP2 SWAP1 PUSH1 0x5 DUP5 ADD SWAP1 PUSH1 0x2 SWAP1 DUP3 DUP5 JUMPDEST DUP2 SLOAD DUP2 MSTORE PUSH1 0x20 ADD SWAP1 PUSH1 0x1 ADD SWAP1 DUP1 DUP4 GT PUSH2 0x127C JUMPI POP POP POP SWAP2 DUP4 MSTORE POP POP PUSH1 0x40 DUP1 MLOAD DUP1 DUP3 ADD SWAP2 DUP3 SWAP1 MSTORE PUSH1 0x20 SWAP1 SWAP3 ADD SWAP2 SWAP1 PUSH1 0x7 DUP5 ADD SWAP1 PUSH1 0x2 SWAP1 DUP3 DUP5 JUMPDEST DUP2 SLOAD DUP2 MSTORE PUSH1 0x20 ADD SWAP1 PUSH1 0x1 ADD SWAP1 DUP1 DUP4 GT PUSH2 0x12B4 JUMPI POP POP POP SWAP2 DUP4 MSTORE POP POP PUSH1 0x9 DUP3 ADD SLOAD PUSH1 0x20 DUP3 ADD MSTORE PUSH1 0xA DUP3 ADD SLOAD PUSH1 0xFF AND ISZERO ISZERO PUSH1 0x40 DUP3 ADD MSTORE PUSH1 0xB DUP3 ADD DUP1 SLOAD PUSH1 0x60 SWAP1 SWAP3 ADD SWAP2 PUSH2 0x12FD SWAP1 PUSH2 0x19C4 JUMP JUMPDEST DUP1 PUSH1 0x1F ADD PUSH1 0x20 DUP1 SWAP2 DIV MUL PUSH1 0x20 ADD PUSH1 0x40 MLOAD SWAP1 DUP2 ADD PUSH1 0x40 MSTORE DUP1 SWAP3 SWAP2 SWAP1 DUP2 DUP2 MSTORE PUSH1 0x20 ADD DUP3 DUP1 SLOAD PUSH2 0x1329 SWAP1 PUSH2 0x19C4 JUMP JUMPDEST DUP1 ISZERO PUSH2 0x1376 JUMPI DUP1 PUSH1 0x1F LT PUSH2 0x134B JUMPI PUSH2 0x100 DUP1 DUP4 SLOAD DIV MUL DUP4 MSTORE SWAP2 PUSH1 0x20 ADD SWAP2 PUSH2 0x1376 JUMP JUMPDEST DUP3 ADD SWAP2 SWAP1 PUSH1 0x0 MSTORE PUSH1 0x20 PUSH1 0x0 KECCAK256 SWAP1 JUMPDEST DUP2 SLOAD DUP2 MSTORE SWAP1 PUSH1 0x1 ADD SWAP1 PUSH1 0x20 ADD DUP1 DUP4 GT PUSH2 0x1359 JUMPI DUP3 SWAP1 SUB PUSH1 0x1F AND DUP3 ADD SWAP2 JUMPDEST POP POP POP POP POP DUP2 MSTORE POP POP SWAP1 POP DUP3 DUP2 PUSH1 0x40 ADD MLOAD EQ PUSH2 0x91E JUMPI PUSH1 0x0 SWAP2 POP POP PUSH2 0x92B JUMP JUMPDEST PUSH1 0x60 DUP2 ADD MLOAD MLOAD PUSH1 0x0 SWAP1 PUSH1 0x0 DUP1 MLOAD PUSH1 0x20 PUSH2 0x1B4B DUP4 CODECOPY DUP2 MLOAD SWAP2 MSTORE GT ISZERO DUP1 PUSH2 0x13D1 JUMPI POP PUSH1 0x60 DUP3 ADD MLOAD PUSH1 0x20 ADD MLOAD PUSH1 0x0 DUP1 MLOAD PUSH1 0x20 PUSH2 0x1B4B DUP4 CODECOPY DUP2 MLOAD SWAP2 MSTORE GT ISZERO JUMPDEST ISZERO PUSH2 0x13DE JUMPI POP PUSH1 0x0 SWAP2 SWAP1 POP JUMP JUMPDEST PUSH1 0x80 DUP3 ADD MLOAD MLOAD PUSH1 0x0 DUP1 MLOAD PUSH1 0x20 PUSH2 0x1B4B DUP4 CODECOPY DUP2 MLOAD SWAP2 MSTORE GT ISZERO DUP1 PUSH2 0x1416 JUMPI POP PUSH1 0x80 DUP3 ADD MLOAD PUSH1 0x20 ADD MLOAD PUSH1 0x0 DUP1 MLOAD PUSH1 0x20 PUSH2 0x1B4B DUP4 CODECOPY DUP2 MLOAD SWAP2 MSTORE GT ISZERO JUMPDEST ISZERO PUSH2 0x1423 JUMPI POP PUSH1 0x0 SWAP2 SWAP1 POP JUMP JUMPDEST PUSH1 0xA0 DUP3 ADD MLOAD MLOAD PUSH1 0x0 DUP1 MLOAD PUSH1 0x20 PUSH2 0x1B4B DUP4 CODECOPY DUP2 MLOAD SWAP2 MSTORE GT ISZERO DUP1 PUSH2 0x145B JUMPI POP PUSH1 0xA0 DUP3 ADD MLOAD PUSH1 0x20 ADD MLOAD PUSH1 0x0 DUP1 MLOAD PUSH1 0x20 PUSH2 0x1B4B DUP4 CODECOPY DUP2 MLOAD SWAP2 MSTORE GT ISZERO JUMPDEST ISZERO PUSH2 0x1468 JUMPI POP PUSH1 0x0 SWAP2 SWAP1 POP JUMP JUMPDEST POP PUSH1 0x1 SWAP2 SWAP1 POP JUMP JUMPDEST PUSH1 0x40 DUP1 MLOAD PUSH2 0x120 DUP2 ADD DUP3 MSTORE PUSH1 0x0 DUP1 DUP3 MSTORE PUSH1 0x20 DUP3 ADD DUP2 SWAP1 MSTORE SWAP2 DUP2 ADD SWAP2 SWAP1 SWAP2 MSTORE PUSH1 0x60 DUP2 ADD PUSH2 0x149A PUSH2 0x150B JUMP JUMPDEST DUP2 MSTORE PUSH1 0x20 ADD PUSH2 0x14A7 PUSH2 0x150B JUMP JUMPDEST DUP2 MSTORE PUSH1 0x20 ADD PUSH2 0x14B4 PUSH2 0x150B JUMP JUMPDEST DUP2 MSTORE PUSH1 0x0 PUSH1 0x20 DUP3 ADD DUP2 SWAP1 MSTORE PUSH1 0x40 DUP3 ADD MSTORE PUSH1 0x60 SWAP1 DUP2 ADD MSTORE SWAP1 JUMP JUMPDEST DUP3 PUSH1 0x2 DUP2 ADD SWAP3 DUP3 ISZERO PUSH2 0x14FB JUMPI SWAP2 PUSH1 0x20 MUL DUP3 ADD JUMPDEST DUP3 DUP2 GT ISZERO PUSH2 0x14FB JUMPI DUP3 MLOAD DUP3 SSTORE SWAP2 PUSH1 0x20 ADD SWAP2 SWAP1 PUSH1 0x1 ADD SWAP1 PUSH2 0x14E0 JUMP JUMPDEST POP PUSH2 0x1507 SWAP3 SWAP2 POP PUSH2 0x1529 JUMP JUMPDEST POP SWAP1 JUMP JUMPDEST PUSH1 0x40 MLOAD DUP1 PUSH1 0x40 ADD PUSH1 0x40 MSTORE DUP1 PUSH1 0x2 SWAP1 PUSH1 0x20 DUP3 MUL DUP1 CALLDATASIZE DUP4 CALLDATACOPY POP SWAP2 SWAP3 SWAP2 POP POP JUMP JUMPDEST JUMPDEST DUP1 DUP3 GT ISZERO PUSH2 0x1507 JUMPI PUSH1 0x0 DUP2 SSTORE PUSH1 0x1 ADD PUSH2 0x152A JUMP JUMPDEST PUSH1 0x0 PUSH1 0x20 DUP3 DUP5 SUB SLT ISZERO PUSH2 0x1550 JUMPI PUSH1 0x0 DUP1 REVERT JUMPDEST POP CALLDATALOAD SWAP2 SWAP1 POP JUMP JUMPDEST DUP1 PUSH1 0x0 JUMPDEST PUSH1 0x2 DUP2 LT ISZERO PUSH2 0x157A JUMPI DUP2 MLOAD DUP5 MSTORE PUSH1 0x20 SWAP4 DUP5 ADD SWAP4 SWAP1 SWAP2 ADD SWAP1 PUSH1 0x1 ADD PUSH2 0x155B JUMP JUMPDEST POP POP POP POP JUMP JUMPDEST PUSH1 0x0 DUP2 MLOAD DUP1 DUP5 MSTORE PUSH1 0x0 JUMPDEST DUP2 DUP2 LT ISZERO PUSH2 0x15A6 JUMPI PUSH1 0x20 DUP2 DUP6 ADD DUP2 ADD MLOAD DUP7 DUP4 ADD DUP3 ADD MSTORE ADD PUSH2 0x158A JUMP JUMPDEST POP PUSH1 0x0 PUSH1 0x20 DUP3 DUP7 ADD ADD MSTORE PUSH1 0x20 PUSH1 0x1F NOT PUSH1 0x1F DUP4 ADD AND DUP6 ADD ADD SWAP2 POP POP SWAP3 SWAP2 POP POP JUMP JUMPDEST PUSH1 0x20 DUP2 MSTORE DUP2 MLOAD PUSH1 0x20 DUP3 ADD MSTORE PUSH1 0x0 PUSH1 0x20 DUP4 ADD MLOAD PUSH2 0x15ED PUSH1 0x40 DUP5 ADD DUP3 PUSH1 0x1 PUSH1 0x1 PUSH1 0xA0 SHL SUB AND SWAP1 MSTORE JUMP JUMPDEST POP PUSH1 0x40 DUP4 ADD MLOAD PUSH1 0x60 DUP4 ADD MSTORE PUSH1 0x60 DUP4 ADD MLOAD PUSH2 0x160A PUSH1 0x80 DUP5 ADD DUP3 PUSH2 0x1557 JUMP JUMPDEST POP PUSH1 0x80 DUP4 ADD MLOAD PUSH2 0x161D PUSH1 0xC0 DUP5 ADD DUP3 PUSH2 0x1557 JUMP JUMPDEST POP PUSH1 0xA0 DUP4 ADD MLOAD PUSH2 0x100 PUSH2 0x1632 DUP2 DUP6 ADD DUP4 PUSH2 0x1557 JUMP JUMPDEST PUSH1 0xC0 DUP6 ADD MLOAD PUSH2 0x140 DUP6 ADD MSTORE PUSH1 0xE0 DUP6 ADD MLOAD ISZERO ISZERO PUSH2 0x160 DUP6 ADD MSTORE DUP5 ADD MLOAD PUSH2 0x180 DUP1 DUP6 ADD MSTORE SWAP1 POP PUSH2 0x927 PUSH2 0x1A0 DUP5 ADD DUP3 PUSH2 0x1580 JUMP JUMPDEST DUP1 CALLDATALOAD PUSH1 0x1 PUSH1 0x1 PUSH1 0xA0 SHL SUB DUP2 AND DUP2 EQ PUSH2 0x167B JUMPI PUSH1 0x0 DUP1 REVERT JUMPDEST SWAP2 SWAP1 POP JUMP JUMPDEST PUSH1 0x0 PUSH1 0x20 DUP3 DUP5 SUB SLT ISZERO PUSH2 0x1692 JUMPI PUSH1 0x0 DUP1 REVERT JUMPDEST PUSH2 0x169B DUP3 PUSH2 0x1664 JUMP JUMPDEST SWAP4 SWAP3 POP POP POP JUMP JUMPDEST PUSH1 0x0 DUP1 PUSH1 0x40 DUP4 DUP6 SUB SLT ISZERO PUSH2 0x16B5 JUMPI PUSH1 0x0 DUP1 REVERT JUMPDEST PUSH2 0x16BE DUP4 PUSH2 0x1664 JUMP JUMPDEST SWAP5 PUSH1 0x20 SWAP4 SWAP1 SWAP4 ADD CALLDATALOAD SWAP4 POP POP POP JUMP JUMPDEST DUP7 DUP2 MSTORE PUSH1 0x1 DUP1 PUSH1 0xA0 SHL SUB DUP7 AND PUSH1 0x20 DUP3 ADD MSTORE DUP5 PUSH1 0x40 DUP3 ADD MSTORE DUP4 PUSH1 0x60 DUP3 ADD MSTORE DUP3 ISZERO ISZERO PUSH1 0x80 DUP3 ADD MSTORE PUSH1 0xC0 PUSH1 0xA0 DUP3 ADD MSTORE PUSH1 0x0 PUSH2 0x1707 PUSH1 0xC0 DUP4 ADD DUP5 PUSH2 0x1580 JUMP JUMPDEST SWAP9 SWAP8 POP POP POP POP POP POP POP POP JUMP JUMPDEST PUSH1 0x20 DUP1 DUP3 MSTORE DUP3 MLOAD DUP3 DUP3 ADD DUP2 SWAP1 MSTORE PUSH1 0x0 SWAP2 SWAP1 DUP5 DUP3 ADD SWAP1 PUSH1 0x40 DUP6 ADD SWAP1 DUP5 JUMPDEST DUP2 DUP2 LT ISZERO PUSH2 0x174B JUMPI DUP4 MLOAD DUP4 MSTORE SWAP3 DUP5 ADD SWAP3 SWAP2 DUP5 ADD SWAP2 PUSH1 0x1 ADD PUSH2 0x172F JUMP JUMPDEST POP SWAP1 SWAP7 SWAP6 POP POP POP POP POP POP JUMP JUMPDEST PUSH4 0x4E487B71 PUSH1 0xE0 SHL PUSH1 0x0 MSTORE PUSH1 0x41 PUSH1 0x4 MSTORE PUSH1 0x24 PUSH1 0x0 REVERT JUMPDEST PUSH1 0x40 MLOAD PUSH1 0x1F DUP3 ADD PUSH1 0x1F NOT AND DUP2 ADD PUSH8 0xFFFFFFFFFFFFFFFF DUP2 GT DUP3 DUP3 LT OR ISZERO PUSH2 0x1796 JUMPI PUSH2 0x1796 PUSH2 0x1757 JUMP JUMPDEST PUSH1 0x40 MSTORE SWAP2 SWAP1 POP JUMP JUMPDEST PUSH1 0x0 DUP3 PUSH1 0x1F DUP4 ADD SLT PUSH2 0x17AF JUMPI PUSH1 0x0 DUP1 REVERT JUMPDEST PUSH1 0x40 MLOAD PUSH1 0x40 DUP2 ADD DUP2 DUP2 LT PUSH8 0xFFFFFFFFFFFFFFFF DUP3 GT OR ISZERO PUSH2 0x17D2 JUMPI PUSH2 0x17D2 PUSH2 0x1757 JUMP JUMPDEST DUP1 PUSH1 0x40 MSTORE POP DUP1 PUSH1 0x40 DUP5 ADD DUP6 DUP2 GT ISZERO PUSH2 0x17E9 JUMPI PUSH1 0x0 DUP1 REVERT JUMPDEST DUP5 JUMPDEST DUP2 DUP2 LT ISZERO PUSH2 0x1803 JUMPI DUP1 CALLDATALOAD DUP4 MSTORE PUSH1 0x20 SWAP3 DUP4 ADD SWAP3 ADD PUSH2 0x17EB JUMP JUMPDEST POP SWAP2 SWAP6 SWAP5 POP POP POP POP POP JUMP JUMPDEST PUSH1 0x0 DUP1 PUSH1 0x0 DUP1 PUSH1 0x0 DUP1 PUSH2 0x120 DUP8 DUP10 SUB SLT ISZERO PUSH2 0x1828 JUMPI PUSH1 0x0 DUP1 REVERT JUMPDEST PUSH2 0x1831 DUP8 PUSH2 0x1664 JUMP JUMPDEST SWAP6 POP PUSH1 0x20 DUP1 DUP9 ADD CALLDATALOAD SWAP6 POP PUSH2 0x1848 DUP10 PUSH1 0x40 DUP11 ADD PUSH2 0x179E JUMP JUMPDEST SWAP5 POP PUSH2 0x1857 DUP10 PUSH1 0x80 DUP11 ADD PUSH2 0x179E JUMP JUMPDEST SWAP4 POP PUSH2 0x1866 DUP10 PUSH1 0xC0 DUP11 ADD PUSH2 0x179E JUMP JUMPDEST SWAP3 POP PUSH2 0x100 DUP9 ADD CALLDATALOAD PUSH8 0xFFFFFFFFFFFFFFFF DUP1 DUP3 GT ISZERO PUSH2 0x1884 JUMPI PUSH1 0x0 DUP1 REVERT JUMPDEST DUP2 DUP11 ADD SWAP2 POP DUP11 PUSH1 0x1F DUP4 ADD SLT PUSH2 0x1898 JUMPI PUSH1 0x0 DUP1 REVERT JUMPDEST DUP2 CALLDATALOAD DUP2 DUP2 GT ISZERO PUSH2 0x18AA JUMPI PUSH2 0x18AA PUSH2 0x1757 JUMP JUMPDEST PUSH2 0x18BC PUSH1 0x1F DUP3 ADD PUSH1 0x1F NOT AND DUP6 ADD PUSH2 0x176D JUMP JUMPDEST SWAP2 POP DUP1 DUP3 MSTORE DUP12 DUP5 DUP3 DUP6 ADD ADD GT ISZERO PUSH2 0x18D2 JUMPI PUSH1 0x0 DUP1 REVERT JUMPDEST DUP1 DUP5 DUP5 ADD DUP6 DUP5 ADD CALLDATACOPY PUSH1 0x0 DUP5 DUP3 DUP5 ADD ADD MSTORE POP DUP1 SWAP4 POP POP POP POP SWAP3 SWAP6 POP SWAP3 SWAP6 POP SWAP3 SWAP6 JUMP JUMPDEST PUSH1 0x0 DUP1 PUSH1 0x20 DUP4 DUP6 SUB SLT ISZERO PUSH2 0x1906 JUMPI PUSH1 0x0 DUP1 REVERT JUMPDEST DUP3 CALLDATALOAD PUSH8 0xFFFFFFFFFFFFFFFF DUP1 DUP3 GT ISZERO PUSH2 0x191E JUMPI PUSH1 0x0 DUP1 REVERT JUMPDEST DUP2 DUP6 ADD SWAP2 POP DUP6 PUSH1 0x1F DUP4 ADD SLT PUSH2 0x1932 JUMPI PUSH1 0x0 DUP1 REVERT JUMPDEST DUP2 CALLDATALOAD DUP2 DUP2 GT ISZERO PUSH2 0x1941 JUMPI PUSH1 0x0 DUP1 REVERT JUMPDEST DUP7 PUSH1 0x20 DUP3 PUSH1 0x5 SHL DUP6 ADD ADD GT ISZERO PUSH2 0x1956 JUMPI PUSH1 0x0 DUP1 REVERT JUMPDEST PUSH1 0x20 SWAP3 SWAP1 SWAP3 ADD SWAP7 SWAP2 SWAP6 POP SWAP1 SWAP4 POP POP POP POP JUMP JUMPDEST PUSH1 0x20 DUP1 DUP3 MSTORE DUP3 MLOAD DUP3 DUP3 ADD DUP2 SWAP1 MSTORE PUSH1 0x0 SWAP2 SWAP1 DUP5 DUP3 ADD SWAP1 PUSH1 0x40 DUP6 ADD SWAP1 DUP5 JUMPDEST DUP2 DUP2 LT ISZERO PUSH2 0x174B JUMPI DUP4 MLOAD ISZERO ISZERO DUP4 MSTORE SWAP3 DUP5 ADD SWAP3 SWAP2 DUP5 ADD SWAP2 PUSH1 0x1 ADD PUSH2 0x1984 JUMP JUMPDEST PUSH1 0x0 DUP1 PUSH1 0x40 DUP4 DUP6 SUB SLT ISZERO PUSH2 0x19B5 JUMPI PUSH1 0x0 DUP1 REVERT JUMPDEST POP POP DUP1 CALLDATALOAD SWAP3 PUSH1 0x20 SWAP1 SWAP2 ADD CALLDATALOAD SWAP2 POP JUMP JUMPDEST PUSH1 0x1 DUP2 DUP2 SHR SWAP1 DUP3 AND DUP1 PUSH2 0x19D8 JUMPI PUSH1 0x7F DUP3 AND SWAP2 POP JUMPDEST PUSH1 0x20 DUP3 LT DUP2 SUB PUSH2 0x19F8 JUMPI PUSH4 0x4E487B71 PUSH1 0xE0 SHL PUSH1 0x0 MSTORE PUSH1 0x22 PUSH1 0x4 MSTORE PUSH1 0x24 PUSH1 0x0 REVERT JUMPDEST POP SWAP2 SWAP1 POP JUMP JUMPDEST PUSH1 0x0 PUSH1 0x1 DUP3 ADD PUSH2 0x1A1E JUMPI PUSH4 0x4E487B71 PUSH1 0xE0 SHL PUSH1 0x0 MSTORE PUSH1 0x11 PUSH1 0x4 MSTORE PUSH1 0x24 PUSH1 0x0 REVERT JUMPDEST POP PUSH1 0x1 ADD SWAP1 JUMP JUMPDEST PUSH4 0x4E487B71 PUSH1 0xE0 SHL PUSH1 0x0 MSTORE PUSH1 0x32 PUSH1 0x4 MSTORE PUSH1 0x24 PUSH1 0x0 REVERT JUMPDEST PUSH1 0x1F DUP3 GT ISZERO PUSH2 0x1A85 JUMPI PUSH1 0x0 DUP2 DUP2 MSTORE PUSH1 0x20 DUP2 KECCAK256 PUSH1 0x1F DUP6 ADD PUSH1 0x5 SHR DUP2 ADD PUSH1 0x20 DUP7 LT ISZERO PUSH2 0x1A62 JUMPI POP DUP1 JUMPDEST PUSH1 0x1F DUP6 ADD PUSH1 0x5 SHR DUP3 ADD SWAP2 POP JUMPDEST DUP2 DUP2 LT ISZERO PUSH2 0x1A81 JUMPI DUP3 DUP2 SSTORE PUSH1 0x1 ADD PUSH2 0x1A6E JUMP JUMPDEST POP POP POP JUMPDEST POP POP POP JUMP JUMPDEST DUP2 MLOAD PUSH8 0xFFFFFFFFFFFFFFFF DUP2 GT ISZERO PUSH2 0x1AA4 JUMPI PUSH2 0x1AA4 PUSH2 0x1757 JUMP JUMPDEST PUSH2 0x1AB8 DUP2 PUSH2 0x1AB2 DUP5 SLOAD PUSH2 0x19C4 JUMP JUMPDEST DUP5 PUSH2 0x1A3B JUMP JUMPDEST PUSH1 0x20 DUP1 PUSH1 0x1F DUP4 GT PUSH1 0x1 DUP2 EQ PUSH2 0x1AED JUMPI PUSH1 0x0 DUP5 ISZERO PUSH2 0x1AD5 JUMPI POP DUP6 DUP4 ADD MLOAD JUMPDEST PUSH1 0x0 NOT PUSH1 0x3 DUP7 SWAP1 SHL SHR NOT AND PUSH1 0x1 DUP6 SWAP1 SHL OR DUP6 SSTORE PUSH2 0x1A81 JUMP JUMPDEST PUSH1 0x0 DUP6 DUP2 MSTORE PUSH1 0x20 DUP2 KECCAK256 PUSH1 0x1F NOT DUP7 AND SWAP2 JUMPDEST DUP3 DUP2 LT ISZERO PUSH2 0x1B1C JUMPI DUP9 DUP7 ADD MLOAD DUP3 SSTORE SWAP5 DUP5 ADD SWAP5 PUSH1 0x1 SWAP1 SWAP2 ADD SWAP1 DUP5 ADD PUSH2 0x1AFD JUMP JUMPDEST POP DUP6 DUP3 LT ISZERO PUSH2 0x1B3A JUMPI DUP8 DUP6 ADD MLOAD PUSH1 0x0 NOT PUSH1 0x3 DUP9 SWAP1 SHL PUSH1 0xF8 AND SHR NOT AND DUP2 SSTORE JUMPDEST POP POP POP POP POP PUSH1 0x1 SWAP1 DUP2 SHL ADD SWAP1 SSTORE POP JUMP INVALID ADDRESS PUSH5 0x4E72E131A0 0x29 0xB8 POP GASLIMIT 0xB6 DUP2 DUP2 PC 0x5D 0x28 CALLER 0xE8 BASEFEE PUSH26 0xB9709143E1F593F0000001A2646970667358221220BDD1A9F7F7 PUSH7 0xE90DDCCAD0E30E STATICCALL DUP12 JUMPI SAR SWAP4 0xA7 SWAP11 PREVRANDAO SWAP10 0xC9 0xD2 0xAF CHAINID 0xD ADDMOD MLOAD ADDMOD SWAP9 0xE8 PUSH5 0x736F6C6343 STOP ADDMOD SGT STOP CALLER "},"methodIdentifiers":{"FIELD_SIZE()":"414a37ba","batchVerify(bytes32[])":"c8fa6157","createCommitment(bytes32,bytes32)":"cf351f98","getHolderProofs(address)":"aa555726","getProof(bytes32)":"1b80bb3a","getVerificationCount(address)":"f017c5a6","holderProofs(address,uint256)":"37ca7683","proofs(bytes32)":"444d95b0","submitProof(address,bytes32,uint256[2],uint256[2],uint256[2],bytes)":"b03f82bf","updateVerifierKey(address)":"84d28c40","verificationCounts(address)":"25b4ca6c","verifierKey()":"b6299fda","verifyCredentialOwnership(address,bytes32)":"3e4f29e6","verifyCriteria(bytes32,bytes32)":"f4a254ea","verifyProof(bytes32)":"b142b4ec","verifyProofAndCount(bytes32)":"3d1abaa3"}}}}}