{"contracts/Groth16Verifier.sol":{"Groth16Verifier":{"abi":[{"anonymous":false,"inputs":[{"indexed":true,"internalType":"bool","name":"result","type":"bool"},{"indexed":true,"internalType":"address","name":"verifier","type":"address"}],"name":"ProofVerified","type":"event"},{"anonymous":false,"inputs":[],"name":"VerificationKeySet","type":"event"},{"inputs":[{"internalType":"uint256[2][]","name":"_proofs_a","type":"uint256[2][]"},{"internalType":"uint256[2][2][]","name":"_proofs_b","type":"uint256[2][2][]"},{"internalType":"uint256[2][]","name":"_proofs_c","type":"uint256[2][]"},{"internalType":"uint256[2][]","name":"_publicInputs","type":"uint256[2][]"}],"name":"batchVerify","outputs":[{"internalType":"bool[]","name":"","type":"bool[]"}],"stateMutability":"view","type":"function"},{"inputs":[{"internalType":"uint256","name":"_value","type":"uint256"}],"name":"isValidFieldElement","outputs":[{"internalType":"bool","name":"","type":"bool"}],"stateMutability":"pure","type":"function"},{"inputs":[{"internalType":"uint256[2]","name":"_alpha","type":"uint256[2]"},{"internalType":"uint256[2]","name":"_beta","type":"uint256[2]"},{"internalType":"uint256[2]","name":"_gamma","type":"uint256[2]"},{"internalType":"uint256[2]","name":"_delta","type":"uint256[2]"},{"internalType":"uint256[2][]","name":"_gamma_abc","type":"uint256[2][]"}],"name":"setVerificationKey","outputs":[],"stateMutability":"nonpayable","type":"function"},{"inputs":[{"internalType":"uint256[2]","name":"_proof_a","type":"uint256[2]"},{"internalType":"uint256[2][2]","name":"_proof_b","type":"uint256[2][2]"},{"internalType":"uint256[2]","name":"_proof_c","type":"uint256[2]"},{"internalType":"uint256[2]","name":"_publicInputs","type":"uint256[2]"}],"name":"verifyProof","outputs":[{"internalType":"bool","name":"","type":"bool"}],"stateMutability":"view","type":"function"},{"inputs":[],"name":"vkSet","outputs":[{"internalType":"bool","name":"","type":"bool"}],"stateMutability":"view","type":"function"},{"inputs":[{"internalType":"uint256","name":"","type":"uint256"}],"name":"vk_alpha","outputs":[{"internalType":"uint256","name":"","type":"uint256"}],"stateMutability":"view","type":"function"},{"inputs":[{"internalType":"uint256","name":"","type":"uint256"}],"name":"vk_beta","outputs":[{"internalType":"uint256","name":"","type":"uint256"}],"stateMutability":"view","type":"function"},{"inputs":[{"internalType":"uint256","name":"","type":"uint256"}],"name":"vk_delta","outputs":[{"internalType":"uint256","name":"","type":"uint256"}],"stateMutability":"view","type":"function"},{"inputs":[{"internalType":"uint256","name":"","type":"uint256"}],"name":"vk_gamma","outputs":[{"internalType":"uint256","name":"","type":"uint256"}],"stateMutability":"view","type":"function"},{"inputs":[{"internalType":"uint256","name":"","type":"uint256"},{"internalType":"uint256","name":"","type":"uint256"}],"name":"vk_gamma_abc","outputs":[{"internalType":"uint256","name":"","type":"uint256"}],"stateMutability":"view","type":"function"}],"evm":{"bytecode":{"linkReferences":{},"object":"608060405234801561001057600080fd5b50610aea806100206000396000f3fe608060405234801561001057600080fd5b506004361061009e5760003560e01c806353346abe1161006657806353346abe1461012c57806378f93def146101415780638b9dc51e14610154578063ae00024814610167578063f5c9d69e1461019a57600080fd5b806318242132146100a35780631cc6944d146100c9578063211e1fcc146100dc5780634996b401146100f95780634ca8654e1461010c575b600080fd5b6100b66100b1366004610664565b6101ad565b6040519081526020015b60405180910390f35b6100b66100d7366004610664565b6101c4565b6009546100e99060ff1681565b60405190151581526020016100c0565b6100b6610107366004610664565b6101d4565b61011f61011a366004610824565b6101e4565b6040516100c0919061092f565b61013f61013a366004610975565b6102ec565b005b6100b661014f3660046109fb565b610374565b6100b6610162366004610664565b6103a9565b6100e9610175366004610664565b7f30644e72e131a029b85045b68181585d2833e84879b9709143e1f593f00000011190565b6100e96101a8366004610a1d565b6103b9565b600281600281106101bd57600080fd5b0154905081565b600481600281106101bd57600080fd5b600081600281106101bd57600080fd5b835160609060008167ffffffffffffffff8111156102045761020461067d565b60405190808252806020026020018201604052801561022d578160200160208202803683370190505b50905060005b828110156102df576102ab88828151811061025057610250610a77565b602002602001015188838151811061026a5761026a610a77565b602002602001015188848151811061028457610284610a77565b602002602001015188858151811061029e5761029e610a77565b60200260200101516103b9565b8282815181106102bd576102bd610a77565b91151560209283029190910190910152806102d781610a8d565b915050610233565b509150505b949350505050565b6102f960008660026105a1565b50610306600285816105a1565b5061031460048460026105a1565b5061032260068360026105a1565b5080516103369060089060208401906105df565b506009805460ff191660011790556040517f995644dbefe20d811a13a1cd2f43fe847114c063f7b7b68577b486ce801e618690600090a15050505050565b6008828154811061038457600080fd5b906000526020600020906002020181600281106103a057600080fd5b01549150829050565b600681600281106101bd57600080fd5b60095460009060ff166104125760405162461bcd60e51b815260206004820152601860248201527f566572696669636174696f6e206b6579206e6f74207365740000000000000000604482015260640160405180910390fd5b6104438560005b60200201517f30644e72e131a029b85045b68181585d2833e84879b9709143e1f593f00000011190565b15806104575750610455856001610419565b155b15610464575060006102e4565b6104778460005b60200201516000610419565b158061049357506104918460005b60200201516001610419565b155b156104a0575060006102e4565b6104ab84600161046b565b15806104bf57506104bd846001610485565b155b156104cc575060006102e4565b6104d7836000610419565b15806104eb57506104e9836001610419565b155b156104f8575060006102e4565b6105048585858561050d565b95945050505050565b60006105198282610419565b158061052d575061052b826001610419565b155b1561053a575060006102e4565b845115801561054b57506020850151155b15610558575060006102e4565b83515115801561056b5750835160200151155b15610578575060006102e4565b825115801561058957506020830151155b15610596575060006102e4565b506001949350505050565b82600281019282156105cf579160200282015b828111156105cf5782518255916020019190600101906105b4565b506105db929150610635565b5090565b828054828255906000526020600020906002028101928215610629579160200282015b8281111561062957825161061990839060026105a1565b5091602001919060020190610602565b506105db92915061064a565b5b808211156105db5760008155600101610636565b808211156105db576000808255600182015560020161064a565b60006020828403121561067657600080fd5b5035919050565b634e487b7160e01b600052604160045260246000fd5b6040805190810167ffffffffffffffff811182821017156106b6576106b661067d565b60405290565b604051601f8201601f1916810167ffffffffffffffff811182821017156106e5576106e561067d565b604052919050565b600067ffffffffffffffff8211156107075761070761067d565b5060051b60200190565b600082601f83011261072257600080fd5b61072a610693565b80604084018581111561073c57600080fd5b845b8181101561075657803584526020938401930161073e565b509095945050505050565b600082601f83011261077257600080fd5b81356020610787610782836106ed565b6106bc565b82815260069290921b840181019181810190868411156107a657600080fd5b8286015b848110156107ca576107bc8882610711565b8352918301916040016107aa565b509695505050505050565b600082601f8301126107e657600080fd5b6107ee610693565b80608084018581111561080057600080fd5b845b81811015610756576108148782610711565b8452602090930192604001610802565b600080600080608080868803121561083b57600080fd5b853567ffffffffffffffff8082111561085357600080fd5b61085f89838a01610761565b965060209150818801358181111561087657600080fd5b8801601f81018a1361088757600080fd5b8035610895610782826106ed565b81815260079190911b8201840190848101908c8311156108b457600080fd5b928501925b828410156108da576108cb8d856107d5565b825292860192908501906108b9565b985050505060408801359250808311156108f357600080fd5b6108ff89848a01610761565b9450606088013592508083111561091557600080fd5b505061092387828801610761565b91505092959194509250565b6020808252825182820181905260009190848201906040850190845b8181101561096957835115158352928401929184019160010161094b565b50909695505050505050565b6000806000806000610120868803121561098e57600080fd5b6109988787610711565b94506109a78760408801610711565b93506109b68760808801610711565b92506109c58760c08801610711565b915061010086013567ffffffffffffffff8111156109e257600080fd5b6109ee88828901610761565b9150509295509295909350565b60008060408385031215610a0e57600080fd5b50508035926020909101359150565b6000806000806101408587031215610a3457600080fd5b610a3e8686610711565b9350610a4d86604087016107d5565b9250610a5c8660c08701610711565b9150610a6c866101008701610711565b905092959194509250565b634e487b7160e01b600052603260045260246000fd5b600060018201610aad57634e487b7160e01b600052601160045260246000fd5b506001019056fea2646970667358221220d3b9f2ac2b1783b3ae1c9bb838189b01056c65b60be80e2d8f66b3b4d72ced7c64736f6c63430008130033","opcodes":"PUSH1 0x80 PUSH1 0x40 MSTORE CALLVALUE DUP1 ISZERO PUSH2 0x10 JUMPI PUSH1 0x0 DUP1 REVERT JUMPDEST POP PUSH2 0xAEA DUP1 PUSH2 0x20 PUSH1 0x0 CODECOPY PUSH1 0x0 RETURN INVALID PUSH1 0x80 PUSH1 0x40 MSTORE CALLVALUE DUP1 ISZERO PUSH2 0x10 JUMPI PUSH1 0x0 DUP1 REVERT JUMPDEST POP PUSH1 0x4 CALLDATASIZE LT PUSH2 0x9E JUMPI PUSH1 0x0 CALLDATALOAD PUSH1 0xE0 SHR DUP1 PUSH4 0x53346ABE GT PUSH2 0x66 JUMPI DUP1 PUSH4 0x53346ABE EQ PUSH2 0x12C JUMPI DUP1 PUSH4 0x78F93DEF EQ PUSH2 0x141 JUMPI DUP1 PUSH4 0x8B9DC51E EQ PUSH2 0x154 JUMPI DUP1 PUSH4 0xAE000248 EQ PUSH2 0x167 JUMPI DUP1 PUSH4 0xF5C9D69E EQ PUSH2 0x19A JUMPI PUSH1 0x0 DUP1 REVERT JUMPDEST DUP1 PUSH4 0x18242132 EQ PUSH2 0xA3 JUMPI DUP1 PUSH4 0x1CC6944D EQ PUSH2 0xC9 JUMPI DUP1 PUSH4 0x211E1FCC EQ PUSH2 0xDC JUMPI DUP1 PUSH4 0x4996B401 EQ PUSH2 0xF9 JUMPI DUP1 PUSH4 0x4CA8654E EQ PUSH2 0x10C JUMPI JUMPDEST PUSH1 0x0 DUP1 REVERT JUMPDEST PUSH2 0xB6 PUSH2 0xB1 CALLDATASIZE PUSH1 0x4 PUSH2 0x664 JUMP JUMPDEST PUSH2 0x1AD JUMP JUMPDEST PUSH1 0x40 MLOAD SWAP1 DUP2 MSTORE PUSH1 0x20 ADD JUMPDEST PUSH1 0x40 MLOAD DUP1 SWAP2 SUB SWAP1 RETURN JUMPDEST PUSH2 0xB6 PUSH2 0xD7 CALLDATASIZE PUSH1 0x4 PUSH2 0x664 JUMP JUMPDEST PUSH2 0x1C4 JUMP JUMPDEST PUSH1 0x9 SLOAD PUSH2 0xE9 SWAP1 PUSH1 0xFF AND DUP2 JUMP JUMPDEST PUSH1 0x40 MLOAD SWAP1 ISZERO ISZERO DUP2 MSTORE PUSH1 0x20 ADD PUSH2 0xC0 JUMP JUMPDEST PUSH2 0xB6 PUSH2 0x107 CALLDATASIZE PUSH1 0x4 PUSH2 0x664 JUMP JUMPDEST PUSH2 0x1D4 JUMP JUMPDEST PUSH2 0x11F PUSH2 0x11A CALLDATASIZE PUSH1 0x4 PUSH2 0x824 JUMP JUMPDEST PUSH2 0x1E4 JUMP JUMPDEST PUSH1 0x40 MLOAD PUSH2 0xC0 SWAP2 SWAP1 PUSH2 0x92F JUMP JUMPDEST PUSH2 0x13F PUSH2 0x13A CALLDATASIZE PUSH1 0x4 PUSH2 0x975 JUMP JUMPDEST PUSH2 0x2EC JUMP JUMPDEST STOP JUMPDEST PUSH2 0xB6 PUSH2 0x14F CALLDATASIZE PUSH1 0x4 PUSH2 0x9FB JUMP JUMPDEST PUSH2 0x374 JUMP JUMPDEST PUSH2 0xB6 PUSH2 0x162 CALLDATASIZE PUSH1 0x4 PUSH2 0x664 JUMP JUMPDEST PUSH2 0x3A9 JUMP JUMPDEST PUSH2 0xE9 PUSH2 0x175 CALLDATASIZE PUSH1 0x4 PUSH2 0x664 JUMP JUMPDEST PUSH32 0x30644E72E131A029B85045B68181585D2833E84879B9709143E1F593F0000001 GT SWAP1 JUMP JUMPDEST PUSH2 0xE9 PUSH2 0x1A8 CALLDATASIZE PUSH1 0x4 PUSH2 0xA1D JUMP JUMPDEST PUSH2 0x3B9 JUMP JUMPDEST PUSH1 0x2 DUP2 PUSH1 0x2 DUP2 LT PUSH2 0x1BD JUMPI PUSH1 0x0 DUP1 REVERT JUMPDEST ADD SLOAD SWAP1 POP DUP2 JUMP JUMPDEST PUSH1 0x4 DUP2 PUSH1 0x2 DUP2 LT PUSH2 0x1BD JUMPI PUSH1 0x0 DUP1 REVERT JUMPDEST PUSH1 0x0 DUP2 PUSH1 0x2 DUP2 LT PUSH2 0x1BD JUMPI PUSH1 0x0 DUP1 REVERT JUMPDEST DUP4 MLOAD PUSH1 0x60 SWAP1 PUSH1 0x0 DUP2 PUSH8 0xFFFFFFFFFFFFFFFF DUP2 GT ISZERO PUSH2 0x204 JUMPI PUSH2 0x204 PUSH2 0x67D JUMP JUMPDEST PUSH1 0x40 MLOAD SWAP1 DUP1 DUP3 MSTORE DUP1 PUSH1 0x20 MUL PUSH1 0x20 ADD DUP3 ADD PUSH1 0x40 MSTORE DUP1 ISZERO PUSH2 0x22D JUMPI DUP2 PUSH1 0x20 ADD PUSH1 0x20 DUP3 MUL DUP1 CALLDATASIZE DUP4 CALLDATACOPY ADD SWAP1 POP JUMPDEST POP SWAP1 POP PUSH1 0x0 JUMPDEST DUP3 DUP2 LT ISZERO PUSH2 0x2DF JUMPI PUSH2 0x2AB DUP9 DUP3 DUP2 MLOAD DUP2 LT PUSH2 0x250 JUMPI PUSH2 0x250 PUSH2 0xA77 JUMP JUMPDEST PUSH1 0x20 MUL PUSH1 0x20 ADD ADD MLOAD DUP9 DUP4 DUP2 MLOAD DUP2 LT PUSH2 0x26A JUMPI PUSH2 0x26A PUSH2 0xA77 JUMP JUMPDEST PUSH1 0x20 MUL PUSH1 0x20 ADD ADD MLOAD DUP9 DUP5 DUP2 MLOAD DUP2 LT PUSH2 0x284 JUMPI PUSH2 0x284 PUSH2 0xA77 JUMP JUMPDEST PUSH1 0x20 MUL PUSH1 0x20 ADD ADD MLOAD DUP9 DUP6 DUP2 MLOAD DUP2 LT PUSH2 0x29E JUMPI PUSH2 0x29E PUSH2 0xA77 JUMP JUMPDEST PUSH1 0x20 MUL PUSH1 0x20 ADD ADD MLOAD PUSH2 0x3B9 JUMP JUMPDEST DUP3 DUP3 DUP2 MLOAD DUP2 LT PUSH2 0x2BD JUMPI PUSH2 0x2BD PUSH2 0xA77 JUMP JUMPDEST SWAP2 ISZERO ISZERO PUSH1 0x20 SWAP3 DUP4 MUL SWAP2 SWAP1 SWAP2 ADD SWAP1 SWAP2 ADD MSTORE DUP1 PUSH2 0x2D7 DUP2 PUSH2 0xA8D JUMP JUMPDEST SWAP2 POP POP PUSH2 0x233 JUMP JUMPDEST POP SWAP2 POP POP JUMPDEST SWAP5 SWAP4 POP POP POP POP JUMP JUMPDEST PUSH2 0x2F9 PUSH1 0x0 DUP7 PUSH1 0x2 PUSH2 0x5A1 JUMP JUMPDEST POP PUSH2 0x306 PUSH1 0x2 DUP6 DUP2 PUSH2 0x5A1 JUMP JUMPDEST POP PUSH2 0x314 PUSH1 0x4 DUP5 PUSH1 0x2 PUSH2 0x5A1 JUMP JUMPDEST POP PUSH2 0x322 PUSH1 0x6 DUP4 PUSH1 0x2 PUSH2 0x5A1 JUMP JUMPDEST POP DUP1 MLOAD PUSH2 0x336 SWAP1 PUSH1 0x8 SWAP1 PUSH1 0x20 DUP5 ADD SWAP1 PUSH2 0x5DF JUMP JUMPDEST POP PUSH1 0x9 DUP1 SLOAD PUSH1 0xFF NOT AND PUSH1 0x1 OR SWAP1 SSTORE PUSH1 0x40 MLOAD PUSH32 0x995644DBEFE20D811A13A1CD2F43FE847114C063F7B7B68577B486CE801E6186 SWAP1 PUSH1 0x0 SWAP1 LOG1 POP POP POP POP POP JUMP JUMPDEST PUSH1 0x8 DUP3 DUP2 SLOAD DUP2 LT PUSH2 0x384 JUMPI PUSH1 0x0 DUP1 REVERT JUMPDEST SWAP1 PUSH1 0x0 MSTORE PUSH1 0x20 PUSH1 0x0 KECCAK256 SWAP1 PUSH1 0x2 MUL ADD DUP2 PUSH1 0x2 DUP2 LT PUSH2 0x3A0 JUMPI PUSH1 0x0 DUP1 REVERT JUMPDEST ADD SLOAD SWAP2 POP DUP3 SWAP1 POP JUMP JUMPDEST PUSH1 0x6 DUP2 PUSH1 0x2 DUP2 LT PUSH2 0x1BD JUMPI PUSH1 0x0 DUP1 REVERT JUMPDEST PUSH1 0x9 SLOAD PUSH1 0x0 SWAP1 PUSH1 0xFF AND PUSH2 0x412 JUMPI PUSH1 0x40 MLOAD PUSH3 0x461BCD PUSH1 0xE5 SHL DUP2 MSTORE PUSH1 0x20 PUSH1 0x4 DUP3 ADD MSTORE PUSH1 0x18 PUSH1 0x24 DUP3 ADD MSTORE PUSH32 0x566572696669636174696F6E206B6579206E6F74207365740000000000000000 PUSH1 0x44 DUP3 ADD MSTORE PUSH1 0x64 ADD PUSH1 0x40 MLOAD DUP1 SWAP2 SUB SWAP1 REVERT JUMPDEST PUSH2 0x443 DUP6 PUSH1 0x0 JUMPDEST PUSH1 0x20 MUL ADD MLOAD PUSH32 0x30644E72E131A029B85045B68181585D2833E84879B9709143E1F593F0000001 GT SWAP1 JUMP JUMPDEST ISZERO DUP1 PUSH2 0x457 JUMPI POP PUSH2 0x455 DUP6 PUSH1 0x1 PUSH2 0x419 JUMP JUMPDEST ISZERO JUMPDEST ISZERO PUSH2 0x464 JUMPI POP PUSH1 0x0 PUSH2 0x2E4 JUMP JUMPDEST PUSH2 0x477 DUP5 PUSH1 0x0 JUMPDEST PUSH1 0x20 MUL ADD MLOAD PUSH1 0x0 PUSH2 0x419 JUMP JUMPDEST ISZERO DUP1 PUSH2 0x493 JUMPI POP PUSH2 0x491 DUP5 PUSH1 0x0 JUMPDEST PUSH1 0x20 MUL ADD MLOAD PUSH1 0x1 PUSH2 0x419 JUMP JUMPDEST ISZERO JUMPDEST ISZERO PUSH2 0x4A0 JUMPI POP PUSH1 0x0 PUSH2 0x2E4 JUMP JUMPDEST PUSH2 0x4AB DUP5 PUSH1 0x1 PUSH2 0x46B JUMP JUMPDEST ISZERO DUP1 PUSH2 0x4BF JUMPI POP PUSH2 0x4BD DUP5 PUSH1 0x1 PUSH2 0x485 JUMP JUMPDEST ISZERO JUMPDEST ISZERO PUSH2 0x4CC JUMPI POP PUSH1 0x0 PUSH2 0x2E4 JUMP JUMPDEST PUSH2 0x4D7 DUP4 PUSH1 0x0 PUSH2 0x419 JUMP JUMPDEST ISZERO DUP1 PUSH2 0x4EB JUMPI POP PUSH2 0x4E9 DUP4 PUSH1 0x1 PUSH2 0x419 JUMP JUMPDEST ISZERO JUMPDEST ISZERO PUSH2 0x4F8 JUMPI POP PUSH1 0x0 PUSH2 0x2E4 JUMP JUMPDEST PUSH2 0x504 DUP6 DUP6 DUP6 DUP6 PUSH2 0x50D JUMP JUMPDEST SWAP6 SWAP5 POP POP POP POP POP JUMP JUMPDEST PUSH1 0x0 PUSH2 0x519 DUP3 DUP3 PUSH2 0x419 JUMP JUMPDEST ISZERO DUP1 PUSH2 0x52D JUMPI POP PUSH2 0x52B DUP3 PUSH1 0x1 PUSH2 0x419 JUMP JUMPDEST ISZERO JUMPDEST ISZERO PUSH2 0x53A JUMPI POP PUSH1 0x0 PUSH2 0x2E4 JUMP JUMPDEST DUP5 MLOAD ISZERO DUP1 ISZERO PUSH2 0x54B JUMPI POP PUSH1 0x20 DUP6 ADD MLOAD ISZERO JUMPDEST ISZERO PUSH2 0x558 JUMPI POP PUSH1 0x0 PUSH2 0x2E4 JUMP JUMPDEST DUP4 MLOAD MLOAD ISZERO DUP1 ISZERO PUSH2 0x56B JUMPI POP DUP4 MLOAD PUSH1 0x20 ADD MLOAD ISZERO JUMPDEST ISZERO PUSH2 0x578 JUMPI POP PUSH1 0x0 PUSH2 0x2E4 JUMP JUMPDEST DUP3 MLOAD ISZERO DUP1 ISZERO PUSH2 0x589 JUMPI POP PUSH1 0x20 DUP4 ADD MLOAD ISZERO JUMPDEST ISZERO PUSH2 0x596 JUMPI POP PUSH1 0x0 PUSH2 0x2E4 JUMP JUMPDEST POP PUSH1 0x1 SWAP5 SWAP4 POP POP POP POP JUMP JUMPDEST DUP3 PUSH1 0x2 DUP2 ADD SWAP3 DUP3 ISZERO PUSH2 0x5CF JUMPI SWAP2 PUSH1 0x20 MUL DUP3 ADD JUMPDEST DUP3 DUP2 GT ISZERO PUSH2 0x5CF JUMPI DUP3 MLOAD DUP3 SSTORE SWAP2 PUSH1 0x20 ADD SWAP2 SWAP1 PUSH1 0x1 ADD SWAP1 PUSH2 0x5B4 JUMP JUMPDEST POP PUSH2 0x5DB SWAP3 SWAP2 POP PUSH2 0x635 JUMP JUMPDEST POP SWAP1 JUMP JUMPDEST DUP3 DUP1 SLOAD DUP3 DUP3 SSTORE SWAP1 PUSH1 0x0 MSTORE PUSH1 0x20 PUSH1 0x0 KECCAK256 SWAP1 PUSH1 0x2 MUL DUP2 ADD SWAP3 DUP3 ISZERO PUSH2 0x629 JUMPI SWAP2 PUSH1 0x20 MUL DUP3 ADD JUMPDEST DUP3 DUP2 GT ISZERO PUSH2 0x629 JUMPI DUP3 MLOAD PUSH2 0x619 SWAP1 DUP4 SWAP1 PUSH1 0x2 PUSH2 0x5A1 JUMP JUMPDEST POP SWAP2 PUSH1 0x20 ADD SWAP2 SWAP1 PUSH1 0x2 ADD SWAP1 PUSH2 0x602 JUMP JUMPDEST POP PUSH2 0x5DB SWAP3 SWAP2 POP PUSH2 0x64A JUMP JUMPDEST JUMPDEST DUP1 DUP3 GT ISZERO PUSH2 0x5DB JUMPI PUSH1 0x0 DUP2 SSTORE PUSH1 0x1 ADD PUSH2 0x636 JUMP JUMPDEST DUP1 DUP3 GT ISZERO PUSH2 0x5DB JUMPI PUSH1 0x0 DUP1 DUP3 SSTORE PUSH1 0x1 DUP3 ADD SSTORE PUSH1 0x2 ADD PUSH2 0x64A JUMP JUMPDEST PUSH1 0x0 PUSH1 0x20 DUP3 DUP5 SUB SLT ISZERO PUSH2 0x676 JUMPI PUSH1 0x0 DUP1 REVERT JUMPDEST POP CALLDATALOAD SWAP2 SWAP1 POP JUMP JUMPDEST PUSH4 0x4E487B71 PUSH1 0xE0 SHL PUSH1 0x0 MSTORE PUSH1 0x41 PUSH1 0x4 MSTORE PUSH1 0x24 PUSH1 0x0 REVERT JUMPDEST PUSH1 0x40 DUP1 MLOAD SWAP1 DUP2 ADD PUSH8 0xFFFFFFFFFFFFFFFF DUP2 GT DUP3 DUP3 LT OR ISZERO PUSH2 0x6B6 JUMPI PUSH2 0x6B6 PUSH2 0x67D JUMP JUMPDEST PUSH1 0x40 MSTORE SWAP1 JUMP JUMPDEST PUSH1 0x40 MLOAD PUSH1 0x1F DUP3 ADD PUSH1 0x1F NOT AND DUP2 ADD PUSH8 0xFFFFFFFFFFFFFFFF DUP2 GT DUP3 DUP3 LT OR ISZERO PUSH2 0x6E5 JUMPI PUSH2 0x6E5 PUSH2 0x67D JUMP JUMPDEST PUSH1 0x40 MSTORE SWAP2 SWAP1 POP JUMP JUMPDEST PUSH1 0x0 PUSH8 0xFFFFFFFFFFFFFFFF DUP3 GT ISZERO PUSH2 0x707 JUMPI PUSH2 0x707 PUSH2 0x67D JUMP JUMPDEST POP PUSH1 0x5 SHL PUSH1 0x20 ADD SWAP1 JUMP JUMPDEST PUSH1 0x0 DUP3 PUSH1 0x1F DUP4 ADD SLT PUSH2 0x722 JUMPI PUSH1 0x0 DUP1 REVERT JUMPDEST PUSH2 0x72A PUSH2 0x693 JUMP JUMPDEST DUP1 PUSH1 0x40 DUP5 ADD DUP6 DUP2 GT ISZERO PUSH2 0x73C JUMPI PUSH1 0x0 DUP1 REVERT JUMPDEST DUP5 JUMPDEST DUP2 DUP2 LT ISZERO PUSH2 0x756 JUMPI DUP1 CALLDATALOAD DUP5 MSTORE PUSH1 0x20 SWAP4 DUP5 ADD SWAP4 ADD PUSH2 0x73E JUMP JUMPDEST POP SWAP1 SWAP6 SWAP5 POP POP POP POP POP JUMP JUMPDEST PUSH1 0x0 DUP3 PUSH1 0x1F DUP4 ADD SLT PUSH2 0x772 JUMPI PUSH1 0x0 DUP1 REVERT JUMPDEST DUP2 CALLDATALOAD PUSH1 0x20 PUSH2 0x787 PUSH2 0x782 DUP4 PUSH2 0x6ED JUMP JUMPDEST PUSH2 0x6BC JUMP JUMPDEST DUP3 DUP2 MSTORE PUSH1 0x6 SWAP3 SWAP1 SWAP3 SHL DUP5 ADD DUP2 ADD SWAP2 DUP2 DUP2 ADD SWAP1 DUP7 DUP5 GT ISZERO PUSH2 0x7A6 JUMPI PUSH1 0x0 DUP1 REVERT JUMPDEST DUP3 DUP7 ADD JUMPDEST DUP5 DUP2 LT ISZERO PUSH2 0x7CA JUMPI PUSH2 0x7BC DUP9 DUP3 PUSH2 0x711 JUMP JUMPDEST DUP4 MSTORE SWAP2 DUP4 ADD SWAP2 PUSH1 0x40 ADD PUSH2 0x7AA JUMP JUMPDEST POP SWAP7 SWAP6 POP POP POP POP POP POP JUMP JUMPDEST PUSH1 0x0 DUP3 PUSH1 0x1F DUP4 ADD SLT PUSH2 0x7E6 JUMPI PUSH1 0x0 DUP1 REVERT JUMPDEST PUSH2 0x7EE PUSH2 0x693 JUMP JUMPDEST DUP1 PUSH1 0x80 DUP5 ADD DUP6 DUP2 GT ISZERO PUSH2 0x800 JUMPI PUSH1 0x0 DUP1 REVERT JUMPDEST DUP5 JUMPDEST DUP2 DUP2 LT ISZERO PUSH2 0x756 JUMPI PUSH2 0x814 DUP8 DUP3 PUSH2 0x711 JUMP JUMPDEST DUP5 MSTORE PUSH1 0x20 SWAP1 SWAP4 ADD SWAP3 PUSH1 0x40 ADD PUSH2 0x802 JUMP JUMPDEST PUSH1 0x0 DUP1 PUSH1 0x0 DUP1 PUSH1 0x80 DUP1 DUP7 DUP9 SUB SLT ISZERO PUSH2 0x83B JUMPI PUSH1 0x0 DUP1 REVERT JUMPDEST DUP6 CALLDATALOAD PUSH8 0xFFFFFFFFFFFFFFFF DUP1 DUP3 GT ISZERO PUSH2 0x853 JUMPI PUSH1 0x0 DUP1 REVERT JUMPDEST PUSH2 0x85F DUP10 DUP4 DUP11 ADD PUSH2 0x761 JUMP JUMPDEST SWAP7 POP PUSH1 0x20 SWAP2 POP DUP2 DUP9 ADD CALLDATALOAD DUP2 DUP2 GT ISZERO PUSH2 0x876 JUMPI PUSH1 0x0 DUP1 REVERT JUMPDEST DUP9 ADD PUSH1 0x1F DUP2 ADD DUP11 SGT PUSH2 0x887 JUMPI PUSH1 0x0 DUP1 REVERT JUMPDEST DUP1 CALLDATALOAD PUSH2 0x895 PUSH2 0x782 DUP3 PUSH2 0x6ED JUMP JUMPDEST DUP2 DUP2 MSTORE PUSH1 0x7 SWAP2 SWAP1 SWAP2 SHL DUP3 ADD DUP5 ADD SWAP1 DUP5 DUP2 ADD SWAP1 DUP13 DUP4 GT ISZERO PUSH2 0x8B4 JUMPI PUSH1 0x0 DUP1 REVERT JUMPDEST SWAP3 DUP6 ADD SWAP3 JUMPDEST DUP3 DUP5 LT ISZERO PUSH2 0x8DA JUMPI PUSH2 0x8CB DUP14 DUP6 PUSH2 0x7D5 JUMP JUMPDEST DUP3 MSTORE SWAP3 DUP7 ADD SWAP3 SWAP1 DUP6 ADD SWAP1 PUSH2 0x8B9 JUMP JUMPDEST SWAP9 POP POP POP POP PUSH1 0x40 DUP9 ADD CALLDATALOAD SWAP3 POP DUP1 DUP4 GT ISZERO PUSH2 0x8F3 JUMPI PUSH1 0x0 DUP1 REVERT JUMPDEST PUSH2 0x8FF DUP10 DUP5 DUP11 ADD PUSH2 0x761 JUMP JUMPDEST SWAP5 POP PUSH1 0x60 DUP9 ADD CALLDATALOAD SWAP3 POP DUP1 DUP4 GT ISZERO PUSH2 0x915 JUMPI PUSH1 0x0 DUP1 REVERT JUMPDEST POP POP PUSH2 0x923 DUP8 DUP3 DUP9 ADD PUSH2 0x761 JUMP JUMPDEST SWAP2 POP POP SWAP3 SWAP6 SWAP2 SWAP5 POP SWAP3 POP JUMP JUMPDEST PUSH1 0x20 DUP1 DUP3 MSTORE DUP3 MLOAD DUP3 DUP3 ADD DUP2 SWAP1 MSTORE PUSH1 0x0 SWAP2 SWAP1 DUP5 DUP3 ADD SWAP1 PUSH1 0x40 DUP6 ADD SWAP1 DUP5 JUMPDEST DUP2 DUP2 LT ISZERO PUSH2 0x969 JUMPI DUP4 MLOAD ISZERO ISZERO DUP4 MSTORE SWAP3 DUP5 ADD SWAP3 SWAP2 DUP5 ADD SWAP2 PUSH1 0x1 ADD PUSH2 0x94B JUMP JUMPDEST POP SWAP1 SWAP7 SWAP6 POP POP POP POP POP POP JUMP JUMPDEST PUSH1 0x0 DUP1 PUSH1 0x0 DUP1 PUSH1 0x0 PUSH2 0x120 DUP7 DUP9 SUB SLT ISZERO PUSH2 0x98E JUMPI PUSH1 0x0 DUP1 REVERT JUMPDEST PUSH2 0x998 DUP8 DUP8 PUSH2 0x711 JUMP JUMPDEST SWAP5 POP PUSH2 0x9A7 DUP8 PUSH1 0x40 DUP9 ADD PUSH2 0x711 JUMP JUMPDEST SWAP4 POP PUSH2 0x9B6 DUP8 PUSH1 0x80 DUP9 ADD PUSH2 0x711 JUMP JUMPDEST SWAP3 POP PUSH2 0x9C5 DUP8 PUSH1 0xC0 DUP9 ADD PUSH2 0x711 JUMP JUMPDEST SWAP2 POP PUSH2 0x100 DUP7 ADD CALLDATALOAD PUSH8 0xFFFFFFFFFFFFFFFF DUP2 GT ISZERO PUSH2 0x9E2 JUMPI PUSH1 0x0 DUP1 REVERT JUMPDEST PUSH2 0x9EE DUP9 DUP3 DUP10 ADD PUSH2 0x761 JUMP JUMPDEST SWAP2 POP POP SWAP3 SWAP6 POP SWAP3 SWAP6 SWAP1 SWAP4 POP JUMP JUMPDEST PUSH1 0x0 DUP1 PUSH1 0x40 DUP4 DUP6 SUB SLT ISZERO PUSH2 0xA0E JUMPI PUSH1 0x0 DUP1 REVERT JUMPDEST POP POP DUP1 CALLDATALOAD SWAP3 PUSH1 0x20 SWAP1 SWAP2 ADD CALLDATALOAD SWAP2 POP JUMP JUMPDEST PUSH1 0x0 DUP1 PUSH1 0x0 DUP1 PUSH2 0x140 DUP6 DUP8 SUB SLT ISZERO PUSH2 0xA34 JUMPI PUSH1 0x0 DUP1 REVERT JUMPDEST PUSH2 0xA3E DUP7 DUP7 PUSH2 0x711 JUMP JUMPDEST SWAP4 POP PUSH2 0xA4D DUP7 PUSH1 0x40 DUP8 ADD PUSH2 0x7D5 JUMP JUMPDEST SWAP3 POP PUSH2 0xA5C DUP7 PUSH1 0xC0 DUP8 ADD PUSH2 0x711 JUMP JUMPDEST SWAP2 POP PUSH2 0xA6C DUP7 PUSH2 0x100 DUP8 ADD PUSH2 0x711 JUMP JUMPDEST SWAP1 POP SWAP3 SWAP6 SWAP2 SWAP5 POP SWAP3 POP JUMP JUMPDEST PUSH4 0x4E487B71 PUSH1 0xE0 SHL PUSH1 0x0 MSTORE PUSH1 0x32 PUSH1 0x4 MSTORE PUSH1 0x24 PUSH1 0x0 REVERT JUMPDEST PUSH1 0x0 PUSH1 0x1 DUP3 ADD PUSH2 0xAAD JUMPI PUSH4 0x4E487B71 PUSH1 0xE0 SHL PUSH1 0x0 MSTORE PUSH1 0x11 PUSH1 0x4 MSTORE PUSH1 0x24 PUSH1 0x0 REVERT JUMPDEST POP PUSH1 0x1 ADD SWAP1 JUMP INVALID LOG2 PUSH5 0x6970667358 0x22 SLT KECCAK256 0xD3 0xB9 CALLCODE 0xAC 0x2B OR DUP4 0xB3 0xAE SHR SWAP12 0xB8 CODESIZE XOR SWAP12 ADD SDIV PUSH13 0x65B60BE80E2D8F66B3B4D72CED PUSH29 0x64736F6C63430008130033000000000000000000000000000000000000 "},"methodIdentifiers":{"batchVerify(uint256[2][],uint256[2][2][],uint256[2][],uint256[2][])":"4ca8654e","isValidFieldElement(uint256)":"ae000248","setVerificationKey(uint256[2],uint256[2],uint256[2],uint256[2],uint256[2][])":"53346abe","verifyProof(uint256[2],uint256[2][2],uint256[2],uint256[2])":"f5c9d69e","vkSet()":"211e1fcc","vk_alpha(uint256)":"4996b401","vk_beta(uint256)":"18242132","vk_delta(uint256)":"8b9dc51e","vk_gamma(uint256)":"1cc6944d","vk_gamma_abc(uint256,uint256)":"78f93def"}}}}}