{
  "_format": "hh-sol-artifact-1",
  "contractName": "UserRegistry",
  "sourceName": "contracts/UserRegistry.sol",
  "abi": [
    {
      "inputs": [],
      "stateMutability": "nonpayable",
      "type": "constructor"
    },
    {
      "anonymous": false,
      "inputs": [
        {
          "indexed": true,
          "internalType": "address",
          "name": "userAddress",
          "type": "address"
        }
      ],
      "name": "UserDeactivated",
      "type": "event"
    },
    {
      "anonymous": false,
      "inputs": [
        {
          "indexed": true,
          "internalType": "address",
          "name": "userAddress",
          "type": "address"
        },
        {
          "indexed": false,
          "internalType": "string",
          "name": "name",
          "type": "string"
        },
        {
          "indexed": false,
          "internalType": "string",
          "name": "email",
          "type": "string"
        }
      ],
      "name": "UserRegistered",
      "type": "event"
    },
    {
      "inputs": [],
      "name": "deactivateUser",
      "outputs": [],
      "stateMutability": "nonpayable",
      "type": "function"
    },
    {
      "inputs": [],
      "name": "getAllUsers",
      "outputs": [
        {
          "components": [
            {
              "internalType": "address",
              "name": "userAddress",
              "type": "address"
            },
            {
              "internalType": "string",
              "name": "name",
              "type": "string"
            },
            {
              "internalType": "string",
              "name": "email",
              "type": "string"
            },
            {
              "internalType": "bool",
              "name": "isActive",
              "type": "bool"
            },
            {
              "internalType": "uint256",
              "name": "registeredAt",
              "type": "uint256"
            },
            {
              "internalType": "uint256",
              "name": "credentialsReceived",
              "type": "uint256"
            }
          ],
          "internalType": "struct UserRegistry.User[]",
          "name": "",
          "type": "tuple[]"
        }
      ],
      "stateMutability": "view",
      "type": "function"
    },
    {
      "inputs": [],
      "name": "getTotalUsers",
      "outputs": [
        {
          "internalType": "uint256",
          "name": "",
          "type": "uint256"
        }
      ],
      "stateMutability": "view",
      "type": "function"
    },
    {
      "inputs": [
        {
          "internalType": "address",
          "name": "_userAddress",
          "type": "address"
        }
      ],
      "name": "getUser",
      "outputs": [
        {
          "components": [
            {
              "internalType": "address",
              "name": "userAddress",
              "type": "address"
            },
            {
              "internalType": "string",
              "name": "name",
              "type": "string"
            },
            {
              "internalType": "string",
              "name": "email",
              "type": "string"
            },
            {
              "internalType": "bool",
              "name": "isActive",
              "type": "bool"
            },
            {
              "internalType": "uint256",
              "name": "registeredAt",
              "type": "uint256"
            },
            {
              "internalType": "uint256",
              "name": "credentialsReceived",
              "type": "uint256"
            }
          ],
          "internalType": "struct UserRegistry.User",
          "name": "",
          "type": "tuple"
        }
      ],
      "stateMutability": "view",
      "type": "function"
    },
    {
      "inputs": [],
      "name": "getUserAddresses",
      "outputs": [
        {
          "internalType": "address[]",
          "name": "",
          "type": "address[]"
        }
      ],
      "stateMutability": "view",
      "type": "function"
    },
    {
      "inputs": [
        {
          "internalType": "address",
          "name": "_userAddress",
          "type": "address"
        }
      ],
      "name": "incrementCredentialsReceived",
      "outputs": [],
      "stateMutability": "nonpayable",
      "type": "function"
    },
    {
      "inputs": [
        {
          "internalType": "address",
          "name": "_account",
          "type": "address"
        }
      ],
      "name": "isAllowedAccount",
      "outputs": [
        {
          "internalType": "bool",
          "name": "",
          "type": "bool"
        }
      ],
      "stateMutability": "pure",
      "type": "function"
    },
    {
      "inputs": [
        {
          "internalType": "address",
          "name": "",
          "type": "address"
        }
      ],
      "name": "isRegisteredUser",
      "outputs": [
        {
          "internalType": "bool",
          "name": "",
          "type": "bool"
        }
      ],
      "stateMutability": "view",
      "type": "function"
    },
    {
      "inputs": [
        {
          "internalType": "string",
          "name": "_name",
          "type": "string"
        },
        {
          "internalType": "string",
          "name": "_email",
          "type": "string"
        }
      ],
      "name": "registerUser",
      "outputs": [],
      "stateMutability": "nonpayable",
      "type": "function"
    },
    {
      "inputs": [],
      "name": "totalUsers",
      "outputs": [
        {
          "internalType": "uint256",
          "name": "",
          "type": "uint256"
        }
      ],
      "stateMutability": "view",
      "type": "function"
    },
    {
      "inputs": [
        {
          "internalType": "uint256",
          "name": "",
          "type": "uint256"
        }
      ],
      "name": "userAddresses",
      "outputs": [
        {
          "internalType": "address",
          "name": "",
          "type": "address"
        }
      ],
      "stateMutability": "view",
      "type": "function"
    },
    {
      "inputs": [
        {
          "internalType": "address",
          "name": "",
          "type": "address"
        }
      ],
      "name": "users",
      "outputs": [
        {
          "internalType": "address",
          "name": "userAddress",
          "type": "address"
        },
        {
          "internalType": "string",
          "name": "name",
          "type": "string"
        },
        {
          "internalType": "string",
          "name": "email",
          "type": "string"
        },
        {
          "internalType": "bool",
          "name": "isActive",
          "type": "bool"
        },
        {
          "internalType": "uint256",
          "name": "registeredAt",
          "type": "uint256"
        },
        {
          "internalType": "uint256",
          "name": "credentialsReceived",
          "type": "uint256"
        }
      ],
      "stateMutability": "view",
      "type": "function"
    }
  ],
  "bytecode": "0x6080604052600060035534801561001557600080fd5b50611194806100256000396000f3fe608060405234801561001057600080fd5b50600436106100b45760003560e01c80639be572f6116100715780639be572f61461016c578063a591efde1461017e578063a87430ba14610193578063b23bc7d7146101b8578063bff1f9e1146101cc578063e2842d79146101d557600080fd5b80631d2e4afd146100b95780631f5bdf5d146100ce578063502c9bd51461010657806355ea2000146101315780636f77926b146101395780637595458c14610159575b600080fd5b6100cc6100c7366004610d03565b6101ea565b005b6100f16100dc366004610d67565b60016020526000908152604090205460ff1681565b60405190151581526020015b60405180910390f35b610119610114366004610d97565b610403565b6040516001600160a01b0390911681526020016100fd565b6100cc61042d565b61014c610147366004610d67565b610500565b6040516100fd9190610e63565b6100cc610167366004610d67565b6106bf565b6003545b6040519081526020016100fd565b610186610726565b6040516100fd9190610e76565b6101a66101a1366004610d67565b610788565b6040516100fd96959493929190610ec3565b6100f16101c6366004610d67565b50600190565b61017060035481565b6101dd6108dd565b6040516100fd9190610f18565b3360009081526001602052604090205460ff161561024f5760405162461bcd60e51b815260206004820152601a60248201527f5573657220697320616c7265616479207265676973746572656400000000000060448201526064015b60405180910390fd5b60008251116102975760405162461bcd60e51b81526020600482015260146024820152734e616d652063616e6e6f7420626520656d70747960601b6044820152606401610246565b6040805160c081018252338082526020808301868152838501869052600160608501819052426080860152600060a086018190529384529183905293909120825181546001600160a01b0319166001600160a01b0390911617815592519192839290918201906103079082611003565b506040820151600282019061031c9082611003565b5060608201516003808301805492151560ff199384161790556080840151600484015560a09093015160059092019190915533600081815260016020819052604082208054909416811790935560028054938401815581527f405787fa12a823e0f2b7631cc41b3ba8828b3321ca811111fa75cd3aa3bb5ace90920180546001600160a01b0319169091179055815491906103b6836110c3565b9190505550336001600160a01b03167f92822564bab8864c3a47b34e8d23fbce5c46234eb5da261f94087b995ac0f33b84846040516103f69291906110ea565b60405180910390a2505050565b6002818154811061041357600080fd5b6000918252602090912001546001600160a01b0316905081565b3360009081526001602052604090205460ff1661045c5760405162461bcd60e51b815260040161024690611118565b3360009081526020819052604090206003015460ff166104be5760405162461bcd60e51b815260206004820152601860248201527f5573657220697320616c726561647920696e61637469766500000000000000006044820152606401610246565b33600081815260208190526040808220600301805460ff19169055517f5554feec4e87bc4eba14bd62f71df68156f97d26128616fbc27d28e33b35a6b49190a2565b610508610c1f565b6001600160a01b03821660009081526001602052604090205460ff166105405760405162461bcd60e51b815260040161024690611118565b6001600160a01b0380831660009081526020818152604091829020825160c08101909352805490931682526001830180549293929184019161058190610f7a565b80601f01602080910402602001604051908101604052809291908181526020018280546105ad90610f7a565b80156105fa5780601f106105cf576101008083540402835291602001916105fa565b820191906000526020600020905b8154815290600101906020018083116105dd57829003601f168201915b5050505050815260200160028201805461061390610f7a565b80601f016020809104026020016040519081016040528092919081815260200182805461063f90610f7a565b801561068c5780601f106106615761010080835404028352916020019161068c565b820191906000526020600020905b81548152906001019060200180831161066f57829003601f168201915b5050509183525050600382015460ff16151560208201526004820154604082015260059091015460609091015292915050565b6001600160a01b03811660009081526001602052604090205460ff166106f75760405162461bcd60e51b815260040161024690611118565b6001600160a01b038116600090815260208190526040812060050180549161071e836110c3565b919050555050565b6060600280548060200260200160405190810160405280929190818152602001828054801561077e57602002820191906000526020600020905b81546001600160a01b03168152600190910190602001808311610760575b5050505050905090565b600060208190529081526040902080546001820180546001600160a01b0390921692916107b490610f7a565b80601f01602080910402602001604051908101604052809291908181526020018280546107e090610f7a565b801561082d5780601f106108025761010080835404028352916020019161082d565b820191906000526020600020905b81548152906001019060200180831161081057829003601f168201915b50505050509080600201805461084290610f7a565b80601f016020809104026020016040519081016040528092919081815260200182805461086e90610f7a565b80156108bb5780601f10610890576101008083540402835291602001916108bb565b820191906000526020600020905b81548152906001019060200180831161089e57829003601f168201915b5050505060038301546004840154600590940154929360ff9091169290915086565b6060600060035467ffffffffffffffff8111156108fc576108fc610c60565b60405190808252806020026020018201604052801561093557816020015b610922610c1f565b81526020019060019003908161091a5790505b5090506000805b600254811015610b6a576000806002838154811061095c5761095c611148565b60009182526020808320909101546001600160a01b0316835282019290925260400190206003015460ff1615610b5857600080600283815481106109a2576109a2611148565b60009182526020808320909101546001600160a01b039081168452838201949094526040928301909120825160c0810190935280549093168252600183018054929392918401916109f290610f7a565b80601f0160208091040260200160405190810160405280929190818152602001828054610a1e90610f7a565b8015610a6b5780601f10610a4057610100808354040283529160200191610a6b565b820191906000526020600020905b815481529060010190602001808311610a4e57829003601f168201915b50505050508152602001600282018054610a8490610f7a565b80601f0160208091040260200160405190810160405280929190818152602001828054610ab090610f7a565b8015610afd5780601f10610ad257610100808354040283529160200191610afd565b820191906000526020600020905b815481529060010190602001808311610ae057829003601f168201915b5050509183525050600382015460ff1615156020820152600482015460408201526005909101546060909101528351849084908110610b3e57610b3e611148565b60200260200101819052508180610b54906110c3565b9250505b80610b62816110c3565b91505061093c565b5060008167ffffffffffffffff811115610b8657610b86610c60565b604051908082528060200260200182016040528015610bbf57816020015b610bac610c1f565b815260200190600190039081610ba45790505b50905060005b82811015610c1757838181518110610bdf57610bdf611148565b6020026020010151828281518110610bf957610bf9611148565b60200260200101819052508080610c0f906110c3565b915050610bc5565b509392505050565b6040518060c0016040528060006001600160a01b03168152602001606081526020016060815260200160001515815260200160008152602001600081525090565b634e487b7160e01b600052604160045260246000fd5b600082601f830112610c8757600080fd5b813567ffffffffffffffff80821115610ca257610ca2610c60565b604051601f8301601f19908116603f01168101908282118183101715610cca57610cca610c60565b81604052838152866020858801011115610ce357600080fd5b836020870160208301376000602085830101528094505050505092915050565b60008060408385031215610d1657600080fd5b823567ffffffffffffffff80821115610d2e57600080fd5b610d3a86838701610c76565b93506020850135915080821115610d5057600080fd5b50610d5d85828601610c76565b9150509250929050565b600060208284031215610d7957600080fd5b81356001600160a01b0381168114610d9057600080fd5b9392505050565b600060208284031215610da957600080fd5b5035919050565b6000815180845260005b81811015610dd657602081850181015186830182015201610dba565b506000602082860101526020601f19601f83011685010191505092915050565b60018060a01b0381511682526000602082015160c06020850152610e1d60c0850182610db0565b905060408301518482036040860152610e368282610db0565b9150506060830151151560608501526080830151608085015260a083015160a08501528091505092915050565b602081526000610d906020830184610df6565b6020808252825182820181905260009190848201906040850190845b81811015610eb75783516001600160a01b031683529284019291840191600101610e92565b50909695505050505050565b6001600160a01b038716815260c060208201819052600090610ee790830188610db0565b8281036040840152610ef98188610db0565b95151560608401525050608081019290925260a0909101529392505050565b6000602080830181845280855180835260408601915060408160051b870101925083870160005b82811015610f6d57603f19888603018452610f5b858351610df6565b94509285019290850190600101610f3f565b5092979650505050505050565b600181811c90821680610f8e57607f821691505b602082108103610fae57634e487b7160e01b600052602260045260246000fd5b50919050565b601f821115610ffe57600081815260208120601f850160051c81016020861015610fdb5750805b601f850160051c820191505b81811015610ffa57828155600101610fe7565b5050505b505050565b815167ffffffffffffffff81111561101d5761101d610c60565b6110318161102b8454610f7a565b84610fb4565b602080601f831160018114611066576000841561104e5750858301515b600019600386901b1c1916600185901b178555610ffa565b600085815260208120601f198616915b8281101561109557888601518255948401946001909101908401611076565b50858210156110b35787850151600019600388901b60f8161c191681555b5050505050600190811b01905550565b6000600182016110e357634e487b7160e01b600052601160045260246000fd5b5060010190565b6040815260006110fd6040830185610db0565b828103602084015261110f8185610db0565b95945050505050565b602080825260169082015275155cd95c881a5cc81b9bdd081c9959da5cdd195c995960521b604082015260600190565b634e487b7160e01b600052603260045260246000fdfea264697066735822122044bddd3aec46d9f03c31a58a17fa1e918fe161bc7be47f3d914a2d880a715a6464736f6c63430008130033",
  "linkReferences": {},
  "deployedLinkReferences": {}
}