{
  "_format": "hh-sol-artifact-1",
  "contractName": "UserRegistry",
  "sourceName": "contracts/UserRegistry.sol",
  "abi": [
    {
      "inputs": [],
      "stateMutability": "nonpayable",
      "type": "constructor"
    },
    {
      "anonymous": false,
      "inputs": [
        {
          "indexed": true,
          "internalType": "address",
          "name": "userAddress",
          "type": "address"
        }
      ],
      "name": "UserDeactivated",
      "type": "event"
    },
    {
      "anonymous": false,
      "inputs": [
        {
          "indexed": true,
          "internalType": "address",
          "name": "userAddress",
          "type": "address"
        },
        {
          "indexed": false,
          "internalType": "string",
          "name": "name",
          "type": "string"
        },
        {
          "indexed": false,
          "internalType": "string",
          "name": "email",
          "type": "string"
        }
      ],
      "name": "UserRegistered",
      "type": "event"
    },
    {
      "inputs": [
        {
          "internalType": "address",
          "name": "",
          "type": "address"
        }
      ],
      "name": "allowedUserAccounts",
      "outputs": [
        {
          "internalType": "bool",
          "name": "",
          "type": "bool"
        }
      ],
      "stateMutability": "view",
      "type": "function"
    },
    {
      "inputs": [],
      "name": "deactivateUser",
      "outputs": [],
      "stateMutability": "nonpayable",
      "type": "function"
    },
    {
      "inputs": [],
      "name": "getAllUsers",
      "outputs": [
        {
          "components": [
            {
              "internalType": "address",
              "name": "userAddress",
              "type": "address"
            },
            {
              "internalType": "string",
              "name": "name",
              "type": "string"
            },
            {
              "internalType": "string",
              "name": "email",
              "type": "string"
            },
            {
              "internalType": "bool",
              "name": "isActive",
              "type": "bool"
            },
            {
              "internalType": "uint256",
              "name": "registeredAt",
              "type": "uint256"
            },
            {
              "internalType": "uint256",
              "name": "credentialsReceived",
              "type": "uint256"
            }
          ],
          "internalType": "struct UserRegistry.User[]",
          "name": "",
          "type": "tuple[]"
        }
      ],
      "stateMutability": "view",
      "type": "function"
    },
    {
      "inputs": [],
      "name": "getTotalUsers",
      "outputs": [
        {
          "internalType": "uint256",
          "name": "",
          "type": "uint256"
        }
      ],
      "stateMutability": "view",
      "type": "function"
    },
    {
      "inputs": [
        {
          "internalType": "address",
          "name": "_userAddress",
          "type": "address"
        }
      ],
      "name": "getUser",
      "outputs": [
        {
          "components": [
            {
              "internalType": "address",
              "name": "userAddress",
              "type": "address"
            },
            {
              "internalType": "string",
              "name": "name",
              "type": "string"
            },
            {
              "internalType": "string",
              "name": "email",
              "type": "string"
            },
            {
              "internalType": "bool",
              "name": "isActive",
              "type": "bool"
            },
            {
              "internalType": "uint256",
              "name": "registeredAt",
              "type": "uint256"
            },
            {
              "internalType": "uint256",
              "name": "credentialsReceived",
              "type": "uint256"
            }
          ],
          "internalType": "struct UserRegistry.User",
          "name": "",
          "type": "tuple"
        }
      ],
      "stateMutability": "view",
      "type": "function"
    },
    {
      "inputs": [],
      "name": "getUserAddresses",
      "outputs": [
        {
          "internalType": "address[]",
          "name": "",
          "type": "address[]"
        }
      ],
      "stateMutability": "view",
      "type": "function"
    },
    {
      "inputs": [
        {
          "internalType": "address",
          "name": "_userAddress",
          "type": "address"
        }
      ],
      "name": "incrementCredentialsReceived",
      "outputs": [],
      "stateMutability": "nonpayable",
      "type": "function"
    },
    {
      "inputs": [
        {
          "internalType": "address",
          "name": "_account",
          "type": "address"
        }
      ],
      "name": "isAllowedAccount",
      "outputs": [
        {
          "internalType": "bool",
          "name": "",
          "type": "bool"
        }
      ],
      "stateMutability": "view",
      "type": "function"
    },
    {
      "inputs": [
        {
          "internalType": "address",
          "name": "",
          "type": "address"
        }
      ],
      "name": "isRegisteredUser",
      "outputs": [
        {
          "internalType": "bool",
          "name": "",
          "type": "bool"
        }
      ],
      "stateMutability": "view",
      "type": "function"
    },
    {
      "inputs": [
        {
          "internalType": "string",
          "name": "_name",
          "type": "string"
        },
        {
          "internalType": "string",
          "name": "_email",
          "type": "string"
        }
      ],
      "name": "registerUser",
      "outputs": [],
      "stateMutability": "nonpayable",
      "type": "function"
    },
    {
      "inputs": [],
      "name": "totalUsers",
      "outputs": [
        {
          "internalType": "uint256",
          "name": "",
          "type": "uint256"
        }
      ],
      "stateMutability": "view",
      "type": "function"
    },
    {
      "inputs": [
        {
          "internalType": "uint256",
          "name": "",
          "type": "uint256"
        }
      ],
      "name": "userAddresses",
      "outputs": [
        {
          "internalType": "address",
          "name": "",
          "type": "address"
        }
      ],
      "stateMutability": "view",
      "type": "function"
    },
    {
      "inputs": [
        {
          "internalType": "address",
          "name": "",
          "type": "address"
        }
      ],
      "name": "users",
      "outputs": [
        {
          "internalType": "address",
          "name": "userAddress",
          "type": "address"
        },
        {
          "internalType": "string",
          "name": "name",
          "type": "string"
        },
        {
          "internalType": "string",
          "name": "email",
          "type": "string"
        },
        {
          "internalType": "bool",
          "name": "isActive",
          "type": "bool"
        },
        {
          "internalType": "uint256",
          "name": "registeredAt",
          "type": "uint256"
        },
        {
          "internalType": "uint256",
          "name": "credentialsReceived",
          "type": "uint256"
        }
      ],
      "stateMutability": "view",
      "type": "function"
    }
  ],
  "bytecode": "0x6080604052600060045534801561001557600080fd5b5060036020527f961ec03a078fec1e350bb1ca3bff1afa4bae5fb83d9d8382550c2fd26a7d7527805460ff1990811660019081179092557f53c8a5ff8e9eee17be03169c30dedc5882673fcdd4fbdb8a32244385ed26997880548216831790557fddfe746303372e8d2ea45aa78e3e91478f7307894b155f7ff4ebb7ddaa34527280548216831790557f75aff4397bd23075589294e0b8b0f8648cf7c5304a40414f211ad7ccc7e3a7fd80548216831790557f09c9f1f772cc7cdfdea1312d18e43df0fc201c7648448a9011fd8181f577802d80548216831790557314dc79964da2c08b23698b3d3cc7ca32193d99556000527fc9f51ff2393193a07f116cb1ed67be0783387c719e9662a8d0ec4684dcfc0fa08054909116909117905561125c806101426000396000f3fe608060405234801561001057600080fd5b50600436106100cf5760003560e01c80637595458c1161008c578063a87430ba11610066578063a87430ba146101d1578063b23bc7d7146101f6578063bff1f9e114610222578063e2842d791461022b57600080fd5b80637595458c146101975780639be572f6146101aa578063a591efde146101bc57600080fd5b80631d2e4afd146100d45780631f5bdf5d146100e957806327f1043414610121578063502c9bd51461014457806355ea20001461016f5780636f77926b14610177575b600080fd5b6100e76100e2366004610dcb565b610240565b005b61010c6100f7366004610e2f565b60016020526000908152604090205460ff1681565b60405190151581526020015b60405180910390f35b61010c61012f366004610e2f565b60036020526000908152604090205460ff1681565b610157610152366004610e5f565b6104cb565b6040516001600160a01b039091168152602001610118565b6100e76104f5565b61018a610185366004610e2f565b6105c8565b6040516101189190610f2b565b6100e76101a5366004610e2f565b610787565b6004545b604051908152602001610118565b6101c46107ee565b6040516101189190610f3e565b6101e46101df366004610e2f565b610850565b60405161011896959493929190610f8b565b61010c610204366004610e2f565b6001600160a01b031660009081526003602052604090205460ff1690565b6101ae60045481565b6102336109a5565b6040516101189190610fe0565b3360009081526003602052604090205460ff166102b45760405162461bcd60e51b815260206004820152602760248201527f4f6e6c79206163636f756e747320322d372063616e20726567697374657220616044820152667320757365727360c81b60648201526084015b60405180910390fd5b3360009081526001602052604090205460ff16156103145760405162461bcd60e51b815260206004820152601a60248201527f5573657220697320616c7265616479207265676973746572656400000000000060448201526064016102ab565b600082511161035c5760405162461bcd60e51b81526020600482015260146024820152734e616d652063616e6e6f7420626520656d70747960601b60448201526064016102ab565b6040805160c081018252338082526020808301868152838501869052600160608501819052426080860152600060a086018190529384529183905293909120825181546001600160a01b0319166001600160a01b0390911617815592519192839290918201906103cc90826110cb565b50604082015160028201906103e190826110cb565b50606082015160038201805491151560ff19928316179055608083015160048084019190915560a09093015160059092019190915533600081815260016020819052604082208054909416811790935560028054938401815581527f405787fa12a823e0f2b7631cc41b3ba8828b3321ca811111fa75cd3aa3bb5ace90920180546001600160a01b03191690911790558154919061047e8361118b565b9190505550336001600160a01b03167f92822564bab8864c3a47b34e8d23fbce5c46234eb5da261f94087b995ac0f33b84846040516104be9291906111b2565b60405180910390a2505050565b600281815481106104db57600080fd5b6000918252602090912001546001600160a01b0316905081565b3360009081526001602052604090205460ff166105245760405162461bcd60e51b81526004016102ab906111e0565b3360009081526020819052604090206003015460ff166105865760405162461bcd60e51b815260206004820152601860248201527f5573657220697320616c726561647920696e616374697665000000000000000060448201526064016102ab565b33600081815260208190526040808220600301805460ff19169055517f5554feec4e87bc4eba14bd62f71df68156f97d26128616fbc27d28e33b35a6b49190a2565b6105d0610ce7565b6001600160a01b03821660009081526001602052604090205460ff166106085760405162461bcd60e51b81526004016102ab906111e0565b6001600160a01b0380831660009081526020818152604091829020825160c08101909352805490931682526001830180549293929184019161064990611042565b80601f016020809104026020016040519081016040528092919081815260200182805461067590611042565b80156106c25780601f10610697576101008083540402835291602001916106c2565b820191906000526020600020905b8154815290600101906020018083116106a557829003601f168201915b505050505081526020016002820180546106db90611042565b80601f016020809104026020016040519081016040528092919081815260200182805461070790611042565b80156107545780601f1061072957610100808354040283529160200191610754565b820191906000526020600020905b81548152906001019060200180831161073757829003601f168201915b5050509183525050600382015460ff16151560208201526004820154604082015260059091015460609091015292915050565b6001600160a01b03811660009081526001602052604090205460ff166107bf5760405162461bcd60e51b81526004016102ab906111e0565b6001600160a01b03811660009081526020819052604081206005018054916107e68361118b565b919050555050565b6060600280548060200260200160405190810160405280929190818152602001828054801561084657602002820191906000526020600020905b81546001600160a01b03168152600190910190602001808311610828575b5050505050905090565b600060208190529081526040902080546001820180546001600160a01b03909216929161087c90611042565b80601f01602080910402602001604051908101604052809291908181526020018280546108a890611042565b80156108f55780601f106108ca576101008083540402835291602001916108f5565b820191906000526020600020905b8154815290600101906020018083116108d857829003601f168201915b50505050509080600201805461090a90611042565b80601f016020809104026020016040519081016040528092919081815260200182805461093690611042565b80156109835780601f1061095857610100808354040283529160200191610983565b820191906000526020600020905b81548152906001019060200180831161096657829003601f168201915b5050505060038301546004840154600590940154929360ff9091169290915086565b6060600060045467ffffffffffffffff8111156109c4576109c4610d28565b6040519080825280602002602001820160405280156109fd57816020015b6109ea610ce7565b8152602001906001900390816109e25790505b5090506000805b600254811015610c325760008060028381548110610a2457610a24611210565b60009182526020808320909101546001600160a01b0316835282019290925260400190206003015460ff1615610c205760008060028381548110610a6a57610a6a611210565b60009182526020808320909101546001600160a01b039081168452838201949094526040928301909120825160c081019093528054909316825260018301805492939291840191610aba90611042565b80601f0160208091040260200160405190810160405280929190818152602001828054610ae690611042565b8015610b335780601f10610b0857610100808354040283529160200191610b33565b820191906000526020600020905b815481529060010190602001808311610b1657829003601f168201915b50505050508152602001600282018054610b4c90611042565b80601f0160208091040260200160405190810160405280929190818152602001828054610b7890611042565b8015610bc55780601f10610b9a57610100808354040283529160200191610bc5565b820191906000526020600020905b815481529060010190602001808311610ba857829003601f168201915b5050509183525050600382015460ff1615156020820152600482015460408201526005909101546060909101528351849084908110610c0657610c06611210565b60200260200101819052508180610c1c9061118b565b9250505b80610c2a8161118b565b915050610a04565b5060008167ffffffffffffffff811115610c4e57610c4e610d28565b604051908082528060200260200182016040528015610c8757816020015b610c74610ce7565b815260200190600190039081610c6c5790505b50905060005b82811015610cdf57838181518110610ca757610ca7611210565b6020026020010151828281518110610cc157610cc1611210565b60200260200101819052508080610cd79061118b565b915050610c8d565b509392505050565b6040518060c0016040528060006001600160a01b03168152602001606081526020016060815260200160001515815260200160008152602001600081525090565b634e487b7160e01b600052604160045260246000fd5b600082601f830112610d4f57600080fd5b813567ffffffffffffffff80821115610d6a57610d6a610d28565b604051601f8301601f19908116603f01168101908282118183101715610d9257610d92610d28565b81604052838152866020858801011115610dab57600080fd5b836020870160208301376000602085830101528094505050505092915050565b60008060408385031215610dde57600080fd5b823567ffffffffffffffff80821115610df657600080fd5b610e0286838701610d3e565b93506020850135915080821115610e1857600080fd5b50610e2585828601610d3e565b9150509250929050565b600060208284031215610e4157600080fd5b81356001600160a01b0381168114610e5857600080fd5b9392505050565b600060208284031215610e7157600080fd5b5035919050565b6000815180845260005b81811015610e9e57602081850181015186830182015201610e82565b506000602082860101526020601f19601f83011685010191505092915050565b60018060a01b0381511682526000602082015160c06020850152610ee560c0850182610e78565b905060408301518482036040860152610efe8282610e78565b9150506060830151151560608501526080830151608085015260a083015160a08501528091505092915050565b602081526000610e586020830184610ebe565b6020808252825182820181905260009190848201906040850190845b81811015610f7f5783516001600160a01b031683529284019291840191600101610f5a565b50909695505050505050565b6001600160a01b038716815260c060208201819052600090610faf90830188610e78565b8281036040840152610fc18188610e78565b95151560608401525050608081019290925260a0909101529392505050565b6000602080830181845280855180835260408601915060408160051b870101925083870160005b8281101561103557603f19888603018452611023858351610ebe565b94509285019290850190600101611007565b5092979650505050505050565b600181811c9082168061105657607f821691505b60208210810361107657634e487b7160e01b600052602260045260246000fd5b50919050565b601f8211156110c657600081815260208120601f850160051c810160208610156110a35750805b601f850160051c820191505b818110156110c2578281556001016110af565b5050505b505050565b815167ffffffffffffffff8111156110e5576110e5610d28565b6110f9816110f38454611042565b8461107c565b602080601f83116001811461112e57600084156111165750858301515b600019600386901b1c1916600185901b1785556110c2565b600085815260208120601f198616915b8281101561115d5788860151825594840194600190910190840161113e565b508582101561117b5787850151600019600388901b60f8161c191681555b5050505050600190811b01905550565b6000600182016111ab57634e487b7160e01b600052601160045260246000fd5b5060010190565b6040815260006111c56040830185610e78565b82810360208401526111d78185610e78565b95945050505050565b602080825260169082015275155cd95c881a5cc81b9bdd081c9959da5cdd195c995960521b604082015260600190565b634e487b7160e01b600052603260045260246000fdfea2646970667358221220ae6fdcf349395484fb6497aa81e2113c7109e50bbe03b38cc18c5e6e8f850d5364736f6c63430008130033",
  "linkReferences": {},
  "deployedLinkReferences": {}
}