{
  "_format": "hh-sol-artifact-1",
  "contractName": "SignatureVerifier",
  "sourceName": "contracts/SignatureVerifier.sol",
  "abi": [
    {
      "anonymous": false,
      "inputs": [
        {
          "indexed": true,
          "internalType": "address",
          "name": "signer",
          "type": "address"
        },
        {
          "indexed": false,
          "internalType": "uint256",
          "name": "newLevel",
          "type": "uint256"
        }
      ],
      "name": "PermissionUpdated",
      "type": "event"
    },
    {
      "anonymous": false,
      "inputs": [
        {
          "indexed": true,
          "internalType": "bytes32",
          "name": "messageHash",
          "type": "bytes32"
        },
        {
          "indexed": true,
          "internalType": "address",
          "name": "signer",
          "type": "address"
        }
      ],
      "name": "SignatureVerified",
      "type": "event"
    },
    {
      "anonymous": false,
      "inputs": [
        {
          "indexed": true,
          "internalType": "address",
          "name": "signer",
          "type": "address"
        },
        {
          "indexed": false,
          "internalType": "uint256",
          "name": "permissionLevel",
          "type": "uint256"
        }
      ],
      "name": "SignerAdded",
      "type": "event"
    },
    {
      "anonymous": false,
      "inputs": [
        {
          "indexed": true,
          "internalType": "address",
          "name": "signer",
          "type": "address"
        }
      ],
      "name": "SignerRemoved",
      "type": "event"
    },
    {
      "inputs": [],
      "name": "DOMAIN_SEPARATOR",
      "outputs": [
        {
          "internalType": "bytes32",
          "name": "",
          "type": "bytes32"
        }
      ],
      "stateMutability": "view",
      "type": "function"
    },
    {
      "inputs": [],
      "name": "PERMISSION_ADMIN",
      "outputs": [
        {
          "internalType": "uint256",
          "name": "",
          "type": "uint256"
        }
      ],
      "stateMutability": "view",
      "type": "function"
    },
    {
      "inputs": [],
      "name": "PERMISSION_NONE",
      "outputs": [
        {
          "internalType": "uint256",
          "name": "",
          "type": "uint256"
        }
      ],
      "stateMutability": "view",
      "type": "function"
    },
    {
      "inputs": [],
      "name": "PERMISSION_SIGN",
      "outputs": [
        {
          "internalType": "uint256",
          "name": "",
          "type": "uint256"
        }
      ],
      "stateMutability": "view",
      "type": "function"
    },
    {
      "inputs": [],
      "name": "PERMISSION_VERIFY",
      "outputs": [
        {
          "internalType": "uint256",
          "name": "",
          "type": "uint256"
        }
      ],
      "stateMutability": "view",
      "type": "function"
    },
    {
      "inputs": [
        {
          "internalType": "address",
          "name": "_signer",
          "type": "address"
        },
        {
          "internalType": "uint256",
          "name": "_permissionLevel",
          "type": "uint256"
        }
      ],
      "name": "addSigner",
      "outputs": [],
      "stateMutability": "nonpayable",
      "type": "function"
    },
    {
      "inputs": [
        {
          "internalType": "bytes32[]",
          "name": "_messageHashes",
          "type": "bytes32[]"
        },
        {
          "internalType": "bytes[]",
          "name": "_signatures",
          "type": "bytes[]"
        },
        {
          "internalType": "address[]",
          "name": "_signers",
          "type": "address[]"
        }
      ],
      "name": "batchVerify",
      "outputs": [
        {
          "internalType": "bool[]",
          "name": "",
          "type": "bool[]"
        }
      ],
      "stateMutability": "view",
      "type": "function"
    },
    {
      "inputs": [
        {
          "internalType": "address",
          "name": "_signer",
          "type": "address"
        }
      ],
      "name": "getSignerPermission",
      "outputs": [
        {
          "internalType": "uint256",
          "name": "",
          "type": "uint256"
        }
      ],
      "stateMutability": "view",
      "type": "function"
    },
    {
      "inputs": [
        {
          "internalType": "bytes32",
          "name": "_structHash",
          "type": "bytes32"
        }
      ],
      "name": "hashTypedData",
      "outputs": [
        {
          "internalType": "bytes32",
          "name": "",
          "type": "bytes32"
        }
      ],
      "stateMutability": "view",
      "type": "function"
    },
    {
      "inputs": [
        {
          "internalType": "bytes32",
          "name": "_messageHash",
          "type": "bytes32"
        },
        {
          "internalType": "bytes",
          "name": "_signature",
          "type": "bytes"
        }
      ],
      "name": "isSignatureUsed",
      "outputs": [
        {
          "internalType": "bool",
          "name": "",
          "type": "bool"
        }
      ],
      "stateMutability": "view",
      "type": "function"
    },
    {
      "inputs": [
        {
          "internalType": "address",
          "name": "_signer",
          "type": "address"
        }
      ],
      "name": "isVerified",
      "outputs": [
        {
          "internalType": "bool",
          "name": "",
          "type": "bool"
        }
      ],
      "stateMutability": "view",
      "type": "function"
    },
    {
      "inputs": [
        {
          "internalType": "bytes32",
          "name": "_messageHash",
          "type": "bytes32"
        },
        {
          "internalType": "bytes",
          "name": "_signature",
          "type": "bytes"
        }
      ],
      "name": "markSignatureUsed",
      "outputs": [],
      "stateMutability": "nonpayable",
      "type": "function"
    },
    {
      "inputs": [
        {
          "internalType": "address",
          "name": "_signer",
          "type": "address"
        }
      ],
      "name": "removeSigner",
      "outputs": [],
      "stateMutability": "nonpayable",
      "type": "function"
    },
    {
      "inputs": [
        {
          "internalType": "address",
          "name": "",
          "type": "address"
        }
      ],
      "name": "signerPermissions",
      "outputs": [
        {
          "internalType": "uint256",
          "name": "",
          "type": "uint256"
        }
      ],
      "stateMutability": "view",
      "type": "function"
    },
    {
      "inputs": [
        {
          "internalType": "address",
          "name": "_signer",
          "type": "address"
        },
        {
          "internalType": "uint256",
          "name": "_newLevel",
          "type": "uint256"
        }
      ],
      "name": "updatePermission",
      "outputs": [],
      "stateMutability": "nonpayable",
      "type": "function"
    },
    {
      "inputs": [
        {
          "internalType": "bytes32",
          "name": "",
          "type": "bytes32"
        }
      ],
      "name": "usedSignatures",
      "outputs": [
        {
          "internalType": "bool",
          "name": "",
          "type": "bool"
        }
      ],
      "stateMutability": "view",
      "type": "function"
    },
    {
      "inputs": [
        {
          "internalType": "address",
          "name": "",
          "type": "address"
        }
      ],
      "name": "verifiedSigners",
      "outputs": [
        {
          "internalType": "bool",
          "name": "",
          "type": "bool"
        }
      ],
      "stateMutability": "view",
      "type": "function"
    },
    {
      "inputs": [
        {
          "internalType": "bytes32",
          "name": "_messageHash",
          "type": "bytes32"
        },
        {
          "internalType": "bytes",
          "name": "_signature",
          "type": "bytes"
        },
        {
          "internalType": "address",
          "name": "_signer",
          "type": "address"
        }
      ],
      "name": "verifySignature",
      "outputs": [
        {
          "internalType": "bool",
          "name": "",
          "type": "bool"
        }
      ],
      "stateMutability": "view",
      "type": "function"
    },
    {
      "inputs": [
        {
          "internalType": "bytes32",
          "name": "_messageHash",
          "type": "bytes32"
        },
        {
          "internalType": "bytes",
          "name": "_signature",
          "type": "bytes"
        }
      ],
      "name": "verifySignatureDirect",
      "outputs": [
        {
          "internalType": "address",
          "name": "",
          "type": "address"
        }
      ],
      "stateMutability": "pure",
      "type": "function"
    }
  ],
  "bytecode": "0x608060405234801561001057600080fd5b506111de806100206000396000f3fe608060405234801561001057600080fd5b50600436106101215760003560e01c80634f3ce46f116100ad578063ae10695511610071578063ae10695514610281578063b9209e3314610294578063cffc180a146102c0578063dd86f329146102d3578063f978fd61146102db57600080fd5b80634f3ce46f1461020a5780636575f6aa1461021257806365af1bed14610225578063a5dfb0e614610238578063a88026251461026157600080fd5b806331cd4199116100f457806331cd41991461017e578063324762b9146101a15780633644e515146101c4578063430662fb146101cc5780634abeea85146101df57600080fd5b80630e316ab71461012657806317ef5d861461013b57806325555d861461015657806327ff4a191461015e575b600080fd5b610139610134366004610d3e565b6102fe565b005b610143600081565b6040519081526020015b60405180910390f35b610143600381565b61014361016c366004610d3e565b60016020526000908152604090205481565b61019161018c366004610da9565b6103dd565b604051901515815260200161014d565b6101916101af366004610d3e565b60006020819052908152604090205460ff1681565b6101436103f4565b6101916101da366004610e07565b610499565b6101f26101ed366004610e07565b6104e2565b6040516001600160a01b03909116815260200161014d565b610143600281565b610143610220366004610e53565b6105af565b610139610233366004610e6c565b6105f6565b610143610246366004610d3e565b6001600160a01b031660009081526001602052604090205490565b61027461026f366004610edb565b6107a9565b60405161014d9190610f75565b61013961028f366004610e07565b6108e7565b6101916102a2366004610d3e565b6001600160a01b031660009081526020819052604090205460ff1690565b6101396102ce366004610e6c565b610933565b610143600181565b6101916102e9366004610e53565b60026020526000908152604090205460ff1681565b3360009081526020819052604090205460ff16801561032c5750336000908152600160205260409020546003145b6103515760405162461bcd60e51b815260040161034890610fbb565b60405180910390fd5b6001600160a01b03811660009081526020819052604090205460ff166103895760405162461bcd60e51b815260040161034890611018565b6001600160a01b038116600081815260208181526040808320805460ff191690556001909152808220829055517f3525e22824a8a7df2c9a6029941c824cf95b6447f1e13d5128fd3826d35afe8b9190a250565b60006103eb85858585610a23565b95945050505050565b604080517f8b73c3c69bb8fe3d512ecc4cf759cc79239f7b179b0ffacaa9a75d522b39400f60208201527f589c7c655260117718dc4b2a9a38378591fe6622f6c21b35ee00ce402df12a87918101919091527fc89efdaa54c0f20c7adf612882df0950f5a951637e0307cdcb4c672f298b8bc660608201524660808201523060a082015260009060c00160405160208183030381529060405280519060200120905090565b6000808484846040516020016104b193929190611060565b60408051808303601f1901815291815281516020928301206000908152600290925290205460ff1695945050505050565b6000806000806104f28686610ca2565b6040517f19457468657265756d205369676e6564204d6573736167653a0a3332000000006020820152603c81018b90529295509093509150600090605c0160408051601f1981840301815282825280516020918201206000845290830180835281905260ff8516918301919091526060820186905260808201859052915060019060a0016020604051602081039080840390855afa158015610598573d6000803e3d6000fd5b5050604051601f1901519998505050505050505050565b60006105b96103f4565b60405161190160f01b6020820152602281019190915260428101839052606201604051602081830303815290604052805190602001209050919050565b3360009081526020819052604090205460ff1680156106245750336000908152600160205260409020546003145b6106405760405162461bcd60e51b815260040161034890610fbb565b6001600160a01b0382166106a95760405162461bcd60e51b815260206004820152602a60248201527f5369676e617475726556657269666965723a2063616e6e6f7420616464207a65604482015269726f206164647265737360b01b6064820152608401610348565b6001600160a01b03821660009081526020819052604090205460ff16156107235760405162461bcd60e51b815260206004820152602860248201527f5369676e617475726556657269666965723a207369676e657220616c72656164604482015267792065786973747360c01b6064820152608401610348565b60038111156107445760405162461bcd60e51b81526004016103489061107a565b6001600160a01b038216600081815260208181526040808320805460ff1916600190811790915582529182902084905590518381527f50999ebf9b59bf3157a58816611976f2d723378ad51457d7b0413209e0cdee5991015b60405180910390a25050565b60608584146107ca5760405162461bcd60e51b8152600401610348906110c5565b8382146107e95760405162461bcd60e51b8152600401610348906110c5565b60008667ffffffffffffffff8111156108045761080461110e565b60405190808252806020026020018201604052801561082d578160200160208202803683370190505b50905060005b878110156108db576108a789898381811061085057610850611124565b9050602002013588888481811061086957610869611124565b905060200281019061087b919061113a565b88888681811061088d5761088d611124565b90506020020160208101906108a29190610d3e565b610a23565b8282815181106108b9576108b9611124565b91151560209283029190910190910152806108d381611181565b915050610833565b50979650505050505050565b60008383836040516020016108fe93929190611060565b60408051601f198184030181529181528151602092830120600090815260029092529020805460ff1916600117905550505050565b3360009081526020819052604090205460ff1680156109615750336000908152600160205260409020546003145b61097d5760405162461bcd60e51b815260040161034890610fbb565b6001600160a01b03821660009081526020819052604090205460ff166109b55760405162461bcd60e51b815260040161034890611018565b60038111156109d65760405162461bcd60e51b81526004016103489061107a565b6001600160a01b03821660008181526001602052604090819020839055517fd49bc1531187aed13c28272a98a97b8c51421c952682f05712907888c0dd936b9061079d9084815260200190565b6001600160a01b03811660009081526020819052604081205460ff16610a9d5760405162461bcd60e51b815260206004820152602960248201527f5369676e617475726556657269666965723a207369676e6572206973206e6f74604482015268081d995c9a599a595960ba1b6064820152608401610348565b6001600160a01b0382166000908152600160208190526040909120541015610b155760405162461bcd60e51b815260206004820152602560248201527f5369676e617475726556657269666965723a207369676e65722063616e6e6f746044820152641039b4b3b760d91b6064820152608401610348565b60026000868686604051602001610b2e93929190611060565b60408051601f198184030181529181528151602092830120835290820192909252016000205460ff1615610bb65760405162461bcd60e51b815260206004820152602960248201527f5369676e617475726556657269666965723a207369676e617475726520616c726044820152681958591e481d5cd95960ba1b6064820152608401610348565b6040517f19457468657265756d205369676e6564204d6573736167653a0a3332000000006020820152603c8101869052600090605c016040516020818303038152906040528051906020012090506000806000610c138888610ca2565b925092509250600060018583868660405160008152602001604052604051610c57949392919093845260ff9290921660208401526040830152606082015260800190565b6020604051602081039080840390855afa158015610c79573d6000803e3d6000fd5b5050604051601f1901516001600160a01b03908116908916149650505050505050949350505050565b6000808060418414610d0a5760405162461bcd60e51b815260206004820152602b60248201527f5369676e617475726556657269666965723a20696e76616c6964207369676e6160448201526a0e8eae4ca40d8cadccee8d60ab1b6064820152608401610348565b50508235936020840135936040013560001a92509050565b80356001600160a01b0381168114610d3957600080fd5b919050565b600060208284031215610d5057600080fd5b610d5982610d22565b9392505050565b60008083601f840112610d7257600080fd5b50813567ffffffffffffffff811115610d8a57600080fd5b602083019150836020828501011115610da257600080fd5b9250929050565b60008060008060608587031215610dbf57600080fd5b84359350602085013567ffffffffffffffff811115610ddd57600080fd5b610de987828801610d60565b9094509250610dfc905060408601610d22565b905092959194509250565b600080600060408486031215610e1c57600080fd5b83359250602084013567ffffffffffffffff811115610e3a57600080fd5b610e4686828701610d60565b9497909650939450505050565b600060208284031215610e6557600080fd5b5035919050565b60008060408385031215610e7f57600080fd5b610e8883610d22565b946020939093013593505050565b60008083601f840112610ea857600080fd5b50813567ffffffffffffffff811115610ec057600080fd5b6020830191508360208260051b8501011115610da257600080fd5b60008060008060008060608789031215610ef457600080fd5b863567ffffffffffffffff80821115610f0c57600080fd5b610f188a838b01610e96565b90985096506020890135915080821115610f3157600080fd5b610f3d8a838b01610e96565b90965094506040890135915080821115610f5657600080fd5b50610f6389828a01610e96565b979a9699509497509295939492505050565b6020808252825182820181905260009190848201906040850190845b81811015610faf578351151583529284019291840191600101610f91565b50909695505050505050565b60208082526038908201527f5369676e617475726556657269666965723a2063616c6c657220646f6573206e60408201527f6f7420686176652061646d696e207065726d697373696f6e0000000000000000606082015260800190565b60208082526028908201527f5369676e617475726556657269666965723a207369676e657220646f6573206e6040820152671bdd08195e1a5cdd60c21b606082015260800190565b838152818360208301376000910160200190815292915050565b6020808252602b908201527f5369676e617475726556657269666965723a20696e76616c6964207065726d6960408201526a1cdcda5bdb881b195d995b60aa1b606082015260800190565b60208082526029908201527f5369676e617475726556657269666965723a20617272617973206c656e677468604082015268040dad2e6dac2e8c6d60bb1b606082015260800190565b634e487b7160e01b600052604160045260246000fd5b634e487b7160e01b600052603260045260246000fd5b6000808335601e1984360301811261115157600080fd5b83018035915067ffffffffffffffff82111561116c57600080fd5b602001915036819003821315610da257600080fd5b6000600182016111a157634e487b7160e01b600052601160045260246000fd5b506001019056fea26469706673582212201277363fcd6dfc6ea872e9a80e5e6c167e42ca9f52ff7b531af16a7a5cbd446a64736f6c63430008130033",
  "linkReferences": {},
  "deployedLinkReferences": {}
}