{
  "_format": "hh-sol-artifact-1",
  "contractName": "OracleAggregator",
  "sourceName": "contracts/OracleAggregator.sol",
  "abi": [
    {
      "inputs": [],
      "stateMutability": "nonpayable",
      "type": "constructor"
    },
    {
      "anonymous": false,
      "inputs": [
        {
          "indexed": true,
          "internalType": "bytes32",
          "name": "requestId",
          "type": "bytes32"
        },
        {
          "indexed": false,
          "internalType": "uint256",
          "name": "aggregatedValue",
          "type": "uint256"
        }
      ],
      "name": "DataFulfilled",
      "type": "event"
    },
    {
      "anonymous": false,
      "inputs": [
        {
          "indexed": true,
          "internalType": "bytes32",
          "name": "requestId",
          "type": "bytes32"
        },
        {
          "indexed": true,
          "internalType": "address",
          "name": "requester",
          "type": "address"
        },
        {
          "indexed": false,
          "internalType": "string",
          "name": "dataType",
          "type": "string"
        }
      ],
      "name": "DataRequested",
      "type": "event"
    },
    {
      "anonymous": false,
      "inputs": [
        {
          "indexed": true,
          "internalType": "address",
          "name": "oracle",
          "type": "address"
        },
        {
          "indexed": false,
          "internalType": "string",
          "name": "dataSource",
          "type": "string"
        }
      ],
      "name": "OracleRegistered",
      "type": "event"
    },
    {
      "anonymous": false,
      "inputs": [
        {
          "indexed": true,
          "internalType": "address",
          "name": "oracle",
          "type": "address"
        }
      ],
      "name": "OracleRemoved",
      "type": "event"
    },
    {
      "anonymous": false,
      "inputs": [
        {
          "indexed": true,
          "internalType": "bytes32",
          "name": "requestId",
          "type": "bytes32"
        },
        {
          "indexed": true,
          "internalType": "address",
          "name": "oracle",
          "type": "address"
        },
        {
          "indexed": false,
          "internalType": "uint256",
          "name": "value",
          "type": "uint256"
        }
      ],
      "name": "OracleResponseRecorded",
      "type": "event"
    },
    {
      "anonymous": false,
      "inputs": [
        {
          "indexed": true,
          "internalType": "address",
          "name": "oracle",
          "type": "address"
        },
        {
          "indexed": false,
          "internalType": "string",
          "name": "newDataSource",
          "type": "string"
        }
      ],
      "name": "OracleUpdated",
      "type": "event"
    },
    {
      "inputs": [],
      "name": "MAX_ORACLES",
      "outputs": [
        {
          "internalType": "uint256",
          "name": "",
          "type": "uint256"
        }
      ],
      "stateMutability": "view",
      "type": "function"
    },
    {
      "inputs": [
        {
          "internalType": "bytes32",
          "name": "",
          "type": "bytes32"
        }
      ],
      "name": "dataRequests",
      "outputs": [
        {
          "internalType": "bytes32",
          "name": "requestId",
          "type": "bytes32"
        },
        {
          "internalType": "address",
          "name": "requester",
          "type": "address"
        },
        {
          "internalType": "string",
          "name": "dataType",
          "type": "string"
        },
        {
          "internalType": "uint256",
          "name": "timestamp",
          "type": "uint256"
        },
        {
          "internalType": "bool",
          "name": "isFulfilled",
          "type": "bool"
        },
        {
          "internalType": "uint256",
          "name": "aggregatedValue",
          "type": "uint256"
        }
      ],
      "stateMutability": "view",
      "type": "function"
    },
    {
      "inputs": [
        {
          "internalType": "string",
          "name": "",
          "type": "string"
        },
        {
          "internalType": "uint256",
          "name": "",
          "type": "uint256"
        }
      ],
      "name": "dataTypeOracles",
      "outputs": [
        {
          "internalType": "address",
          "name": "",
          "type": "address"
        }
      ],
      "stateMutability": "view",
      "type": "function"
    },
    {
      "inputs": [
        {
          "internalType": "bytes32",
          "name": "_requestId",
          "type": "bytes32"
        }
      ],
      "name": "getAggregatedValue",
      "outputs": [
        {
          "internalType": "uint256",
          "name": "",
          "type": "uint256"
        }
      ],
      "stateMutability": "view",
      "type": "function"
    },
    {
      "inputs": [
        {
          "internalType": "bytes32",
          "name": "_requestId",
          "type": "bytes32"
        }
      ],
      "name": "getAverageValue",
      "outputs": [
        {
          "internalType": "uint256",
          "name": "",
          "type": "uint256"
        }
      ],
      "stateMutability": "view",
      "type": "function"
    },
    {
      "inputs": [
        {
          "internalType": "bytes32",
          "name": "_requestId",
          "type": "bytes32"
        }
      ],
      "name": "getMaxValue",
      "outputs": [
        {
          "internalType": "uint256",
          "name": "",
          "type": "uint256"
        }
      ],
      "stateMutability": "view",
      "type": "function"
    },
    {
      "inputs": [
        {
          "internalType": "bytes32",
          "name": "_requestId",
          "type": "bytes32"
        }
      ],
      "name": "getMinValue",
      "outputs": [
        {
          "internalType": "uint256",
          "name": "",
          "type": "uint256"
        }
      ],
      "stateMutability": "view",
      "type": "function"
    },
    {
      "inputs": [
        {
          "internalType": "address",
          "name": "_oracle",
          "type": "address"
        }
      ],
      "name": "getOracle",
      "outputs": [
        {
          "components": [
            {
              "internalType": "address",
              "name": "oracleAddress",
              "type": "address"
            },
            {
              "internalType": "string",
              "name": "dataSource",
              "type": "string"
            },
            {
              "internalType": "uint256",
              "name": "timestamp",
              "type": "uint256"
            },
            {
              "internalType": "uint256",
              "name": "value",
              "type": "uint256"
            },
            {
              "internalType": "bool",
              "name": "isActive",
              "type": "bool"
            },
            {
              "internalType": "uint256",
              "name": "reliabilityScore",
              "type": "uint256"
            }
          ],
          "internalType": "struct OracleAggregator.OracleData",
          "name": "",
          "type": "tuple"
        }
      ],
      "stateMutability": "view",
      "type": "function"
    },
    {
      "inputs": [],
      "name": "getOracleCount",
      "outputs": [
        {
          "internalType": "uint256",
          "name": "",
          "type": "uint256"
        }
      ],
      "stateMutability": "view",
      "type": "function"
    },
    {
      "inputs": [
        {
          "internalType": "bytes32",
          "name": "_requestId",
          "type": "bytes32"
        },
        {
          "internalType": "address",
          "name": "_oracle",
          "type": "address"
        }
      ],
      "name": "getOracleResponse",
      "outputs": [
        {
          "internalType": "uint256",
          "name": "",
          "type": "uint256"
        }
      ],
      "stateMutability": "view",
      "type": "function"
    },
    {
      "inputs": [
        {
          "internalType": "bytes32",
          "name": "_requestId",
          "type": "bytes32"
        }
      ],
      "name": "getRequest",
      "outputs": [
        {
          "components": [
            {
              "internalType": "bytes32",
              "name": "requestId",
              "type": "bytes32"
            },
            {
              "internalType": "address",
              "name": "requester",
              "type": "address"
            },
            {
              "internalType": "string",
              "name": "dataType",
              "type": "string"
            },
            {
              "internalType": "uint256",
              "name": "timestamp",
              "type": "uint256"
            },
            {
              "internalType": "bool",
              "name": "isFulfilled",
              "type": "bool"
            },
            {
              "internalType": "uint256",
              "name": "aggregatedValue",
              "type": "uint256"
            },
            {
              "internalType": "uint256[]",
              "name": "individualValues",
              "type": "uint256[]"
            },
            {
              "internalType": "address[]",
              "name": "participatingOracles",
              "type": "address[]"
            }
          ],
          "internalType": "struct OracleAggregator.DataRequest",
          "name": "",
          "type": "tuple"
        }
      ],
      "stateMutability": "view",
      "type": "function"
    },
    {
      "inputs": [],
      "name": "getRequestCount",
      "outputs": [
        {
          "internalType": "uint256",
          "name": "",
          "type": "uint256"
        }
      ],
      "stateMutability": "view",
      "type": "function"
    },
    {
      "inputs": [
        {
          "internalType": "bytes32",
          "name": "_requestId",
          "type": "bytes32"
        }
      ],
      "name": "getResponseCount",
      "outputs": [
        {
          "internalType": "uint256",
          "name": "",
          "type": "uint256"
        }
      ],
      "stateMutability": "view",
      "type": "function"
    },
    {
      "inputs": [
        {
          "internalType": "bytes32",
          "name": "_requestId",
          "type": "bytes32"
        }
      ],
      "name": "isRequestFulfilled",
      "outputs": [
        {
          "internalType": "bool",
          "name": "",
          "type": "bool"
        }
      ],
      "stateMutability": "view",
      "type": "function"
    },
    {
      "inputs": [
        {
          "internalType": "bytes32",
          "name": "_requestId",
          "type": "bytes32"
        },
        {
          "internalType": "uint256",
          "name": "_value",
          "type": "uint256"
        }
      ],
      "name": "manualFulfill",
      "outputs": [],
      "stateMutability": "nonpayable",
      "type": "function"
    },
    {
      "inputs": [],
      "name": "minOracleResponses",
      "outputs": [
        {
          "internalType": "uint256",
          "name": "",
          "type": "uint256"
        }
      ],
      "stateMutability": "view",
      "type": "function"
    },
    {
      "inputs": [],
      "name": "oracleCount",
      "outputs": [
        {
          "internalType": "uint256",
          "name": "",
          "type": "uint256"
        }
      ],
      "stateMutability": "view",
      "type": "function"
    },
    {
      "inputs": [
        {
          "internalType": "address",
          "name": "",
          "type": "address"
        },
        {
          "internalType": "uint256",
          "name": "",
          "type": "uint256"
        }
      ],
      "name": "oracleRequests",
      "outputs": [
        {
          "internalType": "bytes32",
          "name": "",
          "type": "bytes32"
        }
      ],
      "stateMutability": "view",
      "type": "function"
    },
    {
      "inputs": [
        {
          "internalType": "bytes32",
          "name": "",
          "type": "bytes32"
        },
        {
          "internalType": "address",
          "name": "",
          "type": "address"
        }
      ],
      "name": "oracleResponses",
      "outputs": [
        {
          "internalType": "uint256",
          "name": "",
          "type": "uint256"
        }
      ],
      "stateMutability": "view",
      "type": "function"
    },
    {
      "inputs": [
        {
          "internalType": "address",
          "name": "",
          "type": "address"
        }
      ],
      "name": "oracles",
      "outputs": [
        {
          "internalType": "address",
          "name": "oracleAddress",
          "type": "address"
        },
        {
          "internalType": "string",
          "name": "dataSource",
          "type": "string"
        },
        {
          "internalType": "uint256",
          "name": "timestamp",
          "type": "uint256"
        },
        {
          "internalType": "uint256",
          "name": "value",
          "type": "uint256"
        },
        {
          "internalType": "bool",
          "name": "isActive",
          "type": "bool"
        },
        {
          "internalType": "uint256",
          "name": "reliabilityScore",
          "type": "uint256"
        }
      ],
      "stateMutability": "view",
      "type": "function"
    },
    {
      "inputs": [],
      "name": "owner",
      "outputs": [
        {
          "internalType": "address",
          "name": "",
          "type": "address"
        }
      ],
      "stateMutability": "view",
      "type": "function"
    },
    {
      "inputs": [
        {
          "internalType": "address",
          "name": "_oracle",
          "type": "address"
        },
        {
          "internalType": "string",
          "name": "_dataSource",
          "type": "string"
        }
      ],
      "name": "registerOracle",
      "outputs": [],
      "stateMutability": "nonpayable",
      "type": "function"
    },
    {
      "inputs": [
        {
          "internalType": "address",
          "name": "_oracle",
          "type": "address"
        }
      ],
      "name": "removeOracle",
      "outputs": [],
      "stateMutability": "nonpayable",
      "type": "function"
    },
    {
      "inputs": [],
      "name": "requestCount",
      "outputs": [
        {
          "internalType": "uint256",
          "name": "",
          "type": "uint256"
        }
      ],
      "stateMutability": "view",
      "type": "function"
    },
    {
      "inputs": [
        {
          "internalType": "string",
          "name": "_dataType",
          "type": "string"
        }
      ],
      "name": "requestData",
      "outputs": [
        {
          "internalType": "bytes32",
          "name": "",
          "type": "bytes32"
        }
      ],
      "stateMutability": "nonpayable",
      "type": "function"
    },
    {
      "inputs": [
        {
          "internalType": "uint256",
          "name": "_minResponses",
          "type": "uint256"
        }
      ],
      "name": "setMinOracleResponses",
      "outputs": [],
      "stateMutability": "nonpayable",
      "type": "function"
    },
    {
      "inputs": [
        {
          "internalType": "bytes32",
          "name": "_requestId",
          "type": "bytes32"
        },
        {
          "internalType": "uint256",
          "name": "_value",
          "type": "uint256"
        }
      ],
      "name": "submitResponse",
      "outputs": [],
      "stateMutability": "nonpayable",
      "type": "function"
    },
    {
      "inputs": [
        {
          "internalType": "address",
          "name": "newOwner",
          "type": "address"
        }
      ],
      "name": "transferOwnership",
      "outputs": [],
      "stateMutability": "nonpayable",
      "type": "function"
    },
    {
      "inputs": [
        {
          "internalType": "address",
          "name": "_oracle",
          "type": "address"
        },
        {
          "internalType": "string",
          "name": "_newDataSource",
          "type": "string"
        }
      ],
      "name": "updateOracle",
      "outputs": [],
      "stateMutability": "nonpayable",
      "type": "function"
    }
  ],
  "bytecode": "0x6080604052600360065534801561001557600080fd5b50600580546001600160a01b031916331790556123c2806100376000396000f3fe608060405234801561001057600080fd5b50600436106101cf5760003560e01c806395e2041111610104578063b1a94346116100a2578063fae6066411610071578063fae606641461040d578063fb1e61ca14610430578063fdc85fc414610450578063ff5154391461046357600080fd5b8063b1a94346146103b4578063bfedbfa0146103c7578063dcc7a20f146103cf578063f2fde38b146103fa57600080fd5b8063a32e2830116100de578063a32e283014610356578063aae8370c14610369578063ad48bc7b1461037c578063addd50991461038f57600080fd5b806395e204111461031d57806395f69e3014610330578063a077548d1461034357600080fd5b80635da6d08c11610171578063741fc7121161014b578063741fc712146102b85780637e272f5d146102c15780638da5cb5b146102d457806392a442ea146102e757600080fd5b80635da6d08c14610287578063613d8fcc1461029c57806366485e7c146102a557600080fd5b806328e7d709116101ad57806328e7d709146102495780633f4e42511461026e5780633fad1834146102765780635badbe4c1461027e57600080fd5b806310d3d22e146101d45780632215ec2c146101fd57806322fca53c1461021e575b600080fd5b6101e76101e2366004611be7565b610476565b6040516101f49190611c52565b60405180910390f35b61021061020b366004611d59565b6105b1565b6040519081526020016101f4565b61023161022c366004611d8e565b61080d565b6040516001600160a01b0390911681526020016101f4565b61025c610257366004611dd3565b610854565b6040516101f496959493929190611dec565b600754610210565b600854610210565b61021060085481565b61029a610295366004611e34565b610922565b005b61021060075481565b61029a6102b3366004611e82565b610b98565b61021060065481565b6102106102cf366004611dd3565b610c4c565b600554610231906001600160a01b031681565b61030d6102f5366004611dd3565b60009081526001602052604090206004015460ff1690565b60405190151581526020016101f4565b61029a61032b366004611e82565b610cd5565b61021061033e366004611dd3565b610ea7565b610210610351366004611dd3565b610f9d565b61029a610364366004611dd3565b611014565b610210610377366004611ea4565b611104565b61029a61038a366004611e34565b611135565b6103a261039d366004611be7565b61120f565b6040516101f496959493929190611ece565b6102106103c2366004611f17565b6112dd565b610210606481565b6102106103dd366004611f17565b600360209081526000928352604080842090915290825290205481565b61029a610408366004611be7565b611307565b61021061041b366004611dd3565b60009081526001602052604090206006015490565b61044361043e366004611dd3565b6113a9565b6040516101f49190611fb7565b61029a61045e366004611be7565b61159c565b610210610471366004611dd3565b61166e565b6104ba6040518060c0016040528060006001600160a01b03168152602001606081526020016000815260200160008152602001600015158152602001600081525090565b6001600160a01b0380831660009081526020818152604091829020825160c0810190935280549093168252600183018054929392918401916104fb90612068565b80601f016020809104026020016040519081016040528092919081815260200182805461052790612068565b80156105745780601f1061054957610100808354040283529160200191610574565b820191906000526020600020905b81548152906001019060200180831161055757829003601f168201915b50505091835250506002820154602082015260038201546040820152600482015460ff161515606082015260059091015460809091015292915050565b600060065460075410156106185760405162461bcd60e51b8152602060048201526024808201527f4f7261636c6541676772656761746f723a206e6f7420656e6f756768206f7261604482015263636c657360e01b60648201526084015b60405180910390fd5b600033834260405160200161062f9392919061209c565b604051602081830303815290604052805190602001209050604051806101000160405280828152602001336001600160a01b0316815260200184815260200142815260200160001515815260200160008152602001600067ffffffffffffffff81111561069e5761069e611cb6565b6040519080825280602002602001820160405280156106c7578160200160208202803683370190505b50815260200160006040519080825280602002602001820160405280156106f8578160200160208202803683370190505b509052600082815260016020818152604092839020845181559084015191810180546001600160a01b0319166001600160a01b0390931692909217909155908201516002820190610749908261212a565b5060608201516003820155608082015160048201805460ff191691151591909117905560a0820151600582015560c08201518051610791916006840191602090910190611b16565b5060e082015180516107ad916007840191602090910190611b61565b505060088054915060006107c083612200565b9190505550336001600160a01b0316817f3ba1246b3797e3c5cf0119bb087081ef36036a926b6d16d8fe161f2f9a7b994d856040516107ff9190612219565b60405180910390a392915050565b8151602081840181018051600482529282019185019190912091905280548290811061083857600080fd5b6000918252602090912001546001600160a01b03169150829050565b60016020819052600091825260409091208054918101546002820180546001600160a01b03909216929161088790612068565b80601f01602080910402602001604051908101604052809291908181526020018280546108b390612068565b80156109005780601f106108d557610100808354040283529160200191610900565b820191906000526020600020905b8154815290600101906020018083116108e357829003601f168201915b50505050600383015460048401546005909401549293909260ff909116915086565b6005546001600160a01b0316331461094c5760405162461bcd60e51b815260040161060f9061222c565b6001600160a01b0382166109b35760405162461bcd60e51b815260206004820152602860248201527f4f7261636c6541676772656761746f723a20696e76616c6964206f7261636c65604482015267206164647265737360c01b606482015260840161060f565b6001600160a01b03821660009081526020819052604090206004015460ff1615610a335760405162461bcd60e51b815260206004820152602b60248201527f4f7261636c6541676772656761746f723a206f7261636c6520616c726561647960448201526a081c9959da5cdd195c995960aa1b606482015260840161060f565b606460075410610a935760405162461bcd60e51b815260206004820152602560248201527f4f7261636c6541676772656761746f723a206d6178206f7261636c65732072656044820152641858da195960da1b606482015260840161060f565b6040805160c0810182526001600160a01b0384811680835260208084018681524285870152600060608601819052600160808701819052606460a088015293815291829052949020835181546001600160a01b031916931692909217825592519192909190820190610b05908261212a565b506040820151600282015560608201516003820155608082015160048201805460ff191691151591909117905560a09091015160059091015560078054906000610b4e83612200565b9190505550816001600160a01b03167ff545a9af646b70163c1732c00973245b51468b9158282edf881a20b200f4ad1f82604051610b8c9190612219565b60405180910390a25050565b6005546001600160a01b03163314610bc25760405162461bcd60e51b815260040161060f9061222c565b6000828152600160205260409020600481015460ff1615610bf55760405162461bcd60e51b815260040161060f90612271565b6005810182905560048101805460ff1916600117905560405183907f91bbeb6693b54ed164984d080403adc3d9ef9e7712a54536723a61de8084ab9090610c3f9085815260200190565b60405180910390a2505050565b600081815260016020526040812060068101548203610c6e5750600092915050565b6000805b6006830154811015610cbd57826006018181548110610c9357610c936122b4565b906000526020600020015482610ca991906122ca565b915080610cb581612200565b915050610c72565b506006820154610ccd90826122f3565b949350505050565b3360009081526020819052604090206004015460ff16610d495760405162461bcd60e51b815260206004820152602960248201527f4f7261636c6541676772656761746f723a206e6f7420612072656769737465726044820152686564206f7261636c6560b81b606482015260840161060f565b6000828152600160205260408120600301549003610db55760405162461bcd60e51b815260206004820152602360248201527f4f7261636c6541676772656761746f723a2072657175657374206e6f7420666f6044820152621d5b9960ea1b606482015260840161060f565b60008281526001602052604090206004015460ff1615610de75760405162461bcd60e51b815260040161060f90612271565b600082815260036020908152604080832033808552908352818420859055858452600180845291842060078101805480850182558187528587200180546001600160a01b0319168417905560069091018054808501825581875294909520909301859055919291610e579161175c565b604051838152339085907f204610e4330c59dcae7e5668cad3d8bc1a3f291e8e2d982479af8bb090f4f4019060200160405180910390a3600654825410610ea157610ea18461183d565b50505050565b600081815260016020908152604080832060060180548251818502810185019093528083528493830182828015610efd57602002820191906000526020600020905b815481526020019060010190808311610ee9575b505050505090508051600003610f165750600092915050565b600081600081518110610f2b57610f2b6122b4565b602002602001015190506000600190505b8251811015610f955781838281518110610f5857610f586122b4565b60200260200101511115610f8357828181518110610f7857610f786122b4565b602002602001015191505b80610f8d81612200565b915050610f3c565b509392505050565b60008181526001602052604081206004015460ff16610ffe5760405162461bcd60e51b815260206004820152601f60248201527f4f7261636c6541676772656761746f723a206e6f742066756c66696c6c656400604482015260640161060f565b5060009081526001602052604090206005015490565b6005546001600160a01b0316331461103e5760405162461bcd60e51b815260040161060f9061222c565b6000811161109e5760405162461bcd60e51b815260206004820152602760248201527f4f7261636c6541676772656761746f723a20696e76616c6964206d696e20726560448201526673706f6e73657360c81b606482015260840161060f565b6007548111156110ff5760405162461bcd60e51b815260206004820152602660248201527f4f7261636c6541676772656761746f723a2065786365656473206f7261636c656044820152650818dbdd5b9d60d21b606482015260840161060f565b600655565b6002602052816000526040600020818154811061112057600080fd5b90600052602060002001600091509150505481565b6005546001600160a01b0316331461115f5760405162461bcd60e51b815260040161060f9061222c565b6001600160a01b03821660009081526020819052604090206004015460ff1661119a5760405162461bcd60e51b815260040161060f90612307565b6001600160a01b03821660009081526020819052604090206001016111bf828261212a565b506001600160a01b0382166000818152602081905260409081902042600290910155517f41fe9c52e56defb44d78c13d4dc1571a3f052dd9f2122739fb5db3f5756e632190610b8c908490612219565b600060208190529081526040902080546001820180546001600160a01b03909216929161123b90612068565b80601f016020809104026020016040519081016040528092919081815260200182805461126790612068565b80156112b45780601f10611289576101008083540402835291602001916112b4565b820191906000526020600020905b81548152906001019060200180831161129757829003601f168201915b5050506002840154600385015460048601546005909601549495919490935060ff909116915086565b60008281526003602090815260408083206001600160a01b03851684529091529020545b92915050565b6005546001600160a01b031633146113315760405162461bcd60e51b815260040161060f9061222c565b6001600160a01b0381166113875760405162461bcd60e51b815260206004820152601f60248201527f4f7261636c6541676772656761746f723a20696e76616c6964206f776e657200604482015260640161060f565b600580546001600160a01b0319166001600160a01b0392909216919091179055565b6040805161010080820183526000808352602080840182905260608486018190528085018390526080850183905260a0850183905260c0850181905260e08501528582526001808252918590208551938401865280548452918201546001600160a01b03169083015260028101805493949293919284019161142a90612068565b80601f016020809104026020016040519081016040528092919081815260200182805461145690612068565b80156114a35780601f10611478576101008083540402835291602001916114a3565b820191906000526020600020905b81548152906001019060200180831161148657829003601f168201915b50505050508152602001600382015481526020016004820160009054906101000a900460ff16151515158152602001600582015481526020016006820180548060200260200160405190810160405280929190818152602001828054801561152a57602002820191906000526020600020905b815481526020019060010190808311611516575b505050505081526020016007820180548060200260200160405190810160405280929190818152602001828054801561158c57602002820191906000526020600020905b81546001600160a01b0316815260019091019060200180831161156e575b5050505050815250509050919050565b6005546001600160a01b031633146115c65760405162461bcd60e51b815260040161060f9061222c565b6001600160a01b03811660009081526020819052604090206004015460ff166116015760405162461bcd60e51b815260040161060f90612307565b6001600160a01b0381166000908152602081905260408120600401805460ff1916905560078054916116328361234e565b90915550506040516001600160a01b038216907f9c8e7d83025bef8a04c664b2f753f64b8814bdb7e27291d7e50935f18cc3c71290600090a250565b6000818152600160209081526040808320600601805482518185028101850190935280835284938301828280156116c457602002820191906000526020600020905b8154815260200190600101908083116116b0575b5050505050905080516000036116dd5750600092915050565b6000816000815181106116f2576116f26122b4565b602002602001015190506000600190505b8251811015610f95578183828151811061171f5761171f6122b4565b6020026020010151101561174a5782818151811061173f5761173f6122b4565b602002602001015191505b8061175481612200565b915050611703565b80156117bd576001600160a01b038216600090815260208190526040902060050154606411156117b8576001600160a01b03821660009081526020819052604081206005018054600192906117b29084906122ca565b90915550505b61181c565b6001600160a01b0382166000908152602081905260409020600501541561181c576005600080846001600160a01b03166001600160a01b0316815260200190815260200160002060050160008282546118169190612365565b90915550505b506001600160a01b0316600090815260208190526040902042600290910155565b60008181526001602090815260408083206006810180548351818602810186019094528084529194909390926118ab9290918591908301828280156118a157602002820191906000526020600020905b81548152602001906001019080831161188d575b5050505050611906565b6005840181905560048401805460ff1916600117905560405190915084907f91bbeb6693b54ed164984d080403adc3d9ef9e7712a54536723a61de8084ab90906118f89084815260200190565b60405180910390a250505050565b6000815160000361191957506000919050565b81516001036119445781600081518110611935576119356122b4565b60200260200101519050919050565b600061194f83611a12565b90506002815161195f9190612378565b6000036119dd576002816002835161197791906122f3565b81518110611987576119876122b4565b6020026020010151826001600285516119a091906122f3565b6119aa9190612365565b815181106119ba576119ba6122b4565b60200260200101516119cc91906122ca565b6119d691906122f3565b9392505050565b80600282516119ec91906122f3565b815181106119fc576119fc6122b4565b6020026020010151915050919050565b50919050565b606060005b8251811015611b0f576000611a2d8260016122ca565b90505b8351811015611afc57838181518110611a4b57611a4b6122b4565b6020026020010151848381518110611a6557611a656122b4565b60200260200101511115611aea576000848381518110611a8757611a876122b4565b60200260200101519050848281518110611aa357611aa36122b4565b6020026020010151858481518110611abd57611abd6122b4565b60200260200101818152505080858381518110611adc57611adc6122b4565b602002602001018181525050505b80611af481612200565b915050611a30565b5080611b0781612200565b915050611a17565b5090919050565b828054828255906000526020600020908101928215611b51579160200282015b82811115611b51578251825591602001919060010190611b36565b50611b5d929150611bb6565b5090565b828054828255906000526020600020908101928215611b51579160200282015b82811115611b5157825182546001600160a01b0319166001600160a01b03909116178255602090920191600190910190611b81565b5b80821115611b5d5760008155600101611bb7565b80356001600160a01b0381168114611be257600080fd5b919050565b600060208284031215611bf957600080fd5b6119d682611bcb565b60005b83811015611c1d578181015183820152602001611c05565b50506000910152565b60008151808452611c3e816020860160208601611c02565b601f01601f19169290920160200192915050565b602080825282516001600160a01b03168282015282015160c06040830152600090611c8060e0840182611c26565b905060408401516060840152606084015160808401526080840151151560a084015260a084015160c08401528091505092915050565b634e487b7160e01b600052604160045260246000fd5b600082601f830112611cdd57600080fd5b813567ffffffffffffffff80821115611cf857611cf8611cb6565b604051601f8301601f19908116603f01168101908282118183101715611d2057611d20611cb6565b81604052838152866020858801011115611d3957600080fd5b836020870160208301376000602085830101528094505050505092915050565b600060208284031215611d6b57600080fd5b813567ffffffffffffffff811115611d8257600080fd5b610ccd84828501611ccc565b60008060408385031215611da157600080fd5b823567ffffffffffffffff811115611db857600080fd5b611dc485828601611ccc565b95602094909401359450505050565b600060208284031215611de557600080fd5b5035919050565b8681526001600160a01b038616602082015260c060408201819052600090611e1690830187611c26565b606083019590955250911515608083015260a0909101529392505050565b60008060408385031215611e4757600080fd5b611e5083611bcb565b9150602083013567ffffffffffffffff811115611e6c57600080fd5b611e7885828601611ccc565b9150509250929050565b60008060408385031215611e9557600080fd5b50508035926020909101359150565b60008060408385031215611eb757600080fd5b611ec083611bcb565b946020939093013593505050565b6001600160a01b038716815260c060208201819052600090611ef290830188611c26565b6040830196909652506060810193909352901515608083015260a09091015292915050565b60008060408385031215611f2a57600080fd5b82359150611f3a60208401611bcb565b90509250929050565b600081518084526020808501945080840160005b83811015611f7357815187529582019590820190600101611f57565b509495945050505050565b600081518084526020808501945080840160005b83811015611f735781516001600160a01b031687529582019590820190600101611f92565b602081528151602082015260006020830151611fde60408401826001600160a01b03169052565b506040830151610100806060850152611ffb610120850183611c26565b915060608501516080850152608085015161201a60a086018215159052565b5060a085015160c085015260c0850151601f19808685030160e08701526120418483611f43565b935060e087015191508086850301838701525061205e8382611f7e565b9695505050505050565b600181811c9082168061207c57607f821691505b602082108103611a0c57634e487b7160e01b600052602260045260246000fd5b6bffffffffffffffffffffffff198460601b168152600083516120c6816014850160208801611c02565b60149201918201929092526034019392505050565b601f82111561212557600081815260208120601f850160051c810160208610156121025750805b601f850160051c820191505b818110156121215782815560010161210e565b5050505b505050565b815167ffffffffffffffff81111561214457612144611cb6565b612158816121528454612068565b846120db565b602080601f83116001811461218d57600084156121755750858301515b600019600386901b1c1916600185901b178555612121565b600085815260208120601f198616915b828110156121bc5788860151825594840194600190910190840161219d565b50858210156121da5787850151600019600388901b60f8161c191681555b5050505050600190811b01905550565b634e487b7160e01b600052601160045260246000fd5b600060018201612212576122126121ea565b5060010190565b6020815260006119d66020830184611c26565b60208082526025908201527f4f7261636c6541676772656761746f723a2063616c6c6572206973206e6f742060408201526437bbb732b960d91b606082015260800190565b60208082526023908201527f4f7261636c6541676772656761746f723a20616c72656164792066756c66696c6040820152621b195960ea1b606082015260800190565b634e487b7160e01b600052603260045260246000fd5b80820180821115611301576113016121ea565b634e487b7160e01b600052601260045260246000fd5b600082612302576123026122dd565b500490565b60208082526027908201527f4f7261636c6541676772656761746f723a206f7261636c65206e6f74207265676040820152661a5cdd195c995960ca1b606082015260800190565b60008161235d5761235d6121ea565b506000190190565b81810381811115611301576113016121ea565b600082612387576123876122dd565b50069056fea26469706673582212200638492792fa9ebb9800b383c5b54f91a29aa179c1f9d774f8adae462ce4ed9a64736f6c63430008130033",
  "linkReferences": {},
  "deployedLinkReferences": {}
}