{
  "_format": "hh-sol-artifact-1",
  "contractName": "VerifierRegistry",
  "sourceName": "contracts/VerifierRegistry.sol",
  "abi": [
    {
      "anonymous": false,
      "inputs": [
        {
          "indexed": true,
          "internalType": "address",
          "name": "verifierAddress",
          "type": "address"
        }
      ],
      "name": "VerifierDeactivated",
      "type": "event"
    },
    {
      "anonymous": false,
      "inputs": [
        {
          "indexed": true,
          "internalType": "address",
          "name": "verifierAddress",
          "type": "address"
        }
      ],
      "name": "VerifierReactivated",
      "type": "event"
    },
    {
      "anonymous": false,
      "inputs": [
        {
          "indexed": true,
          "internalType": "address",
          "name": "verifierAddress",
          "type": "address"
        },
        {
          "indexed": false,
          "internalType": "string",
          "name": "name",
          "type": "string"
        },
        {
          "indexed": false,
          "internalType": "string",
          "name": "organization",
          "type": "string"
        }
      ],
      "name": "VerifierRegistered",
      "type": "event"
    },
    {
      "inputs": [
        {
          "internalType": "address",
          "name": "_verifier",
          "type": "address"
        }
      ],
      "name": "deactivateVerifier",
      "outputs": [],
      "stateMutability": "nonpayable",
      "type": "function"
    },
    {
      "inputs": [],
      "name": "getActiveVerifierCount",
      "outputs": [
        {
          "internalType": "uint256",
          "name": "",
          "type": "uint256"
        }
      ],
      "stateMutability": "view",
      "type": "function"
    },
    {
      "inputs": [],
      "name": "getActiveVerifiers",
      "outputs": [
        {
          "internalType": "address[]",
          "name": "",
          "type": "address[]"
        }
      ],
      "stateMutability": "view",
      "type": "function"
    },
    {
      "inputs": [],
      "name": "getAllVerifiers",
      "outputs": [
        {
          "internalType": "address[]",
          "name": "",
          "type": "address[]"
        }
      ],
      "stateMutability": "view",
      "type": "function"
    },
    {
      "inputs": [],
      "name": "getTotalVerifiers",
      "outputs": [
        {
          "internalType": "uint256",
          "name": "",
          "type": "uint256"
        }
      ],
      "stateMutability": "view",
      "type": "function"
    },
    {
      "inputs": [
        {
          "internalType": "address",
          "name": "_verifier",
          "type": "address"
        }
      ],
      "name": "getVerifier",
      "outputs": [
        {
          "components": [
            {
              "internalType": "address",
              "name": "verifierAddress",
              "type": "address"
            },
            {
              "internalType": "string",
              "name": "name",
              "type": "string"
            },
            {
              "internalType": "string",
              "name": "organization",
              "type": "string"
            },
            {
              "internalType": "string",
              "name": "email",
              "type": "string"
            },
            {
              "internalType": "bool",
              "name": "isActive",
              "type": "bool"
            },
            {
              "internalType": "uint256",
              "name": "registeredAt",
              "type": "uint256"
            },
            {
              "internalType": "uint256",
              "name": "verificationsCount",
              "type": "uint256"
            }
          ],
          "internalType": "struct VerifierRegistry.Verifier",
          "name": "",
          "type": "tuple"
        }
      ],
      "stateMutability": "view",
      "type": "function"
    },
    {
      "inputs": [
        {
          "internalType": "address",
          "name": "_verifier",
          "type": "address"
        }
      ],
      "name": "incrementVerificationsCount",
      "outputs": [],
      "stateMutability": "nonpayable",
      "type": "function"
    },
    {
      "inputs": [
        {
          "internalType": "address",
          "name": "",
          "type": "address"
        }
      ],
      "name": "isRegisteredVerifier",
      "outputs": [
        {
          "internalType": "bool",
          "name": "",
          "type": "bool"
        }
      ],
      "stateMutability": "view",
      "type": "function"
    },
    {
      "inputs": [
        {
          "internalType": "address",
          "name": "_verifier",
          "type": "address"
        }
      ],
      "name": "reactivateVerifier",
      "outputs": [],
      "stateMutability": "nonpayable",
      "type": "function"
    },
    {
      "inputs": [
        {
          "internalType": "string",
          "name": "_name",
          "type": "string"
        },
        {
          "internalType": "string",
          "name": "_organization",
          "type": "string"
        },
        {
          "internalType": "string",
          "name": "_email",
          "type": "string"
        }
      ],
      "name": "registerVerifier",
      "outputs": [],
      "stateMutability": "nonpayable",
      "type": "function"
    },
    {
      "inputs": [],
      "name": "totalVerifiers",
      "outputs": [
        {
          "internalType": "uint256",
          "name": "",
          "type": "uint256"
        }
      ],
      "stateMutability": "view",
      "type": "function"
    },
    {
      "inputs": [
        {
          "internalType": "uint256",
          "name": "",
          "type": "uint256"
        }
      ],
      "name": "verifierAddresses",
      "outputs": [
        {
          "internalType": "address",
          "name": "",
          "type": "address"
        }
      ],
      "stateMutability": "view",
      "type": "function"
    },
    {
      "inputs": [
        {
          "internalType": "address",
          "name": "",
          "type": "address"
        }
      ],
      "name": "verifiers",
      "outputs": [
        {
          "internalType": "address",
          "name": "verifierAddress",
          "type": "address"
        },
        {
          "internalType": "string",
          "name": "name",
          "type": "string"
        },
        {
          "internalType": "string",
          "name": "organization",
          "type": "string"
        },
        {
          "internalType": "string",
          "name": "email",
          "type": "string"
        },
        {
          "internalType": "bool",
          "name": "isActive",
          "type": "bool"
        },
        {
          "internalType": "uint256",
          "name": "registeredAt",
          "type": "uint256"
        },
        {
          "internalType": "uint256",
          "name": "verificationsCount",
          "type": "uint256"
        }
      ],
      "stateMutability": "view",
      "type": "function"
    }
  ],
  "bytecode": "0x608060405234801561001057600080fd5b506113cf806100206000396000f3fe608060405234801561001057600080fd5b50600436106100ce5760003560e01c8063a8ce26031161008c578063bdc68c5b11610066578063bdc68c5b146101ac578063edaf5171146101bf578063f2501e46146101c8578063ff9b9247146101fb57600080fd5b8063a8ce26031461018a578063af8d15551461019c578063b55b7aa7146101a457600080fd5b80626d9801146100d3578063059ce95d146100e85780636baec215146101115780636c824487146101265780636de053981461014c578063a8abe35e14610177575b600080fd5b6100e66100e1366004610eab565b61020e565b005b6100fb6100f6366004610eab565b61034f565b6040516101089190610f21565b60405180910390f35b610119610608565b6040516101089190610fb9565b610139610134366004610eab565b61079e565b6040516101089796959493929190611006565b61015f61015a366004611070565b610981565b6040516001600160a01b039091168152602001610108565b6100e6610185366004610eab565b6109ab565b6003545b604051908152602001610108565b610119610ae8565b61018e610b4a565b6100e66101ba366004610eab565b610bc5565b61018e60035481565b6101eb6101d6366004610eab565b60016020526000908152604090205460ff1681565b6040519015158152602001610108565b6100e661020936600461112c565b610c2c565b336001600160a01b0382161461026b5760405162461bcd60e51b815260206004820152601f60248201527f43616e206f6e6c792072656163746976617465206f776e206163636f756e740060448201526064015b60405180910390fd5b6001600160a01b03811660009081526001602052604090205460ff166102a35760405162461bcd60e51b8152600401610262906111b4565b6001600160a01b03811660009081526020819052604090206004015460ff16156103005760405162461bcd60e51b815260206004820152600e60248201526d416c72656164792061637469766560901b6044820152606401610262565b6001600160a01b038116600081815260208190526040808220600401805460ff19166001179055517f2ebf83fb77c6ad818ad40cebd2fa1cb25e895b30557a8baf953f922cb7ae830b9190a250565b61039a6040518060e0016040528060006001600160a01b0316815260200160608152602001606081526020016060815260200160001515815260200160008152602001600081525090565b6001600160a01b03821660009081526001602052604090205460ff166103f75760405162461bcd60e51b815260206004820152601260248201527115995c9a599a595c881b9bdd08199bdd5b9960721b6044820152606401610262565b6001600160a01b0380831660009081526020818152604091829020825160e081019093528054909316825260018301805492939291840191610438906111eb565b80601f0160208091040260200160405190810160405280929190818152602001828054610464906111eb565b80156104b15780601f10610486576101008083540402835291602001916104b1565b820191906000526020600020905b81548152906001019060200180831161049457829003601f168201915b505050505081526020016002820180546104ca906111eb565b80601f01602080910402602001604051908101604052809291908181526020018280546104f6906111eb565b80156105435780601f1061051857610100808354040283529160200191610543565b820191906000526020600020905b81548152906001019060200180831161052657829003601f168201915b5050505050815260200160038201805461055c906111eb565b80601f0160208091040260200160405190810160405280929190818152602001828054610588906111eb565b80156105d55780601f106105aa576101008083540402835291602001916105d5565b820191906000526020600020905b8154815290600101906020018083116105b857829003601f168201915b5050509183525050600482015460ff16151560208201526005820154604082015260069091015460609091015292915050565b60606000805b60025481101561067e576000806002838154811061062e5761062e61121f565b60009182526020808320909101546001600160a01b0316835282019290925260400190206004015460ff161561066c578161066881611235565b9250505b8061067681611235565b91505061060e565b5060008167ffffffffffffffff81111561069a5761069a611089565b6040519080825280602002602001820160405280156106c3578160200160208202803683370190505b5090506000805b60025481101561079557600080600283815481106106ea576106ea61121f565b60009182526020808320909101546001600160a01b0316835282019290925260400190206004015460ff1615610783576002818154811061072d5761072d61121f565b9060005260206000200160009054906101000a90046001600160a01b031683838151811061075d5761075d61121f565b6001600160a01b03909216602092830291909101909101528161077f81611235565b9250505b8061078d81611235565b9150506106ca565b50909392505050565b600060208190529081526040902080546001820180546001600160a01b0390921692916107ca906111eb565b80601f01602080910402602001604051908101604052809291908181526020018280546107f6906111eb565b80156108435780601f1061081857610100808354040283529160200191610843565b820191906000526020600020905b81548152906001019060200180831161082657829003601f168201915b505050505090806002018054610858906111eb565b80601f0160208091040260200160405190810160405280929190818152602001828054610884906111eb565b80156108d15780601f106108a6576101008083540402835291602001916108d1565b820191906000526020600020905b8154815290600101906020018083116108b457829003601f168201915b5050505050908060030180546108e6906111eb565b80601f0160208091040260200160405190810160405280929190818152602001828054610912906111eb565b801561095f5780601f106109345761010080835404028352916020019161095f565b820191906000526020600020905b81548152906001019060200180831161094257829003601f168201915b5050505060048301546005840154600690940154929360ff9091169290915087565b6002818154811061099157600080fd5b6000918252602090912001546001600160a01b0316905081565b336001600160a01b03821614610a035760405162461bcd60e51b815260206004820152601f60248201527f43616e206f6e6c792064656163746976617465206f776e206163636f756e74006044820152606401610262565b6001600160a01b03811660009081526001602052604090205460ff16610a3b5760405162461bcd60e51b8152600401610262906111b4565b6001600160a01b03811660009081526020819052604090206004015460ff16610a9c5760405162461bcd60e51b8152602060048201526013602482015272105b1c9958591e4819195858dd1a5d985d1959606a1b6044820152606401610262565b6001600160a01b038116600081815260208190526040808220600401805460ff19169055517ff5836474c81b8b13ed31db461b26189ed0dabcd4bf800132373c730359b8b7c69190a250565b60606002805480602002602001604051908101604052809291908181526020018280548015610b4057602002820191906000526020600020905b81546001600160a01b03168152600190910190602001808311610b22575b5050505050905090565b600080805b600254811015610bbf5760008060028381548110610b6f57610b6f61121f565b60009182526020808320909101546001600160a01b0316835282019290925260400190206004015460ff1615610bad5781610ba981611235565b9250505b80610bb781611235565b915050610b4f565b50919050565b6001600160a01b03811660009081526001602052604090205460ff16610bfd5760405162461bcd60e51b8152600401610262906111b4565b6001600160a01b0381166000908152602081905260408120600601805491610c2483611235565b919050555050565b3360009081526001602052604090205460ff1615610c8c5760405162461bcd60e51b815260206004820152601e60248201527f416c7265616479207265676973746572656420617320766572696669657200006044820152606401610262565b6000835111610cd45760405162461bcd60e51b81526020600482015260146024820152734e616d652063616e6e6f7420626520656d70747960601b6044820152606401610262565b6000825111610d255760405162461bcd60e51b815260206004820152601c60248201527f4f7267616e697a6174696f6e2063616e6e6f7420626520656d707479000000006044820152606401610262565b6040805160e081018252338082526020808301878152838501879052606084018690526001608085018190524260a0860152600060c086018190529384529183905293909120825181546001600160a01b0319166001600160a01b039091161781559251919283929091820190610d9c90826112ab565b5060408201516002820190610db190826112ab565b5060608201516003820190610dc690826112ab565b50608082015160048201805491151560ff1992831617905560a0830151600583015560c09092015160069091015533600081815260016020819052604082208054909416811790935560028054938401815581527f405787fa12a823e0f2b7631cc41b3ba8828b3321ca811111fa75cd3aa3bb5ace90920180546001600160a01b03191690911790556003805491610e5d83611235565b9190505550336001600160a01b03167f8e68c6027bf0ff5ddc82b9a891d7fb8861f8aa2a11371234d753f9e9309ff57a8585604051610e9d92919061136b565b60405180910390a250505050565b600060208284031215610ebd57600080fd5b81356001600160a01b0381168114610ed457600080fd5b9392505050565b6000815180845260005b81811015610f0157602081850181015186830182015201610ee5565b506000602082860101526020601f19601f83011685010191505092915050565b602080825282516001600160a01b03168282015282015160e06040830152600090610f50610100840182610edb565b90506040840151601f1980858403016060860152610f6e8383610edb565b9250606086015191508085840301608086015250610f8c8282610edb565b9150506080840151151560a084015260a084015160c084015260c084015160e08401528091505092915050565b6020808252825182820181905260009190848201906040850190845b81811015610ffa5783516001600160a01b031683529284019291840191600101610fd5565b50909695505050505050565b6001600160a01b038816815260e06020820181905260009061102a90830189610edb565b828103604084015261103c8189610edb565b905082810360608401526110508188610edb565b9515156080840152505060a081019290925260c090910152949350505050565b60006020828403121561108257600080fd5b5035919050565b634e487b7160e01b600052604160045260246000fd5b600082601f8301126110b057600080fd5b813567ffffffffffffffff808211156110cb576110cb611089565b604051601f8301601f19908116603f011681019082821181831017156110f3576110f3611089565b8160405283815286602085880101111561110c57600080fd5b836020870160208301376000602085830101528094505050505092915050565b60008060006060848603121561114157600080fd5b833567ffffffffffffffff8082111561115957600080fd5b6111658783880161109f565b9450602086013591508082111561117b57600080fd5b6111878783880161109f565b9350604086013591508082111561119d57600080fd5b506111aa8682870161109f565b9150509250925092565b60208082526019908201527f4e6f742061207265676973746572656420766572696669657200000000000000604082015260600190565b600181811c908216806111ff57607f821691505b602082108103610bbf57634e487b7160e01b600052602260045260246000fd5b634e487b7160e01b600052603260045260246000fd5b60006001820161125557634e487b7160e01b600052601160045260246000fd5b5060010190565b601f8211156112a657600081815260208120601f850160051c810160208610156112835750805b601f850160051c820191505b818110156112a25782815560010161128f565b5050505b505050565b815167ffffffffffffffff8111156112c5576112c5611089565b6112d9816112d384546111eb565b8461125c565b602080601f83116001811461130e57600084156112f65750858301515b600019600386901b1c1916600185901b1785556112a2565b600085815260208120601f198616915b8281101561133d5788860151825594840194600190910190840161131e565b508582101561135b5787850151600019600388901b60f8161c191681555b5050505050600190811b01905550565b60408152600061137e6040830185610edb565b82810360208401526113908185610edb565b9594505050505056fea2646970667358221220209855038343d157a001a75a99b1d2886fbd62c6a86e9ecbc02e6a00511a80c664736f6c63430008130033",
  "linkReferences": {},
  "deployedLinkReferences": {}
}