{
  "_format": "hh-sol-artifact-1",
  "contractName": "ZKCredentialVerifier",
  "sourceName": "contracts/ZKCredentialVerifier.sol",
  "abi": [
    {
      "inputs": [],
      "stateMutability": "nonpayable",
      "type": "constructor"
    },
    {
      "anonymous": false,
      "inputs": [
        {
          "indexed": true,
          "internalType": "address",
          "name": "oldKey",
          "type": "address"
        },
        {
          "indexed": true,
          "internalType": "address",
          "name": "newKey",
          "type": "address"
        }
      ],
      "name": "VerifierKeyUpdated",
      "type": "event"
    },
    {
      "anonymous": false,
      "inputs": [
        {
          "indexed": true,
          "internalType": "bytes32",
          "name": "proofId",
          "type": "bytes32"
        },
        {
          "indexed": true,
          "internalType": "address",
          "name": "holder",
          "type": "address"
        },
        {
          "indexed": false,
          "internalType": "bytes32",
          "name": "credentialHash",
          "type": "bytes32"
        }
      ],
      "name": "ZKProofSubmitted",
      "type": "event"
    },
    {
      "anonymous": false,
      "inputs": [
        {
          "indexed": true,
          "internalType": "bytes32",
          "name": "proofId",
          "type": "bytes32"
        },
        {
          "indexed": true,
          "internalType": "address",
          "name": "verifier",
          "type": "address"
        },
        {
          "indexed": false,
          "internalType": "bool",
          "name": "isValid",
          "type": "bool"
        }
      ],
      "name": "ZKProofVerified",
      "type": "event"
    },
    {
      "inputs": [],
      "name": "FIELD_SIZE",
      "outputs": [
        {
          "internalType": "uint256",
          "name": "",
          "type": "uint256"
        }
      ],
      "stateMutability": "view",
      "type": "function"
    },
    {
      "inputs": [
        {
          "internalType": "bytes32[]",
          "name": "_proofIds",
          "type": "bytes32[]"
        }
      ],
      "name": "batchVerify",
      "outputs": [
        {
          "internalType": "bool[]",
          "name": "",
          "type": "bool[]"
        }
      ],
      "stateMutability": "nonpayable",
      "type": "function"
    },
    {
      "inputs": [
        {
          "internalType": "bytes32",
          "name": "_dataHash",
          "type": "bytes32"
        },
        {
          "internalType": "bytes32",
          "name": "_secret",
          "type": "bytes32"
        }
      ],
      "name": "createCommitment",
      "outputs": [
        {
          "internalType": "bytes32",
          "name": "",
          "type": "bytes32"
        }
      ],
      "stateMutability": "pure",
      "type": "function"
    },
    {
      "inputs": [
        {
          "internalType": "address",
          "name": "_holder",
          "type": "address"
        }
      ],
      "name": "getHolderProofs",
      "outputs": [
        {
          "internalType": "bytes32[]",
          "name": "",
          "type": "bytes32[]"
        }
      ],
      "stateMutability": "view",
      "type": "function"
    },
    {
      "inputs": [
        {
          "internalType": "bytes32",
          "name": "_proofId",
          "type": "bytes32"
        }
      ],
      "name": "getProof",
      "outputs": [
        {
          "components": [
            {
              "internalType": "bytes32",
              "name": "proofId",
              "type": "bytes32"
            },
            {
              "internalType": "address",
              "name": "holder",
              "type": "address"
            },
            {
              "internalType": "bytes32",
              "name": "credentialHash",
              "type": "bytes32"
            },
            {
              "internalType": "uint256[2]",
              "name": "a",
              "type": "uint256[2]"
            },
            {
              "internalType": "uint256[2]",
              "name": "b",
              "type": "uint256[2]"
            },
            {
              "internalType": "uint256[2]",
              "name": "c",
              "type": "uint256[2]"
            },
            {
              "internalType": "uint256",
              "name": "timestamp",
              "type": "uint256"
            },
            {
              "internalType": "bool",
              "name": "isValid",
              "type": "bool"
            },
            {
              "internalType": "bytes",
              "name": "publicSignals",
              "type": "bytes"
            }
          ],
          "internalType": "struct ZKCredentialVerifier.ZKProof",
          "name": "",
          "type": "tuple"
        }
      ],
      "stateMutability": "view",
      "type": "function"
    },
    {
      "inputs": [
        {
          "internalType": "address",
          "name": "_holder",
          "type": "address"
        }
      ],
      "name": "getVerificationCount",
      "outputs": [
        {
          "internalType": "uint256",
          "name": "",
          "type": "uint256"
        }
      ],
      "stateMutability": "view",
      "type": "function"
    },
    {
      "inputs": [
        {
          "internalType": "address",
          "name": "",
          "type": "address"
        },
        {
          "internalType": "uint256",
          "name": "",
          "type": "uint256"
        }
      ],
      "name": "holderProofs",
      "outputs": [
        {
          "internalType": "bytes32",
          "name": "",
          "type": "bytes32"
        }
      ],
      "stateMutability": "view",
      "type": "function"
    },
    {
      "inputs": [
        {
          "internalType": "bytes32",
          "name": "",
          "type": "bytes32"
        }
      ],
      "name": "proofs",
      "outputs": [
        {
          "internalType": "bytes32",
          "name": "proofId",
          "type": "bytes32"
        },
        {
          "internalType": "address",
          "name": "holder",
          "type": "address"
        },
        {
          "internalType": "bytes32",
          "name": "credentialHash",
          "type": "bytes32"
        },
        {
          "internalType": "uint256",
          "name": "timestamp",
          "type": "uint256"
        },
        {
          "internalType": "bool",
          "name": "isValid",
          "type": "bool"
        },
        {
          "internalType": "bytes",
          "name": "publicSignals",
          "type": "bytes"
        }
      ],
      "stateMutability": "view",
      "type": "function"
    },
    {
      "inputs": [
        {
          "internalType": "address",
          "name": "_holder",
          "type": "address"
        },
        {
          "internalType": "bytes32",
          "name": "_credentialHash",
          "type": "bytes32"
        },
        {
          "internalType": "uint256[2]",
          "name": "_a",
          "type": "uint256[2]"
        },
        {
          "internalType": "uint256[2]",
          "name": "_b",
          "type": "uint256[2]"
        },
        {
          "internalType": "uint256[2]",
          "name": "_c",
          "type": "uint256[2]"
        },
        {
          "internalType": "bytes",
          "name": "_publicSignals",
          "type": "bytes"
        }
      ],
      "name": "submitProof",
      "outputs": [
        {
          "internalType": "bytes32",
          "name": "",
          "type": "bytes32"
        }
      ],
      "stateMutability": "nonpayable",
      "type": "function"
    },
    {
      "inputs": [
        {
          "internalType": "address",
          "name": "_newKey",
          "type": "address"
        }
      ],
      "name": "updateVerifierKey",
      "outputs": [],
      "stateMutability": "nonpayable",
      "type": "function"
    },
    {
      "inputs": [
        {
          "internalType": "address",
          "name": "",
          "type": "address"
        }
      ],
      "name": "verificationCounts",
      "outputs": [
        {
          "internalType": "uint256",
          "name": "",
          "type": "uint256"
        }
      ],
      "stateMutability": "view",
      "type": "function"
    },
    {
      "inputs": [],
      "name": "verifierKey",
      "outputs": [
        {
          "internalType": "address",
          "name": "",
          "type": "address"
        }
      ],
      "stateMutability": "view",
      "type": "function"
    },
    {
      "inputs": [
        {
          "internalType": "address",
          "name": "_holder",
          "type": "address"
        },
        {
          "internalType": "bytes32",
          "name": "_proofId",
          "type": "bytes32"
        }
      ],
      "name": "verifyCredentialOwnership",
      "outputs": [
        {
          "internalType": "bool",
          "name": "",
          "type": "bool"
        }
      ],
      "stateMutability": "view",
      "type": "function"
    },
    {
      "inputs": [
        {
          "internalType": "bytes32",
          "name": "_proofId",
          "type": "bytes32"
        },
        {
          "internalType": "bytes32",
          "name": "_credentialHash",
          "type": "bytes32"
        }
      ],
      "name": "verifyCriteria",
      "outputs": [
        {
          "internalType": "bool",
          "name": "",
          "type": "bool"
        }
      ],
      "stateMutability": "view",
      "type": "function"
    },
    {
      "inputs": [
        {
          "internalType": "bytes32",
          "name": "_proofId",
          "type": "bytes32"
        }
      ],
      "name": "verifyProof",
      "outputs": [
        {
          "internalType": "bool",
          "name": "",
          "type": "bool"
        }
      ],
      "stateMutability": "view",
      "type": "function"
    },
    {
      "inputs": [
        {
          "internalType": "bytes32",
          "name": "_proofId",
          "type": "bytes32"
        }
      ],
      "name": "verifyProofAndCount",
      "outputs": [
        {
          "internalType": "bool",
          "name": "",
          "type": "bool"
        }
      ],
      "stateMutability": "nonpayable",
      "type": "function"
    }
  ],
  "bytecode": "0x608060405234801561001057600080fd5b50600380546001600160a01b03191633179055611ba0806100326000396000f3fe608060405234801561001057600080fd5b50600436106101005760003560e01c8063aa55572611610097578063c8fa615711610066578063c8fa615714610265578063cf351f9814610285578063f017c5a6146102bf578063f4a254ea146102e857600080fd5b8063aa555726146101f4578063b03f82bf14610214578063b142b4ec14610227578063b6299fda1461023a57600080fd5b80633e4f29e6116100d35780633e4f29e614610192578063414a37ba146101a5578063444d95b0146101ba57806384d28c40146101df57600080fd5b80631b80bb3a1461010557806325b4ca6c1461012e57806337ca76831461015c5780633d1abaa31461016f575b600080fd5b61011861011336600461153e565b6102fb565b60405161012591906115c6565b60405180910390f35b61014e61013c366004611680565b60026020526000908152604090205481565b604051908152602001610125565b61014e61016a3660046116a2565b61049d565b61018261017d36600461153e565b6104ce565b6040519015158152602001610125565b6101826101a03660046116a2565b61074e565b61014e600080516020611b4b83398151915281565b6101cd6101c836600461153e565b610931565b604051610125969594939291906116cc565b6101f26101ed366004611680565b610a00565b005b610207610202366004611680565b610af4565b6040516101259190611713565b61014e61022236600461180e565b610b60565b61018261023536600461153e565b610dd3565b60035461024d906001600160a01b031681565b6040516001600160a01b039091168152602001610125565b6102786102733660046118f3565b610f46565b6040516101259190611968565b61014e6102933660046119a2565b604080516020808201949094528082019290925280518083038201815260609092019052805191012090565b61014e6102cd366004611680565b6001600160a01b031660009081526002602052604090205490565b6101826102f63660046119a2565b6111f0565b610303611470565b600082815260208181526040918290208251610120810184528154815260018201546001600160a01b031692810192909252600280820154838501528351808501948590529293919260608501929091600385019182845b81548152602001906001019080831161035b575050509183525050604080518082019182905260209092019190600584019060029082845b815481526020019060010190808311610393575050509183525050604080518082019182905260209092019190600784019060029082845b8154815260200190600101908083116103cb57505050918352505060098201546020820152600a82015460ff1615156040820152600b82018054606090920191610414906119c4565b80601f0160208091040260200160405190810160405280929190818152602001828054610440906119c4565b801561048d5780601f106104625761010080835404028352916020019161048d565b820191906000526020600020905b81548152906001019060200180831161047057829003601f168201915b5050505050815250509050919050565b600160205281600052604060002081815481106104b957600080fd5b90600052602060002001600091509150505481565b600081815260208190526040812060018101546001600160a01b03166105365760405162461bcd60e51b81526020600482015260186024820152771692ce881c1c9bdbd988191bd95cc81b9bdd08195e1a5cdd60421b60448201526064015b60405180910390fd5b60408051610120810182528254815260018301546001600160a01b03166020820152600280840154828401528251808401938490526000936106c49392869260608501929091600385019182845b815481526020019060010190808311610584575050509183525050604080518082019182905260209092019190600584019060029082845b8154815260200190600101908083116105bc575050509183525050604080518082019182905260209092019190600784019060029082845b8154815260200190600101908083116105f457505050918352505060098201546020820152600a82015460ff1615156040820152600b8201805460609092019161063d906119c4565b80601f0160208091040260200160405190810160405280929190818152602001828054610669906119c4565b80156106b65780601f1061068b576101008083540402835291602001916106b6565b820191906000526020600020905b81548152906001019060200180831161069957829003601f168201915b505050505081525050611396565b600a8301805460ff1916821580159190911790915590915061070e5760018201546001600160a01b03166000908152600260205260408120805491610708836119fe565b91905055505b6040518115158152339085907f5ac8109f4e711ae4b00b1e6d6b38e1677906e71053c83680c25bd34fba4aa2cb9060200160405180910390a39392505050565b6000818152602081815260408083208151610120810183528154815260018201546001600160a01b031693810193909352600280820154848401528251808401938490528594936060850192600385019182845b8154815260200190600101908083116107a2575050509183525050604080518082019182905260209092019190600584019060029082845b8154815260200190600101908083116107da575050509183525050604080518082019182905260209092019190600784019060029082845b81548152602001906001019080831161081257505050918352505060098201546020820152600a82015460ff1615156040820152600b8201805460609092019161085b906119c4565b80601f0160208091040260200160405190810160405280929190818152602001828054610887906119c4565b80156108d45780601f106108a9576101008083540402835291602001916108d4565b820191906000526020600020905b8154815290600101906020018083116108b757829003601f168201915b5050505050815250509050836001600160a01b031681602001516001600160a01b031614158061090f575060208101516001600160a01b0316155b1561091e57600091505061092b565b61092781611396565b9150505b92915050565b60006020819052908152604090208054600182015460028301546009840154600a850154600b8601805495966001600160a01b03909516959394929360ff909216929161097d906119c4565b80601f01602080910402602001604051908101604052809291908181526020018280546109a9906119c4565b80156109f65780601f106109cb576101008083540402835291602001916109f6565b820191906000526020600020905b8154815290600101906020018083116109d957829003601f168201915b5050505050905086565b6003546001600160a01b03163314610a5a5760405162461bcd60e51b815260206004820152601c60248201527f5a4b3a206f6e6c792076657269666965722063616e2075706461746500000000604482015260640161052d565b6001600160a01b038116610aa25760405162461bcd60e51b815260206004820152600f60248201526e5a4b3a20696e76616c6964206b657960881b604482015260640161052d565b600380546001600160a01b038381166001600160a01b0319831681179093556040519116919082907f1914822f7de3a151719fac758a05e5f670c192a35410e39ac4786c30f4ba5c7490600090a35050565b6001600160a01b038116600090815260016020908152604091829020805483518184028101840190945280845260609392830182828015610b5457602002820191906000526020600020905b815481526020019060010190808311610b40575b50505050509050919050565b60006001600160a01b038716610bb85760405162461bcd60e51b815260206004820152601a60248201527f5a4b3a20696e76616c696420686f6c6465722061646472657373000000000000604482015260640161052d565b85610c055760405162461bcd60e51b815260206004820152601b60248201527f5a4b3a20696e76616c69642063726564656e7469616c20686173680000000000604482015260640161052d565b8451845184516040516bffffffffffffffffffffffff1960608c901b166020820152603481018a90524260548201526074810193909352609483019190915260b482015260009060d40160408051808303601f190181528282528051602091820120610120840183528084526001600160a01b038c81168386019081528585018d8152606087018d8152608088018d905260a088018c90524260c0890152600060e0890181905261010089018c905285815295869052959094208651815590516001820180546001600160a01b0319169190931617909155915160028084019190915592519094509091610cfd9160038401916114cd565b506080820151610d1390600583019060026114cd565b5060a0820151610d2990600783019060026114cd565b5060c0820151600982015560e0820151600a8201805460ff1916911515919091179055610100820151600b820190610d619082611a8a565b5050506001600160a01b03881660008181526001602081815260408084208054938401815584529220018390555182907f1eac577a2d253e04279c353521fe048b4922394196615f448279e0a83ae4840490610dc0908b815260200190565b60405180910390a3979650505050505050565b600081815260208190526040812060018101546001600160a01b0316610e365760405162461bcd60e51b81526020600482015260186024820152771692ce881c1c9bdbd988191bd95cc81b9bdd08195e1a5cdd60421b604482015260640161052d565b60408051610120810182528254815260018301546001600160a01b03166020820152600280840154828401528251808401909352600092610f3e9291859160608401916003840190828282602002820191815481526020019060010190808311610584575050509183525050604080518082019182905260058401805482526020938401939192909160029190600687019085018083116105bc575050509183525050604080518082019182905260078401805482526020938401939192909160029190600887019085018083116105f457505050918352505060098201546020820152600a82015460ff1615156040820152600b8201805460609092019161063d906119c4565b949350505050565b606060008267ffffffffffffffff811115610f6357610f63611757565b604051908082528060200260200182016040528015610f8c578160200160208202803683370190505b50905060005b838110156111e8576000806000878785818110610fb157610fb1611a25565b6020908102929092013583525081019190915260400160002060018101549091506001600160a01b0316156111b05760408051610120810182528254815260018301546001600160a01b031660208201526002808401548284015282518084019093526000926110e89291859160608401916003840190828282602002820191815481526020019060010190808311610584575050509183525050604080518082019182905260058401805482526020938401939192909160029190600687019085018083116105bc575050509183525050604080518082019182905260078401805482526020938401939192909160029190600887019085018083116105f457505050918352505060098201546020820152600a82015460ff1615156040820152600b8201805460609092019161063d906119c4565b600a8301805460ff191682158015919091179091559091506111325760018201546001600160a01b0316600090815260026020526040812080549161112c836119fe565b91905055505b3387878581811061114557611145611a25565b905060200201357f5ac8109f4e711ae4b00b1e6d6b38e1677906e71053c83680c25bd34fba4aa2cb8360405161117f911515815260200190565b60405180910390a38084848151811061119a5761119a611a25565b91151560209283029190910190910152506111d5565b60008383815181106111c4576111c4611a25565b911515602092830291909101909101525b50806111e0816119fe565b915050610f92565b509392505050565b6000828152602081815260408083208151610120810183528154815260018201546001600160a01b031693810193909352600280820154848401528251808401938490528594936060850192600385019182845b815481526020019060010190808311611244575050509183525050604080518082019182905260209092019190600584019060029082845b81548152602001906001019080831161127c575050509183525050604080518082019182905260209092019190600784019060029082845b8154815260200190600101908083116112b457505050918352505060098201546020820152600a82015460ff1615156040820152600b820180546060909201916112fd906119c4565b80601f0160208091040260200160405190810160405280929190818152602001828054611329906119c4565b80156113765780601f1061134b57610100808354040283529160200191611376565b820191906000526020600020905b81548152906001019060200180831161135957829003601f168201915b50505050508152505090508281604001511461091e57600091505061092b565b606081015151600090600080516020611b4b8339815191521115806113d15750606082015160200151600080516020611b4b83398151915211155b156113de57506000919050565b608082015151600080516020611b4b8339815191521115806114165750608082015160200151600080516020611b4b83398151915211155b1561142357506000919050565b60a082015151600080516020611b4b83398151915211158061145b575060a082015160200151600080516020611b4b83398151915211155b1561146857506000919050565b506001919050565b6040805161012081018252600080825260208201819052918101919091526060810161149a61150b565b81526020016114a761150b565b81526020016114b461150b565b8152600060208201819052604082015260609081015290565b82600281019282156114fb579160200282015b828111156114fb5782518255916020019190600101906114e0565b50611507929150611529565b5090565b60405180604001604052806002906020820280368337509192915050565b5b80821115611507576000815560010161152a565b60006020828403121561155057600080fd5b5035919050565b8060005b600281101561157a57815184526020938401939091019060010161155b565b50505050565b6000815180845260005b818110156115a65760208185018101518683018201520161158a565b506000602082860101526020601f19601f83011685010191505092915050565b6020815281516020820152600060208301516115ed60408401826001600160a01b03169052565b5060408301516060830152606083015161160a6080840182611557565b50608083015161161d60c0840182611557565b5060a083015161010061163281850183611557565b60c085015161014085015260e085015115156101608501528401516101808085015290506109276101a0840182611580565b80356001600160a01b038116811461167b57600080fd5b919050565b60006020828403121561169257600080fd5b61169b82611664565b9392505050565b600080604083850312156116b557600080fd5b6116be83611664565b946020939093013593505050565b86815260018060a01b0386166020820152846040820152836060820152821515608082015260c060a0820152600061170760c0830184611580565b98975050505050505050565b6020808252825182820181905260009190848201906040850190845b8181101561174b5783518352928401929184019160010161172f565b50909695505050505050565b634e487b7160e01b600052604160045260246000fd5b604051601f8201601f1916810167ffffffffffffffff8111828210171561179657611796611757565b604052919050565b600082601f8301126117af57600080fd5b6040516040810181811067ffffffffffffffff821117156117d2576117d2611757565b80604052508060408401858111156117e957600080fd5b845b818110156118035780358352602092830192016117eb565b509195945050505050565b600080600080600080610120878903121561182857600080fd5b61183187611664565b955060208088013595506118488960408a0161179e565b94506118578960808a0161179e565b93506118668960c08a0161179e565b925061010088013567ffffffffffffffff8082111561188457600080fd5b818a0191508a601f83011261189857600080fd5b8135818111156118aa576118aa611757565b6118bc601f8201601f1916850161176d565b91508082528b848285010111156118d257600080fd5b80848401858401376000848284010152508093505050509295509295509295565b6000806020838503121561190657600080fd5b823567ffffffffffffffff8082111561191e57600080fd5b818501915085601f83011261193257600080fd5b81358181111561194157600080fd5b8660208260051b850101111561195657600080fd5b60209290920196919550909350505050565b6020808252825182820181905260009190848201906040850190845b8181101561174b578351151583529284019291840191600101611984565b600080604083850312156119b557600080fd5b50508035926020909101359150565b600181811c908216806119d857607f821691505b6020821081036119f857634e487b7160e01b600052602260045260246000fd5b50919050565b600060018201611a1e57634e487b7160e01b600052601160045260246000fd5b5060010190565b634e487b7160e01b600052603260045260246000fd5b601f821115611a8557600081815260208120601f850160051c81016020861015611a625750805b601f850160051c820191505b81811015611a8157828155600101611a6e565b5050505b505050565b815167ffffffffffffffff811115611aa457611aa4611757565b611ab881611ab284546119c4565b84611a3b565b602080601f831160018114611aed5760008415611ad55750858301515b600019600386901b1c1916600185901b178555611a81565b600085815260208120601f198616915b82811015611b1c57888601518255948401946001909101908401611afd565b5085821015611b3a5787850151600019600388901b60f8161c191681555b5050505050600190811b0190555056fe30644e72e131a029b85045b68181585d2833e84879b9709143e1f593f0000001a2646970667358221220bdd1a9f7f766e90ddccad0e30efa8b571d93a79a4499c9d2af460d08510898e864736f6c63430008130033",
  "linkReferences": {},
  "deployedLinkReferences": {}
}