{
  "_format": "hh-sol-artifact-1",
  "contractName": "CredentialRegistry",
  "sourceName": "contracts/CredentialRegistry.sol",
  "abi": [
    {
      "inputs": [
        {
          "internalType": "address",
          "name": "_issuerRegistry",
          "type": "address"
        }
      ],
      "stateMutability": "nonpayable",
      "type": "constructor"
    },
    {
      "anonymous": false,
      "inputs": [
        {
          "indexed": true,
          "internalType": "uint256",
          "name": "credentialId",
          "type": "uint256"
        },
        {
          "indexed": true,
          "internalType": "address",
          "name": "issuer",
          "type": "address"
        },
        {
          "indexed": true,
          "internalType": "address",
          "name": "holder",
          "type": "address"
        },
        {
          "indexed": false,
          "internalType": "string",
          "name": "credentialType",
          "type": "string"
        }
      ],
      "name": "CredentialIssued",
      "type": "event"
    },
    {
      "anonymous": false,
      "inputs": [
        {
          "indexed": true,
          "internalType": "uint256",
          "name": "credentialId",
          "type": "uint256"
        },
        {
          "indexed": true,
          "internalType": "address",
          "name": "issuer",
          "type": "address"
        }
      ],
      "name": "CredentialRevoked",
      "type": "event"
    },
    {
      "anonymous": false,
      "inputs": [
        {
          "indexed": true,
          "internalType": "uint256",
          "name": "credentialId",
          "type": "uint256"
        },
        {
          "indexed": true,
          "internalType": "address",
          "name": "issuer",
          "type": "address"
        },
        {
          "indexed": true,
          "internalType": "address",
          "name": "holder",
          "type": "address"
        },
        {
          "indexed": false,
          "internalType": "bytes32",
          "name": "merkleRoot",
          "type": "bytes32"
        }
      ],
      "name": "MerkleCredentialCreated",
      "type": "event"
    },
    {
      "anonymous": false,
      "inputs": [
        {
          "indexed": true,
          "internalType": "bytes32",
          "name": "digest",
          "type": "bytes32"
        },
        {
          "indexed": true,
          "internalType": "address",
          "name": "issuer",
          "type": "address"
        },
        {
          "indexed": true,
          "internalType": "address",
          "name": "holder",
          "type": "address"
        },
        {
          "indexed": false,
          "internalType": "string",
          "name": "credentialType",
          "type": "string"
        }
      ],
      "name": "OffChainCredentialIssued",
      "type": "event"
    },
    {
      "anonymous": false,
      "inputs": [
        {
          "indexed": true,
          "internalType": "uint256",
          "name": "requestId",
          "type": "uint256"
        },
        {
          "indexed": false,
          "internalType": "bool",
          "name": "approved",
          "type": "bool"
        },
        {
          "indexed": true,
          "internalType": "address",
          "name": "holder",
          "type": "address"
        }
      ],
      "name": "VerificationProcessed",
      "type": "event"
    },
    {
      "anonymous": false,
      "inputs": [
        {
          "indexed": true,
          "internalType": "uint256",
          "name": "requestId",
          "type": "uint256"
        },
        {
          "indexed": true,
          "internalType": "address",
          "name": "verifier",
          "type": "address"
        },
        {
          "indexed": true,
          "internalType": "address",
          "name": "holder",
          "type": "address"
        },
        {
          "indexed": false,
          "internalType": "uint256",
          "name": "credentialId",
          "type": "uint256"
        }
      ],
      "name": "VerificationRequested",
      "type": "event"
    },
    {
      "inputs": [],
      "name": "DOMAIN_SEPARATOR",
      "outputs": [
        {
          "internalType": "bytes32",
          "name": "",
          "type": "bytes32"
        }
      ],
      "stateMutability": "view",
      "type": "function"
    },
    {
      "inputs": [
        {
          "internalType": "address",
          "name": "_holder",
          "type": "address"
        },
        {
          "internalType": "string",
          "name": "_credentialType",
          "type": "string"
        },
        {
          "internalType": "bytes32",
          "name": "_merkleRoot",
          "type": "bytes32"
        },
        {
          "internalType": "uint256",
          "name": "_expiresAt",
          "type": "uint256"
        }
      ],
      "name": "createMerkleCredential",
      "outputs": [
        {
          "internalType": "uint256",
          "name": "",
          "type": "uint256"
        }
      ],
      "stateMutability": "nonpayable",
      "type": "function"
    },
    {
      "inputs": [
        {
          "internalType": "address",
          "name": "",
          "type": "address"
        },
        {
          "internalType": "uint256",
          "name": "",
          "type": "uint256"
        }
      ],
      "name": "credentialMerkleRoots",
      "outputs": [
        {
          "internalType": "bytes32",
          "name": "",
          "type": "bytes32"
        }
      ],
      "stateMutability": "view",
      "type": "function"
    },
    {
      "inputs": [
        {
          "internalType": "uint256",
          "name": "",
          "type": "uint256"
        }
      ],
      "name": "credentials",
      "outputs": [
        {
          "internalType": "uint256",
          "name": "id",
          "type": "uint256"
        },
        {
          "internalType": "address",
          "name": "issuer",
          "type": "address"
        },
        {
          "internalType": "address",
          "name": "holder",
          "type": "address"
        },
        {
          "internalType": "string",
          "name": "credentialType",
          "type": "string"
        },
        {
          "internalType": "string",
          "name": "data",
          "type": "string"
        },
        {
          "internalType": "uint256",
          "name": "issuedAt",
          "type": "uint256"
        },
        {
          "internalType": "uint256",
          "name": "expiresAt",
          "type": "uint256"
        },
        {
          "internalType": "bool",
          "name": "isActive",
          "type": "bool"
        },
        {
          "internalType": "bool",
          "name": "isRevoked",
          "type": "bool"
        },
        {
          "internalType": "string",
          "name": "ipfsHash",
          "type": "string"
        }
      ],
      "stateMutability": "view",
      "type": "function"
    },
    {
      "inputs": [
        {
          "internalType": "uint256",
          "name": "_credentialId",
          "type": "uint256"
        }
      ],
      "name": "getCredential",
      "outputs": [
        {
          "components": [
            {
              "internalType": "uint256",
              "name": "id",
              "type": "uint256"
            },
            {
              "internalType": "address",
              "name": "issuer",
              "type": "address"
            },
            {
              "internalType": "address",
              "name": "holder",
              "type": "address"
            },
            {
              "internalType": "string",
              "name": "credentialType",
              "type": "string"
            },
            {
              "internalType": "string",
              "name": "data",
              "type": "string"
            },
            {
              "internalType": "uint256",
              "name": "issuedAt",
              "type": "uint256"
            },
            {
              "internalType": "uint256",
              "name": "expiresAt",
              "type": "uint256"
            },
            {
              "internalType": "bool",
              "name": "isActive",
              "type": "bool"
            },
            {
              "internalType": "bool",
              "name": "isRevoked",
              "type": "bool"
            },
            {
              "internalType": "string",
              "name": "ipfsHash",
              "type": "string"
            }
          ],
          "internalType": "struct CredentialRegistry.Credential",
          "name": "",
          "type": "tuple"
        }
      ],
      "stateMutability": "view",
      "type": "function"
    },
    {
      "inputs": [],
      "name": "getCredentialTypeHash",
      "outputs": [
        {
          "internalType": "bytes32",
          "name": "",
          "type": "bytes32"
        }
      ],
      "stateMutability": "pure",
      "type": "function"
    },
    {
      "inputs": [],
      "name": "getDomainSeparator",
      "outputs": [
        {
          "internalType": "bytes32",
          "name": "",
          "type": "bytes32"
        }
      ],
      "stateMutability": "view",
      "type": "function"
    },
    {
      "inputs": [
        {
          "internalType": "address",
          "name": "_holder",
          "type": "address"
        }
      ],
      "name": "getHolderCredentials",
      "outputs": [
        {
          "internalType": "uint256[]",
          "name": "",
          "type": "uint256[]"
        }
      ],
      "stateMutability": "view",
      "type": "function"
    },
    {
      "inputs": [
        {
          "internalType": "address",
          "name": "_holder",
          "type": "address"
        }
      ],
      "name": "getHolderMerkleCredentials",
      "outputs": [
        {
          "internalType": "uint256[]",
          "name": "",
          "type": "uint256[]"
        }
      ],
      "stateMutability": "view",
      "type": "function"
    },
    {
      "inputs": [
        {
          "internalType": "address",
          "name": "_holder",
          "type": "address"
        }
      ],
      "name": "getHolderRequests",
      "outputs": [
        {
          "internalType": "uint256[]",
          "name": "",
          "type": "uint256[]"
        }
      ],
      "stateMutability": "view",
      "type": "function"
    },
    {
      "inputs": [
        {
          "internalType": "address",
          "name": "_issuer",
          "type": "address"
        }
      ],
      "name": "getIssuerCredentials",
      "outputs": [
        {
          "internalType": "uint256[]",
          "name": "",
          "type": "uint256[]"
        }
      ],
      "stateMutability": "view",
      "type": "function"
    },
    {
      "inputs": [
        {
          "internalType": "uint256",
          "name": "_credentialId",
          "type": "uint256"
        }
      ],
      "name": "getMerkleCredential",
      "outputs": [
        {
          "components": [
            {
              "internalType": "uint256",
              "name": "id",
              "type": "uint256"
            },
            {
              "internalType": "bytes32",
              "name": "merkleRoot",
              "type": "bytes32"
            },
            {
              "internalType": "address",
              "name": "issuer",
              "type": "address"
            },
            {
              "internalType": "address",
              "name": "holder",
              "type": "address"
            },
            {
              "internalType": "string",
              "name": "credentialType",
              "type": "string"
            },
            {
              "internalType": "uint256",
              "name": "issuedAt",
              "type": "uint256"
            },
            {
              "internalType": "uint256",
              "name": "expiresAt",
              "type": "uint256"
            },
            {
              "internalType": "bool",
              "name": "isActive",
              "type": "bool"
            }
          ],
          "internalType": "struct CredentialRegistry.MerkleCredential",
          "name": "",
          "type": "tuple"
        }
      ],
      "stateMutability": "view",
      "type": "function"
    },
    {
      "inputs": [
        {
          "internalType": "uint256",
          "name": "_credentialId",
          "type": "uint256"
        },
        {
          "internalType": "address",
          "name": "_holder",
          "type": "address"
        }
      ],
      "name": "getMerkleRoot",
      "outputs": [
        {
          "internalType": "bytes32",
          "name": "",
          "type": "bytes32"
        }
      ],
      "stateMutability": "view",
      "type": "function"
    },
    {
      "inputs": [
        {
          "internalType": "address",
          "name": "_holder",
          "type": "address"
        }
      ],
      "name": "getOffChainNonce",
      "outputs": [
        {
          "internalType": "uint256",
          "name": "",
          "type": "uint256"
        }
      ],
      "stateMutability": "view",
      "type": "function"
    },
    {
      "inputs": [],
      "name": "getTotalCredentials",
      "outputs": [
        {
          "internalType": "uint256",
          "name": "",
          "type": "uint256"
        }
      ],
      "stateMutability": "view",
      "type": "function"
    },
    {
      "inputs": [],
      "name": "getTotalRequests",
      "outputs": [
        {
          "internalType": "uint256",
          "name": "",
          "type": "uint256"
        }
      ],
      "stateMutability": "view",
      "type": "function"
    },
    {
      "inputs": [
        {
          "internalType": "uint256",
          "name": "_requestId",
          "type": "uint256"
        }
      ],
      "name": "getVerificationRequest",
      "outputs": [
        {
          "components": [
            {
              "internalType": "uint256",
              "name": "id",
              "type": "uint256"
            },
            {
              "internalType": "address",
              "name": "verifier",
              "type": "address"
            },
            {
              "internalType": "address",
              "name": "holder",
              "type": "address"
            },
            {
              "internalType": "uint256",
              "name": "credentialId",
              "type": "uint256"
            },
            {
              "internalType": "string",
              "name": "message",
              "type": "string"
            },
            {
              "internalType": "bool",
              "name": "isApproved",
              "type": "bool"
            },
            {
              "internalType": "bool",
              "name": "isProcessed",
              "type": "bool"
            },
            {
              "internalType": "uint256",
              "name": "requestedAt",
              "type": "uint256"
            },
            {
              "internalType": "uint256",
              "name": "processedAt",
              "type": "uint256"
            }
          ],
          "internalType": "struct CredentialRegistry.VerificationRequest",
          "name": "",
          "type": "tuple"
        }
      ],
      "stateMutability": "view",
      "type": "function"
    },
    {
      "inputs": [
        {
          "internalType": "address",
          "name": "_verifier",
          "type": "address"
        }
      ],
      "name": "getVerifierRequests",
      "outputs": [
        {
          "internalType": "uint256[]",
          "name": "",
          "type": "uint256[]"
        }
      ],
      "stateMutability": "view",
      "type": "function"
    },
    {
      "inputs": [
        {
          "internalType": "address",
          "name": "",
          "type": "address"
        },
        {
          "internalType": "uint256",
          "name": "",
          "type": "uint256"
        }
      ],
      "name": "holderCredentials",
      "outputs": [
        {
          "internalType": "uint256",
          "name": "",
          "type": "uint256"
        }
      ],
      "stateMutability": "view",
      "type": "function"
    },
    {
      "inputs": [
        {
          "internalType": "address",
          "name": "",
          "type": "address"
        },
        {
          "internalType": "uint256",
          "name": "",
          "type": "uint256"
        }
      ],
      "name": "holderMerkleCredentials",
      "outputs": [
        {
          "internalType": "uint256",
          "name": "",
          "type": "uint256"
        }
      ],
      "stateMutability": "view",
      "type": "function"
    },
    {
      "inputs": [
        {
          "internalType": "address",
          "name": "",
          "type": "address"
        },
        {
          "internalType": "uint256",
          "name": "",
          "type": "uint256"
        }
      ],
      "name": "holderRequests",
      "outputs": [
        {
          "internalType": "uint256",
          "name": "",
          "type": "uint256"
        }
      ],
      "stateMutability": "view",
      "type": "function"
    },
    {
      "inputs": [
        {
          "internalType": "uint256",
          "name": "_credentialId",
          "type": "uint256"
        }
      ],
      "name": "isCredentialValid",
      "outputs": [
        {
          "internalType": "bool",
          "name": "",
          "type": "bool"
        }
      ],
      "stateMutability": "view",
      "type": "function"
    },
    {
      "inputs": [
        {
          "internalType": "bytes32",
          "name": "_digest",
          "type": "bytes32"
        }
      ],
      "name": "isSignatureUsed",
      "outputs": [
        {
          "internalType": "bool",
          "name": "",
          "type": "bool"
        }
      ],
      "stateMutability": "view",
      "type": "function"
    },
    {
      "inputs": [
        {
          "internalType": "address",
          "name": "_holder",
          "type": "address"
        },
        {
          "internalType": "string",
          "name": "_credentialType",
          "type": "string"
        },
        {
          "internalType": "string",
          "name": "_data",
          "type": "string"
        },
        {
          "internalType": "uint256",
          "name": "_expiresAt",
          "type": "uint256"
        },
        {
          "internalType": "string",
          "name": "_ipfsHash",
          "type": "string"
        }
      ],
      "name": "issueCredential",
      "outputs": [
        {
          "internalType": "uint256",
          "name": "",
          "type": "uint256"
        }
      ],
      "stateMutability": "nonpayable",
      "type": "function"
    },
    {
      "inputs": [
        {
          "internalType": "address",
          "name": "_holder",
          "type": "address"
        },
        {
          "internalType": "string",
          "name": "_credentialType",
          "type": "string"
        },
        {
          "internalType": "string",
          "name": "_data",
          "type": "string"
        },
        {
          "internalType": "uint256",
          "name": "_expiresAt",
          "type": "uint256"
        },
        {
          "internalType": "uint256",
          "name": "_nonce",
          "type": "uint256"
        },
        {
          "internalType": "bytes",
          "name": "_signature",
          "type": "bytes"
        }
      ],
      "name": "issueCredentialWithSignature",
      "outputs": [
        {
          "internalType": "bytes32",
          "name": "",
          "type": "bytes32"
        }
      ],
      "stateMutability": "nonpayable",
      "type": "function"
    },
    {
      "inputs": [
        {
          "internalType": "address",
          "name": "",
          "type": "address"
        },
        {
          "internalType": "uint256",
          "name": "",
          "type": "uint256"
        }
      ],
      "name": "issuerCredentials",
      "outputs": [
        {
          "internalType": "uint256",
          "name": "",
          "type": "uint256"
        }
      ],
      "stateMutability": "view",
      "type": "function"
    },
    {
      "inputs": [],
      "name": "issuerRegistry",
      "outputs": [
        {
          "internalType": "contract IssuerRegistry",
          "name": "",
          "type": "address"
        }
      ],
      "stateMutability": "view",
      "type": "function"
    },
    {
      "inputs": [
        {
          "internalType": "uint256",
          "name": "",
          "type": "uint256"
        }
      ],
      "name": "merkleCredentials",
      "outputs": [
        {
          "internalType": "uint256",
          "name": "id",
          "type": "uint256"
        },
        {
          "internalType": "bytes32",
          "name": "merkleRoot",
          "type": "bytes32"
        },
        {
          "internalType": "address",
          "name": "issuer",
          "type": "address"
        },
        {
          "internalType": "address",
          "name": "holder",
          "type": "address"
        },
        {
          "internalType": "string",
          "name": "credentialType",
          "type": "string"
        },
        {
          "internalType": "uint256",
          "name": "issuedAt",
          "type": "uint256"
        },
        {
          "internalType": "uint256",
          "name": "expiresAt",
          "type": "uint256"
        },
        {
          "internalType": "bool",
          "name": "isActive",
          "type": "bool"
        }
      ],
      "stateMutability": "view",
      "type": "function"
    },
    {
      "inputs": [],
      "name": "nextCredentialId",
      "outputs": [
        {
          "internalType": "uint256",
          "name": "",
          "type": "uint256"
        }
      ],
      "stateMutability": "view",
      "type": "function"
    },
    {
      "inputs": [],
      "name": "nextMerkleCredentialId",
      "outputs": [
        {
          "internalType": "uint256",
          "name": "",
          "type": "uint256"
        }
      ],
      "stateMutability": "view",
      "type": "function"
    },
    {
      "inputs": [],
      "name": "nextRequestId",
      "outputs": [
        {
          "internalType": "uint256",
          "name": "",
          "type": "uint256"
        }
      ],
      "stateMutability": "view",
      "type": "function"
    },
    {
      "inputs": [
        {
          "internalType": "address",
          "name": "",
          "type": "address"
        }
      ],
      "name": "offChainNonces",
      "outputs": [
        {
          "internalType": "uint256",
          "name": "",
          "type": "uint256"
        }
      ],
      "stateMutability": "view",
      "type": "function"
    },
    {
      "inputs": [
        {
          "internalType": "uint256",
          "name": "_requestId",
          "type": "uint256"
        },
        {
          "internalType": "bool",
          "name": "_approve",
          "type": "bool"
        }
      ],
      "name": "processVerificationRequest",
      "outputs": [],
      "stateMutability": "nonpayable",
      "type": "function"
    },
    {
      "inputs": [
        {
          "internalType": "address",
          "name": "_holder",
          "type": "address"
        },
        {
          "internalType": "uint256",
          "name": "_credentialId",
          "type": "uint256"
        },
        {
          "internalType": "string",
          "name": "_message",
          "type": "string"
        }
      ],
      "name": "requestVerification",
      "outputs": [
        {
          "internalType": "uint256",
          "name": "",
          "type": "uint256"
        }
      ],
      "stateMutability": "nonpayable",
      "type": "function"
    },
    {
      "inputs": [
        {
          "internalType": "uint256",
          "name": "_credentialId",
          "type": "uint256"
        }
      ],
      "name": "revokeCredential",
      "outputs": [],
      "stateMutability": "nonpayable",
      "type": "function"
    },
    {
      "inputs": [
        {
          "internalType": "bytes32",
          "name": "",
          "type": "bytes32"
        }
      ],
      "name": "usedMerkleroots",
      "outputs": [
        {
          "internalType": "bool",
          "name": "",
          "type": "bool"
        }
      ],
      "stateMutability": "view",
      "type": "function"
    },
    {
      "inputs": [
        {
          "internalType": "bytes32",
          "name": "",
          "type": "bytes32"
        }
      ],
      "name": "usedSignatures",
      "outputs": [
        {
          "internalType": "bool",
          "name": "",
          "type": "bool"
        }
      ],
      "stateMutability": "view",
      "type": "function"
    },
    {
      "inputs": [
        {
          "internalType": "uint256",
          "name": "",
          "type": "uint256"
        }
      ],
      "name": "verificationRequests",
      "outputs": [
        {
          "internalType": "uint256",
          "name": "id",
          "type": "uint256"
        },
        {
          "internalType": "address",
          "name": "verifier",
          "type": "address"
        },
        {
          "internalType": "address",
          "name": "holder",
          "type": "address"
        },
        {
          "internalType": "uint256",
          "name": "credentialId",
          "type": "uint256"
        },
        {
          "internalType": "string",
          "name": "message",
          "type": "string"
        },
        {
          "internalType": "bool",
          "name": "isApproved",
          "type": "bool"
        },
        {
          "internalType": "bool",
          "name": "isProcessed",
          "type": "bool"
        },
        {
          "internalType": "uint256",
          "name": "requestedAt",
          "type": "uint256"
        },
        {
          "internalType": "uint256",
          "name": "processedAt",
          "type": "uint256"
        }
      ],
      "stateMutability": "view",
      "type": "function"
    },
    {
      "inputs": [
        {
          "internalType": "address",
          "name": "",
          "type": "address"
        },
        {
          "internalType": "uint256",
          "name": "",
          "type": "uint256"
        }
      ],
      "name": "verifierRequests",
      "outputs": [
        {
          "internalType": "uint256",
          "name": "",
          "type": "uint256"
        }
      ],
      "stateMutability": "view",
      "type": "function"
    },
    {
      "inputs": [
        {
          "internalType": "uint256",
          "name": "_credentialId",
          "type": "uint256"
        },
        {
          "internalType": "bytes32",
          "name": "_leaf",
          "type": "bytes32"
        },
        {
          "internalType": "bytes32[]",
          "name": "_proof",
          "type": "bytes32[]"
        }
      ],
      "name": "verifyMerkleProof",
      "outputs": [
        {
          "internalType": "bool",
          "name": "",
          "type": "bool"
        }
      ],
      "stateMutability": "view",
      "type": "function"
    },
    {
      "inputs": [
        {
          "internalType": "address",
          "name": "_issuer",
          "type": "address"
        },
        {
          "internalType": "address",
          "name": "_holder",
          "type": "address"
        },
        {
          "internalType": "string",
          "name": "_credentialType",
          "type": "string"
        },
        {
          "internalType": "string",
          "name": "_data",
          "type": "string"
        },
        {
          "internalType": "uint256",
          "name": "_expiresAt",
          "type": "uint256"
        },
        {
          "internalType": "uint256",
          "name": "_nonce",
          "type": "uint256"
        },
        {
          "internalType": "bytes",
          "name": "_signature",
          "type": "bytes"
        }
      ],
      "name": "verifyOffChainCredential",
      "outputs": [
        {
          "internalType": "bool",
          "name": "",
          "type": "bool"
        }
      ],
      "stateMutability": "view",
      "type": "function"
    },
    {
      "inputs": [
        {
          "internalType": "uint256",
          "name": "_credentialId",
          "type": "uint256"
        },
        {
          "internalType": "bytes32",
          "name": "_attributeHash",
          "type": "bytes32"
        },
        {
          "internalType": "uint256",
          "name": "_index",
          "type": "uint256"
        },
        {
          "internalType": "bytes32[]",
          "name": "_proof",
          "type": "bytes32[]"
        }
      ],
      "name": "verifySelectiveDisclosure",
      "outputs": [
        {
          "internalType": "bool",
          "name": "",
          "type": "bool"
        }
      ],
      "stateMutability": "view",
      "type": "function"
    }
  ],
  "bytecode": "0x60a06040526001600d556001600e556001600f553480156200002057600080fd5b5060405162003e3a38038062003e3a8339810160408190526200004391620001c3565b6001600160a01b038116608052604051620000c5906020017f454950373132446f6d61696e28737472696e67206e616d652c737472696e672081527f76657273696f6e2c75696e7432353620636861696e49642c6164647265737320602082015271766572696679696e67436f6e74726163742960701b604082015260520190565b604051602081830303815290604052805190602001206040518060400160405280601a81526020017f43726564656e636543726564656e7469616c5265676973747279000000000000815250604051602001620001239190620001f5565b60405160208183030381529060405280519060200120604051806040016040528060018152602001603160f81b815250604051602001620001659190620001f5565b60408051601f1981840301815282825280516020918201209083019490945281019190915260608101919091524660808201523060a082015260c00160408051601f1981840301815291905280516020909101206000555062000226565b600060208284031215620001d657600080fd5b81516001600160a01b0381168114620001ee57600080fd5b9392505050565b6000825160005b81811015620002185760208186018101518583015201620001fc565b506000920191825250919050565b608051613bc06200027a60003960008181610484015281816107f8015281816108c901528181610c1e0152818161175b0152818161184001528181611a9f0152818161219701526122680152613bc06000f3fe608060405234801561001057600080fd5b506004361061025e5760003560e01c80638bfc185111610146578063d8202ffb116100c3578063ed24911d11610087578063ed24911d146105fb578063f0e22d5214610603578063f1470a351461060b578063f4c6a82214610613578063f7aa022c14610626578063f978fd611461063957600080fd5b8063d8202ffb14610591578063dd740d79146105a4578063e0574e3f146105b7578063e1e98573146105e0578063e9e37f3e146105f357600080fd5b80639c19485e1161010a5780639c19485e14610524578063a3e63c7214610537578063aaef26301461054a578063adab01b914610575578063cc51207b1461058857600080fd5b80638bfc18511461047f5780638d184432146104be5780638dd18d2d146104d15780638feba9eb146104f157806396bfb3211461051157600080fd5b80633644e515116101df578063577042cd116101a3578063577042cd146104035780636a84a985146104165780636da48b9a1461041f5780636f896657146104325780637a9af35b14610445578063837804221461046c57600080fd5b80633644e5151461036657806336c3dbd41461036f5780634089d49f1461038f5780634d80efae146103b7578063551a7bdf146103da57600080fd5b806322ccb4741161022657806322ccb474146102e75780632436670a146103075780632b186c941461031a5780632deddeb71461033d578063341f02ec1461035d57600080fd5b80630455b4c414610263578063053cd2551461028b5780631abac44b146102ac5780631b87278d146102bf5780631e48169d146102d4575b600080fd5b610276610271366004612e0d565b61065c565b60405190151581526020015b60405180910390f35b61029e610299366004612f70565b6107e0565b604051908152602001610282565b61029e6102ba366004613014565b610cd3565b6102d26102cd366004613040565b610d04565b005b61029e6102e2366004613014565b610e84565b6102fa6102f5366004613040565b610ea0565b60405161028291906130a9565b61029e610315366004613014565b611060565b610276610328366004613040565b60086020526000908152604090205460ff1681565b61035061034b366004613150565b61107c565b604051610282919061316d565b61029e600d5481565b61029e60005481565b61038261037d366004613040565b6110e8565b60405161028291906131b1565b6103a261039d366004613040565b61123b565b60405161028299989796959493929190613238565b6102766103c5366004613040565b6000908152600c602052604090205460ff1690565b61029e6103e8366004613150565b6001600160a01b03166000908152600b602052604090205490565b61029e610411366004613014565b611320565b61029e600f5481565b61027661042d366004613040565b61133c565b61029e6104403660046132dd565b61159d565b610458610453366004613040565b611966565b604051610282989796959493929190613391565b61027661047a3660046133ee565b611a43565b6104a67f000000000000000000000000000000000000000000000000000000000000000081565b6040516001600160a01b039091168152602001610282565b6103506104cc366004613150565b611b34565b6104e46104df366004613040565b611b9e565b60405161028291906134b4565b61029e6104ff366004613150565b600b6020526000908152604090205481565b61029e61051f366004613590565b611e77565b61029e610532366004613014565b612163565b61029e6105453660046135e8565b61217f565b61029e610558366004613014565b600960209081526000928352604080842090915290825290205481565b61029e610583366004613647565b612555565b61029e600e5481565b61035061059f366004613150565b612580565b6103506105b2366004613150565b6125ea565b6105ca6105c5366004613040565b612654565b6040516102829a99989796959493929190613677565b6102766105ee366004613701565b612851565b61029e6129dd565b60005461029e565b61029e612a86565b61029e612a9c565b610350610621366004613150565b612aad565b6102d2610634366004613761565b612b17565b610276610647366004613040565b600c6020526000908152604090205460ff1681565b600080858560405160200161067b929190918252602082015260400190565b60408051601f19818403018152918152815160209283012060008a81526007909352912080549192509088146106cc5760405162461bcd60e51b81526004016106c390613786565b60405180910390fd5b600781015460ff166106f05760405162461bcd60e51b81526004016106c3906137bd565b8160005b858110156107cc5786868281811061070e5761070e6137f4565b9050602002013582101561076d578187878381811061072f5761072f6137f4565b90506020020135604051602001610750929190918252602082015260400190565b6040516020818303038152906040528051906020012091506107ba565b86868281811061077f5761077f6137f4565b90506020020135826040516020016107a1929190918252602082015260400190565b6040516020818303038152906040528051906020012091505b806107c481613820565b9150506106f4565b506001909101541491505095945050505050565b604051632d33d7d560e01b81523360048201526000907f00000000000000000000000000000000000000000000000000000000000000006001600160a01b031690632d33d7d590602401602060405180830381865afa158015610847573d6000803e3d6000fd5b505050506040513d601f19601f8201168201806040525081019061086b9190613849565b6108b15760405162461bcd60e51b81526020600482015260176024820152762737ba1030903932b3b4b9ba32b932b21034b9b9bab2b960491b60448201526064016106c3565b60405163fef03da360e01b81523360048201526000907f00000000000000000000000000000000000000000000000000000000000000006001600160a01b03169063fef03da390602401600060405180830381865afa158015610918573d6000803e3d6000fd5b505050506040513d6000823e601f3d908101601f1916820160405261094091908101906138be565b905080608001516109635760405162461bcd60e51b81526004016106c3906139ab565b6001600160a01b0387166109895760405162461bcd60e51b81526004016106c3906139d9565b60008651116109da5760405162461bcd60e51b815260206004820152601f60248201527f43726564656e7469616c20747970652063616e6e6f7420626520656d7074790060448201526064016106c3565b6000855111610a2b5760405162461bcd60e51b815260206004820152601f60248201527f43726564656e7469616c20646174612063616e6e6f7420626520656d7074790060448201526064016106c3565b428411610a885760405162461bcd60e51b815260206004820152602560248201527f45787069726174696f6e2064617465206d75737420626520696e207468652066604482015264757475726560d81b60648201526084016106c3565b600d805460009182610a9983613820565b9091555060408051610140810182528281523360208083019182526001600160a01b038d8116848601908152606085018e8152608086018e90524260a087015260c086018d9052600160e087018190526000610100880181905261012088018e9052898152948190529690932085518155935195840180546001600160a01b0319908116978416979097179055516002840180549096169116179093559151929350916003820190610b4b9082613a92565b5060808201516004820190610b609082613a92565b5060a0820151600582015560c0820151600682015560e08201516007820180546101008086015115150261ff00199315159390931661ffff19909116179190911790556101208201516008820190610bb89082613a92565b5050506001600160a01b0388811660009081526002602090815260408083208054600180820183559185528385200186905533808552600384528285208054928301815585529290932090920184905590516327667d1b60e21b815260048101919091527f000000000000000000000000000000000000000000000000000000000000000090911690639d99f46c90602401600060405180830381600087803b158015610c6457600080fd5b505af1158015610c78573d6000803e3d6000fd5b50505050876001600160a01b0316336001600160a01b0316827fd1de861db6c309080253d2536a1767c11ee81a3fb2ab87b4e83aa298c2bcbc8d8a604051610cc09190613b51565b60405180910390a4979650505050505050565b60036020528160005260406000208181548110610cef57600080fd5b90600052602060002001600091509150505481565b6000818152600160208190526040909120015481906001600160a01b03163314610d705760405162461bcd60e51b815260206004820152601960248201527f4e6f74207468652063726564656e7469616c206973737565720000000000000060448201526064016106c3565b60008281526001602052604090206007015460ff16610dd15760405162461bcd60e51b815260206004820152601e60248201527f43726564656e7469616c20697320616c726561647920696e616374697665000060448201526064016106c3565b600082815260016020526040902060070154610100900460ff1615610e385760405162461bcd60e51b815260206004820152601d60248201527f43726564656e7469616c20697320616c7265616479207265766f6b656400000060448201526064016106c3565b600082815260016020526040808220600701805461ffff191661010017905551339184917f936526f4a3155895d9f01699716f2e0c548d726a24a1437e5ce92b3dacaad35b9190a35050565b60026020528160005260406000208181548110610cef57600080fd5b60408051610120810182526000808252602082018190529181018290526060808201839052608082015260a0810182905260c0810182905260e081018290526101008101919091526000828152600460205260408120549003610f3e5760405162461bcd60e51b815260206004820152601660248201527514995c5d595cdd08191bd95cc81b9bdd08195e1a5cdd60521b60448201526064016106c3565b6000828152600460208181526040928390208351610120810185528154815260018201546001600160a01b0390811693820193909352600282015490921693820193909352600383015460608201529082018054919291608084019190610fa490613a09565b80601f0160208091040260200160405190810160405280929190818152602001828054610fd090613a09565b801561101d5780601f10610ff25761010080835404028352916020019161101d565b820191906000526020600020905b81548152906001019060200180831161100057829003601f168201915b5050509183525050600582015460ff8082161515602084015261010090910416151560408201526006820154606082015260079091015460809091015292915050565b60066020528160005260406000208181548110610cef57600080fd5b6001600160a01b0381166000908152600560209081526040918290208054835181840281018401909452808452606093928301828280156110dc57602002820191906000526020600020905b8154815260200190600101908083116110c8575b50505050509050919050565b60408051610100810182526000808252602082018190529181018290526060808201839052608082015260a0810182905260c0810182905260e08101919091526000828152600760209081526040918290208251610100810184528154815260018201549281019290925260028101546001600160a01b03908116938301939093526003810154909216606082015260048201805491929160808401919061118f90613a09565b80601f01602080910402602001604051908101604052809291908181526020018280546111bb90613a09565b80156112085780601f106111dd57610100808354040283529160200191611208565b820191906000526020600020905b8154815290600101906020018083116111eb57829003601f168201915b5050509183525050600582015460208201526006820154604082015260079091015460ff16151560609091015292915050565b60046020819052600091825260409091208054600182015460028301546003840154948401805493956001600160a01b0393841695929093169361127e90613a09565b80601f01602080910402602001604051908101604052809291908181526020018280546112aa90613a09565b80156112f75780601f106112cc576101008083540402835291602001916112f7565b820191906000526020600020905b8154815290600101906020018083116112da57829003601f168201915b50505060058401546006850154600790950154939460ff80831695610100909304169350915089565b60056020528160005260406000208181548110610cef57600080fd5b600081815260016020818152604080842081516101408101835281548152938101546001600160a01b039081169385019390935260028101549092169083015260038101805484939291606084019161139490613a09565b80601f01602080910402602001604051908101604052809291908181526020018280546113c090613a09565b801561140d5780601f106113e25761010080835404028352916020019161140d565b820191906000526020600020905b8154815290600101906020018083116113f057829003601f168201915b5050505050815260200160048201805461142690613a09565b80601f016020809104026020016040519081016040528092919081815260200182805461145290613a09565b801561149f5780601f106114745761010080835404028352916020019161149f565b820191906000526020600020905b81548152906001019060200180831161148257829003601f168201915b50505091835250506005820154602082015260068201546040820152600782015460ff80821615156060840152610100909104161515608082015260088201805460a0909201916114ef90613a09565b80601f016020809104026020016040519081016040528092919081815260200182805461151b90613a09565b80156115685780601f1061153d57610100808354040283529160200191611568565b820191906000526020600020905b81548152906001019060200180831161154b57829003601f168201915b50505050508152505090508060e0015180156115875750806101000151155b80156115965750428160c00151115b9392505050565b60006001600160a01b0388166115c55760405162461bcd60e51b81526004016106c3906139d9565b60008751116116165760405162461bcd60e51b815260206004820152601f60248201527f43726564656e7469616c20747970652063616e6e6f7420626520656d7074790060448201526064016106c3565b4285116116655760405162461bcd60e51b815260206004820152601c60248201527f45787069726174696f6e206d75737420626520696e206675747572650000000060448201526064016106c3565b6001600160a01b0388166000908152600b60205260409020548410156116c25760405162461bcd60e51b8152602060048201526012602482015271139bdb98d948185b1c9958591e481d5cd95960721b60448201526064016106c3565b60006116d18989898989612c42565b6000818152600c602052604090205490915060ff161561172c5760405162461bcd60e51b815260206004820152601660248201527514da59db985d1d5c9948185b1c9958591e481d5cd95960521b60448201526064016106c3565b6000611739828686612cf9565b604051632d33d7d560e01b81526001600160a01b0380831660048301529192507f000000000000000000000000000000000000000000000000000000000000000090911690632d33d7d590602401602060405180830381865afa1580156117a4573d6000803e3d6000fd5b505050506040513d601f19601f820116820180604052508101906117c89190613849565b61181e5760405162461bcd60e51b815260206004820152602160248201527f5369676e6572206973206e6f74206120726567697374657265642069737375656044820152603960f91b60648201526084016106c3565b60405163fef03da360e01b81526001600160a01b0382811660048301526000917f00000000000000000000000000000000000000000000000000000000000000009091169063fef03da390602401600060405180830381865afa158015611889573d6000803e3d6000fd5b505050506040513d6000823e601f3d908101601f191682016040526118b191908101906138be565b905080608001516118d45760405162461bcd60e51b81526004016106c3906139ab565b6000838152600c60205260409020805460ff191660019081179091556118fb908890613b64565b6001600160a01b03808d166000818152600b6020526040908190209390935591519084169085907f562adb1056b74c5b8a145c273d59b4554bea3cd636e9b490a488d416d04fc3aa9061194f908f90613b51565b60405180910390a450909998505050505050505050565b60076020526000908152604090208054600182015460028301546003840154600485018054949593946001600160a01b039384169492909316926119a990613a09565b80601f01602080910402602001604051908101604052809291908181526020018280546119d590613a09565b8015611a225780601f106119f757610100808354040283529160200191611a22565b820191906000526020600020905b815481529060010190602001808311611a0557829003601f168201915b50505050600583015460068401546007909401549293909290915060ff1688565b600080611a538989898989612c42565b90506000611a62828686612cf9565b90508a6001600160a01b0316816001600160a01b0316148015611b0a5750604051632d33d7d560e01b81526001600160a01b038c811660048301527f00000000000000000000000000000000000000000000000000000000000000001690632d33d7d590602401602060405180830381865afa158015611ae6573d6000803e3d6000fd5b505050506040513d601f19601f82011682018060405250810190611b0a9190613849565b8015611b2557506000828152600c602052604090205460ff16155b9b9a5050505050505050505050565b6001600160a01b0381166000908152600260209081526040918290208054835181840281018401909452808452606093928301828280156110dc57602002820191906000526020600020908154815260200190600101908083116110c85750505050509050919050565b611c0a6040518061014001604052806000815260200160006001600160a01b0316815260200160006001600160a01b0316815260200160608152602001606081526020016000815260200160008152602001600015158152602001600015158152602001606081525090565b6000828152600160205260408120549003611c375760405162461bcd60e51b81526004016106c390613786565b60008281526001602081815260409283902083516101408101855281548152928101546001600160a01b0390811692840192909252600281015490911692820192909252600382018054919291606084019190611c9390613a09565b80601f0160208091040260200160405190810160405280929190818152602001828054611cbf90613a09565b8015611d0c5780601f10611ce157610100808354040283529160200191611d0c565b820191906000526020600020905b815481529060010190602001808311611cef57829003601f168201915b50505050508152602001600482018054611d2590613a09565b80601f0160208091040260200160405190810160405280929190818152602001828054611d5190613a09565b8015611d9e5780601f10611d7357610100808354040283529160200191611d9e565b820191906000526020600020905b815481529060010190602001808311611d8157829003601f168201915b50505091835250506005820154602082015260068201546040820152600782015460ff80821615156060840152610100909104161515608082015260088201805460a090920191611dee90613a09565b80601f0160208091040260200160405190810160405280929190818152602001828054611e1a90613a09565b8015611e675780601f10611e3c57610100808354040283529160200191611e67565b820191906000526020600020905b815481529060010190602001808311611e4a57829003601f168201915b5050505050815250509050919050565b6000828152600160205260408120600201546001600160a01b03858116911614611ee35760405162461bcd60e51b815260206004820152601960248201527f496e76616c69642063726564656e7469616c20686f6c6465720000000000000060448201526064016106c3565b60008381526001602052604090206007015460ff16611f145760405162461bcd60e51b81526004016106c3906137bd565b600083815260016020526040902060070154610100900460ff1615611f735760405162461bcd60e51b815260206004820152601560248201527410dc9959195b9d1a585b081a5cc81c995d9bdad959605a1b60448201526064016106c3565b6000838152600160205260409020600601544210611fcc5760405162461bcd60e51b815260206004820152601660248201527510dc9959195b9d1a585b081a185cc8195e1c1a5c995960521b60448201526064016106c3565b600f805460009182611fdd83613820565b9091555060408051610120810182528281523360208083019182526001600160a01b038a8116848601908152606085018b8152608086018b8152600060a0880181905260c088018190524260e08901526101008801819052898152600495869052979097208651815594516001860180549185166001600160a01b03199283161790559151600286018054919094169216919091179091555160038301559251939450909290918201906120919082613a92565b5060a08201516005828101805460c086015161ffff1990911693151561ff00191693909317610100931515840217905560e0840151600680850191909155919093015160079092019190915533600081815260209384526040808220805460018181018355918452868420018790556001600160a01b038b1680845294865281832080549182018155835291859020909101859055518781529192909184917ff97c0a5fb4c2f4501c93550763dba1659f6f19644029f8fad56b3f9ffd921e58910160405180910390a4949350505050565b600a6020528160005260406000208181548110610cef57600080fd5b604051632d33d7d560e01b81523360048201526000907f00000000000000000000000000000000000000000000000000000000000000006001600160a01b031690632d33d7d590602401602060405180830381865afa1580156121e6573d6000803e3d6000fd5b505050506040513d601f19601f8201168201806040525081019061220a9190613849565b6122505760405162461bcd60e51b81526020600482015260176024820152762737ba1030903932b3b4b9ba32b932b21034b9b9bab2b960491b60448201526064016106c3565b60405163fef03da360e01b81523360048201526000907f00000000000000000000000000000000000000000000000000000000000000006001600160a01b03169063fef03da390602401600060405180830381865afa1580156122b7573d6000803e3d6000fd5b505050506040513d6000823e601f3d908101601f191682016040526122df91908101906138be565b905080608001516123025760405162461bcd60e51b81526004016106c3906139ab565b6001600160a01b0386166123285760405162461bcd60e51b81526004016106c3906139d9565b8361236b5760405162461bcd60e51b8152602060048201526013602482015272125b9d985b1a59081b595c9adb19481c9bdbdd606a1b60448201526064016106c3565b60008481526008602052604090205460ff16156123ca5760405162461bcd60e51b815260206004820152601860248201527f4d65726b6c6520726f6f7420616c72656164792075736564000000000000000060448201526064016106c3565b600e8054600091826123db83613820565b9091555060408051610100810182528281526020808201898152338385019081526001600160a01b038d811660608601908152608086018e81524260a088015260c087018d9052600160e0880181905260008a81526007909752979095208651815593519684019690965590516002830180546001600160a01b03199081169284169290921790559451600383018054909616911617909355519293509160048201906124889082613a92565b5060a0820151600582015560c0820151600682015560e0909101516007909101805491151560ff199283161790556001600160a01b038816600081815260096020908152604080832086845282528083208a9055838352600a8252808320805460018181018355918552838520018790558a84526008909252918290208054909416179092559051339083907ff1a3c214f89987a85eed2a8da429436cd31309f80805f725f089a0ec250202f890612543908a815260200190565b60405180910390a49695505050505050565b6001600160a01b03811660009081526009602090815260408083208584529091529020545b92915050565b6001600160a01b0381166000908152600360209081526040918290208054835181840281018401909452808452606093928301828280156110dc57602002820191906000526020600020908154815260200190600101908083116110c85750505050509050919050565b6001600160a01b0381166000908152600660209081526040918290208054835181840281018401909452808452606093928301828280156110dc57602002820191906000526020600020908154815260200190600101908083116110c85750505050509050919050565b600160208190526000918252604090912080549181015460028201546003830180546001600160a01b0393841694929093169261269090613a09565b80601f01602080910402602001604051908101604052809291908181526020018280546126bc90613a09565b80156127095780601f106126de57610100808354040283529160200191612709565b820191906000526020600020905b8154815290600101906020018083116126ec57829003601f168201915b50505050509080600401805461271e90613a09565b80601f016020809104026020016040519081016040528092919081815260200182805461274a90613a09565b80156127975780601f1061276c57610100808354040283529160200191612797565b820191906000526020600020905b81548152906001019060200180831161277a57829003601f168201915b505050506005830154600684015460078501546008860180549596939592945060ff8083169461010090930416926127ce90613a09565b80601f01602080910402602001604051908101604052809291908181526020018280546127fa90613a09565b80156128475780601f1061281c57610100808354040283529160200191612847565b820191906000526020600020905b81548152906001019060200180831161282a57829003601f168201915b505050505090508a565b60008481526007602052604081208054861461287f5760405162461bcd60e51b81526004016106c390613786565b600781015460ff166128a35760405162461bcd60e51b81526004016106c3906137bd565b428160060154116128ef5760405162461bcd60e51b815260206004820152601660248201527510dc9959195b9d1a585b081a185cc8195e1c1a5c995960521b60448201526064016106c3565b8460005b848110156129cb5785858281811061290d5761290d6137f4565b9050602002013582101561296c578186868381811061292e5761292e6137f4565b9050602002013560405160200161294f929190918252602082015260400190565b6040516020818303038152906040528051906020012091506129b9565b85858281811061297e5761297e6137f4565b90506020020135826040516020016129a0929190918252602082015260400190565b6040516020818303038152906040528051906020012091505b806129c381613820565b9150506128f3565b50600190910154149050949350505050565b6000604051602001612a6b907f4f6666436861696e43726564656e7469616c286164647265737320686f6c646581527f722c737472696e672063726564656e7469616c547970652c737472696e67206460208201527f6174612c75696e74323536206578706972657341742c75696e74323536206e6f6040820152636e63652960e01b606082015260640190565b60405160208183030381529060405280519060200120905090565b60006001600f54612a979190613b77565b905090565b60006001600d54612a979190613b77565b6001600160a01b0381166000908152600a60209081526040918290208054835181840281018401909452808452606093928301828280156110dc57602002820191906000526020600020908154815260200190600101908083116110c85750505050509050919050565b600082815260046020526040902060028101546001600160a01b03163314612b815760405162461bcd60e51b815260206004820152601960248201527f4e6f74207468652063726564656e7469616c20686f6c6465720000000000000060448201526064016106c3565b6005810154610100900460ff1615612bdb5760405162461bcd60e51b815260206004820152601960248201527f5265717565737420616c72656164792070726f6365737365640000000000000060448201526064016106c3565b60058101805461ff00198415151661ffff1990911617610100179055426007820155604051339084907fc9309abbb89b12a5d283fc9433c646c28705d50dde4b7b60b6c4fcd0d7bf080990612c3590861515815260200190565b60405180910390a3505050565b8351602094850120835193850193909320604080517f1f2c63694cfaf258d44872499203b070f63cfbd7abdbd7870c7d3b57142a0427818801526001600160a01b0397909716878201526060870194909452608086015260a085019190915260c0808501919091528151808503909101815260e08401825280519083012060005461190160f01b61010086015261010285015261012280850191909152815180850390910181526101429093019052815191012090565b600060418214612d4b5760405162461bcd60e51b815260206004820152601860248201527f496e76616c6964207369676e6174757265206c656e677468000000000000000060448201526064016106c3565b60408051600080825260208083018085528890528684013590911a92820183905285356060830181905290860135608083018190529092909160019060a0016020604051602081039080840390855afa158015612dac573d6000803e3d6000fd5b5050604051601f19015198975050505050505050565b60008083601f840112612dd457600080fd5b5081356001600160401b03811115612deb57600080fd5b6020830191508360208260051b8501011115612e0657600080fd5b9250929050565b600080600080600060808688031215612e2557600080fd5b85359450602086013593506040860135925060608601356001600160401b03811115612e5057600080fd5b612e5c88828901612dc2565b969995985093965092949392505050565b6001600160a01b0381168114612e8257600080fd5b50565b634e487b7160e01b600052604160045260246000fd5b60405160e081016001600160401b0381118282101715612ebd57612ebd612e85565b60405290565b604051601f8201601f191681016001600160401b0381118282101715612eeb57612eeb612e85565b604052919050565b60006001600160401b03821115612f0c57612f0c612e85565b50601f01601f191660200190565b600082601f830112612f2b57600080fd5b8135612f3e612f3982612ef3565b612ec3565b818152846020838601011115612f5357600080fd5b816020850160208301376000918101602001919091529392505050565b600080600080600060a08688031215612f8857600080fd5b8535612f9381612e6d565b945060208601356001600160401b0380821115612faf57600080fd5b612fbb89838a01612f1a565b95506040880135915080821115612fd157600080fd5b612fdd89838a01612f1a565b9450606088013593506080880135915080821115612ffa57600080fd5b5061300788828901612f1a565b9150509295509295909350565b6000806040838503121561302757600080fd5b823561303281612e6d565b946020939093013593505050565b60006020828403121561305257600080fd5b5035919050565b60005b8381101561307457818101518382015260200161305c565b50506000910152565b60008151808452613095816020860160208601613059565b601f01601f19169290920160200192915050565b6020815281516020820152600060208301516130d060408401826001600160a01b03169052565b5060408301516001600160a01b0381166060840152506060830151608083015260808301516101208060a085015261310c61014085018361307d565b915060a085015161312160c086018215159052565b5060c085015180151560e08601525060e085015161010085810191909152909401519390920192909252919050565b60006020828403121561316257600080fd5b813561159681612e6d565b6020808252825182820181905260009190848201906040850190845b818110156131a557835183529284019291840191600101613189565b50909695505050505050565b6020815281516020820152602082015160408201526000604083015160018060a01b038082166060850152806060860151166080850152505060808301516101008060a085015261320661012085018361307d565b915060a085015160c085015260c085015160e085015260e085015161322e8286018215159052565b5090949350505050565b8981526001600160a01b0389811660208301528816604082015260608101879052610120608082018190526000906132728382018961307d565b96151560a0840152505092151560c084015260e08301919091526101009091015295945050505050565b60008083601f8401126132ae57600080fd5b5081356001600160401b038111156132c557600080fd5b602083019150836020828501011115612e0657600080fd5b600080600080600080600060c0888a0312156132f857600080fd5b873561330381612e6d565b965060208801356001600160401b038082111561331f57600080fd5b61332b8b838c01612f1a565b975060408a013591508082111561334157600080fd5b61334d8b838c01612f1a565b965060608a0135955060808a0135945060a08a013591508082111561337157600080fd5b5061337e8a828b0161329c565b989b979a50959850939692959293505050565b888152602081018890526001600160a01b03878116604083015286166060820152610100608082018190526000906133cb8382018861307d565b60a0840196909652505060c0810192909252151560e09091015295945050505050565b60008060008060008060008060e0898b03121561340a57600080fd5b883561341581612e6d565b9750602089013561342581612e6d565b965060408901356001600160401b038082111561344157600080fd5b61344d8c838d01612f1a565b975060608b013591508082111561346357600080fd5b61346f8c838d01612f1a565b965060808b0135955060a08b0135945060c08b013591508082111561349357600080fd5b506134a08b828c0161329c565b999c989b5096995094979396929594505050565b6020815281516020820152600060208301516134db60408401826001600160a01b03169052565b5060408301516001600160a01b038116606084015250606083015161014080608085015261350d61016085018361307d565b91506080850151601f19808685030160a087015261352b848361307d565b935060a087015160c087015260c087015160e087015260e087015191506101006135588188018415159052565b870151915061012061356d8782018415159052565b870151868503909101838701529050613586838261307d565b9695505050505050565b6000806000606084860312156135a557600080fd5b83356135b081612e6d565b92506020840135915060408401356001600160401b038111156135d257600080fd5b6135de86828701612f1a565b9150509250925092565b600080600080608085870312156135fe57600080fd5b843561360981612e6d565b935060208501356001600160401b0381111561362457600080fd5b61363087828801612f1a565b949794965050505060408301359260600135919050565b6000806040838503121561365a57600080fd5b82359150602083013561366c81612e6d565b809150509250929050565b8a81526001600160a01b038a8116602083015289166040820152610140606082018190526000906136aa8382018b61307d565b905082810360808401526136be818a61307d565b90508760a08401528660c084015285151560e08401528415156101008401528281036101208401526136f0818561307d565b9d9c50505050505050505050505050565b6000806000806060858703121561371757600080fd5b843593506020850135925060408501356001600160401b0381111561373b57600080fd5b61374787828801612dc2565b95989497509550505050565b8015158114612e8257600080fd5b6000806040838503121561377457600080fd5b82359150602083013561366c81613753565b60208082526019908201527f43726564656e7469616c20646f6573206e6f7420657869737400000000000000604082015260600190565b60208082526018908201527f43726564656e7469616c206973206e6f74206163746976650000000000000000604082015260600190565b634e487b7160e01b600052603260045260246000fd5b634e487b7160e01b600052601160045260246000fd5b6000600182016138325761383261380a565b5060010190565b805161384481613753565b919050565b60006020828403121561385b57600080fd5b815161159681613753565b805161384481612e6d565b600082601f83011261388257600080fd5b8151613890612f3982612ef3565b8181528460208386010111156138a557600080fd5b6138b6826020830160208701613059565b949350505050565b6000602082840312156138d057600080fd5b81516001600160401b03808211156138e757600080fd5b9083019060e082860312156138fb57600080fd5b613903612e9b565b61390c83613866565b815260208301518281111561392057600080fd5b61392c87828601613871565b60208301525060408301518281111561394457600080fd5b61395087828601613871565b60408301525060608301518281111561396857600080fd5b61397487828601613871565b60608301525061398660808401613839565b608082015260a083015160a082015260c083015160c082015280935050505092915050565b602080825260149082015273497373756572206973206e6f742061637469766560601b604082015260600190565b602080825260169082015275496e76616c696420686f6c646572206164647265737360501b604082015260600190565b600181811c90821680613a1d57607f821691505b602082108103613a3d57634e487b7160e01b600052602260045260246000fd5b50919050565b601f821115613a8d57600081815260208120601f850160051c81016020861015613a6a5750805b601f850160051c820191505b81811015613a8957828155600101613a76565b5050505b505050565b81516001600160401b03811115613aab57613aab612e85565b613abf81613ab98454613a09565b84613a43565b602080601f831160018114613af45760008415613adc5750858301515b600019600386901b1c1916600185901b178555613a89565b600085815260208120601f198616915b82811015613b2357888601518255948401946001909101908401613b04565b5085821015613b415787850151600019600388901b60f8161c191681555b5050505050600190811b01905550565b602081526000611596602083018461307d565b8082018082111561257a5761257a61380a565b8181038181111561257a5761257a61380a56fea264697066735822122051908e702688dc20abbb0cbdd92ee2e7d66a022fa81f1011c93aef8877c29c5c64736f6c63430008130033",
  "linkReferences": {},
  "deployedLinkReferences": {}
}