{
  "_format": "hh-sol-artifact-1",
  "contractName": "CredentialRegistry",
  "sourceName": "contracts/CredentialRegistry.sol",
  "abi": [
    {
      "inputs": [
        {
          "internalType": "address",
          "name": "_issuerRegistry",
          "type": "address"
        }
      ],
      "stateMutability": "nonpayable",
      "type": "constructor"
    },
    {
      "anonymous": false,
      "inputs": [
        {
          "indexed": true,
          "internalType": "uint256",
          "name": "credentialId",
          "type": "uint256"
        },
        {
          "indexed": true,
          "internalType": "address",
          "name": "issuer",
          "type": "address"
        },
        {
          "indexed": true,
          "internalType": "address",
          "name": "holder",
          "type": "address"
        },
        {
          "indexed": false,
          "internalType": "string",
          "name": "credentialType",
          "type": "string"
        }
      ],
      "name": "CredentialIssued",
      "type": "event"
    },
    {
      "anonymous": false,
      "inputs": [
        {
          "indexed": true,
          "internalType": "uint256",
          "name": "credentialId",
          "type": "uint256"
        },
        {
          "indexed": true,
          "internalType": "address",
          "name": "issuer",
          "type": "address"
        }
      ],
      "name": "CredentialRevoked",
      "type": "event"
    },
    {
      "anonymous": false,
      "inputs": [
        {
          "indexed": true,
          "internalType": "uint256",
          "name": "requestId",
          "type": "uint256"
        },
        {
          "indexed": false,
          "internalType": "bool",
          "name": "approved",
          "type": "bool"
        },
        {
          "indexed": true,
          "internalType": "address",
          "name": "holder",
          "type": "address"
        }
      ],
      "name": "VerificationProcessed",
      "type": "event"
    },
    {
      "anonymous": false,
      "inputs": [
        {
          "indexed": true,
          "internalType": "uint256",
          "name": "requestId",
          "type": "uint256"
        },
        {
          "indexed": true,
          "internalType": "address",
          "name": "verifier",
          "type": "address"
        },
        {
          "indexed": true,
          "internalType": "address",
          "name": "holder",
          "type": "address"
        },
        {
          "indexed": false,
          "internalType": "uint256",
          "name": "credentialId",
          "type": "uint256"
        }
      ],
      "name": "VerificationRequested",
      "type": "event"
    },
    {
      "inputs": [
        {
          "internalType": "uint256",
          "name": "",
          "type": "uint256"
        }
      ],
      "name": "credentials",
      "outputs": [
        {
          "internalType": "uint256",
          "name": "id",
          "type": "uint256"
        },
        {
          "internalType": "address",
          "name": "issuer",
          "type": "address"
        },
        {
          "internalType": "address",
          "name": "holder",
          "type": "address"
        },
        {
          "internalType": "string",
          "name": "credentialType",
          "type": "string"
        },
        {
          "internalType": "string",
          "name": "data",
          "type": "string"
        },
        {
          "internalType": "uint256",
          "name": "issuedAt",
          "type": "uint256"
        },
        {
          "internalType": "uint256",
          "name": "expiresAt",
          "type": "uint256"
        },
        {
          "internalType": "bool",
          "name": "isActive",
          "type": "bool"
        },
        {
          "internalType": "bool",
          "name": "isRevoked",
          "type": "bool"
        },
        {
          "internalType": "string",
          "name": "ipfsHash",
          "type": "string"
        }
      ],
      "stateMutability": "view",
      "type": "function"
    },
    {
      "inputs": [
        {
          "internalType": "uint256",
          "name": "_credentialId",
          "type": "uint256"
        }
      ],
      "name": "getCredential",
      "outputs": [
        {
          "components": [
            {
              "internalType": "uint256",
              "name": "id",
              "type": "uint256"
            },
            {
              "internalType": "address",
              "name": "issuer",
              "type": "address"
            },
            {
              "internalType": "address",
              "name": "holder",
              "type": "address"
            },
            {
              "internalType": "string",
              "name": "credentialType",
              "type": "string"
            },
            {
              "internalType": "string",
              "name": "data",
              "type": "string"
            },
            {
              "internalType": "uint256",
              "name": "issuedAt",
              "type": "uint256"
            },
            {
              "internalType": "uint256",
              "name": "expiresAt",
              "type": "uint256"
            },
            {
              "internalType": "bool",
              "name": "isActive",
              "type": "bool"
            },
            {
              "internalType": "bool",
              "name": "isRevoked",
              "type": "bool"
            },
            {
              "internalType": "string",
              "name": "ipfsHash",
              "type": "string"
            }
          ],
          "internalType": "struct CredentialRegistry.Credential",
          "name": "",
          "type": "tuple"
        }
      ],
      "stateMutability": "view",
      "type": "function"
    },
    {
      "inputs": [
        {
          "internalType": "address",
          "name": "_holder",
          "type": "address"
        }
      ],
      "name": "getHolderCredentials",
      "outputs": [
        {
          "internalType": "uint256[]",
          "name": "",
          "type": "uint256[]"
        }
      ],
      "stateMutability": "view",
      "type": "function"
    },
    {
      "inputs": [
        {
          "internalType": "address",
          "name": "_holder",
          "type": "address"
        }
      ],
      "name": "getHolderRequests",
      "outputs": [
        {
          "internalType": "uint256[]",
          "name": "",
          "type": "uint256[]"
        }
      ],
      "stateMutability": "view",
      "type": "function"
    },
    {
      "inputs": [
        {
          "internalType": "address",
          "name": "_issuer",
          "type": "address"
        }
      ],
      "name": "getIssuerCredentials",
      "outputs": [
        {
          "internalType": "uint256[]",
          "name": "",
          "type": "uint256[]"
        }
      ],
      "stateMutability": "view",
      "type": "function"
    },
    {
      "inputs": [],
      "name": "getTotalCredentials",
      "outputs": [
        {
          "internalType": "uint256",
          "name": "",
          "type": "uint256"
        }
      ],
      "stateMutability": "view",
      "type": "function"
    },
    {
      "inputs": [],
      "name": "getTotalRequests",
      "outputs": [
        {
          "internalType": "uint256",
          "name": "",
          "type": "uint256"
        }
      ],
      "stateMutability": "view",
      "type": "function"
    },
    {
      "inputs": [
        {
          "internalType": "uint256",
          "name": "_requestId",
          "type": "uint256"
        }
      ],
      "name": "getVerificationRequest",
      "outputs": [
        {
          "components": [
            {
              "internalType": "uint256",
              "name": "id",
              "type": "uint256"
            },
            {
              "internalType": "address",
              "name": "verifier",
              "type": "address"
            },
            {
              "internalType": "address",
              "name": "holder",
              "type": "address"
            },
            {
              "internalType": "uint256",
              "name": "credentialId",
              "type": "uint256"
            },
            {
              "internalType": "string",
              "name": "message",
              "type": "string"
            },
            {
              "internalType": "bool",
              "name": "isApproved",
              "type": "bool"
            },
            {
              "internalType": "bool",
              "name": "isProcessed",
              "type": "bool"
            },
            {
              "internalType": "uint256",
              "name": "requestedAt",
              "type": "uint256"
            },
            {
              "internalType": "uint256",
              "name": "processedAt",
              "type": "uint256"
            }
          ],
          "internalType": "struct CredentialRegistry.VerificationRequest",
          "name": "",
          "type": "tuple"
        }
      ],
      "stateMutability": "view",
      "type": "function"
    },
    {
      "inputs": [
        {
          "internalType": "address",
          "name": "_verifier",
          "type": "address"
        }
      ],
      "name": "getVerifierRequests",
      "outputs": [
        {
          "internalType": "uint256[]",
          "name": "",
          "type": "uint256[]"
        }
      ],
      "stateMutability": "view",
      "type": "function"
    },
    {
      "inputs": [
        {
          "internalType": "address",
          "name": "",
          "type": "address"
        },
        {
          "internalType": "uint256",
          "name": "",
          "type": "uint256"
        }
      ],
      "name": "holderCredentials",
      "outputs": [
        {
          "internalType": "uint256",
          "name": "",
          "type": "uint256"
        }
      ],
      "stateMutability": "view",
      "type": "function"
    },
    {
      "inputs": [
        {
          "internalType": "address",
          "name": "",
          "type": "address"
        },
        {
          "internalType": "uint256",
          "name": "",
          "type": "uint256"
        }
      ],
      "name": "holderRequests",
      "outputs": [
        {
          "internalType": "uint256",
          "name": "",
          "type": "uint256"
        }
      ],
      "stateMutability": "view",
      "type": "function"
    },
    {
      "inputs": [
        {
          "internalType": "uint256",
          "name": "_credentialId",
          "type": "uint256"
        }
      ],
      "name": "isCredentialValid",
      "outputs": [
        {
          "internalType": "bool",
          "name": "",
          "type": "bool"
        }
      ],
      "stateMutability": "view",
      "type": "function"
    },
    {
      "inputs": [
        {
          "internalType": "address",
          "name": "_holder",
          "type": "address"
        },
        {
          "internalType": "string",
          "name": "_credentialType",
          "type": "string"
        },
        {
          "internalType": "string",
          "name": "_data",
          "type": "string"
        },
        {
          "internalType": "uint256",
          "name": "_expiresAt",
          "type": "uint256"
        },
        {
          "internalType": "string",
          "name": "_ipfsHash",
          "type": "string"
        }
      ],
      "name": "issueCredential",
      "outputs": [
        {
          "internalType": "uint256",
          "name": "",
          "type": "uint256"
        }
      ],
      "stateMutability": "nonpayable",
      "type": "function"
    },
    {
      "inputs": [
        {
          "internalType": "address",
          "name": "",
          "type": "address"
        },
        {
          "internalType": "uint256",
          "name": "",
          "type": "uint256"
        }
      ],
      "name": "issuerCredentials",
      "outputs": [
        {
          "internalType": "uint256",
          "name": "",
          "type": "uint256"
        }
      ],
      "stateMutability": "view",
      "type": "function"
    },
    {
      "inputs": [],
      "name": "issuerRegistry",
      "outputs": [
        {
          "internalType": "contract IssuerRegistry",
          "name": "",
          "type": "address"
        }
      ],
      "stateMutability": "view",
      "type": "function"
    },
    {
      "inputs": [],
      "name": "nextCredentialId",
      "outputs": [
        {
          "internalType": "uint256",
          "name": "",
          "type": "uint256"
        }
      ],
      "stateMutability": "view",
      "type": "function"
    },
    {
      "inputs": [],
      "name": "nextRequestId",
      "outputs": [
        {
          "internalType": "uint256",
          "name": "",
          "type": "uint256"
        }
      ],
      "stateMutability": "view",
      "type": "function"
    },
    {
      "inputs": [
        {
          "internalType": "uint256",
          "name": "_requestId",
          "type": "uint256"
        },
        {
          "internalType": "bool",
          "name": "_approve",
          "type": "bool"
        }
      ],
      "name": "processVerificationRequest",
      "outputs": [],
      "stateMutability": "nonpayable",
      "type": "function"
    },
    {
      "inputs": [
        {
          "internalType": "address",
          "name": "_holder",
          "type": "address"
        },
        {
          "internalType": "uint256",
          "name": "_credentialId",
          "type": "uint256"
        },
        {
          "internalType": "string",
          "name": "_message",
          "type": "string"
        }
      ],
      "name": "requestVerification",
      "outputs": [
        {
          "internalType": "uint256",
          "name": "",
          "type": "uint256"
        }
      ],
      "stateMutability": "nonpayable",
      "type": "function"
    },
    {
      "inputs": [
        {
          "internalType": "uint256",
          "name": "_credentialId",
          "type": "uint256"
        }
      ],
      "name": "revokeCredential",
      "outputs": [],
      "stateMutability": "nonpayable",
      "type": "function"
    },
    {
      "inputs": [
        {
          "internalType": "uint256",
          "name": "",
          "type": "uint256"
        }
      ],
      "name": "verificationRequests",
      "outputs": [
        {
          "internalType": "uint256",
          "name": "id",
          "type": "uint256"
        },
        {
          "internalType": "address",
          "name": "verifier",
          "type": "address"
        },
        {
          "internalType": "address",
          "name": "holder",
          "type": "address"
        },
        {
          "internalType": "uint256",
          "name": "credentialId",
          "type": "uint256"
        },
        {
          "internalType": "string",
          "name": "message",
          "type": "string"
        },
        {
          "internalType": "bool",
          "name": "isApproved",
          "type": "bool"
        },
        {
          "internalType": "bool",
          "name": "isProcessed",
          "type": "bool"
        },
        {
          "internalType": "uint256",
          "name": "requestedAt",
          "type": "uint256"
        },
        {
          "internalType": "uint256",
          "name": "processedAt",
          "type": "uint256"
        }
      ],
      "stateMutability": "view",
      "type": "function"
    },
    {
      "inputs": [
        {
          "internalType": "address",
          "name": "",
          "type": "address"
        },
        {
          "internalType": "uint256",
          "name": "",
          "type": "uint256"
        }
      ],
      "name": "verifierRequests",
      "outputs": [
        {
          "internalType": "uint256",
          "name": "",
          "type": "uint256"
        }
      ],
      "stateMutability": "view",
      "type": "function"
    }
  ],
  "bytecode": "0x60a06040526001600655600160075534801561001a57600080fd5b50604051620024773803806200247783398101604081905261003b9161004c565b6001600160a01b031660805261007c565b60006020828403121561005e57600080fd5b81516001600160a01b038116811461007557600080fd5b9392505050565b6080516123ca620000ad600039600081816102700152818161037a0152818161045601526107fc01526123ca6000f3fe608060405234801561001057600080fd5b50600436106101425760003560e01c80636da48b9a116100b8578063d8202ffb1161007c578063d8202ffb146102f0578063dd740d7914610303578063e0574e3f14610316578063f0e22d521461033f578063f1470a3514610347578063f7aa022c1461034f57600080fd5b80636da48b9a146102485780638bfc18511461026b5780638d184432146102aa5780638dd18d2d146102bd57806396bfb321146102dd57600080fd5b80632436670a1161010a5780632436670a146101c85780632deddeb7146101db578063341f02ec146101fb5780634089d49f14610204578063577042cd1461022c5780636a84a9851461023f57600080fd5b8063053cd255146101475780631abac44b1461016d5780631b87278d146101805780631e48169d1461019557806322ccb474146101a8575b600080fd5b61015a610155366004611bda565b610362565b6040519081526020015b60405180910390f35b61015a61017b366004611c7f565b6108b2565b61019361018e366004611cab565b6108e3565b005b61015a6101a3366004611c7f565b610a62565b6101bb6101b6366004611cab565b610a7e565b6040516101649190611d14565b61015a6101d6366004611c7f565b610c3e565b6101ee6101e9366004611dbb565b610c5a565b6040516101649190611dd8565b61015a60065481565b610217610212366004611cab565b610cc6565b60405161016499989796959493929190611e1c565b61015a61023a366004611c7f565b610dac565b61015a60075481565b61025b610256366004611cab565b610dc8565b6040519015158152602001610164565b6102927f000000000000000000000000000000000000000000000000000000000000000081565b6040516001600160a01b039091168152602001610164565b6101ee6102b8366004611dbb565b61102b565b6102d06102cb366004611cab565b611095565b6040516101649190611e80565b61015a6102eb366004611f5c565b61139d565b6101ee6102fe366004611dbb565b6116b1565b6101ee610311366004611dbb565b61171b565b610329610324366004611cab565b611785565b6040516101649a99989796959493929190611fb5565b61015a611982565b61015a611998565b61019361035d36600461204d565b6119a9565b604051632d33d7d560e01b81523360048201526000907f00000000000000000000000000000000000000000000000000000000000000006001600160a01b031690632d33d7d590602401602060405180830381865afa1580156103c9573d6000803e3d6000fd5b505050506040513d601f19601f820116820180604052508101906103ed919061208d565b61043e5760405162461bcd60e51b815260206004820152601760248201527f4e6f74206120726567697374657265642069737375657200000000000000000060448201526064015b60405180910390fd5b60405163fef03da360e01b81523360048201526000907f00000000000000000000000000000000000000000000000000000000000000006001600160a01b03169063fef03da390602401600060405180830381865afa1580156104a5573d6000803e3d6000fd5b505050506040513d6000823e601f3d908101601f191682016040526104cd9190810190612102565b905080608001516105175760405162461bcd60e51b8152602060048201526014602482015273497373756572206973206e6f742061637469766560601b6044820152606401610435565b6001600160a01b0387166105665760405162461bcd60e51b8152602060048201526016602482015275496e76616c696420686f6c646572206164647265737360501b6044820152606401610435565b60008651116105b75760405162461bcd60e51b815260206004820152601f60248201527f43726564656e7469616c20747970652063616e6e6f7420626520656d707479006044820152606401610435565b60008551116106085760405162461bcd60e51b815260206004820152601f60248201527f43726564656e7469616c20646174612063616e6e6f7420626520656d707479006044820152606401610435565b4284116106655760405162461bcd60e51b815260206004820152602560248201527f45787069726174696f6e2064617465206d75737420626520696e207468652066604482015264757475726560d81b6064820152608401610435565b600680546000918261067683612206565b9091555060408051610140810182528281523360208083019182526001600160a01b038d8116848601908152606085018e8152608086018e90524260a087015260c086018d9052600160e087018190526000610100880181905261012088018e9052898152948590529690932085518155935195840180546001600160a01b031990811697841697909717905551600284018054909616911617909355915192935091829190600382019061072b90826122a8565b506080820151600482019061074090826122a8565b5060a0820151600582015560c0820151600682015560e08201516007820180546101008086015115150261ff00199315159390931661ffff1990911617919091179055610120820151600882019061079890826122a8565b5050506001600160a01b038981166000908152600160208181526040808420805480850182559085528285200187905533808552600283528185208054948501815585529190932090910185905590516327667d1b60e21b815260048101919091527f000000000000000000000000000000000000000000000000000000000000000090911690639d99f46c90602401600060405180830381600087803b15801561084257600080fd5b505af1158015610856573d6000803e3d6000fd5b50505050886001600160a01b0316336001600160a01b0316837fd1de861db6c309080253d2536a1767c11ee81a3fb2ab87b4e83aa298c2bcbc8d8b60405161089e9190612368565b60405180910390a450979650505050505050565b600260205281600052604060002081815481106108ce57600080fd5b90600052602060002001600091509150505481565b60008181526020819052604090206001015481906001600160a01b0316331461094e5760405162461bcd60e51b815260206004820152601960248201527f4e6f74207468652063726564656e7469616c20697373756572000000000000006044820152606401610435565b60008281526020819052604090206007015460ff166109af5760405162461bcd60e51b815260206004820152601e60248201527f43726564656e7469616c20697320616c726561647920696e61637469766500006044820152606401610435565b600082815260208190526040902060070154610100900460ff1615610a165760405162461bcd60e51b815260206004820152601d60248201527f43726564656e7469616c20697320616c7265616479207265766f6b65640000006044820152606401610435565b600082815260208190526040808220600701805461ffff191661010017905551339184917f936526f4a3155895d9f01699716f2e0c548d726a24a1437e5ce92b3dacaad35b9190a35050565b600160205281600052604060002081815481106108ce57600080fd5b60408051610120810182526000808252602082018190529181018290526060808201839052608082015260a0810182905260c0810182905260e081018290526101008101919091526000828152600360205260408120549003610b1c5760405162461bcd60e51b815260206004820152601660248201527514995c5d595cdd08191bd95cc81b9bdd08195e1a5cdd60521b6044820152606401610435565b6000828152600360208181526040928390208351610120810185528154815260018201546001600160a01b0390811693820193909352600282015490921693820193909352908201546060820152600482018054919291608084019190610b829061221f565b80601f0160208091040260200160405190810160405280929190818152602001828054610bae9061221f565b8015610bfb5780601f10610bd057610100808354040283529160200191610bfb565b820191906000526020600020905b815481529060010190602001808311610bde57829003601f168201915b5050509183525050600582015460ff8082161515602084015261010090910416151560408201526006820154606082015260079091015460809091015292915050565b600560205281600052604060002081815481106108ce57600080fd5b6001600160a01b038116600090815260046020908152604091829020805483518184028101840190945280845260609392830182828015610cba57602002820191906000526020600020905b815481526020019060010190808311610ca6575b50505050509050919050565b60036020819052600091825260409091208054600182015460028301549383015460048401805493956001600160a01b0393841695931693919291610d0a9061221f565b80601f0160208091040260200160405190810160405280929190818152602001828054610d369061221f565b8015610d835780601f10610d5857610100808354040283529160200191610d83565b820191906000526020600020905b815481529060010190602001808311610d6657829003601f168201915b50505060058401546006850154600790950154939460ff80831695610100909304169350915089565b600460205281600052604060002081815481106108ce57600080fd5b6000818152602081815260408083208151610140810183528154815260018201546001600160a01b0390811694820194909452600282015490931691830191909152600381018054849392916060840191610e229061221f565b80601f0160208091040260200160405190810160405280929190818152602001828054610e4e9061221f565b8015610e9b5780601f10610e7057610100808354040283529160200191610e9b565b820191906000526020600020905b815481529060010190602001808311610e7e57829003601f168201915b50505050508152602001600482018054610eb49061221f565b80601f0160208091040260200160405190810160405280929190818152602001828054610ee09061221f565b8015610f2d5780601f10610f0257610100808354040283529160200191610f2d565b820191906000526020600020905b815481529060010190602001808311610f1057829003601f168201915b50505091835250506005820154602082015260068201546040820152600782015460ff80821615156060840152610100909104161515608082015260088201805460a090920191610f7d9061221f565b80601f0160208091040260200160405190810160405280929190818152602001828054610fa99061221f565b8015610ff65780601f10610fcb57610100808354040283529160200191610ff6565b820191906000526020600020905b815481529060010190602001808311610fd957829003601f168201915b50505050508152505090508060e0015180156110155750806101000151155b80156110245750428160c00151115b9392505050565b6001600160a01b038116600090815260016020908152604091829020805483518184028101840190945280845260609392830182828015610cba5760200282019190600052602060002090815481526020019060010190808311610ca65750505050509050919050565b6111016040518061014001604052806000815260200160006001600160a01b0316815260200160006001600160a01b0316815260200160608152602001606081526020016000815260200160008152602001600015158152602001600015158152602001606081525090565b600082815260208190526040812054900361115e5760405162461bcd60e51b815260206004820152601960248201527f43726564656e7469616c20646f6573206e6f74206578697374000000000000006044820152606401610435565b600082815260208181526040918290208251610140810184528154815260018201546001600160a01b03908116938201939093526002820154909216928201929092526003820180549192916060840191906111b99061221f565b80601f01602080910402602001604051908101604052809291908181526020018280546111e59061221f565b80156112325780601f1061120757610100808354040283529160200191611232565b820191906000526020600020905b81548152906001019060200180831161121557829003601f168201915b5050505050815260200160048201805461124b9061221f565b80601f01602080910402602001604051908101604052809291908181526020018280546112779061221f565b80156112c45780601f10611299576101008083540402835291602001916112c4565b820191906000526020600020905b8154815290600101906020018083116112a757829003601f168201915b50505091835250506005820154602082015260068201546040820152600782015460ff80821615156060840152610100909104161515608082015260088201805460a0909201916113149061221f565b80601f01602080910402602001604051908101604052809291908181526020018280546113409061221f565b801561138d5780601f106113625761010080835404028352916020019161138d565b820191906000526020600020905b81548152906001019060200180831161137057829003601f168201915b5050505050815250509050919050565b6000828152602081905260408120600201546001600160a01b038581169116146114095760405162461bcd60e51b815260206004820152601960248201527f496e76616c69642063726564656e7469616c20686f6c646572000000000000006044820152606401610435565b60008381526020819052604090206007015460ff1661146a5760405162461bcd60e51b815260206004820152601860248201527f43726564656e7469616c206973206e6f742061637469766500000000000000006044820152606401610435565b600083815260208190526040902060070154610100900460ff16156114c95760405162461bcd60e51b815260206004820152601560248201527410dc9959195b9d1a585b081a5cc81c995d9bdad959605a1b6044820152606401610435565b60008381526020819052604090206006015442106115225760405162461bcd60e51b815260206004820152601660248201527510dc9959195b9d1a585b081a185cc8195e1c1a5c995960521b6044820152606401610435565b600780546000918261153383612206565b9091555060408051610120810182528281523360208083019182526001600160a01b038a8116848601908152606085018b8152608086018b8152600060a0880181905260c088018190524260e08901526101008801819052898152600395869052979097208651815594516001860180549185166001600160a01b0319928316179055915160028601805491909416921691909117909155519082015591519293509182919060048201906115e890826122a8565b5060a08201516005828101805460c086015161ffff1990911693151561ff00191693909317610100931515840217905560e08401516006840155920151600790910155336000818152600460209081526040808320805460018181018355918552838520018890556001600160a01b038c1680855295835281842080549182018155845292829020909201869055905188815285917ff97c0a5fb4c2f4501c93550763dba1659f6f19644029f8fad56b3f9ffd921e58910160405180910390a450949350505050565b6001600160a01b038116600090815260026020908152604091829020805483518184028101840190945280845260609392830182828015610cba5760200282019190600052602060002090815481526020019060010190808311610ca65750505050509050919050565b6001600160a01b038116600090815260056020908152604091829020805483518184028101840190945280845260609392830182828015610cba5760200282019190600052602060002090815481526020019060010190808311610ca65750505050509050919050565b600060208190529081526040902080546001820154600283015460038401805493946001600160a01b039384169493909216926117c19061221f565b80601f01602080910402602001604051908101604052809291908181526020018280546117ed9061221f565b801561183a5780601f1061180f5761010080835404028352916020019161183a565b820191906000526020600020905b81548152906001019060200180831161181d57829003601f168201915b50505050509080600401805461184f9061221f565b80601f016020809104026020016040519081016040528092919081815260200182805461187b9061221f565b80156118c85780601f1061189d576101008083540402835291602001916118c8565b820191906000526020600020905b8154815290600101906020018083116118ab57829003601f168201915b505050506005830154600684015460078501546008860180549596939592945060ff8083169461010090930416926118ff9061221f565b80601f016020809104026020016040519081016040528092919081815260200182805461192b9061221f565b80156119785780601f1061194d57610100808354040283529160200191611978565b820191906000526020600020905b81548152906001019060200180831161195b57829003601f168201915b505050505090508a565b60006001600754611993919061237b565b905090565b60006001600654611993919061237b565b600082815260036020526040902060028101546001600160a01b03163314611a135760405162461bcd60e51b815260206004820152601960248201527f4e6f74207468652063726564656e7469616c20686f6c646572000000000000006044820152606401610435565b6005810154610100900460ff1615611a6d5760405162461bcd60e51b815260206004820152601960248201527f5265717565737420616c72656164792070726f636573736564000000000000006044820152606401610435565b60058101805461ff00198415151661ffff1990911617610100179055426007820155604051339084907fc9309abbb89b12a5d283fc9433c646c28705d50dde4b7b60b6c4fcd0d7bf080990611ac790861515815260200190565b60405180910390a3505050565b6001600160a01b0381168114611ae957600080fd5b50565b634e487b7160e01b600052604160045260246000fd5b60405160e0810167ffffffffffffffff81118282101715611b2557611b25611aec565b60405290565b604051601f8201601f1916810167ffffffffffffffff81118282101715611b5457611b54611aec565b604052919050565b600067ffffffffffffffff821115611b7657611b76611aec565b50601f01601f191660200190565b600082601f830112611b9557600080fd5b8135611ba8611ba382611b5c565b611b2b565b818152846020838601011115611bbd57600080fd5b816020850160208301376000918101602001919091529392505050565b600080600080600060a08688031215611bf257600080fd5b8535611bfd81611ad4565b9450602086013567ffffffffffffffff80821115611c1a57600080fd5b611c2689838a01611b84565b95506040880135915080821115611c3c57600080fd5b611c4889838a01611b84565b9450606088013593506080880135915080821115611c6557600080fd5b50611c7288828901611b84565b9150509295509295909350565b60008060408385031215611c9257600080fd5b8235611c9d81611ad4565b946020939093013593505050565b600060208284031215611cbd57600080fd5b5035919050565b60005b83811015611cdf578181015183820152602001611cc7565b50506000910152565b60008151808452611d00816020860160208601611cc4565b601f01601f19169290920160200192915050565b602081528151602082015260006020830151611d3b60408401826001600160a01b03169052565b5060408301516001600160a01b0381166060840152506060830151608083015260808301516101208060a0850152611d77610140850183611ce8565b915060a0850151611d8c60c086018215159052565b5060c085015180151560e08601525060e085015161010085810191909152909401519390920192909252919050565b600060208284031215611dcd57600080fd5b813561102481611ad4565b6020808252825182820181905260009190848201906040850190845b81811015611e1057835183529284019291840191600101611df4565b50909695505050505050565b8981526001600160a01b038981166020830152881660408201526060810187905261012060808201819052600090611e5683820189611ce8565b96151560a0840152505092151560c084015260e08301919091526101009091015295945050505050565b602081528151602082015260006020830151611ea760408401826001600160a01b03169052565b5060408301516001600160a01b0381166060840152506060830151610140806080850152611ed9610160850183611ce8565b91506080850151601f19808685030160a0870152611ef78483611ce8565b935060a087015160c087015260c087015160e087015260e08701519150610100611f248188018415159052565b8701519150610120611f398782018415159052565b870151868503909101838701529050611f528382611ce8565b9695505050505050565b600080600060608486031215611f7157600080fd5b8335611f7c81611ad4565b925060208401359150604084013567ffffffffffffffff811115611f9f57600080fd5b611fab86828701611b84565b9150509250925092565b8a81526001600160a01b038a811660208301528916604082015261014060608201819052600090611fe88382018b611ce8565b90508281036080840152611ffc818a611ce8565b90508760a08401528660c084015285151560e084015284151561010084015282810361012084015261202e8185611ce8565b9d9c50505050505050505050505050565b8015158114611ae957600080fd5b6000806040838503121561206057600080fd5b8235915060208301356120728161203f565b809150509250929050565b80516120888161203f565b919050565b60006020828403121561209f57600080fd5b81516110248161203f565b805161208881611ad4565b600082601f8301126120c657600080fd5b81516120d4611ba382611b5c565b8181528460208386010111156120e957600080fd5b6120fa826020830160208701611cc4565b949350505050565b60006020828403121561211457600080fd5b815167ffffffffffffffff8082111561212c57600080fd5b9083019060e0828603121561214057600080fd5b612148611b02565b612151836120aa565b815260208301518281111561216557600080fd5b612171878286016120b5565b60208301525060408301518281111561218957600080fd5b612195878286016120b5565b6040830152506060830151828111156121ad57600080fd5b6121b9878286016120b5565b6060830152506121cb6080840161207d565b608082015260a083015160a082015260c083015160c082015280935050505092915050565b634e487b7160e01b600052601160045260246000fd5b600060018201612218576122186121f0565b5060010190565b600181811c9082168061223357607f821691505b60208210810361225357634e487b7160e01b600052602260045260246000fd5b50919050565b601f8211156122a357600081815260208120601f850160051c810160208610156122805750805b601f850160051c820191505b8181101561229f5782815560010161228c565b5050505b505050565b815167ffffffffffffffff8111156122c2576122c2611aec565b6122d6816122d0845461221f565b84612259565b602080601f83116001811461230b57600084156122f35750858301515b600019600386901b1c1916600185901b17855561229f565b600085815260208120601f198616915b8281101561233a5788860151825594840194600190910190840161231b565b50858210156123585787850151600019600388901b60f8161c191681555b5050505050600190811b01905550565b6020815260006110246020830184611ce8565b8181038181111561238e5761238e6121f0565b9291505056fea26469706673582212209dc35ec5ac7abde8ffafcdbec43ead3504b28b0cee2c035ba342cb71fd8e702164736f6c63430008130033",
  "linkReferences": {},
  "deployedLinkReferences": {}
}