{
  "_format": "hh-sol-artifact-1",
  "contractName": "IssuerRegistry",
  "sourceName": "contracts/IssuerRegistry.sol",
  "abi": [
    {
      "anonymous": false,
      "inputs": [
        {
          "indexed": true,
          "internalType": "address",
          "name": "issuer",
          "type": "address"
        }
      ],
      "name": "IssuerDeactivated",
      "type": "event"
    },
    {
      "anonymous": false,
      "inputs": [
        {
          "indexed": true,
          "internalType": "address",
          "name": "issuer",
          "type": "address"
        }
      ],
      "name": "IssuerReactivated",
      "type": "event"
    },
    {
      "anonymous": false,
      "inputs": [
        {
          "indexed": true,
          "internalType": "address",
          "name": "issuer",
          "type": "address"
        },
        {
          "indexed": false,
          "internalType": "string",
          "name": "name",
          "type": "string"
        },
        {
          "indexed": false,
          "internalType": "string",
          "name": "organization",
          "type": "string"
        }
      ],
      "name": "IssuerRegistered",
      "type": "event"
    },
    {
      "inputs": [],
      "name": "deactivateIssuer",
      "outputs": [],
      "stateMutability": "nonpayable",
      "type": "function"
    },
    {
      "inputs": [],
      "name": "getActiveIssuersCount",
      "outputs": [
        {
          "internalType": "uint256",
          "name": "",
          "type": "uint256"
        }
      ],
      "stateMutability": "view",
      "type": "function"
    },
    {
      "inputs": [],
      "name": "getAllIssuers",
      "outputs": [
        {
          "components": [
            {
              "internalType": "address",
              "name": "issuerAddress",
              "type": "address"
            },
            {
              "internalType": "string",
              "name": "name",
              "type": "string"
            },
            {
              "internalType": "string",
              "name": "organization",
              "type": "string"
            },
            {
              "internalType": "string",
              "name": "email",
              "type": "string"
            },
            {
              "internalType": "bool",
              "name": "isActive",
              "type": "bool"
            },
            {
              "internalType": "uint256",
              "name": "registeredAt",
              "type": "uint256"
            },
            {
              "internalType": "uint256",
              "name": "credentialsIssued",
              "type": "uint256"
            }
          ],
          "internalType": "struct IssuerRegistry.Issuer[]",
          "name": "",
          "type": "tuple[]"
        }
      ],
      "stateMutability": "view",
      "type": "function"
    },
    {
      "inputs": [
        {
          "internalType": "address",
          "name": "_issuer",
          "type": "address"
        }
      ],
      "name": "getIssuer",
      "outputs": [
        {
          "components": [
            {
              "internalType": "address",
              "name": "issuerAddress",
              "type": "address"
            },
            {
              "internalType": "string",
              "name": "name",
              "type": "string"
            },
            {
              "internalType": "string",
              "name": "organization",
              "type": "string"
            },
            {
              "internalType": "string",
              "name": "email",
              "type": "string"
            },
            {
              "internalType": "bool",
              "name": "isActive",
              "type": "bool"
            },
            {
              "internalType": "uint256",
              "name": "registeredAt",
              "type": "uint256"
            },
            {
              "internalType": "uint256",
              "name": "credentialsIssued",
              "type": "uint256"
            }
          ],
          "internalType": "struct IssuerRegistry.Issuer",
          "name": "",
          "type": "tuple"
        }
      ],
      "stateMutability": "view",
      "type": "function"
    },
    {
      "inputs": [
        {
          "internalType": "address",
          "name": "_issuer",
          "type": "address"
        }
      ],
      "name": "incrementCredentialsIssued",
      "outputs": [],
      "stateMutability": "nonpayable",
      "type": "function"
    },
    {
      "inputs": [
        {
          "internalType": "address",
          "name": "_account",
          "type": "address"
        }
      ],
      "name": "isAllowedAccount",
      "outputs": [
        {
          "internalType": "bool",
          "name": "",
          "type": "bool"
        }
      ],
      "stateMutability": "pure",
      "type": "function"
    },
    {
      "inputs": [
        {
          "internalType": "address",
          "name": "",
          "type": "address"
        }
      ],
      "name": "isRegisteredIssuer",
      "outputs": [
        {
          "internalType": "bool",
          "name": "",
          "type": "bool"
        }
      ],
      "stateMutability": "view",
      "type": "function"
    },
    {
      "inputs": [
        {
          "internalType": "uint256",
          "name": "",
          "type": "uint256"
        }
      ],
      "name": "issuerAddresses",
      "outputs": [
        {
          "internalType": "address",
          "name": "",
          "type": "address"
        }
      ],
      "stateMutability": "view",
      "type": "function"
    },
    {
      "inputs": [
        {
          "internalType": "address",
          "name": "",
          "type": "address"
        }
      ],
      "name": "issuers",
      "outputs": [
        {
          "internalType": "address",
          "name": "issuerAddress",
          "type": "address"
        },
        {
          "internalType": "string",
          "name": "name",
          "type": "string"
        },
        {
          "internalType": "string",
          "name": "organization",
          "type": "string"
        },
        {
          "internalType": "string",
          "name": "email",
          "type": "string"
        },
        {
          "internalType": "bool",
          "name": "isActive",
          "type": "bool"
        },
        {
          "internalType": "uint256",
          "name": "registeredAt",
          "type": "uint256"
        },
        {
          "internalType": "uint256",
          "name": "credentialsIssued",
          "type": "uint256"
        }
      ],
      "stateMutability": "view",
      "type": "function"
    },
    {
      "inputs": [],
      "name": "reactivateIssuer",
      "outputs": [],
      "stateMutability": "nonpayable",
      "type": "function"
    },
    {
      "inputs": [
        {
          "internalType": "string",
          "name": "_name",
          "type": "string"
        },
        {
          "internalType": "string",
          "name": "_organization",
          "type": "string"
        },
        {
          "internalType": "string",
          "name": "_email",
          "type": "string"
        }
      ],
      "name": "registerIssuer",
      "outputs": [],
      "stateMutability": "nonpayable",
      "type": "function"
    },
    {
      "inputs": [
        {
          "internalType": "string",
          "name": "_name",
          "type": "string"
        },
        {
          "internalType": "string",
          "name": "_organization",
          "type": "string"
        },
        {
          "internalType": "string",
          "name": "_email",
          "type": "string"
        }
      ],
      "name": "updateIssuerInfo",
      "outputs": [],
      "stateMutability": "nonpayable",
      "type": "function"
    }
  ],
  "bytecode": "0x608060405234801561001057600080fd5b506113f7806100206000396000f3fe608060405234801561001057600080fd5b50600436106100b45760003560e01c80638096373e116100715780638096373e146101775780639d99f46c1461018a578063b23bc7d71461019d578063caeb7565146101b1578063d5a5a299146101b9578063fef03da3146101cc57600080fd5b80631298990a146100b95780632d33d7d5146100d45780632fad59911461010757806338a7543e146101325780634c32c35c1461015857806350adff671461016d575b600080fd5b6100c16101ec565b6040519081526020015b60405180910390f35b6100f76100e2366004610ebc565b60016020526000908152604090205460ff1681565b60405190151581526020016100cb565b61011a610115366004610eec565b610267565b6040516001600160a01b0390911681526020016100cb565b610145610140366004610ebc565b610291565b6040516100cb9796959493929190610f4b565b610160610474565b6040516100cb919061103c565b610175610740565b005b610175610185366004611141565b6107ba565b610175610198366004610ebc565b610a1b565b6100f76101ab366004610ebc565b50600190565b610175610a82565b6101756101c7366004611141565b610af6565b6101df6101da366004610ebc565b610c00565b6040516100cb91906111c9565b600080805b6002548110156102615760008060028381548110610211576102116111dc565b60009182526020808320909101546001600160a01b0316835282019290925260400190206004015460ff161561024f578161024b816111f2565b9250505b80610259816111f2565b9150506101f1565b50919050565b6002818154811061027757600080fd5b6000918252602090912001546001600160a01b0316905081565b600060208190529081526040902080546001820180546001600160a01b0390921692916102bd90611219565b80601f01602080910402602001604051908101604052809291908181526020018280546102e990611219565b80156103365780601f1061030b57610100808354040283529160200191610336565b820191906000526020600020905b81548152906001019060200180831161031957829003601f168201915b50505050509080600201805461034b90611219565b80601f016020809104026020016040519081016040528092919081815260200182805461037790611219565b80156103c45780601f10610399576101008083540402835291602001916103c4565b820191906000526020600020905b8154815290600101906020018083116103a757829003601f168201915b5050505050908060030180546103d990611219565b80601f016020809104026020016040519081016040528092919081815260200182805461040590611219565b80156104525780601f1061042757610100808354040283529160200191610452565b820191906000526020600020905b81548152906001019060200180831161043557829003601f168201915b5050505060048301546005840154600690940154929360ff9091169290915087565b60025460609060009067ffffffffffffffff8111156104955761049561109e565b6040519080825280602002602001820160405280156104ce57816020015b6104bb610e74565b8152602001906001900390816104b35790505b50905060005b60025481101561026157600080600283815481106104f4576104f46111dc565b60009182526020808320909101546001600160a01b039081168452838201949094526040928301909120825160e08101909352805490931682526001830180549293929184019161054490611219565b80601f016020809104026020016040519081016040528092919081815260200182805461057090611219565b80156105bd5780601f10610592576101008083540402835291602001916105bd565b820191906000526020600020905b8154815290600101906020018083116105a057829003601f168201915b505050505081526020016002820180546105d690611219565b80601f016020809104026020016040519081016040528092919081815260200182805461060290611219565b801561064f5780601f106106245761010080835404028352916020019161064f565b820191906000526020600020905b81548152906001019060200180831161063257829003601f168201915b5050505050815260200160038201805461066890611219565b80601f016020809104026020016040519081016040528092919081815260200182805461069490611219565b80156106e15780601f106106b6576101008083540402835291602001916106e1565b820191906000526020600020905b8154815290600101906020018083116106c457829003601f168201915b5050509183525050600482015460ff1615156020820152600582015460408201526006909101546060909101528251839083908110610722576107226111dc565b60200260200101819052508080610738906111f2565b9150506104d4565b3360009081526001602052604090205460ff166107785760405162461bcd60e51b815260040161076f9061124d565b60405180910390fd5b33600081815260208190526040808220600401805460ff19169055517fbd353cae5dce393e81582130369cd5e22da2ec7e943ffae3210a857b3a954fdf9190a2565b3360009081526001602052604090205460ff161561081a5760405162461bcd60e51b815260206004820152601c60248201527f416c726561647920726567697374657265642061732069737375657200000000604482015260640161076f565b60008351116108625760405162461bcd60e51b81526020600482015260146024820152734e616d652063616e6e6f7420626520656d70747960601b604482015260640161076f565b60008251116108b35760405162461bcd60e51b815260206004820152601c60248201527f4f7267616e697a6174696f6e2063616e6e6f7420626520656d70747900000000604482015260640161076f565b6040805160e081018252338082526020808301878152838501879052606084018690526001608085018190524260a0860152600060c086018190529384529183905293909120825181546001600160a01b0319166001600160a01b03909116178155925191928392909182019061092a90826112d3565b506040820151600282019061093f90826112d3565b506060820151600382019061095490826112d3565b50608082015160048201805491151560ff1992831617905560a0830151600583015560c090920151600690910155336000818152600160208190526040808320805490951682179094556002805491820181559091527f405787fa12a823e0f2b7631cc41b3ba8828b3321ca811111fa75cd3aa3bb5ace0180546001600160a01b0319168217905590517f2b062b4e0857383c98aacd16bcd2714030d81ad54eb91dd1885634442438665190610a0d9087908790611393565b60405180910390a250505050565b6001600160a01b03811660009081526001602052604090205460ff16610a535760405162461bcd60e51b815260040161076f9061124d565b6001600160a01b0381166000908152602081905260408120600601805491610a7a836111f2565b919050555050565b3360009081526001602052604090205460ff16610ab15760405162461bcd60e51b815260040161076f9061124d565b33600081815260208190526040808220600401805460ff19166001179055517f4ece882b1ae39652655977134afaaf2566aba0074213ef33a45cd7cce7d9a6f09190a2565b3360009081526001602052604090205460ff16610b255760405162461bcd60e51b815260040161076f9061124d565b6000835111610b6d5760405162461bcd60e51b81526020600482015260146024820152734e616d652063616e6e6f7420626520656d70747960601b604482015260640161076f565b6000825111610bbe5760405162461bcd60e51b815260206004820152601c60248201527f4f7267616e697a6174696f6e2063616e6e6f7420626520656d70747900000000604482015260640161076f565b33600090815260208190526040902060018101610bdb85826112d3565b5060028101610bea84826112d3565b5060038101610bf983826112d3565b5050505050565b610c08610e74565b6001600160a01b03821660009081526001602052604090205460ff16610c635760405162461bcd60e51b815260206004820152601060248201526f125cdcdd595c881b9bdd08199bdd5b9960821b604482015260640161076f565b6001600160a01b0380831660009081526020818152604091829020825160e081019093528054909316825260018301805492939291840191610ca490611219565b80601f0160208091040260200160405190810160405280929190818152602001828054610cd090611219565b8015610d1d5780601f10610cf257610100808354040283529160200191610d1d565b820191906000526020600020905b815481529060010190602001808311610d0057829003601f168201915b50505050508152602001600282018054610d3690611219565b80601f0160208091040260200160405190810160405280929190818152602001828054610d6290611219565b8015610daf5780601f10610d8457610100808354040283529160200191610daf565b820191906000526020600020905b815481529060010190602001808311610d9257829003601f168201915b50505050508152602001600382018054610dc890611219565b80601f0160208091040260200160405190810160405280929190818152602001828054610df490611219565b8015610e415780601f10610e1657610100808354040283529160200191610e41565b820191906000526020600020905b815481529060010190602001808311610e2457829003601f168201915b5050509183525050600482015460ff16151560208201526005820154604082015260069091015460609091015292915050565b6040518060e0016040528060006001600160a01b0316815260200160608152602001606081526020016060815260200160001515815260200160008152602001600081525090565b600060208284031215610ece57600080fd5b81356001600160a01b0381168114610ee557600080fd5b9392505050565b600060208284031215610efe57600080fd5b5035919050565b6000815180845260005b81811015610f2b57602081850181015186830182015201610f0f565b506000602082860101526020601f19601f83011685010191505092915050565b6001600160a01b038816815260e060208201819052600090610f6f90830189610f05565b8281036040840152610f818189610f05565b90508281036060840152610f958188610f05565b9515156080840152505060a081019290925260c090910152949350505050565b60018060a01b0381511682526000602082015160e06020850152610fdc60e0850182610f05565b905060408301518482036040860152610ff58282610f05565b9150506060830151848203606086015261100f8282610f05565b91505060808301511515608085015260a083015160a085015260c083015160c08501528091505092915050565b6000602080830181845280855180835260408601915060408160051b870101925083870160005b8281101561109157603f1988860301845261107f858351610fb5565b94509285019290850190600101611063565b5092979650505050505050565b634e487b7160e01b600052604160045260246000fd5b600082601f8301126110c557600080fd5b813567ffffffffffffffff808211156110e0576110e061109e565b604051601f8301601f19908116603f011681019082821181831017156111085761110861109e565b8160405283815286602085880101111561112157600080fd5b836020870160208301376000602085830101528094505050505092915050565b60008060006060848603121561115657600080fd5b833567ffffffffffffffff8082111561116e57600080fd5b61117a878388016110b4565b9450602086013591508082111561119057600080fd5b61119c878388016110b4565b935060408601359150808211156111b257600080fd5b506111bf868287016110b4565b9150509250925092565b602081526000610ee56020830184610fb5565b634e487b7160e01b600052603260045260246000fd5b60006001820161121257634e487b7160e01b600052601160045260246000fd5b5060010190565b600181811c9082168061122d57607f821691505b60208210810361026157634e487b7160e01b600052602260045260246000fd5b60208082526017908201527f4e6f742061207265676973746572656420697373756572000000000000000000604082015260600190565b601f8211156112ce57600081815260208120601f850160051c810160208610156112ab5750805b601f850160051c820191505b818110156112ca578281556001016112b7565b5050505b505050565b815167ffffffffffffffff8111156112ed576112ed61109e565b611301816112fb8454611219565b84611284565b602080601f831160018114611336576000841561131e5750858301515b600019600386901b1c1916600185901b1785556112ca565b600085815260208120601f198616915b8281101561136557888601518255948401946001909101908401611346565b50858210156113835787850151600019600388901b60f8161c191681555b5050505050600190811b01905550565b6040815260006113a66040830185610f05565b82810360208401526113b88185610f05565b9594505050505056fea2646970667358221220e4f5b94fb59e270f6c12d154c2faa2c72dacddf39636d307967e7737167e013664736f6c63430008130033",
  "linkReferences": {},
  "deployedLinkReferences": {}
}