{
  "_format": "hh-sol-artifact-1",
  "contractName": "IssuerRegistry",
  "sourceName": "contracts/IssuerRegistry.sol",
  "abi": [
    {
      "anonymous": false,
      "inputs": [
        {
          "indexed": true,
          "internalType": "address",
          "name": "issuer",
          "type": "address"
        }
      ],
      "name": "IssuerDeactivated",
      "type": "event"
    },
    {
      "anonymous": false,
      "inputs": [
        {
          "indexed": true,
          "internalType": "address",
          "name": "issuer",
          "type": "address"
        }
      ],
      "name": "IssuerReactivated",
      "type": "event"
    },
    {
      "anonymous": false,
      "inputs": [
        {
          "indexed": true,
          "internalType": "address",
          "name": "issuer",
          "type": "address"
        },
        {
          "indexed": false,
          "internalType": "string",
          "name": "name",
          "type": "string"
        },
        {
          "indexed": false,
          "internalType": "string",
          "name": "organization",
          "type": "string"
        }
      ],
      "name": "IssuerRegistered",
      "type": "event"
    },
    {
      "inputs": [],
      "name": "ALLOWED_ISSUER_1",
      "outputs": [
        {
          "internalType": "address",
          "name": "",
          "type": "address"
        }
      ],
      "stateMutability": "view",
      "type": "function"
    },
    {
      "inputs": [],
      "name": "ALLOWED_ISSUER_2",
      "outputs": [
        {
          "internalType": "address",
          "name": "",
          "type": "address"
        }
      ],
      "stateMutability": "view",
      "type": "function"
    },
    {
      "inputs": [],
      "name": "deactivateIssuer",
      "outputs": [],
      "stateMutability": "nonpayable",
      "type": "function"
    },
    {
      "inputs": [],
      "name": "getActiveIssuersCount",
      "outputs": [
        {
          "internalType": "uint256",
          "name": "",
          "type": "uint256"
        }
      ],
      "stateMutability": "view",
      "type": "function"
    },
    {
      "inputs": [],
      "name": "getAllIssuers",
      "outputs": [
        {
          "components": [
            {
              "internalType": "address",
              "name": "issuerAddress",
              "type": "address"
            },
            {
              "internalType": "string",
              "name": "name",
              "type": "string"
            },
            {
              "internalType": "string",
              "name": "organization",
              "type": "string"
            },
            {
              "internalType": "string",
              "name": "email",
              "type": "string"
            },
            {
              "internalType": "bool",
              "name": "isActive",
              "type": "bool"
            },
            {
              "internalType": "uint256",
              "name": "registeredAt",
              "type": "uint256"
            },
            {
              "internalType": "uint256",
              "name": "credentialsIssued",
              "type": "uint256"
            }
          ],
          "internalType": "struct IssuerRegistry.Issuer[]",
          "name": "",
          "type": "tuple[]"
        }
      ],
      "stateMutability": "view",
      "type": "function"
    },
    {
      "inputs": [
        {
          "internalType": "address",
          "name": "_issuer",
          "type": "address"
        }
      ],
      "name": "getIssuer",
      "outputs": [
        {
          "components": [
            {
              "internalType": "address",
              "name": "issuerAddress",
              "type": "address"
            },
            {
              "internalType": "string",
              "name": "name",
              "type": "string"
            },
            {
              "internalType": "string",
              "name": "organization",
              "type": "string"
            },
            {
              "internalType": "string",
              "name": "email",
              "type": "string"
            },
            {
              "internalType": "bool",
              "name": "isActive",
              "type": "bool"
            },
            {
              "internalType": "uint256",
              "name": "registeredAt",
              "type": "uint256"
            },
            {
              "internalType": "uint256",
              "name": "credentialsIssued",
              "type": "uint256"
            }
          ],
          "internalType": "struct IssuerRegistry.Issuer",
          "name": "",
          "type": "tuple"
        }
      ],
      "stateMutability": "view",
      "type": "function"
    },
    {
      "inputs": [
        {
          "internalType": "address",
          "name": "_issuer",
          "type": "address"
        }
      ],
      "name": "incrementCredentialsIssued",
      "outputs": [],
      "stateMutability": "nonpayable",
      "type": "function"
    },
    {
      "inputs": [
        {
          "internalType": "address",
          "name": "_account",
          "type": "address"
        }
      ],
      "name": "isAllowedAccount",
      "outputs": [
        {
          "internalType": "bool",
          "name": "",
          "type": "bool"
        }
      ],
      "stateMutability": "pure",
      "type": "function"
    },
    {
      "inputs": [
        {
          "internalType": "address",
          "name": "",
          "type": "address"
        }
      ],
      "name": "isRegisteredIssuer",
      "outputs": [
        {
          "internalType": "bool",
          "name": "",
          "type": "bool"
        }
      ],
      "stateMutability": "view",
      "type": "function"
    },
    {
      "inputs": [
        {
          "internalType": "uint256",
          "name": "",
          "type": "uint256"
        }
      ],
      "name": "issuerAddresses",
      "outputs": [
        {
          "internalType": "address",
          "name": "",
          "type": "address"
        }
      ],
      "stateMutability": "view",
      "type": "function"
    },
    {
      "inputs": [
        {
          "internalType": "address",
          "name": "",
          "type": "address"
        }
      ],
      "name": "issuers",
      "outputs": [
        {
          "internalType": "address",
          "name": "issuerAddress",
          "type": "address"
        },
        {
          "internalType": "string",
          "name": "name",
          "type": "string"
        },
        {
          "internalType": "string",
          "name": "organization",
          "type": "string"
        },
        {
          "internalType": "string",
          "name": "email",
          "type": "string"
        },
        {
          "internalType": "bool",
          "name": "isActive",
          "type": "bool"
        },
        {
          "internalType": "uint256",
          "name": "registeredAt",
          "type": "uint256"
        },
        {
          "internalType": "uint256",
          "name": "credentialsIssued",
          "type": "uint256"
        }
      ],
      "stateMutability": "view",
      "type": "function"
    },
    {
      "inputs": [],
      "name": "reactivateIssuer",
      "outputs": [],
      "stateMutability": "nonpayable",
      "type": "function"
    },
    {
      "inputs": [
        {
          "internalType": "string",
          "name": "_name",
          "type": "string"
        },
        {
          "internalType": "string",
          "name": "_organization",
          "type": "string"
        },
        {
          "internalType": "string",
          "name": "_email",
          "type": "string"
        }
      ],
      "name": "registerIssuer",
      "outputs": [],
      "stateMutability": "nonpayable",
      "type": "function"
    },
    {
      "inputs": [
        {
          "internalType": "string",
          "name": "_name",
          "type": "string"
        },
        {
          "internalType": "string",
          "name": "_organization",
          "type": "string"
        },
        {
          "internalType": "string",
          "name": "_email",
          "type": "string"
        }
      ],
      "name": "updateIssuerInfo",
      "outputs": [],
      "stateMutability": "nonpayable",
      "type": "function"
    }
  ],
  "bytecode": "0x608060405234801561001057600080fd5b50611550806100206000396000f3fe608060405234801561001057600080fd5b50600436106100ea5760003560e01c806397024c1a1161008c578063caeb756511610066578063caeb756514610201578063d5a5a29914610209578063da71204c1461021c578063fef03da31461023757600080fd5b806397024c1a146101c05780639d99f46c146101db578063b23bc7d7146101ee57600080fd5b806338a7543e116100c857806338a7543e146101685780634c32c35c1461018e57806350adff67146101a35780638096373e146101ad57600080fd5b80631298990a146100ef5780632d33d7d51461010a5780632fad59911461013d575b600080fd5b6100f7610257565b6040519081526020015b60405180910390f35b61012d610118366004611015565b60016020526000908152604090205460ff1681565b6040519015158152602001610101565b61015061014b366004611045565b6102d2565b6040516001600160a01b039091168152602001610101565b61017b610176366004611015565b6102fc565b60405161010197969594939291906110a4565b6101966104df565b6040516101019190611195565b6101ab6107ab565b005b6101ab6101bb36600461129a565b610825565b6101507370997970c51812dc3a010c7d01b50e0d17dc79c881565b6101ab6101e9366004611015565b610b25565b61012d6101fc366004611015565b610b8c565b6101ab610bdb565b6101ab61021736600461129a565b610c4f565b61015073f39fd6e51aad88f6f4ce6ab8827279cfffb9226681565b61024a610245366004611015565b610d59565b6040516101019190611322565b600080805b6002548110156102cc576000806002838154811061027c5761027c611335565b60009182526020808320909101546001600160a01b0316835282019290925260400190206004015460ff16156102ba57816102b68161134b565b9250505b806102c48161134b565b91505061025c565b50919050565b600281815481106102e257600080fd5b6000918252602090912001546001600160a01b0316905081565b600060208190529081526040902080546001820180546001600160a01b03909216929161032890611372565b80601f016020809104026020016040519081016040528092919081815260200182805461035490611372565b80156103a15780601f10610376576101008083540402835291602001916103a1565b820191906000526020600020905b81548152906001019060200180831161038457829003601f168201915b5050505050908060020180546103b690611372565b80601f01602080910402602001604051908101604052809291908181526020018280546103e290611372565b801561042f5780601f106104045761010080835404028352916020019161042f565b820191906000526020600020905b81548152906001019060200180831161041257829003601f168201915b50505050509080600301805461044490611372565b80601f016020809104026020016040519081016040528092919081815260200182805461047090611372565b80156104bd5780601f10610492576101008083540402835291602001916104bd565b820191906000526020600020905b8154815290600101906020018083116104a057829003601f168201915b5050505060048301546005840154600690940154929360ff9091169290915087565b60025460609060009067ffffffffffffffff811115610500576105006111f7565b60405190808252806020026020018201604052801561053957816020015b610526610fcd565b81526020019060019003908161051e5790505b50905060005b6002548110156102cc576000806002838154811061055f5761055f611335565b60009182526020808320909101546001600160a01b039081168452838201949094526040928301909120825160e0810190935280549093168252600183018054929392918401916105af90611372565b80601f01602080910402602001604051908101604052809291908181526020018280546105db90611372565b80156106285780601f106105fd57610100808354040283529160200191610628565b820191906000526020600020905b81548152906001019060200180831161060b57829003601f168201915b5050505050815260200160028201805461064190611372565b80601f016020809104026020016040519081016040528092919081815260200182805461066d90611372565b80156106ba5780601f1061068f576101008083540402835291602001916106ba565b820191906000526020600020905b81548152906001019060200180831161069d57829003601f168201915b505050505081526020016003820180546106d390611372565b80601f01602080910402602001604051908101604052809291908181526020018280546106ff90611372565b801561074c5780601f106107215761010080835404028352916020019161074c565b820191906000526020600020905b81548152906001019060200180831161072f57829003601f168201915b5050509183525050600482015460ff161515602082015260058201546040820152600690910154606090910152825183908390811061078d5761078d611335565b602002602001018190525080806107a39061134b565b91505061053f565b3360009081526001602052604090205460ff166107e35760405162461bcd60e51b81526004016107da906113a6565b60405180910390fd5b33600081815260208190526040808220600401805460ff19169055517fbd353cae5dce393e81582130369cd5e22da2ec7e943ffae3210a857b3a954fdf9190a2565b3373f39fd6e51aad88f6f4ce6ab8827279cfffb92266148061085a5750337370997970c51812dc3a010c7d01b50e0d17dc79c8145b6108c45760405162461bcd60e51b815260206004820152603560248201527f4f6e6c792068617264686174206163636f756e7473203020616e6420312063616044820152746e207265676973746572206173206973737565727360581b60648201526084016107da565b3360009081526001602052604090205460ff16156109245760405162461bcd60e51b815260206004820152601c60248201527f416c72656164792072656769737465726564206173206973737565720000000060448201526064016107da565b600083511161096c5760405162461bcd60e51b81526020600482015260146024820152734e616d652063616e6e6f7420626520656d70747960601b60448201526064016107da565b60008251116109bd5760405162461bcd60e51b815260206004820152601c60248201527f4f7267616e697a6174696f6e2063616e6e6f7420626520656d7074790000000060448201526064016107da565b6040805160e081018252338082526020808301878152838501879052606084018690526001608085018190524260a0860152600060c086018190529384529183905293909120825181546001600160a01b0319166001600160a01b039091161781559251919283929091820190610a34908261142c565b5060408201516002820190610a49908261142c565b5060608201516003820190610a5e908261142c565b50608082015160048201805491151560ff1992831617905560a0830151600583015560c090920151600690910155336000818152600160208190526040808320805490951682179094556002805491820181559091527f405787fa12a823e0f2b7631cc41b3ba8828b3321ca811111fa75cd3aa3bb5ace0180546001600160a01b0319168217905590517f2b062b4e0857383c98aacd16bcd2714030d81ad54eb91dd1885634442438665190610b1790879087906114ec565b60405180910390a250505050565b6001600160a01b03811660009081526001602052604090205460ff16610b5d5760405162461bcd60e51b81526004016107da906113a6565b6001600160a01b0381166000908152602081905260408120600601805491610b848361134b565b919050555050565b60006001600160a01b03821673f39fd6e51aad88f6f4ce6ab8827279cfffb922661480610bd557506001600160a01b0382167370997970c51812dc3a010c7d01b50e0d17dc79c8145b92915050565b3360009081526001602052604090205460ff16610c0a5760405162461bcd60e51b81526004016107da906113a6565b33600081815260208190526040808220600401805460ff19166001179055517f4ece882b1ae39652655977134afaaf2566aba0074213ef33a45cd7cce7d9a6f09190a2565b3360009081526001602052604090205460ff16610c7e5760405162461bcd60e51b81526004016107da906113a6565b6000835111610cc65760405162461bcd60e51b81526020600482015260146024820152734e616d652063616e6e6f7420626520656d70747960601b60448201526064016107da565b6000825111610d175760405162461bcd60e51b815260206004820152601c60248201527f4f7267616e697a6174696f6e2063616e6e6f7420626520656d7074790000000060448201526064016107da565b33600090815260208190526040902060018101610d34858261142c565b5060028101610d43848261142c565b5060038101610d52838261142c565b5050505050565b610d61610fcd565b6001600160a01b03821660009081526001602052604090205460ff16610dbc5760405162461bcd60e51b815260206004820152601060248201526f125cdcdd595c881b9bdd08199bdd5b9960821b60448201526064016107da565b6001600160a01b0380831660009081526020818152604091829020825160e081019093528054909316825260018301805492939291840191610dfd90611372565b80601f0160208091040260200160405190810160405280929190818152602001828054610e2990611372565b8015610e765780601f10610e4b57610100808354040283529160200191610e76565b820191906000526020600020905b815481529060010190602001808311610e5957829003601f168201915b50505050508152602001600282018054610e8f90611372565b80601f0160208091040260200160405190810160405280929190818152602001828054610ebb90611372565b8015610f085780601f10610edd57610100808354040283529160200191610f08565b820191906000526020600020905b815481529060010190602001808311610eeb57829003601f168201915b50505050508152602001600382018054610f2190611372565b80601f0160208091040260200160405190810160405280929190818152602001828054610f4d90611372565b8015610f9a5780601f10610f6f57610100808354040283529160200191610f9a565b820191906000526020600020905b815481529060010190602001808311610f7d57829003601f168201915b5050509183525050600482015460ff16151560208201526005820154604082015260069091015460609091015292915050565b6040518060e0016040528060006001600160a01b0316815260200160608152602001606081526020016060815260200160001515815260200160008152602001600081525090565b60006020828403121561102757600080fd5b81356001600160a01b038116811461103e57600080fd5b9392505050565b60006020828403121561105757600080fd5b5035919050565b6000815180845260005b8181101561108457602081850181015186830182015201611068565b506000602082860101526020601f19601f83011685010191505092915050565b6001600160a01b038816815260e0602082018190526000906110c89083018961105e565b82810360408401526110da818961105e565b905082810360608401526110ee818861105e565b9515156080840152505060a081019290925260c090910152949350505050565b60018060a01b0381511682526000602082015160e0602085015261113560e085018261105e565b90506040830151848203604086015261114e828261105e565b91505060608301518482036060860152611168828261105e565b91505060808301511515608085015260a083015160a085015260c083015160c08501528091505092915050565b6000602080830181845280855180835260408601915060408160051b870101925083870160005b828110156111ea57603f198886030184526111d885835161110e565b945092850192908501906001016111bc565b5092979650505050505050565b634e487b7160e01b600052604160045260246000fd5b600082601f83011261121e57600080fd5b813567ffffffffffffffff80821115611239576112396111f7565b604051601f8301601f19908116603f01168101908282118183101715611261576112616111f7565b8160405283815286602085880101111561127a57600080fd5b836020870160208301376000602085830101528094505050505092915050565b6000806000606084860312156112af57600080fd5b833567ffffffffffffffff808211156112c757600080fd5b6112d38783880161120d565b945060208601359150808211156112e957600080fd5b6112f58783880161120d565b9350604086013591508082111561130b57600080fd5b506113188682870161120d565b9150509250925092565b60208152600061103e602083018461110e565b634e487b7160e01b600052603260045260246000fd5b60006001820161136b57634e487b7160e01b600052601160045260246000fd5b5060010190565b600181811c9082168061138657607f821691505b6020821081036102cc57634e487b7160e01b600052602260045260246000fd5b60208082526017908201527f4e6f742061207265676973746572656420697373756572000000000000000000604082015260600190565b601f82111561142757600081815260208120601f850160051c810160208610156114045750805b601f850160051c820191505b8181101561142357828155600101611410565b5050505b505050565b815167ffffffffffffffff811115611446576114466111f7565b61145a816114548454611372565b846113dd565b602080601f83116001811461148f57600084156114775750858301515b600019600386901b1c1916600185901b178555611423565b600085815260208120601f198616915b828110156114be5788860151825594840194600190910190840161149f565b50858210156114dc5787850151600019600388901b60f8161c191681555b5050505050600190811b01905550565b6040815260006114ff604083018561105e565b8281036020840152611511818561105e565b9594505050505056fea26469706673582212201ef2fb5dce1f2588b9af6d66b40752baf1f343b324fbcdab18c9017ab370651d64736f6c63430008130033",
  "linkReferences": {},
  "deployedLinkReferences": {}
}