{
  "_format": "hh-sol-artifact-1",
  "contractName": "CredentialTreasury",
  "sourceName": "contracts/CredentialTreasury.sol",
  "abi": [
    {
      "inputs": [],
      "stateMutability": "nonpayable",
      "type": "constructor"
    },
    {
      "anonymous": false,
      "inputs": [
        {
          "indexed": true,
          "internalType": "address",
          "name": "user",
          "type": "address"
        },
        {
          "indexed": false,
          "internalType": "uint256",
          "name": "amount",
          "type": "uint256"
        },
        {
          "indexed": false,
          "internalType": "uint256",
          "name": "timestamp",
          "type": "uint256"
        }
      ],
      "name": "Deposit",
      "type": "event"
    },
    {
      "anonymous": false,
      "inputs": [
        {
          "indexed": true,
          "internalType": "address",
          "name": "admin",
          "type": "address"
        },
        {
          "indexed": false,
          "internalType": "uint256",
          "name": "amount",
          "type": "uint256"
        }
      ],
      "name": "EmergencyWithdraw",
      "type": "event"
    },
    {
      "anonymous": false,
      "inputs": [
        {
          "indexed": false,
          "internalType": "uint256",
          "name": "oldFee",
          "type": "uint256"
        },
        {
          "indexed": false,
          "internalType": "uint256",
          "name": "newFee",
          "type": "uint256"
        }
      ],
      "name": "FeeUpdated",
      "type": "event"
    },
    {
      "anonymous": false,
      "inputs": [
        {
          "indexed": true,
          "internalType": "address",
          "name": "issuer",
          "type": "address"
        },
        {
          "indexed": false,
          "internalType": "uint256",
          "name": "newRate",
          "type": "uint256"
        }
      ],
      "name": "IssuerRateUpdated",
      "type": "event"
    },
    {
      "anonymous": false,
      "inputs": [
        {
          "indexed": true,
          "internalType": "address",
          "name": "issuer",
          "type": "address"
        },
        {
          "indexed": false,
          "internalType": "uint256",
          "name": "rate",
          "type": "uint256"
        }
      ],
      "name": "IssuerRegistered",
      "type": "event"
    },
    {
      "anonymous": false,
      "inputs": [
        {
          "indexed": true,
          "internalType": "uint256",
          "name": "paymentId",
          "type": "uint256"
        },
        {
          "indexed": true,
          "internalType": "address",
          "name": "from",
          "type": "address"
        },
        {
          "indexed": true,
          "internalType": "address",
          "name": "to",
          "type": "address"
        },
        {
          "indexed": false,
          "internalType": "uint256",
          "name": "amount",
          "type": "uint256"
        }
      ],
      "name": "PaymentProcessed",
      "type": "event"
    },
    {
      "anonymous": false,
      "inputs": [
        {
          "indexed": false,
          "internalType": "uint256",
          "name": "newBalance",
          "type": "uint256"
        }
      ],
      "name": "TreasuryBalanceUpdated",
      "type": "event"
    },
    {
      "anonymous": false,
      "inputs": [
        {
          "indexed": true,
          "internalType": "address",
          "name": "user",
          "type": "address"
        },
        {
          "indexed": false,
          "internalType": "uint256",
          "name": "amount",
          "type": "uint256"
        },
        {
          "indexed": false,
          "internalType": "uint256",
          "name": "timestamp",
          "type": "uint256"
        }
      ],
      "name": "Withdrawal",
      "type": "event"
    },
    {
      "inputs": [],
      "name": "FEE_DENOMINATOR",
      "outputs": [
        {
          "internalType": "uint256",
          "name": "",
          "type": "uint256"
        }
      ],
      "stateMutability": "view",
      "type": "function"
    },
    {
      "inputs": [],
      "name": "admin",
      "outputs": [
        {
          "internalType": "address",
          "name": "",
          "type": "address"
        }
      ],
      "stateMutability": "view",
      "type": "function"
    },
    {
      "inputs": [
        {
          "internalType": "address",
          "name": "",
          "type": "address"
        }
      ],
      "name": "balances",
      "outputs": [
        {
          "internalType": "uint256",
          "name": "",
          "type": "uint256"
        }
      ],
      "stateMutability": "view",
      "type": "function"
    },
    {
      "inputs": [
        {
          "internalType": "address[]",
          "name": "_recipients",
          "type": "address[]"
        },
        {
          "internalType": "uint256[]",
          "name": "_amounts",
          "type": "uint256[]"
        }
      ],
      "name": "batchTransfer",
      "outputs": [],
      "stateMutability": "nonpayable",
      "type": "function"
    },
    {
      "inputs": [
        {
          "internalType": "uint256",
          "name": "_amount",
          "type": "uint256"
        }
      ],
      "name": "calculateFee",
      "outputs": [
        {
          "internalType": "uint256",
          "name": "",
          "type": "uint256"
        }
      ],
      "stateMutability": "view",
      "type": "function"
    },
    {
      "inputs": [
        {
          "internalType": "uint256",
          "name": "_amount",
          "type": "uint256"
        }
      ],
      "name": "calculateNetAmount",
      "outputs": [
        {
          "internalType": "uint256",
          "name": "",
          "type": "uint256"
        }
      ],
      "stateMutability": "view",
      "type": "function"
    },
    {
      "inputs": [
        {
          "internalType": "address",
          "name": "",
          "type": "address"
        },
        {
          "internalType": "uint256",
          "name": "",
          "type": "uint256"
        }
      ],
      "name": "credentialPayments",
      "outputs": [
        {
          "internalType": "uint256",
          "name": "",
          "type": "uint256"
        }
      ],
      "stateMutability": "view",
      "type": "function"
    },
    {
      "inputs": [],
      "name": "deposit",
      "outputs": [],
      "stateMutability": "payable",
      "type": "function"
    },
    {
      "inputs": [],
      "name": "emergencyWithdraw",
      "outputs": [],
      "stateMutability": "nonpayable",
      "type": "function"
    },
    {
      "inputs": [
        {
          "internalType": "address",
          "name": "_user",
          "type": "address"
        }
      ],
      "name": "getBalance",
      "outputs": [
        {
          "internalType": "uint256",
          "name": "",
          "type": "uint256"
        }
      ],
      "stateMutability": "view",
      "type": "function"
    },
    {
      "inputs": [
        {
          "internalType": "address",
          "name": "_issuer",
          "type": "address"
        }
      ],
      "name": "getIssuerRate",
      "outputs": [
        {
          "internalType": "uint256",
          "name": "",
          "type": "uint256"
        }
      ],
      "stateMutability": "view",
      "type": "function"
    },
    {
      "inputs": [
        {
          "internalType": "uint256",
          "name": "_paymentId",
          "type": "uint256"
        }
      ],
      "name": "getPayment",
      "outputs": [
        {
          "components": [
            {
              "internalType": "uint256",
              "name": "id",
              "type": "uint256"
            },
            {
              "internalType": "address",
              "name": "payer",
              "type": "address"
            },
            {
              "internalType": "address",
              "name": "receiver",
              "type": "address"
            },
            {
              "internalType": "uint256",
              "name": "amount",
              "type": "uint256"
            },
            {
              "internalType": "uint256",
              "name": "fee",
              "type": "uint256"
            },
            {
              "internalType": "uint256",
              "name": "timestamp",
              "type": "uint256"
            },
            {
              "internalType": "bool",
              "name": "isProcessed",
              "type": "bool"
            },
            {
              "internalType": "string",
              "name": "paymentType",
              "type": "string"
            },
            {
              "internalType": "uint256",
              "name": "credentialId",
              "type": "uint256"
            }
          ],
          "internalType": "struct CredentialTreasury.Payment",
          "name": "",
          "type": "tuple"
        }
      ],
      "stateMutability": "view",
      "type": "function"
    },
    {
      "inputs": [],
      "name": "getStatistics",
      "outputs": [
        {
          "internalType": "uint256",
          "name": "_totalDeposits",
          "type": "uint256"
        },
        {
          "internalType": "uint256",
          "name": "_totalWithdrawals",
          "type": "uint256"
        },
        {
          "internalType": "uint256",
          "name": "_currentBalance",
          "type": "uint256"
        },
        {
          "internalType": "uint256",
          "name": "_feePercent",
          "type": "uint256"
        }
      ],
      "stateMutability": "view",
      "type": "function"
    },
    {
      "inputs": [],
      "name": "getTreasuryBalance",
      "outputs": [
        {
          "internalType": "uint256",
          "name": "",
          "type": "uint256"
        }
      ],
      "stateMutability": "view",
      "type": "function"
    },
    {
      "inputs": [
        {
          "internalType": "address",
          "name": "_user",
          "type": "address"
        }
      ],
      "name": "getUserPaymentCount",
      "outputs": [
        {
          "internalType": "uint256",
          "name": "",
          "type": "uint256"
        }
      ],
      "stateMutability": "view",
      "type": "function"
    },
    {
      "inputs": [
        {
          "internalType": "address",
          "name": "_user",
          "type": "address"
        }
      ],
      "name": "getUserPayments",
      "outputs": [
        {
          "components": [
            {
              "internalType": "uint256",
              "name": "id",
              "type": "uint256"
            },
            {
              "internalType": "address",
              "name": "payer",
              "type": "address"
            },
            {
              "internalType": "address",
              "name": "receiver",
              "type": "address"
            },
            {
              "internalType": "uint256",
              "name": "amount",
              "type": "uint256"
            },
            {
              "internalType": "uint256",
              "name": "fee",
              "type": "uint256"
            },
            {
              "internalType": "uint256",
              "name": "timestamp",
              "type": "uint256"
            },
            {
              "internalType": "bool",
              "name": "isProcessed",
              "type": "bool"
            },
            {
              "internalType": "string",
              "name": "paymentType",
              "type": "string"
            },
            {
              "internalType": "uint256",
              "name": "credentialId",
              "type": "uint256"
            }
          ],
          "internalType": "struct CredentialTreasury.Payment[]",
          "name": "",
          "type": "tuple[]"
        }
      ],
      "stateMutability": "view",
      "type": "function"
    },
    {
      "inputs": [
        {
          "internalType": "address",
          "name": "_issuer",
          "type": "address"
        }
      ],
      "name": "isIssuerRegistered",
      "outputs": [
        {
          "internalType": "bool",
          "name": "",
          "type": "bool"
        }
      ],
      "stateMutability": "view",
      "type": "function"
    },
    {
      "inputs": [
        {
          "internalType": "address",
          "name": "",
          "type": "address"
        }
      ],
      "name": "issuerRates",
      "outputs": [
        {
          "internalType": "uint256",
          "name": "",
          "type": "uint256"
        }
      ],
      "stateMutability": "view",
      "type": "function"
    },
    {
      "inputs": [
        {
          "internalType": "address",
          "name": "",
          "type": "address"
        },
        {
          "internalType": "uint256",
          "name": "",
          "type": "uint256"
        }
      ],
      "name": "paymentIds",
      "outputs": [
        {
          "internalType": "uint256",
          "name": "",
          "type": "uint256"
        }
      ],
      "stateMutability": "view",
      "type": "function"
    },
    {
      "inputs": [
        {
          "internalType": "uint256",
          "name": "",
          "type": "uint256"
        }
      ],
      "name": "payments",
      "outputs": [
        {
          "internalType": "uint256",
          "name": "id",
          "type": "uint256"
        },
        {
          "internalType": "address",
          "name": "payer",
          "type": "address"
        },
        {
          "internalType": "address",
          "name": "receiver",
          "type": "address"
        },
        {
          "internalType": "uint256",
          "name": "amount",
          "type": "uint256"
        },
        {
          "internalType": "uint256",
          "name": "fee",
          "type": "uint256"
        },
        {
          "internalType": "uint256",
          "name": "timestamp",
          "type": "uint256"
        },
        {
          "internalType": "bool",
          "name": "isProcessed",
          "type": "bool"
        },
        {
          "internalType": "string",
          "name": "paymentType",
          "type": "string"
        },
        {
          "internalType": "uint256",
          "name": "credentialId",
          "type": "uint256"
        }
      ],
      "stateMutability": "view",
      "type": "function"
    },
    {
      "inputs": [],
      "name": "platformFeePercent",
      "outputs": [
        {
          "internalType": "uint256",
          "name": "",
          "type": "uint256"
        }
      ],
      "stateMutability": "view",
      "type": "function"
    },
    {
      "inputs": [
        {
          "internalType": "address",
          "name": "_to",
          "type": "address"
        },
        {
          "internalType": "uint256",
          "name": "_amount",
          "type": "uint256"
        },
        {
          "internalType": "string",
          "name": "_paymentType",
          "type": "string"
        },
        {
          "internalType": "uint256",
          "name": "_credentialId",
          "type": "uint256"
        }
      ],
      "name": "processPayment",
      "outputs": [
        {
          "internalType": "uint256",
          "name": "",
          "type": "uint256"
        }
      ],
      "stateMutability": "nonpayable",
      "type": "function"
    },
    {
      "inputs": [
        {
          "internalType": "address",
          "name": "_issuer",
          "type": "address"
        },
        {
          "internalType": "uint256",
          "name": "_rate",
          "type": "uint256"
        }
      ],
      "name": "registerIssuer",
      "outputs": [],
      "stateMutability": "nonpayable",
      "type": "function"
    },
    {
      "inputs": [
        {
          "internalType": "address",
          "name": "",
          "type": "address"
        }
      ],
      "name": "registeredIssuers",
      "outputs": [
        {
          "internalType": "bool",
          "name": "",
          "type": "bool"
        }
      ],
      "stateMutability": "view",
      "type": "function"
    },
    {
      "inputs": [],
      "name": "totalDeposits",
      "outputs": [
        {
          "internalType": "uint256",
          "name": "",
          "type": "uint256"
        }
      ],
      "stateMutability": "view",
      "type": "function"
    },
    {
      "inputs": [],
      "name": "totalWithdrawals",
      "outputs": [
        {
          "internalType": "uint256",
          "name": "",
          "type": "uint256"
        }
      ],
      "stateMutability": "view",
      "type": "function"
    },
    {
      "inputs": [
        {
          "internalType": "address",
          "name": "_issuer",
          "type": "address"
        },
        {
          "internalType": "uint256",
          "name": "_newRate",
          "type": "uint256"
        }
      ],
      "name": "updateIssuerRate",
      "outputs": [],
      "stateMutability": "nonpayable",
      "type": "function"
    },
    {
      "inputs": [
        {
          "internalType": "uint256",
          "name": "_newFee",
          "type": "uint256"
        }
      ],
      "name": "updatePlatformFee",
      "outputs": [],
      "stateMutability": "nonpayable",
      "type": "function"
    },
    {
      "inputs": [
        {
          "internalType": "uint256",
          "name": "amount",
          "type": "uint256"
        }
      ],
      "name": "withdraw",
      "outputs": [],
      "stateMutability": "nonpayable",
      "type": "function"
    },
    {
      "stateMutability": "payable",
      "type": "receive"
    }
  ],
  "bytecode": "0x6080604052601960095534801561001557600080fd5b50600680546001600160a01b03191633179055611ec6806100376000396000f3fe6080604052600436106101c65760003560e01c806387791dad116100f7578063aa0b598811610095578063d73792a911610064578063d73792a91461063a578063db2e21bc14610650578063f851a44014610665578063f8b2cb4f1461069d57600080fd5b8063aa0b5988146105d2578063bdab6fc6146105f2578063c2080cf814610612578063d0e30db01461063257600080fd5b80638c639a85116100d15780638c639a851461055c57806399a5d747146105725780639b5655dc146105925780639d7dadeb146105a557600080fd5b806387791dad146104da57806387d817891461050757806388d695b21461053c57600080fd5b8063372d6b27116101645780636bc7bf4b1161013e5780636bc7bf4b146104155780636f5783031461045e5780637d8820971461048e5780638362492f146104a457600080fd5b8063372d6b271461039157806360464627146103c957806362ce6f1c146103df57600080fd5b806327e235e3116101a057806327e235e3146102f75780632a58be52146103245780632e1a7d4d146103445780633280a8361461036457600080fd5b80630849d8441461026a57806315f78c331461029d578063229fde2c146102d557600080fd5b366102655733600090815260208190526040812080543492906101ea90849061183a565b925050819055503460076000828254610203919061183a565b90915550506040805134815242602082015233917f90890809c654f11d6e72a28fa60149770a0d11ec6c92319d6ceb2bb0a4ea1a15910160405180910390a2604051478152600080516020611e718339815191529060200160405180910390a1005b600080fd5b34801561027657600080fd5b5061028a61028536600461187f565b6106d3565b6040519081526020015b60405180910390f35b3480156102a957600080fd5b5061028a6102b8366004611952565b600160209081526000928352604080842090915290825290205481565b3480156102e157600080fd5b506102f56102f0366004611952565b6108b6565b005b34801561030357600080fd5b5061028a61031236600461197c565b60006020819052908152604090205481565b34801561033057600080fd5b506102f561033f366004611952565b6109b3565b34801561035057600080fd5b506102f561035f366004611997565b610b23565b34801561037057600080fd5b5061038461037f366004611997565b610c7c565b6040516102949190611a8c565b34801561039d57600080fd5b506007546008546009544790604080519485526020850193909352918301526060820152608001610294565b3480156103d557600080fd5b5061028a60085481565b3480156103eb57600080fd5b5061028a6103fa36600461197c565b6001600160a01b031660009081526004602052604090205490565b34801561042157600080fd5b5061044e61043036600461197c565b6001600160a01b031660009081526005602052604090205460ff1690565b6040519015158152602001610294565b34801561046a57600080fd5b5061044e61047936600461197c565b60056020526000908152604090205460ff1681565b34801561049a57600080fd5b5061028a60075481565b3480156104b057600080fd5b5061028a6104bf36600461197c565b6001600160a01b031660009081526002602052604090205490565b3480156104e657600080fd5b5061028a6104f536600461197c565b60046020526000908152604090205481565b34801561051357600080fd5b50610527610522366004611997565b610da0565b60405161029499989796959493929190611a9f565b34801561054857600080fd5b506102f5610557366004611b53565b610e85565b34801561056857600080fd5b5061028a60095481565b34801561057e57600080fd5b5061028a61058d366004611997565b6110b8565b34801561059e57600080fd5b504761028a565b3480156105b157600080fd5b506105c56105c036600461197c565b6110db565b6040516102949190611bbf565b3480156105de57600080fd5b506102f56105ed366004611997565b611311565b3480156105fe57600080fd5b5061028a61060d366004611997565b6113e3565b34801561061e57600080fd5b5061028a61062d366004611952565b611414565b6102f5611445565b34801561064657600080fd5b5061028a6103e881565b34801561065c57600080fd5b506102f561153f565b34801561067157600080fd5b50600654610685906001600160a01b031681565b6040516001600160a01b039091168152602001610294565b3480156106a957600080fd5b5061028a6106b836600461197c565b6001600160a01b031660009081526020819052604090205490565b3360009081526020819052604081205484111561070b5760405162461bcd60e51b815260040161070290611c21565b60405180910390fd5b6001600160a01b0385166107795760405162461bcd60e51b815260206004820152602f60248201527f43726564656e7469616c54726561737572793a2063616e6e6f742073656e642060448201526e746f207a65726f206164647265737360881b6064820152608401610702565b60006103e86009548661078c9190611c69565b6107969190611c80565b905060006107a48287611ca2565b336000908152602081905260408120805492935088929091906107c8908490611ca2565b90915550506001600160a01b038716600090815260208190526040812080548392906107f590849061183a565b90915550506006546001600160a01b03166000908152602081905260408120805484929061082490849061183a565b909155506000905061083a338989868a8a611648565b9050876001600160a01b0316336001600160a01b0316827f37a13dcf7266fe3681e46ca252ea4f79e8a76da88ae9446f99242fbc014a6c398560405161088291815260200190565b60405180910390a4604051478152600080516020611e718339815191529060200160405180910390a1979650505050505050565b6006546001600160a01b031633146108e05760405162461bcd60e51b815260040161070290611cb5565b6001600160a01b03821660009081526005602052604090205460ff1661095a5760405162461bcd60e51b815260206004820152602960248201527f43726564656e7469616c54726561737572793a20697373756572206e6f7420726044820152681959da5cdd195c995960ba1b6064820152608401610702565b6001600160a01b03821660008181526004602052604090819020839055517f5a6e0192023fc08e3a6bb9914abc55f8b8ba3031c486a426ccd1ba09eee51ace906109a79084815260200190565b60405180910390a25050565b6006546001600160a01b031633146109dd5760405162461bcd60e51b815260040161070290611cb5565b6001600160a01b038216610a465760405162461bcd60e51b815260206004820152602a60248201527f43726564656e7469616c54726561737572793a20696e76616c696420697373756044820152696572206164647265737360b01b6064820152608401610702565b6001600160a01b03821660009081526005602052604090205460ff1615610ac55760405162461bcd60e51b815260206004820152602d60248201527f43726564656e7469616c54726561737572793a2069737375657220616c72656160448201526c191e481c9959da5cdd195c9959609a1b6064820152608401610702565b6001600160a01b0382166000818152600560209081526040808320805460ff19166001179055600482529182902084905590518381527fe208dc536d312b8f6a9c8b5d676b466fb76ee34ad4a801039f1581d6fda8dd1d91016109a7565b60008111610b845760405162461bcd60e51b815260206004820152602860248201527f43726564656e7469616c54726561737572793a2063616e6e6f74207769746864604482015267726177207a65726f60c01b6064820152608401610702565b33600090815260208190526040902054811115610bb35760405162461bcd60e51b815260040161070290611c21565b3360009081526020819052604081208054839290610bd2908490611ca2565b925050819055508060086000828254610beb919061183a565b9091555050604051339082156108fc029083906000818181858888f19350505050158015610c1d573d6000803e3d6000fd5b506040805182815242602082015233917fdf273cb619d95419a9cd0ec88123a0538c85064229baa6363788f743fff90deb910160405180910390a2604051478152600080516020611e718339815191529060200160405180910390a150565b610c846117c4565b6000828152600360208181526040928390208351610120810185528154815260018201546001600160a01b039081169382019390935260028201549092169382019390935290820154606082015260048201546080820152600582015460a0820152600682015460ff16151560c082015260078201805491929160e084019190610d0d90611cfc565b80601f0160208091040260200160405190810160405280929190818152602001828054610d3990611cfc565b8015610d865780601f10610d5b57610100808354040283529160200191610d86565b820191906000526020600020905b815481529060010190602001808311610d6957829003601f168201915b505050505081526020016008820154815250509050919050565b60036020819052600091825260409091208054600182015460028301549383015460048401546005850154600686015460078701805496986001600160a01b039687169896169694959394929360ff90921692610dfc90611cfc565b80601f0160208091040260200160405190810160405280929190818152602001828054610e2890611cfc565b8015610e755780601f10610e4a57610100808354040283529160200191610e75565b820191906000526020600020905b815481529060010190602001808311610e5857829003601f168201915b5050505050908060080154905089565b828114610ee75760405162461bcd60e51b815260206004820152602a60248201527f43726564656e7469616c54726561737572793a20617272617973206c656e67746044820152690d040dad2e6dac2e8c6d60b31b6064820152608401610702565b6000805b82811015610f2b57838382818110610f0557610f05611d36565b9050602002013582610f17919061183a565b915080610f2381611d4c565b915050610eeb565b5033600090815260208190526040902054811115610f5b5760405162461bcd60e51b815260040161070290611c21565b3360009081526020819052604081208054839290610f7a908490611ca2565b90915550600090505b848110156110b0576000868683818110610f9f57610f9f611d36565b9050602002016020810190610fb4919061197c565b6001600160a01b0316036110265760405162461bcd60e51b815260206004820152603360248201527f43726564656e7469616c54726561737572793a2063616e6e6f74207472616e7360448201527266657220746f207a65726f206164647265737360681b6064820152608401610702565b83838281811061103857611038611d36565b9050602002013560008088888581811061105457611054611d36565b9050602002016020810190611069919061197c565b6001600160a01b03166001600160a01b031681526020019081526020016000206000828254611098919061183a565b909155508190506110a881611d4c565b915050610f83565b505050505050565b60006103e8600954836110cb9190611c69565b6110d59190611c80565b92915050565b6001600160a01b038116600090815260026020908152604080832080548251818502810185019093528083526060949383018282801561113a57602002820191906000526020600020905b815481526020019060010190808311611126575b505050505090506000815167ffffffffffffffff81111561115d5761115d611869565b60405190808252806020026020018201604052801561119657816020015b6111836117c4565b81526020019060019003908161117b5790505b50905060005b825181101561130957600360008483815181106111bb576111bb611d36565b60209081029190910181015182528181019290925260409081016000208151610120810183528154815260018201546001600160a01b03908116948201949094526002820154909316918301919091526003810154606083015260048101546080830152600581015460a0830152600681015460ff16151560c083015260078101805460e08401919061124d90611cfc565b80601f016020809104026020016040519081016040528092919081815260200182805461127990611cfc565b80156112c65780601f1061129b576101008083540402835291602001916112c6565b820191906000526020600020905b8154815290600101906020018083116112a957829003601f168201915b505050505081526020016008820154815250508282815181106112eb576112eb611d36565b6020026020010181905250808061130190611d4c565b91505061119c565b509392505050565b6006546001600160a01b0316331461133b5760405162461bcd60e51b815260040161070290611cb5565b606481111561139e5760405162461bcd60e51b815260206004820152602960248201527f43726564656e7469616c54726561737572793a206665652063616e6e6f74206560448201526878636565642031302560b81b6064820152608401610702565b600980549082905560408051828152602081018490527f528d9479e9f9889a87a3c30c7f7ba537e5e59c4c85a37733b16e57c62df61302910160405180910390a15050565b6000806103e8600954846113f79190611c69565b6114019190611c80565b905061140d8184611ca2565b9392505050565b6002602052816000526040600020818154811061143057600080fd5b90600052602060002001600091509150505481565b600034116114a55760405162461bcd60e51b815260206004820152602760248201527f43726564656e7469616c54726561737572793a2063616e6e6f74206465706f736044820152666974207a65726f60c81b6064820152608401610702565b33600090815260208190526040812080543492906114c490849061183a565b9250508190555034600760008282546114dd919061183a565b90915550506040805134815242602082015233917f90890809c654f11d6e72a28fa60149770a0d11ec6c92319d6ceb2bb0a4ea1a15910160405180910390a2604051478152600080516020611e718339815191529060200160405180910390a1565b6006546001600160a01b031633146115695760405162461bcd60e51b815260040161070290611cb5565b47806115c85760405162461bcd60e51b815260206004820152602860248201527f43726564656e7469616c54726561737572793a206e6f2066756e647320746f20604482015267776974686472617760c01b6064820152608401610702565b6006546040516001600160a01b039091169082156108fc029083906000818181858888f19350505050158015611602573d6000803e3d6000fd5b506006546040518281526001600160a01b03909116907f5fafa99d0643513820be26656b45130b01e1c03062e1266bf36f88cbd3bd96959060200160405180910390a250565b60408051606088811b6bffffffffffffffffffffffff199081166020808501919091529189901b16603483015260488201879052426068830181905260888084018690528451808503909101815260a884018086528151918401919091206101c8850186528082526001600160a01b03808d1660c88701908152818d1660e8880190815261010888018d815261012889018d81526101488a0197885260016101688b018181526101888c018f81526101a8909c018e9052600088815260039b8c90529c8d2089518155955191860180549288166001600160a01b031993841617905593516002860180549190971691161790945551968201969096559051600482015592516005840155925160068301805491151560ff19929092169190911790559251919291600782019061177e9082611db0565b5061010091909101516008909101556001600160a01b03881660009081526002602090815260408220805460018101825590835291200181905590509695505050505050565b6040518061012001604052806000815260200160006001600160a01b0316815260200160006001600160a01b0316815260200160008152602001600081526020016000815260200160001515815260200160608152602001600081525090565b634e487b7160e01b600052601160045260246000fd5b808201808211156110d5576110d5611824565b80356001600160a01b038116811461186457600080fd5b919050565b634e487b7160e01b600052604160045260246000fd5b6000806000806080858703121561189557600080fd5b61189e8561184d565b935060208501359250604085013567ffffffffffffffff808211156118c257600080fd5b818701915087601f8301126118d657600080fd5b8135818111156118e8576118e8611869565b604051601f8201601f19908116603f0116810190838211818310171561191057611910611869565b816040528281528a602084870101111561192957600080fd5b826020860160208301376000928101602001929092525095989497509495606001359450505050565b6000806040838503121561196557600080fd5b61196e8361184d565b946020939093013593505050565b60006020828403121561198e57600080fd5b61140d8261184d565b6000602082840312156119a957600080fd5b5035919050565b6000815180845260005b818110156119d6576020818501810151868301820152016119ba565b506000602082860101526020601f19601f83011685010191505092915050565b60006101208251845260018060a01b0360208401511660208501526040830151611a2b60408601826001600160a01b03169052565b50606083015160608501526080830151608085015260a083015160a085015260c0830151611a5d60c086018215159052565b5060e08301518160e0860152611a75828601826119b0565b610100948501519590940194909452509092915050565b60208152600061140d60208301846119f6565b8981526001600160a01b03898116602083015288166040820152606081018790526080810186905260a0810185905283151560c082015261012060e08201819052600090611aef838201866119b0565b915050826101008301529a9950505050505050505050565b60008083601f840112611b1957600080fd5b50813567ffffffffffffffff811115611b3157600080fd5b6020830191508360208260051b8501011115611b4c57600080fd5b9250929050565b60008060008060408587031215611b6957600080fd5b843567ffffffffffffffff80821115611b8157600080fd5b611b8d88838901611b07565b90965094506020870135915080821115611ba657600080fd5b50611bb387828801611b07565b95989497509550505050565b6000602080830181845280855180835260408601915060408160051b870101925083870160005b82811015611c1457603f19888603018452611c028583516119f6565b94509285019290850190600101611be6565b5092979650505050505050565b60208082526028908201527f43726564656e7469616c54726561737572793a20696e73756666696369656e746040820152672062616c616e636560c01b606082015260800190565b80820281158282048414176110d5576110d5611824565b600082611c9d57634e487b7160e01b600052601260045260246000fd5b500490565b818103818111156110d5576110d5611824565b60208082526027908201527f43726564656e7469616c54726561737572793a2063616c6c6572206973206e6f6040820152663a1030b236b4b760c91b606082015260800190565b600181811c90821680611d1057607f821691505b602082108103611d3057634e487b7160e01b600052602260045260246000fd5b50919050565b634e487b7160e01b600052603260045260246000fd5b600060018201611d5e57611d5e611824565b5060010190565b601f821115611dab57600081815260208120601f850160051c81016020861015611d8c5750805b601f850160051c820191505b818110156110b057828155600101611d98565b505050565b815167ffffffffffffffff811115611dca57611dca611869565b611dde81611dd88454611cfc565b84611d65565b602080601f831160018114611e135760008415611dfb5750858301515b600019600386901b1c1916600185901b1785556110b0565b600085815260208120601f198616915b82811015611e4257888601518255948401946001909101908401611e23565b5085821015611e605787850151600019600388901b60f8161c191681555b5050505050600190811b0190555056fed3ef9878abf7c656ef6598c51c1a97baf8cefd2cf0ad0d923e2df217ee99f4ffa26469706673582212206a420f644dba01d9b2e30d9079aff25f08be4badb6e7bc8cbe1949290cc8b0e864736f6c63430008130033",
  "linkReferences": {},
  "deployedLinkReferences": {}
}