{
  "_format": "hh-sol-artifact-1",
  "contractName": "MultiSigWallet",
  "sourceName": "contracts/MultiSigWallet.sol",
  "abi": [
    {
      "inputs": [
        {
          "internalType": "address[]",
          "name": "_owners",
          "type": "address[]"
        },
        {
          "internalType": "uint256",
          "name": "_required",
          "type": "uint256"
        }
      ],
      "stateMutability": "nonpayable",
      "type": "constructor"
    },
    {
      "anonymous": false,
      "inputs": [
        {
          "indexed": true,
          "internalType": "address",
          "name": "owner",
          "type": "address"
        }
      ],
      "name": "OwnerAdded",
      "type": "event"
    },
    {
      "anonymous": false,
      "inputs": [
        {
          "indexed": true,
          "internalType": "address",
          "name": "owner",
          "type": "address"
        }
      ],
      "name": "OwnerRemoved",
      "type": "event"
    },
    {
      "anonymous": false,
      "inputs": [
        {
          "indexed": false,
          "internalType": "uint256",
          "name": "oldRequired",
          "type": "uint256"
        },
        {
          "indexed": false,
          "internalType": "uint256",
          "name": "newRequired",
          "type": "uint256"
        }
      ],
      "name": "RequirementChanged",
      "type": "event"
    },
    {
      "anonymous": false,
      "inputs": [
        {
          "indexed": true,
          "internalType": "uint256",
          "name": "transactionId",
          "type": "uint256"
        },
        {
          "indexed": true,
          "internalType": "address",
          "name": "confirmer",
          "type": "address"
        }
      ],
      "name": "TransactionConfirmed",
      "type": "event"
    },
    {
      "anonymous": false,
      "inputs": [
        {
          "indexed": true,
          "internalType": "uint256",
          "name": "transactionId",
          "type": "uint256"
        },
        {
          "indexed": true,
          "internalType": "address",
          "name": "executor",
          "type": "address"
        }
      ],
      "name": "TransactionExecuted",
      "type": "event"
    },
    {
      "anonymous": false,
      "inputs": [
        {
          "indexed": true,
          "internalType": "uint256",
          "name": "transactionId",
          "type": "uint256"
        },
        {
          "indexed": true,
          "internalType": "address",
          "name": "revoker",
          "type": "address"
        }
      ],
      "name": "TransactionRevoked",
      "type": "event"
    },
    {
      "anonymous": false,
      "inputs": [
        {
          "indexed": true,
          "internalType": "uint256",
          "name": "transactionId",
          "type": "uint256"
        },
        {
          "indexed": true,
          "internalType": "address",
          "name": "submitter",
          "type": "address"
        },
        {
          "indexed": true,
          "internalType": "address",
          "name": "to",
          "type": "address"
        },
        {
          "indexed": false,
          "internalType": "uint256",
          "name": "value",
          "type": "uint256"
        }
      ],
      "name": "TransactionSubmitted",
      "type": "event"
    },
    {
      "inputs": [],
      "name": "MAX_OWNERS",
      "outputs": [
        {
          "internalType": "uint256",
          "name": "",
          "type": "uint256"
        }
      ],
      "stateMutability": "view",
      "type": "function"
    },
    {
      "inputs": [],
      "name": "MAX_TRANSACTIONS",
      "outputs": [
        {
          "internalType": "uint256",
          "name": "",
          "type": "uint256"
        }
      ],
      "stateMutability": "view",
      "type": "function"
    },
    {
      "inputs": [
        {
          "internalType": "address",
          "name": "_owner",
          "type": "address"
        }
      ],
      "name": "addOwner",
      "outputs": [],
      "stateMutability": "nonpayable",
      "type": "function"
    },
    {
      "inputs": [
        {
          "internalType": "uint256",
          "name": "_required",
          "type": "uint256"
        }
      ],
      "name": "changeRequirement",
      "outputs": [],
      "stateMutability": "nonpayable",
      "type": "function"
    },
    {
      "inputs": [
        {
          "internalType": "uint256",
          "name": "_transactionId",
          "type": "uint256"
        }
      ],
      "name": "confirmTransaction",
      "outputs": [],
      "stateMutability": "nonpayable",
      "type": "function"
    },
    {
      "inputs": [
        {
          "internalType": "uint256",
          "name": "",
          "type": "uint256"
        },
        {
          "internalType": "address",
          "name": "",
          "type": "address"
        }
      ],
      "name": "confirmations",
      "outputs": [
        {
          "internalType": "bool",
          "name": "",
          "type": "bool"
        }
      ],
      "stateMutability": "view",
      "type": "function"
    },
    {
      "inputs": [
        {
          "internalType": "uint256",
          "name": "_transactionId",
          "type": "uint256"
        }
      ],
      "name": "executeTransaction",
      "outputs": [],
      "stateMutability": "nonpayable",
      "type": "function"
    },
    {
      "inputs": [],
      "name": "getExecutedTransactions",
      "outputs": [
        {
          "internalType": "uint256[]",
          "name": "",
          "type": "uint256[]"
        }
      ],
      "stateMutability": "view",
      "type": "function"
    },
    {
      "inputs": [],
      "name": "getOwnerCount",
      "outputs": [
        {
          "internalType": "uint256",
          "name": "",
          "type": "uint256"
        }
      ],
      "stateMutability": "view",
      "type": "function"
    },
    {
      "inputs": [
        {
          "internalType": "address",
          "name": "_owner",
          "type": "address"
        }
      ],
      "name": "getOwnerTransactions",
      "outputs": [
        {
          "internalType": "uint256[]",
          "name": "",
          "type": "uint256[]"
        }
      ],
      "stateMutability": "view",
      "type": "function"
    },
    {
      "inputs": [],
      "name": "getPendingTransactions",
      "outputs": [
        {
          "internalType": "uint256[]",
          "name": "",
          "type": "uint256[]"
        }
      ],
      "stateMutability": "view",
      "type": "function"
    },
    {
      "inputs": [
        {
          "internalType": "uint256",
          "name": "_transactionId",
          "type": "uint256"
        }
      ],
      "name": "getTransaction",
      "outputs": [
        {
          "internalType": "address",
          "name": "to",
          "type": "address"
        },
        {
          "internalType": "uint256",
          "name": "value",
          "type": "uint256"
        },
        {
          "internalType": "bytes",
          "name": "data",
          "type": "bytes"
        },
        {
          "internalType": "bool",
          "name": "executed",
          "type": "bool"
        },
        {
          "internalType": "uint256",
          "name": "confirmations",
          "type": "uint256"
        },
        {
          "internalType": "uint256",
          "name": "timestamp",
          "type": "uint256"
        },
        {
          "internalType": "string",
          "name": "description",
          "type": "string"
        }
      ],
      "stateMutability": "view",
      "type": "function"
    },
    {
      "inputs": [
        {
          "internalType": "uint256",
          "name": "_transactionId",
          "type": "uint256"
        }
      ],
      "name": "getTransactionConfirmations",
      "outputs": [
        {
          "internalType": "address[]",
          "name": "",
          "type": "address[]"
        }
      ],
      "stateMutability": "view",
      "type": "function"
    },
    {
      "inputs": [],
      "name": "getTransactionCount",
      "outputs": [
        {
          "internalType": "uint256",
          "name": "",
          "type": "uint256"
        }
      ],
      "stateMutability": "view",
      "type": "function"
    },
    {
      "inputs": [
        {
          "internalType": "uint256",
          "name": "_transactionId",
          "type": "uint256"
        },
        {
          "internalType": "address",
          "name": "_owner",
          "type": "address"
        }
      ],
      "name": "isConfirmed",
      "outputs": [
        {
          "internalType": "bool",
          "name": "",
          "type": "bool"
        }
      ],
      "stateMutability": "view",
      "type": "function"
    },
    {
      "inputs": [
        {
          "internalType": "address",
          "name": "",
          "type": "address"
        }
      ],
      "name": "isOwner",
      "outputs": [
        {
          "internalType": "bool",
          "name": "",
          "type": "bool"
        }
      ],
      "stateMutability": "view",
      "type": "function"
    },
    {
      "inputs": [
        {
          "internalType": "address",
          "name": "",
          "type": "address"
        },
        {
          "internalType": "uint256",
          "name": "",
          "type": "uint256"
        }
      ],
      "name": "ownerTransactionIds",
      "outputs": [
        {
          "internalType": "uint256",
          "name": "",
          "type": "uint256"
        }
      ],
      "stateMutability": "view",
      "type": "function"
    },
    {
      "inputs": [
        {
          "internalType": "uint256",
          "name": "",
          "type": "uint256"
        }
      ],
      "name": "owners",
      "outputs": [
        {
          "internalType": "address",
          "name": "",
          "type": "address"
        }
      ],
      "stateMutability": "view",
      "type": "function"
    },
    {
      "inputs": [
        {
          "internalType": "address",
          "name": "_owner",
          "type": "address"
        }
      ],
      "name": "removeOwner",
      "outputs": [],
      "stateMutability": "nonpayable",
      "type": "function"
    },
    {
      "inputs": [],
      "name": "required",
      "outputs": [
        {
          "internalType": "uint256",
          "name": "",
          "type": "uint256"
        }
      ],
      "stateMutability": "view",
      "type": "function"
    },
    {
      "inputs": [
        {
          "internalType": "uint256",
          "name": "_transactionId",
          "type": "uint256"
        }
      ],
      "name": "revokeConfirmation",
      "outputs": [],
      "stateMutability": "nonpayable",
      "type": "function"
    },
    {
      "inputs": [
        {
          "internalType": "address",
          "name": "_to",
          "type": "address"
        },
        {
          "internalType": "uint256",
          "name": "_value",
          "type": "uint256"
        },
        {
          "internalType": "bytes",
          "name": "_data",
          "type": "bytes"
        },
        {
          "internalType": "string",
          "name": "_description",
          "type": "string"
        }
      ],
      "name": "submitTransaction",
      "outputs": [
        {
          "internalType": "uint256",
          "name": "",
          "type": "uint256"
        }
      ],
      "stateMutability": "nonpayable",
      "type": "function"
    },
    {
      "inputs": [],
      "name": "transactionCount",
      "outputs": [
        {
          "internalType": "uint256",
          "name": "",
          "type": "uint256"
        }
      ],
      "stateMutability": "view",
      "type": "function"
    },
    {
      "inputs": [
        {
          "internalType": "uint256",
          "name": "",
          "type": "uint256"
        }
      ],
      "name": "transactions",
      "outputs": [
        {
          "internalType": "uint256",
          "name": "id",
          "type": "uint256"
        },
        {
          "internalType": "address",
          "name": "to",
          "type": "address"
        },
        {
          "internalType": "uint256",
          "name": "value",
          "type": "uint256"
        },
        {
          "internalType": "bytes",
          "name": "data",
          "type": "bytes"
        },
        {
          "internalType": "bool",
          "name": "executed",
          "type": "bool"
        },
        {
          "internalType": "uint256",
          "name": "confirmations",
          "type": "uint256"
        },
        {
          "internalType": "uint256",
          "name": "timestamp",
          "type": "uint256"
        },
        {
          "internalType": "string",
          "name": "description",
          "type": "string"
        }
      ],
      "stateMutability": "view",
      "type": "function"
    },
    {
      "stateMutability": "payable",
      "type": "receive"
    }
  ],
  "bytecode": "0x60806040523480156200001157600080fd5b506040516200255b3803806200255b83398101604081905262000034916200036b565b60008251116200008b5760405162461bcd60e51b815260206004820152601f60248201527f4d756c746953696757616c6c65743a206f776e6572732072657175697265640060448201526064015b60405180910390fd5b60008111620000f55760405162461bcd60e51b815260206004820152602f60248201527f4d756c746953696757616c6c65743a20726571756972656420636f6e6669726d60448201526e185d1a5bdb9cc81c995c5d5a5c9959608a1b606482015260840162000082565b80825110156200015a5760405162461bcd60e51b815260206004820152602960248201527f4d756c746953696757616c6c65743a206f776e657273206c657373207468616e604482015268081c995c5d5a5c995960ba1b606482015260840162000082565b603282511115620001ba5760405162461bcd60e51b815260206004820152602360248201527f4d756c746953696757616c6c65743a206d6178206f776e65727320657863656560448201526219195960ea1b606482015260840162000082565b60005b82518110156200032d576000838281518110620001de57620001de62000445565b6020026020010151905060006001600160a01b0316816001600160a01b0316036200024c5760405162461bcd60e51b815260206004820152601d60248201527f4d756c746953696757616c6c65743a20696e76616c6964206f776e6572000000604482015260640162000082565b6001600160a01b03811660009081526020819052604090205460ff1615620002b75760405162461bcd60e51b815260206004820152601f60248201527f4d756c746953696757616c6c65743a206475706c6963617465206f776e657200604482015260640162000082565b6001600160a01b03166000818152602081905260408120805460ff191660019081179091558054808201825591527fb10e2d527612073b26eecdfd717e6a320cf44b4afac2b0732d9fcbe2b7fa0cf60180546001600160a01b03191690911790558062000324816200045b565b915050620001bd565b506005555062000483565b634e487b7160e01b600052604160045260246000fd5b80516001600160a01b03811681146200036657600080fd5b919050565b600080604083850312156200037f57600080fd5b82516001600160401b03808211156200039757600080fd5b818501915085601f830112620003ac57600080fd5b8151602082821115620003c357620003c362000338565b8160051b604051601f19603f83011681018181108682111715620003eb57620003eb62000338565b6040529283528183019350848101820192898411156200040a57600080fd5b948201945b83861015620004335762000423866200034e565b855294820194938201936200040f565b97909101519698969750505050505050565b634e487b7160e01b600052603260045260246000fd5b6000600182016200047c57634e487b7160e01b600052601160045260246000fd5b5060010190565b6120c880620004936000396000f3fe60806040526004361061014f5760003560e01c806380f59a65116100b6578063d11db83f1161006f578063d11db83f14610424578063dc8452cd14610439578063e6a6d4c81461044f578063ee22610b14610464578063ef18374a14610484578063f568c6c51461049957600080fd5b806380f59a651461035a57806391af46631461037a5780639ace38c21461039a578063b77bf600146103ce578063ba51a6df146103e4578063c01a8c841461040457600080fd5b806333ea3dc81161010857806333ea3dc8146102525780633411c81c1461028557806346e24b08146102c05780636287aebb146102e05780637065cb481461030d578063739cc0dc1461032d57600080fd5b8063025e7c271461015b5780630b8bb14614610198578063173825d9146101bb57806320ea8d86146101dd5780632e7700f0146101fd5780632f54bf6e1461021257600080fd5b3661015657005b600080fd5b34801561016757600080fd5b5061017b6101763660046119c7565b6104af565b6040516001600160a01b0390911681526020015b60405180910390f35b3480156101a457600080fd5b506101ad603281565b60405190815260200161018f565b3480156101c757600080fd5b506101db6101d63660046119fc565b6104d9565b005b3480156101e957600080fd5b506101db6101f83660046119c7565b610701565b34801561020957600080fd5b506006546101ad565b34801561021e57600080fd5b5061024261022d3660046119fc565b60006020819052908152604090205460ff1681565b604051901515815260200161018f565b34801561025e57600080fd5b5061027261026d3660046119c7565b61087a565b60405161018f9796959493929190611a64565b34801561029157600080fd5b506102426102a0366004611abf565b600360209081526000928352604080842090915290825290205460ff1681565b3480156102cc57600080fd5b506101ad6102db366004611b77565b610a10565b3480156102ec57600080fd5b506103006102fb3660046119fc565b610c7c565b60405161018f9190611c20565b34801561031957600080fd5b506101db6103283660046119fc565b610ce8565b34801561033957600080fd5b5061034d6103483660046119c7565b610eae565b60405161018f9190611c64565b34801561036657600080fd5b50610242610375366004611abf565b611088565b34801561038657600080fd5b506101ad610395366004611ca5565b6110b5565b3480156103a657600080fd5b506103ba6103b53660046119c7565b6110e6565b60405161018f989796959493929190611ccf565b3480156103da57600080fd5b506101ad60065481565b3480156103f057600080fd5b506101db6103ff3660046119c7565b61124b565b34801561041057600080fd5b506101db61041f3660046119c7565b611367565b34801561043057600080fd5b50610300611512565b34801561044557600080fd5b506101ad60055481565b34801561045b57600080fd5b50610300611666565b34801561047057600080fd5b506101db61047f3660046119c7565b6117b3565b34801561049057600080fd5b506001546101ad565b3480156104a557600080fd5b506101ad6103e881565b600181815481106104bf57600080fd5b6000918252602090912001546001600160a01b0316905081565b3330146105015760405162461bcd60e51b81526004016104f890611d38565b60405180910390fd5b6001600160a01b03811660009081526020819052604090205460ff166105395760405162461bcd60e51b81526004016104f890611d86565b6005546001805461054a9190611dd3565b10156105a45760405162461bcd60e51b815260206004820152602360248201527f4d756c746953696757616c6c65743a2063616e6e6f742072656d6f7665206f776044820152623732b960e91b60648201526084016104f8565b6001600160a01b0381166000908152602081905260408120805460ff191690555b6001548110156106c957816001600160a01b0316600182815481106105ec576105ec611de6565b6000918252602090912001546001600160a01b0316036106b75760018054610615908290611dd3565b8154811061062557610625611de6565b600091825260209091200154600180546001600160a01b03909216918390811061065157610651611de6565b9060005260206000200160006101000a8154816001600160a01b0302191690836001600160a01b03160217905550600180548061069057610690611dfc565b600082815260209020810160001990810180546001600160a01b03191690550190556106c9565b806106c181611e12565b9150506105c5565b506040516001600160a01b038216907f58619076adf5bb0943d100ef88d52d7c3fd691b19d3a9071b555b651fbf418da90600090a250565b3360009081526020819052604090205460ff166107305760405162461bcd60e51b81526004016104f890611d86565b600081815260026020526040902054819015158061075057506006548111155b61076c5760405162461bcd60e51b81526004016104f890611e2b565b600082815260026020526040902060040154829060ff16156107a05760405162461bcd60e51b81526004016104f890611e75565b600083815260036020908152604080832033845290915290205460ff166108095760405162461bcd60e51b815260206004820152601d60248201527f4d756c746953696757616c6c65743a206e6f7420636f6e6669726d656400000060448201526064016104f8565b60008381526003602090815260408083203384528252808320805460ff191690558583526002909152812060050180549161084383611eaa565b9091555050604051339084907f4cd471041f6b9ff47536a54a3d3ab62d0fa9dd5e36c0418b294b1673acb3188190600090a3505050565b6000806060600080600060606000600260008a815260200190815260200160002090508060010160009054906101000a90046001600160a01b03168160020154826003018360040160009054906101000a900460ff1684600501548560060154866007018480546108ea90611ec1565b80601f016020809104026020016040519081016040528092919081815260200182805461091690611ec1565b80156109635780601f1061093857610100808354040283529160200191610963565b820191906000526020600020905b81548152906001019060200180831161094657829003601f168201915b5050505050945080805461097690611ec1565b80601f01602080910402602001604051908101604052809291908181526020018280546109a290611ec1565b80156109ef5780601f106109c4576101008083540402835291602001916109ef565b820191906000526020600020905b8154815290600101906020018083116109d257829003601f168201915b50505050509050975097509750975097509750975050919395979092949650565b3360009081526020819052604081205460ff16610a3f5760405162461bcd60e51b81526004016104f890611d86565b6103e860065410610aa35760405162461bcd60e51b815260206004820152602860248201527f4d756c746953696757616c6c65743a206d6178207472616e73616374696f6e73604482015267081c995858da195960c21b60648201526084016104f8565b6001600160a01b038516610b055760405162461bcd60e51b815260206004820152602360248201527f4d756c746953696757616c6c65743a20696e76616c69642064657374696e617460448201526234b7b760e91b60648201526084016104f8565b60006006546001610b169190611efb565b60408051610100810182528281526001600160a01b0389811660208084019182528385018b8152606085018b815260006080870181905260a087018190524260c088015260e087018c9052888152600293849052969096208551815592516001840180546001600160a01b03191691909516179093559151918101919091559151929350916003820190610baa9082611f5c565b50608082015160048201805460ff191691151591909117905560a0820151600582015560c0820151600682015560e08201516007820190610beb9082611f5c565b5050336000908152600460209081526040822080546001810182559083529082200183905560068054925090610c2083611e12565b9190505550856001600160a01b0316336001600160a01b0316827f753dcda37efe0bc3675e04e24d1fb08b70681f14675eed4b6e7978495caf2ca088604051610c6b91815260200190565b60405180910390a495945050505050565b6001600160a01b038116600090815260046020908152604091829020805483518184028101840190945280845260609392830182828015610cdc57602002820191906000526020600020905b815481526020019060010190808311610cc8575b50505050509050919050565b333014610d075760405162461bcd60e51b81526004016104f890611d38565b6001600160a01b038116610d5d5760405162461bcd60e51b815260206004820152601d60248201527f4d756c746953696757616c6c65743a20696e76616c6964206f776e657200000060448201526064016104f8565b6001600160a01b03811660009081526020819052604090205460ff1615610dc65760405162461bcd60e51b815260206004820152601d60248201527f4d756c746953696757616c6c65743a20616c7265616479206f776e657200000060448201526064016104f8565b600154603211610e235760405162461bcd60e51b815260206004820152602260248201527f4d756c746953696757616c6c65743a206d6178206f776e657273207265616368604482015261195960f21b60648201526084016104f8565b6001600160a01b038116600081815260208190526040808220805460ff19166001908117909155805480820182559083527fb10e2d527612073b26eecdfd717e6a320cf44b4afac2b0732d9fcbe2b7fa0cf60180546001600160a01b03191684179055517f994a936646fe87ffe4f1e469d3d6aa417d6b855598397f323de5b449f765f0c39190a250565b60015460609060009067ffffffffffffffff811115610ecf57610ecf611aeb565b604051908082528060200260200182016040528015610ef8578160200160208202803683370190505b5090506000805b600154811015610fd65760008581526003602052604081206001805491929184908110610f2e57610f2e611de6565b60009182526020808320909101546001600160a01b0316835282019290925260400190205460ff1615610fc45760018181548110610f6e57610f6e611de6565b9060005260206000200160009054906101000a90046001600160a01b0316838381518110610f9e57610f9e611de6565b6001600160a01b039092166020928302919091019091015281610fc081611e12565b9250505b80610fce81611e12565b915050610eff565b5060008167ffffffffffffffff811115610ff257610ff2611aeb565b60405190808252806020026020018201604052801561101b578160200160208202803683370190505b50905060005b8281101561107f5783818151811061103b5761103b611de6565b602002602001015182828151811061105557611055611de6565b6001600160a01b03909216602092830291909101909101528061107781611e12565b915050611021565b50949350505050565b60008281526003602090815260408083206001600160a01b038516845290915290205460ff165b92915050565b600460205281600052604060002081815481106110d157600080fd5b90600052602060002001600091509150505481565b6002602081905260009182526040909120805460018201549282015460038301805492946001600160a01b031693919261111f90611ec1565b80601f016020809104026020016040519081016040528092919081815260200182805461114b90611ec1565b80156111985780601f1061116d57610100808354040283529160200191611198565b820191906000526020600020905b81548152906001019060200180831161117b57829003601f168201915b505050600484015460058501546006860154600787018054969760ff90941696929550909350906111c890611ec1565b80601f01602080910402602001604051908101604052809291908181526020018280546111f490611ec1565b80156112415780601f1061121657610100808354040283529160200191611241565b820191906000526020600020905b81548152906001019060200180831161122457829003601f168201915b5050505050905088565b33301461126a5760405162461bcd60e51b81526004016104f890611d38565b600081116112c65760405162461bcd60e51b8152602060048201526024808201527f4d756c746953696757616c6c65743a207265717569726564206d7573742062656044820152630203e20360e41b60648201526084016104f8565b6001548111156113225760405162461bcd60e51b815260206004820152602160248201527f4d756c746953696757616c6c65743a207265717569726564203e206f776e65726044820152607360f81b60648201526084016104f8565b600580549082905560408051828152602081018490527ffdecd314df9af617a0893bcc0b463cd2c588badccd38bec4e9d73a214a08daa7910160405180910390a15050565b3360009081526020819052604090205460ff166113965760405162461bcd60e51b81526004016104f890611d86565b60008181526002602052604090205481901515806113b657506006548111155b6113d25760405162461bcd60e51b81526004016104f890611e2b565b600082815260026020526040902060040154829060ff16156114065760405162461bcd60e51b81526004016104f890611e75565b600083815260036020908152604080832033845290915290205460ff161561147a5760405162461bcd60e51b815260206004820152602160248201527f4d756c746953696757616c6c65743a20616c726561647920636f6e6669726d656044820152601960fa1b60648201526084016104f8565b60008381526003602090815260408083203384528252808320805460ff19166001179055858352600290915281206005018054916114b783611e12565b9091555050604051339084907f15c2f311c9e0f53b50388279894aeff029a3457884a6601e924fca879e12adcc90600090a3600580546000858152600260205260409020909101541061150d5761150d836117b3565b505050565b6060600060065467ffffffffffffffff81111561153157611531611aeb565b60405190808252806020026020018201604052801561155a578160200160208202803683370190505b509050600060015b60065481116115c25760008181526002602052604090206004015460ff166115b0578083838151811061159757611597611de6565b6020908102919091010152816115ac81611e12565b9250505b806115ba81611e12565b915050611562565b5060008167ffffffffffffffff8111156115de576115de611aeb565b604051908082528060200260200182016040528015611607578160200160208202803683370190505b50905060005b8281101561165e5783818151811061162757611627611de6565b602002602001015182828151811061164157611641611de6565b60209081029190910101528061165681611e12565b91505061160d565b509392505050565b6060600060065467ffffffffffffffff81111561168557611685611aeb565b6040519080825280602002602001820160405280156116ae578160200160208202803683370190505b509050600060015b60065481116117175760008181526002602052604090206004015460ff161561170557808383815181106116ec576116ec611de6565b60209081029190910101528161170181611e12565b9250505b8061170f81611e12565b9150506116b6565b5060008167ffffffffffffffff81111561173357611733611aeb565b60405190808252806020026020018201604052801561175c578160200160208202803683370190505b50905060005b8281101561165e5783818151811061177c5761177c611de6565b602002602001015182828151811061179657611796611de6565b6020908102919091010152806117ab81611e12565b915050611762565b3360009081526020819052604090205460ff166117e25760405162461bcd60e51b81526004016104f890611d86565b600081815260026020526040902054819015158061180257506006548111155b61181e5760405162461bcd60e51b81526004016104f890611e2b565b600082815260026020526040902060040154829060ff16156118525760405162461bcd60e51b81526004016104f890611e75565b6000838152600260205260409020600580549082015410156118c75760405162461bcd60e51b815260206004820152602860248201527f4d756c746953696757616c6c65743a206e6f7420656e6f75676820636f6e6669604482015267726d6174696f6e7360c01b60648201526084016104f8565b60048101805460ff1916600190811790915581015460028201546040516000926001600160a01b0316919061190090600386019061201c565b60006040518083038185875af1925050503d806000811461193d576040519150601f19603f3d011682016040523d82523d6000602084013e611942565b606091505b50509050806119935760405162461bcd60e51b815260206004820181905260248201527f4d756c746953696757616c6c65743a20657865637574696f6e206661696c656460448201526064016104f8565b604051339086907fefc13bdcf58f184ea7cae26b499fb33b539e01d0197cea456f3ada289b8cf19b90600090a35050505050565b6000602082840312156119d957600080fd5b5035919050565b80356001600160a01b03811681146119f757600080fd5b919050565b600060208284031215611a0e57600080fd5b611a17826119e0565b9392505050565b6000815180845260005b81811015611a4457602081850181015186830182015201611a28565b506000602082860101526020601f19601f83011685010191505092915050565b60018060a01b038816815286602082015260e060408201526000611a8b60e0830188611a1e565b86151560608401528560808401528460a084015282810360c0840152611ab18185611a1e565b9a9950505050505050505050565b60008060408385031215611ad257600080fd5b82359150611ae2602084016119e0565b90509250929050565b634e487b7160e01b600052604160045260246000fd5b600067ffffffffffffffff80841115611b1c57611b1c611aeb565b604051601f8501601f19908116603f01168101908282118183101715611b4457611b44611aeb565b81604052809350858152868686011115611b5d57600080fd5b858560208301376000602087830101525050509392505050565b60008060008060808587031215611b8d57600080fd5b611b96856119e0565b935060208501359250604085013567ffffffffffffffff80821115611bba57600080fd5b818701915087601f830112611bce57600080fd5b611bdd88833560208501611b01565b93506060870135915080821115611bf357600080fd5b508501601f81018713611c0557600080fd5b611c1487823560208401611b01565b91505092959194509250565b6020808252825182820181905260009190848201906040850190845b81811015611c5857835183529284019291840191600101611c3c565b50909695505050505050565b6020808252825182820181905260009190848201906040850190845b81811015611c585783516001600160a01b031683529284019291840191600101611c80565b60008060408385031215611cb857600080fd5b611cc1836119e0565b946020939093013593505050565b8881526001600160a01b03881660208201526040810187905261010060608201819052600090611d0183820189611a1e565b905086151560808401528560a08401528460c084015282810360e0840152611d298185611a1e565b9b9a5050505050505050505050565b6020808252602e908201527f4d756c746953696757616c6c65743a206d7573742062652063616c6c6564207660408201526d34b0903a3930b739b0b1ba34b7b760911b606082015260800190565b6020808252601c908201527f4d756c746953696757616c6c65743a206e6f7420616e206f776e657200000000604082015260600190565b634e487b7160e01b600052601160045260246000fd5b818103818111156110af576110af611dbd565b634e487b7160e01b600052603260045260246000fd5b634e487b7160e01b600052603160045260246000fd5b600060018201611e2457611e24611dbd565b5060010190565b6020808252602a908201527f4d756c746953696757616c6c65743a207472616e73616374696f6e20646f6573604082015269081b9bdd08195e1a5cdd60b21b606082015260800190565b6020808252818101527f4d756c746953696757616c6c65743a20616c7265616479206578656375746564604082015260600190565b600081611eb957611eb9611dbd565b506000190190565b600181811c90821680611ed557607f821691505b602082108103611ef557634e487b7160e01b600052602260045260246000fd5b50919050565b808201808211156110af576110af611dbd565b601f82111561150d57600081815260208120601f850160051c81016020861015611f355750805b601f850160051c820191505b81811015611f5457828155600101611f41565b505050505050565b815167ffffffffffffffff811115611f7657611f76611aeb565b611f8a81611f848454611ec1565b84611f0e565b602080601f831160018114611fbf5760008415611fa75750858301515b600019600386901b1c1916600185901b178555611f54565b600085815260208120601f198616915b82811015611fee57888601518255948401946001909101908401611fcf565b508582101561200c5787850151600019600388901b60f8161c191681555b5050505050600190811b01905550565b600080835461202a81611ec1565b60018281168015612042576001811461205757612086565b60ff1984168752821515830287019450612086565b8760005260208060002060005b8581101561207d5781548a820152908401908201612064565b50505082870194505b5092969550505050505056fea264697066735822122003e37e0cfa61b6159f420bdbad66de746f70b4a6950677dfcbe42b95db96b0ab64736f6c63430008130033",
  "linkReferences": {},
  "deployedLinkReferences": {}
}