{
  "_format": "hh-sol-artifact-1",
  "contractName": "TimelockController",
  "sourceName": "contracts/TimelockController.sol",
  "abi": [
    {
      "inputs": [
        {
          "internalType": "address",
          "name": "_admin",
          "type": "address"
        },
        {
          "internalType": "uint256",
          "name": "_upgradeDelay",
          "type": "uint256"
        }
      ],
      "stateMutability": "nonpayable",
      "type": "constructor"
    },
    {
      "anonymous": false,
      "inputs": [
        {
          "indexed": false,
          "internalType": "address",
          "name": "oldAdmin",
          "type": "address"
        },
        {
          "indexed": false,
          "internalType": "address",
          "name": "newAdmin",
          "type": "address"
        }
      ],
      "name": "AdminChanged",
      "type": "event"
    },
    {
      "anonymous": false,
      "inputs": [
        {
          "indexed": true,
          "internalType": "bytes32",
          "name": "id",
          "type": "bytes32"
        }
      ],
      "name": "CallCancelled",
      "type": "event"
    },
    {
      "anonymous": false,
      "inputs": [
        {
          "indexed": true,
          "internalType": "bytes32",
          "name": "id",
          "type": "bytes32"
        },
        {
          "indexed": true,
          "internalType": "uint256",
          "name": "index",
          "type": "uint256"
        },
        {
          "indexed": false,
          "internalType": "address",
          "name": "target",
          "type": "address"
        },
        {
          "indexed": false,
          "internalType": "uint256",
          "name": "value",
          "type": "uint256"
        },
        {
          "indexed": false,
          "internalType": "bytes",
          "name": "data",
          "type": "bytes"
        }
      ],
      "name": "CallExecuted",
      "type": "event"
    },
    {
      "anonymous": false,
      "inputs": [
        {
          "indexed": true,
          "internalType": "bytes32",
          "name": "id",
          "type": "bytes32"
        },
        {
          "indexed": true,
          "internalType": "uint256",
          "name": "index",
          "type": "uint256"
        },
        {
          "indexed": false,
          "internalType": "address",
          "name": "target",
          "type": "address"
        },
        {
          "indexed": false,
          "internalType": "uint256",
          "name": "value",
          "type": "uint256"
        },
        {
          "indexed": false,
          "internalType": "bytes",
          "name": "data",
          "type": "bytes"
        },
        {
          "indexed": false,
          "internalType": "bytes32",
          "name": "predecessor",
          "type": "bytes32"
        },
        {
          "indexed": false,
          "internalType": "uint256",
          "name": "delay",
          "type": "uint256"
        }
      ],
      "name": "CallScheduled",
      "type": "event"
    },
    {
      "anonymous": false,
      "inputs": [
        {
          "indexed": false,
          "internalType": "address",
          "name": "oldPendingAdmin",
          "type": "address"
        },
        {
          "indexed": false,
          "internalType": "address",
          "name": "newPendingAdmin",
          "type": "address"
        }
      ],
      "name": "PendingAdminChanged",
      "type": "event"
    },
    {
      "inputs": [],
      "name": "MAX_DELAY",
      "outputs": [
        {
          "internalType": "uint256",
          "name": "",
          "type": "uint256"
        }
      ],
      "stateMutability": "view",
      "type": "function"
    },
    {
      "inputs": [],
      "name": "MIN_DELAY",
      "outputs": [
        {
          "internalType": "uint256",
          "name": "",
          "type": "uint256"
        }
      ],
      "stateMutability": "view",
      "type": "function"
    },
    {
      "inputs": [],
      "name": "acceptAdmin",
      "outputs": [],
      "stateMutability": "nonpayable",
      "type": "function"
    },
    {
      "inputs": [],
      "name": "admin",
      "outputs": [
        {
          "internalType": "address",
          "name": "",
          "type": "address"
        }
      ],
      "stateMutability": "view",
      "type": "function"
    },
    {
      "inputs": [
        {
          "internalType": "bytes32",
          "name": "id",
          "type": "bytes32"
        }
      ],
      "name": "cancel",
      "outputs": [],
      "stateMutability": "nonpayable",
      "type": "function"
    },
    {
      "inputs": [
        {
          "internalType": "bytes32",
          "name": "",
          "type": "bytes32"
        }
      ],
      "name": "cancelled",
      "outputs": [
        {
          "internalType": "bool",
          "name": "",
          "type": "bool"
        }
      ],
      "stateMutability": "view",
      "type": "function"
    },
    {
      "inputs": [
        {
          "internalType": "address",
          "name": "target",
          "type": "address"
        },
        {
          "internalType": "uint256",
          "name": "value",
          "type": "uint256"
        },
        {
          "internalType": "bytes",
          "name": "data",
          "type": "bytes"
        }
      ],
      "name": "emergencyExecute",
      "outputs": [],
      "stateMutability": "nonpayable",
      "type": "function"
    },
    {
      "inputs": [
        {
          "internalType": "address",
          "name": "target",
          "type": "address"
        },
        {
          "internalType": "uint256",
          "name": "value",
          "type": "uint256"
        },
        {
          "internalType": "bytes",
          "name": "data",
          "type": "bytes"
        },
        {
          "internalType": "bytes32",
          "name": "predecessor",
          "type": "bytes32"
        },
        {
          "internalType": "bytes32",
          "name": "salt",
          "type": "bytes32"
        }
      ],
      "name": "execute",
      "outputs": [],
      "stateMutability": "nonpayable",
      "type": "function"
    },
    {
      "inputs": [
        {
          "internalType": "bytes32",
          "name": "",
          "type": "bytes32"
        }
      ],
      "name": "executed",
      "outputs": [
        {
          "internalType": "bool",
          "name": "",
          "type": "bool"
        }
      ],
      "stateMutability": "view",
      "type": "function"
    },
    {
      "inputs": [
        {
          "internalType": "bytes32",
          "name": "",
          "type": "bytes32"
        }
      ],
      "name": "getDelay",
      "outputs": [
        {
          "internalType": "uint256",
          "name": "",
          "type": "uint256"
        }
      ],
      "stateMutability": "pure",
      "type": "function"
    },
    {
      "inputs": [],
      "name": "getPendingAdmin",
      "outputs": [
        {
          "internalType": "address",
          "name": "",
          "type": "address"
        }
      ],
      "stateMutability": "view",
      "type": "function"
    },
    {
      "inputs": [
        {
          "internalType": "address",
          "name": "target",
          "type": "address"
        },
        {
          "internalType": "uint256",
          "name": "value",
          "type": "uint256"
        },
        {
          "internalType": "bytes",
          "name": "data",
          "type": "bytes"
        },
        {
          "internalType": "bytes32",
          "name": "predecessor",
          "type": "bytes32"
        },
        {
          "internalType": "bytes32",
          "name": "salt",
          "type": "bytes32"
        }
      ],
      "name": "hashOperation",
      "outputs": [
        {
          "internalType": "bytes32",
          "name": "",
          "type": "bytes32"
        }
      ],
      "stateMutability": "pure",
      "type": "function"
    },
    {
      "inputs": [
        {
          "internalType": "bytes32",
          "name": "id",
          "type": "bytes32"
        }
      ],
      "name": "isOperationDone",
      "outputs": [
        {
          "internalType": "bool",
          "name": "",
          "type": "bool"
        }
      ],
      "stateMutability": "view",
      "type": "function"
    },
    {
      "inputs": [
        {
          "internalType": "bytes32",
          "name": "id",
          "type": "bytes32"
        }
      ],
      "name": "isOperationQueued",
      "outputs": [
        {
          "internalType": "bool",
          "name": "",
          "type": "bool"
        }
      ],
      "stateMutability": "view",
      "type": "function"
    },
    {
      "inputs": [],
      "name": "pendingAdminAddress",
      "outputs": [
        {
          "internalType": "address",
          "name": "",
          "type": "address"
        }
      ],
      "stateMutability": "view",
      "type": "function"
    },
    {
      "inputs": [
        {
          "internalType": "bytes32",
          "name": "",
          "type": "bytes32"
        }
      ],
      "name": "queuedTransactions",
      "outputs": [
        {
          "internalType": "uint256",
          "name": "",
          "type": "uint256"
        }
      ],
      "stateMutability": "view",
      "type": "function"
    },
    {
      "inputs": [
        {
          "internalType": "address",
          "name": "target",
          "type": "address"
        },
        {
          "internalType": "uint256",
          "name": "value",
          "type": "uint256"
        },
        {
          "internalType": "bytes",
          "name": "data",
          "type": "bytes"
        },
        {
          "internalType": "bytes32",
          "name": "predecessor",
          "type": "bytes32"
        },
        {
          "internalType": "bytes32",
          "name": "salt",
          "type": "bytes32"
        }
      ],
      "name": "schedule",
      "outputs": [],
      "stateMutability": "nonpayable",
      "type": "function"
    },
    {
      "inputs": [
        {
          "internalType": "address",
          "name": "newPendingAdmin",
          "type": "address"
        }
      ],
      "name": "setPendingAdmin",
      "outputs": [],
      "stateMutability": "nonpayable",
      "type": "function"
    },
    {
      "inputs": [
        {
          "internalType": "uint256",
          "name": "newDelay",
          "type": "uint256"
        }
      ],
      "name": "setUpgradeDelay",
      "outputs": [],
      "stateMutability": "nonpayable",
      "type": "function"
    },
    {
      "inputs": [],
      "name": "upgradeDelay",
      "outputs": [
        {
          "internalType": "uint256",
          "name": "",
          "type": "uint256"
        }
      ],
      "stateMutability": "view",
      "type": "function"
    },
    {
      "stateMutability": "payable",
      "type": "receive"
    }
  ],
  "bytecode": "0x608060405234801561001057600080fd5b506040516110ee3803806110ee83398101604081905261002f91610131565b6001600160a01b03821661009c5760405162461bcd60e51b815260206004820152602960248201527f54696d656c6f636b436f6e74726f6c6c65723a2061646d696e206973207a65726044820152686f206164647265737360b81b60648201526084015b60405180910390fd5b6202a30081101580156100b2575062278d008111155b6101085760405162461bcd60e51b815260206004820152602160248201527f54696d656c6f636b436f6e74726f6c6c65723a20696e76616c69642064656c616044820152607960f81b6064820152608401610093565b600180546001600160a01b0319166001600160a01b03939093169290921790915560005561016b565b6000806040838503121561014457600080fd5b82516001600160a01b038116811461015b57600080fd5b6020939093015192949293505050565b610f748061017a6000396000f3fe6080604052600436106101235760003560e01c80638065657f116100a0578063a9fcfb3311610064578063a9fcfb3314610357578063c4d252f514610387578063d0468156146103a7578063f2b06537146103c5578063f851a440146103f257600080fd5b80638065657f146102ae5780638bbb93aa146102ce57806394264cde146102f15780639606d201146103205780639f81aed71461034057600080fd5b8063455d1702116100e7578063455d1702146102005780634dd18bf5146102205780635544f3741461024057806356b494de146102785780637e48d4ea1461029857600080fd5b80630e18b6811461012f578063134008d3146101465780632ab0f529146101665780632ac12622146101ab5780634125ff90146101db57600080fd5b3661012a57005b600080fd5b34801561013b57600080fd5b50610144610412565b005b34801561015257600080fd5b50610144610161366004610c8d565b6104fb565b34801561017257600080fd5b50610196610181366004610cf9565b60009081526003602052604090205460ff1690565b60405190151581526020015b60405180910390f35b3480156101b757600080fd5b506101966101c6366004610cf9565b60046020526000908152604090205460ff1681565b3480156101e757600080fd5b506101f262278d0081565b6040519081526020016101a2565b34801561020c57600080fd5b5061014461021b366004610c8d565b61066f565b34801561022c57600080fd5b5061014461023b366004610d12565b6107a7565b34801561024c57600080fd5b50600254610260906001600160a01b031681565b6040516001600160a01b0390911681526020016101a2565b34801561028457600080fd5b50610144610293366004610d34565b61083a565b3480156102a457600080fd5b506101f260005481565b3480156102ba57600080fd5b506101f26102c9366004610c8d565b610932565b3480156102da57600080fd5b506101f26102e9366004610cf9565b506202a30090565b3480156102fd57600080fd5b5061019661030c366004610cf9565b600090815260056020526040902054151590565b34801561032c57600080fd5b5061014461033b366004610cf9565b610971565b34801561034c57600080fd5b506101f26202a30081565b34801561036357600080fd5b50610196610372366004610cf9565b60036020526000908152604090205460ff1681565b34801561039357600080fd5b506101446103a2366004610cf9565b610a0c565b3480156103b357600080fd5b506002546001600160a01b0316610260565b3480156103d157600080fd5b506101f26103e0366004610cf9565b60056020526000908152604090205481565b3480156103fe57600080fd5b50600154610260906001600160a01b031681565b6002546001600160a01b031633146104895760405162461bcd60e51b815260206004820152602f60248201527f54696d656c6f636b436f6e74726f6c6c65723a2063616c6c6572206973206e6f60448201526e3a103832b73234b7339030b236b4b760891b60648201526084015b60405180910390fd5b600154600254604080516001600160a01b0393841681529290911660208301527f7e644d79422f17c01e4894b5f4f588d331ebfa28653d42ae832dc59e38c9798f910160405180910390a160028054600180546001600160a01b03199081166001600160a01b03841617909155169055565b6001546001600160a01b031633146105255760405162461bcd60e51b815260040161048090610d8e565b6000610535878787878787610932565b90506105418184610ae0565b6000876001600160a01b031687878760405161055e929190610dd9565b60006040518083038185875af1925050503d806000811461059b576040519150601f19603f3d011682016040523d82523d6000602084013e6105a0565b606091505b505090508061060d5760405162461bcd60e51b815260206004820152603360248201527f54696d656c6f636b436f6e74726f6c6c65723a20756e6465726c79696e6720746044820152721c985b9cd858dd1a5bdb881c995d995c9d1959606a1b6064820152608401610480565b600082815260036020526040808220805460ff191660011790555183907fc2617efa69bab66782fa219543714338489c4e9e178271560a91b82c3f612b589061065d908c908c908c908c90610e12565b60405180910390a35050505050505050565b6001546001600160a01b031633146106995760405162461bcd60e51b815260040161048090610d8e565b60006106a9878787878787610932565b6000818152600560205260409020549091501561071d5760405162461bcd60e51b815260206004820152602c60248201527f54696d656c6f636b436f6e74726f6c6c65723a206f7065726174696f6e20616c60448201526b1c9958591e481c5d595d595960a21b6064820152608401610480565b60008181526003602052604090205460ff161561074c5760405162461bcd60e51b815260040161048090610e44565b6000546107598142610e92565b60008381526005602052604080822092909255905183907f4cf4410cc57040e44862ef0f45f3dd5a5e02db8eb8add648d4b0e236f1d07dca9061065d908c908c908c908c908c908a90610eb9565b6001546001600160a01b031633146107d15760405162461bcd60e51b815260040161048090610d8e565b600254604080516001600160a01b03928316815291831660208301527fce9caef2978509c160ecb4635d80502a939fccaf6f7f6967edbe940500cffd77910160405180910390a1600280546001600160a01b0319166001600160a01b0392909216919091179055565b6001546001600160a01b031633146108645760405162461bcd60e51b815260040161048090610d8e565b6000846001600160a01b0316848484604051610881929190610dd9565b60006040518083038185875af1925050503d80600081146108be576040519150601f19603f3d011682016040523d82523d6000602084013e6108c3565b606091505b505090508061092b5760405162461bcd60e51b815260206004820152602e60248201527f54696d656c6f636b436f6e74726f6c6c65723a20656d657267656e637920657860448201526d1958dd5d1a5bdb8819985a5b195960921b6064820152608401610480565b5050505050565b600086868686868660405160200161094f96959493929190610eb9565b6040516020818303038152906040528051906020012090509695505050505050565b6001546001600160a01b0316331461099b5760405162461bcd60e51b815260040161048090610d8e565b6202a30081101580156109b1575062278d008111155b610a075760405162461bcd60e51b815260206004820152602160248201527f54696d656c6f636b436f6e74726f6c6c65723a20696e76616c69642064656c616044820152607960f81b6064820152608401610480565b600055565b6001546001600160a01b03163314610a365760405162461bcd60e51b815260040161048090610d8e565b600081815260056020526040902054610a615760405162461bcd60e51b815260040161048090610ef6565b60008181526003602052604090205460ff1615610a905760405162461bcd60e51b815260040161048090610e44565b6000818152600460209081526040808320805460ff1916600117905560059091528082208290555182917fab2af3494bc00bd4aa34e08bd246e5c402d3ee4856c19f5461ce47a6d57423e191a250565b60008281526003602052604090205460ff1615610b0f5760405162461bcd60e51b815260040161048090610e44565b600082815260056020526040902054610b3a5760405162461bcd60e51b815260040161048090610ef6565b600082815260056020526040902054421015610ba85760405162461bcd60e51b815260206004820152602760248201527f54696d656c6f636b436f6e74726f6c6c65723a206f7065726174696f6e206e6f6044820152667420726561647960c81b6064820152608401610480565b801580610bc3575060008181526003602052604090205460ff165b610c245760405162461bcd60e51b815260206004820152602c60248201527f54696d656c6f636b436f6e74726f6c6c65723a207072656465636573736f722060448201526b1b9bdd08195e1958dd5d195960a21b6064820152608401610480565b5050565b80356001600160a01b0381168114610c3f57600080fd5b919050565b60008083601f840112610c5657600080fd5b50813567ffffffffffffffff811115610c6e57600080fd5b602083019150836020828501011115610c8657600080fd5b9250929050565b60008060008060008060a08789031215610ca657600080fd5b610caf87610c28565b955060208701359450604087013567ffffffffffffffff811115610cd257600080fd5b610cde89828a01610c44565b979a9699509760608101359660809091013595509350505050565b600060208284031215610d0b57600080fd5b5035919050565b600060208284031215610d2457600080fd5b610d2d82610c28565b9392505050565b60008060008060608587031215610d4a57600080fd5b610d5385610c28565b935060208501359250604085013567ffffffffffffffff811115610d7657600080fd5b610d8287828801610c44565b95989497509550505050565b6020808252602b908201527f54696d656c6f636b436f6e74726f6c6c65723a2063616c6c6572206973206e6f60408201526a3a103a34329030b236b4b760a91b606082015260800190565b8183823760009101908152919050565b81835281816020850137506000828201602090810191909152601f909101601f19169091010190565b60018060a01b0385168152836020820152606060408201526000610e3a606083018486610de9565b9695505050505050565b6020808252602e908201527f54696d656c6f636b436f6e74726f6c6c65723a206f7065726174696f6e20616c60408201526d1c9958591e48195e1958dd5d195960921b606082015260800190565b80820180821115610eb357634e487b7160e01b600052601160045260246000fd5b92915050565b60018060a01b038716815285602082015260a060408201526000610ee160a083018688610de9565b60608301949094525060800152949350505050565b60208082526028908201527f54696d656c6f636b436f6e74726f6c6c65723a206f7065726174696f6e206e6f6040820152671d081c5d595d595960c21b60608201526080019056fea264697066735822122025acc8fcdda0a601784f16cd00f2a9ee752ec0fc8201ce30be71db71570ca37064736f6c63430008130033",
  "linkReferences": {},
  "deployedLinkReferences": {}
}