{
  "_format": "hh-sol-artifact-1",
  "contractName": "CredentialVerifier",
  "sourceName": "contracts/CredentialVerifierLib.sol",
  "abi": [
    {
      "anonymous": false,
      "inputs": [
        {
          "indexed": true,
          "internalType": "uint256",
          "name": "credentialId",
          "type": "uint256"
        },
        {
          "indexed": true,
          "internalType": "address",
          "name": "holder",
          "type": "address"
        },
        {
          "indexed": false,
          "internalType": "bool",
          "name": "isVerified",
          "type": "bool"
        }
      ],
      "name": "CredentialStatusChanged",
      "type": "event"
    },
    {
      "anonymous": false,
      "inputs": [
        {
          "indexed": true,
          "internalType": "bytes32",
          "name": "proofHash",
          "type": "bytes32"
        },
        {
          "indexed": true,
          "internalType": "address",
          "name": "verifier",
          "type": "address"
        },
        {
          "indexed": true,
          "internalType": "uint256",
          "name": "credentialId",
          "type": "uint256"
        },
        {
          "indexed": false,
          "internalType": "string",
          "name": "verificationType",
          "type": "string"
        }
      ],
      "name": "ProofGenerated",
      "type": "event"
    },
    {
      "anonymous": false,
      "inputs": [
        {
          "indexed": true,
          "internalType": "bytes32",
          "name": "proofHash",
          "type": "bytes32"
        },
        {
          "indexed": true,
          "internalType": "address",
          "name": "holder",
          "type": "address"
        },
        {
          "indexed": false,
          "internalType": "bool",
          "name": "isValid",
          "type": "bool"
        }
      ],
      "name": "ProofVerified",
      "type": "event"
    },
    {
      "anonymous": false,
      "inputs": [
        {
          "indexed": true,
          "internalType": "bytes32",
          "name": "requestId",
          "type": "bytes32"
        },
        {
          "indexed": false,
          "internalType": "bool",
          "name": "approved",
          "type": "bool"
        },
        {
          "indexed": true,
          "internalType": "address",
          "name": "processor",
          "type": "address"
        }
      ],
      "name": "VerificationProcessed",
      "type": "event"
    },
    {
      "anonymous": false,
      "inputs": [
        {
          "indexed": true,
          "internalType": "bytes32",
          "name": "requestId",
          "type": "bytes32"
        },
        {
          "indexed": true,
          "internalType": "address",
          "name": "requester",
          "type": "address"
        },
        {
          "indexed": true,
          "internalType": "address",
          "name": "holder",
          "type": "address"
        },
        {
          "indexed": false,
          "internalType": "uint256",
          "name": "credentialId",
          "type": "uint256"
        }
      ],
      "name": "VerificationRequested",
      "type": "event"
    },
    {
      "inputs": [],
      "name": "MAX_PUBLIC_SIGNALS_SIZE",
      "outputs": [
        {
          "internalType": "uint256",
          "name": "",
          "type": "uint256"
        }
      ],
      "stateMutability": "view",
      "type": "function"
    },
    {
      "inputs": [],
      "name": "PROOF_VALIDITY_PERIOD",
      "outputs": [
        {
          "internalType": "uint256",
          "name": "",
          "type": "uint256"
        }
      ],
      "stateMutability": "view",
      "type": "function"
    },
    {
      "inputs": [
        {
          "internalType": "bytes32[]",
          "name": "_proofHashes",
          "type": "bytes32[]"
        }
      ],
      "name": "batchVerify",
      "outputs": [
        {
          "internalType": "bool[]",
          "name": "",
          "type": "bool[]"
        }
      ],
      "stateMutability": "nonpayable",
      "type": "function"
    },
    {
      "inputs": [
        {
          "internalType": "address",
          "name": "_holder",
          "type": "address"
        }
      ],
      "name": "cleanupExpiredProofs",
      "outputs": [
        {
          "internalType": "uint256",
          "name": "cleaned",
          "type": "uint256"
        }
      ],
      "stateMutability": "nonpayable",
      "type": "function"
    },
    {
      "inputs": [
        {
          "internalType": "uint256",
          "name": "",
          "type": "uint256"
        },
        {
          "internalType": "address",
          "name": "",
          "type": "address"
        }
      ],
      "name": "credentialVerified",
      "outputs": [
        {
          "internalType": "bool",
          "name": "",
          "type": "bool"
        }
      ],
      "stateMutability": "view",
      "type": "function"
    },
    {
      "inputs": [
        {
          "internalType": "uint256",
          "name": "_credentialId",
          "type": "uint256"
        },
        {
          "internalType": "string",
          "name": "_verificationType",
          "type": "string"
        },
        {
          "internalType": "bytes",
          "name": "_publicSignals",
          "type": "bytes"
        }
      ],
      "name": "generateProof",
      "outputs": [
        {
          "internalType": "bytes32",
          "name": "",
          "type": "bytes32"
        }
      ],
      "stateMutability": "nonpayable",
      "type": "function"
    },
    {
      "inputs": [
        {
          "internalType": "address",
          "name": "_holder",
          "type": "address"
        }
      ],
      "name": "getHolderProofCount",
      "outputs": [
        {
          "internalType": "uint256",
          "name": "",
          "type": "uint256"
        }
      ],
      "stateMutability": "view",
      "type": "function"
    },
    {
      "inputs": [
        {
          "internalType": "address",
          "name": "_holder",
          "type": "address"
        }
      ],
      "name": "getHolderProofs",
      "outputs": [
        {
          "internalType": "bytes32[]",
          "name": "",
          "type": "bytes32[]"
        }
      ],
      "stateMutability": "view",
      "type": "function"
    },
    {
      "inputs": [
        {
          "internalType": "address",
          "name": "_holder",
          "type": "address"
        }
      ],
      "name": "getHolderRequestCount",
      "outputs": [
        {
          "internalType": "uint256",
          "name": "",
          "type": "uint256"
        }
      ],
      "stateMutability": "view",
      "type": "function"
    },
    {
      "inputs": [
        {
          "internalType": "bytes32",
          "name": "_proofHash",
          "type": "bytes32"
        }
      ],
      "name": "getProof",
      "outputs": [
        {
          "components": [
            {
              "internalType": "bytes32",
              "name": "proofHash",
              "type": "bytes32"
            },
            {
              "internalType": "address",
              "name": "verifier",
              "type": "address"
            },
            {
              "internalType": "uint256",
              "name": "credentialId",
              "type": "uint256"
            },
            {
              "internalType": "uint256",
              "name": "timestamp",
              "type": "uint256"
            },
            {
              "internalType": "bool",
              "name": "isValid",
              "type": "bool"
            },
            {
              "internalType": "bytes",
              "name": "publicSignals",
              "type": "bytes"
            },
            {
              "internalType": "string",
              "name": "verificationType",
              "type": "string"
            }
          ],
          "internalType": "struct CredentialVerifier.VerificationProof",
          "name": "",
          "type": "tuple"
        }
      ],
      "stateMutability": "view",
      "type": "function"
    },
    {
      "inputs": [
        {
          "internalType": "bytes32",
          "name": "_proofHash",
          "type": "bytes32"
        }
      ],
      "name": "getProofAge",
      "outputs": [
        {
          "internalType": "uint256",
          "name": "",
          "type": "uint256"
        }
      ],
      "stateMutability": "view",
      "type": "function"
    },
    {
      "inputs": [
        {
          "internalType": "bytes32",
          "name": "_requestId",
          "type": "bytes32"
        }
      ],
      "name": "getVerificationRequest",
      "outputs": [
        {
          "components": [
            {
              "internalType": "bytes32",
              "name": "requestId",
              "type": "bytes32"
            },
            {
              "internalType": "address",
              "name": "requester",
              "type": "address"
            },
            {
              "internalType": "address",
              "name": "holder",
              "type": "address"
            },
            {
              "internalType": "uint256",
              "name": "credentialId",
              "type": "uint256"
            },
            {
              "internalType": "string",
              "name": "metadata",
              "type": "string"
            },
            {
              "internalType": "uint256",
              "name": "timestamp",
              "type": "uint256"
            },
            {
              "internalType": "bool",
              "name": "isProcessed",
              "type": "bool"
            },
            {
              "internalType": "bool",
              "name": "isApproved",
              "type": "bool"
            }
          ],
          "internalType": "struct CredentialVerifier.VerificationRequest",
          "name": "",
          "type": "tuple"
        }
      ],
      "stateMutability": "view",
      "type": "function"
    },
    {
      "inputs": [
        {
          "internalType": "uint256",
          "name": "_credentialId",
          "type": "uint256"
        },
        {
          "internalType": "address",
          "name": "_verifier",
          "type": "address"
        }
      ],
      "name": "getVerificationTimestamp",
      "outputs": [
        {
          "internalType": "uint256",
          "name": "",
          "type": "uint256"
        }
      ],
      "stateMutability": "view",
      "type": "function"
    },
    {
      "inputs": [
        {
          "internalType": "address",
          "name": "_verifier",
          "type": "address"
        }
      ],
      "name": "getVerifierProofs",
      "outputs": [
        {
          "internalType": "bytes32[]",
          "name": "",
          "type": "bytes32[]"
        }
      ],
      "stateMutability": "view",
      "type": "function"
    },
    {
      "inputs": [
        {
          "internalType": "address",
          "name": "",
          "type": "address"
        },
        {
          "internalType": "uint256",
          "name": "",
          "type": "uint256"
        }
      ],
      "name": "holderProofs",
      "outputs": [
        {
          "internalType": "bytes32",
          "name": "",
          "type": "bytes32"
        }
      ],
      "stateMutability": "view",
      "type": "function"
    },
    {
      "inputs": [
        {
          "internalType": "bytes32",
          "name": "_proofHash",
          "type": "bytes32"
        }
      ],
      "name": "invalidateProof",
      "outputs": [],
      "stateMutability": "nonpayable",
      "type": "function"
    },
    {
      "inputs": [
        {
          "internalType": "uint256",
          "name": "_credentialId",
          "type": "uint256"
        },
        {
          "internalType": "address",
          "name": "_verifier",
          "type": "address"
        }
      ],
      "name": "isCredentialVerified",
      "outputs": [
        {
          "internalType": "bool",
          "name": "",
          "type": "bool"
        }
      ],
      "stateMutability": "view",
      "type": "function"
    },
    {
      "inputs": [
        {
          "internalType": "bytes32",
          "name": "_proofHash",
          "type": "bytes32"
        }
      ],
      "name": "isProofValid",
      "outputs": [
        {
          "internalType": "bool",
          "name": "",
          "type": "bool"
        }
      ],
      "stateMutability": "view",
      "type": "function"
    },
    {
      "inputs": [
        {
          "internalType": "bytes32",
          "name": "_requestId",
          "type": "bytes32"
        },
        {
          "internalType": "bool",
          "name": "_approve",
          "type": "bool"
        }
      ],
      "name": "processVerificationRequest",
      "outputs": [],
      "stateMutability": "nonpayable",
      "type": "function"
    },
    {
      "inputs": [
        {
          "internalType": "address",
          "name": "_holder",
          "type": "address"
        },
        {
          "internalType": "uint256",
          "name": "_credentialId",
          "type": "uint256"
        },
        {
          "internalType": "string",
          "name": "_metadata",
          "type": "string"
        }
      ],
      "name": "requestVerification",
      "outputs": [
        {
          "internalType": "bytes32",
          "name": "",
          "type": "bytes32"
        }
      ],
      "stateMutability": "nonpayable",
      "type": "function"
    },
    {
      "inputs": [
        {
          "internalType": "uint256",
          "name": "_credentialId",
          "type": "uint256"
        },
        {
          "internalType": "address[]",
          "name": "_verifiers",
          "type": "address[]"
        }
      ],
      "name": "revokeVerifications",
      "outputs": [],
      "stateMutability": "nonpayable",
      "type": "function"
    },
    {
      "inputs": [
        {
          "internalType": "bytes32",
          "name": "",
          "type": "bytes32"
        }
      ],
      "name": "verificationProofs",
      "outputs": [
        {
          "internalType": "bytes32",
          "name": "proofHash",
          "type": "bytes32"
        },
        {
          "internalType": "address",
          "name": "verifier",
          "type": "address"
        },
        {
          "internalType": "uint256",
          "name": "credentialId",
          "type": "uint256"
        },
        {
          "internalType": "uint256",
          "name": "timestamp",
          "type": "uint256"
        },
        {
          "internalType": "bool",
          "name": "isValid",
          "type": "bool"
        },
        {
          "internalType": "bytes",
          "name": "publicSignals",
          "type": "bytes"
        },
        {
          "internalType": "string",
          "name": "verificationType",
          "type": "string"
        }
      ],
      "stateMutability": "view",
      "type": "function"
    },
    {
      "inputs": [
        {
          "internalType": "address",
          "name": "",
          "type": "address"
        },
        {
          "internalType": "uint256",
          "name": "",
          "type": "uint256"
        }
      ],
      "name": "verificationRequestIds",
      "outputs": [
        {
          "internalType": "bytes32",
          "name": "",
          "type": "bytes32"
        }
      ],
      "stateMutability": "view",
      "type": "function"
    },
    {
      "inputs": [
        {
          "internalType": "bytes32",
          "name": "",
          "type": "bytes32"
        }
      ],
      "name": "verificationRequests",
      "outputs": [
        {
          "internalType": "bytes32",
          "name": "requestId",
          "type": "bytes32"
        },
        {
          "internalType": "address",
          "name": "requester",
          "type": "address"
        },
        {
          "internalType": "address",
          "name": "holder",
          "type": "address"
        },
        {
          "internalType": "uint256",
          "name": "credentialId",
          "type": "uint256"
        },
        {
          "internalType": "string",
          "name": "metadata",
          "type": "string"
        },
        {
          "internalType": "uint256",
          "name": "timestamp",
          "type": "uint256"
        },
        {
          "internalType": "bool",
          "name": "isProcessed",
          "type": "bool"
        },
        {
          "internalType": "bool",
          "name": "isApproved",
          "type": "bool"
        }
      ],
      "stateMutability": "view",
      "type": "function"
    },
    {
      "inputs": [
        {
          "internalType": "uint256",
          "name": "",
          "type": "uint256"
        },
        {
          "internalType": "address",
          "name": "",
          "type": "address"
        }
      ],
      "name": "verificationTimestamps",
      "outputs": [
        {
          "internalType": "uint256",
          "name": "",
          "type": "uint256"
        }
      ],
      "stateMutability": "view",
      "type": "function"
    },
    {
      "inputs": [
        {
          "internalType": "address",
          "name": "",
          "type": "address"
        },
        {
          "internalType": "uint256",
          "name": "",
          "type": "uint256"
        }
      ],
      "name": "verifierProofs",
      "outputs": [
        {
          "internalType": "bytes32",
          "name": "",
          "type": "bytes32"
        }
      ],
      "stateMutability": "view",
      "type": "function"
    },
    {
      "inputs": [
        {
          "internalType": "bytes32",
          "name": "_proofHash",
          "type": "bytes32"
        }
      ],
      "name": "verifyProof",
      "outputs": [
        {
          "internalType": "bool",
          "name": "",
          "type": "bool"
        }
      ],
      "stateMutability": "nonpayable",
      "type": "function"
    }
  ],
  "bytecode": "0x608060405234801561001057600080fd5b50612302806100206000396000f3fe608060405234801561001057600080fd5b50600436106101a95760003560e01c80636a3c1960116100f9578063be38677c11610097578063d5749b7311610071578063d5749b7314610430578063e33754e41461045e578063e765b12714610487578063ff43e1611461049057600080fd5b8063be38677c146103ea578063c5fa1e0f146103fd578063c8fa61571461041057600080fd5b80639ce37bb3116100d35780639ce37bb31461036e578063aa55572614610381578063acd8018c146103a1578063b142b4ec146103d757600080fd5b80636a3c19601461030a57806396bfb321146103305780639b381d221461034357600080fd5b806337ca7683116101665780635aa3c718116101405780635aa3c718146102c65780635bc9ab56146102d9578063612c9d7f146102e4578063670dfa48146102f757600080fd5b806337ca7683146102805780634beb7d39146102935780634bfbd4f4146102b357600080fd5b80630f3908c8146101ae57806319d3137b146101de5780631b31da68146102015780631b80bb3a1461021657806327e24930146102365780633441ebaf14610257575b600080fd5b6101c16101bc366004611a61565b6104a3565b6040516101d5989796959493929190611aca565b60405180910390f35b6101f16101ec366004611a61565b610582565b60405190151581526020016101d5565b61021461020f366004611b27565b610730565b005b610229610224366004611a61565b610920565b6040516101d59190611b5c565b610249610244366004611bf7565b610af7565b6040519081526020016101d5565b610249610265366004611bf7565b6001600160a01b031660009081526006602052604090205490565b61024961028e366004611c12565b610ba4565b6102a66102a1366004611a61565b610bd5565b6040516101d59190611c3c565b6101f16102c1366004611cc7565b610d2e565b6102496102d4366004611d9f565b610d5b565b6102496301e1338081565b6102496102f2366004611c12565b610f72565b610249610305366004611c12565b610f8e565b61031d610318366004611a61565b610faa565b6040516101d59796959493929190611e20565b61024961033e366004611e7b565b611107565b610249610351366004611cc7565b600460209081526000928352604080842090915290825290205481565b61024961037c366004611a61565b6112e2565b61039461038f366004611bf7565b611497565b6040516101d59190611ec8565b6102496103af366004611cc7565b60009182526004602090815260408084206001600160a01b0393909316845291905290205490565b6101f16103e5366004611a61565b611503565b6102146103f8366004611a61565b6116bc565b61021461040b366004611f58565b61178c565b61042361041e366004611fa4565b61187a565b6040516101d59190611fe6565b6101f161043e366004611cc7565b600360209081526000928352604080842090915290825290205460ff1681565b61024961046c366004611bf7565b6001600160a01b031660009081526001602052604090205490565b61024961040081565b61039461049e366004611bf7565b6119f7565b6005602052600090815260409020805460018201546002830154600384015460048501805494956001600160a01b0394851695939094169391926104e690612020565b80601f016020809104026020016040519081016040528092919081815260200182805461051290612020565b801561055f5780601f106105345761010080835404028352916020019161055f565b820191906000526020600020905b81548152906001019060200180831161054257829003601f168201915b50505050600583015460069093015491929160ff80821692506101009091041688565b600081815260208181526040808320815160e0810183528154815260018201546001600160a01b03169381019390935260028101549183019190915260038101546060830152600481015460ff16151560808301526005810180548493929160a08401916105ef90612020565b80601f016020809104026020016040519081016040528092919081815260200182805461061b90612020565b80156106685780601f1061063d57610100808354040283529160200191610668565b820191906000526020600020905b81548152906001019060200180831161064b57829003601f168201915b5050505050815260200160068201805461068190612020565b80601f01602080910402602001604051908101604052809291908181526020018280546106ad90612020565b80156106fa5780601f106106cf576101008083540402835291602001916106fa565b820191906000526020600020905b8154815290600101906020018083116106dd57829003601f168201915b50505050508152505090508060800151801561072957506301e133808160600151426107269190612070565b11155b9392505050565b600082815260056020526040902060028101546001600160a01b031633146107b35760405162461bcd60e51b815260206004820152602b60248201527f43726564656e7469616c56657269666965723a206f6e6c7920686f6c6465722060448201526a63616e2070726f6365737360a81b60648201526084015b60405180910390fd5b600681015460ff161561081e5760405162461bcd60e51b815260206004820152602d60248201527f43726564656e7469616c56657269666965723a207265717565737420616c726560448201526c18591e481c1c9bd8d95cdcd959609a1b60648201526084016107aa565b600681018054831580156101000261ffff19909216919091176001179091556108975760038181018054600090815260209283526040808220600186810180546001600160a01b039081168652928752838520805460ff1916909217909155935483526004855281832093541682529190925290204290555b6040518215158152339084907f7726f38d459f64c1d11ae5c93539ffcb79e42df4b9af288e41f5761517b8e51b9060200160405180910390a36001810154600382015460405184151581526001600160a01b03909216917f4767aacb91ba1d263dc4d0dc917007bae75cbf1f8d43991d495b3ee176bd24579060200160405180910390a3505050565b61096e6040518060e001604052806000801916815260200160006001600160a01b03168152602001600081526020016000815260200160001515815260200160608152602001606081525090565b60008281526020818152604091829020825160e0810184528154815260018201546001600160a01b03169281019290925260028101549282019290925260038201546060820152600482015460ff161515608082015260058201805491929160a0840191906109dc90612020565b80601f0160208091040260200160405190810160405280929190818152602001828054610a0890612020565b8015610a555780601f10610a2a57610100808354040283529160200191610a55565b820191906000526020600020905b815481529060010190602001808311610a3857829003601f168201915b50505050508152602001600682018054610a6e90612020565b80601f0160208091040260200160405190810160405280929190818152602001828054610a9a90612020565b8015610ae75780601f10610abc57610100808354040283529160200191610ae7565b820191906000526020600020905b815481529060010190602001808311610aca57829003601f168201915b5050505050815250509050919050565b6001600160a01b03811660009081526001602052604081208054825b81811015610b9c576000838281548110610b2f57610b2f612083565b90600052602060002001549050600080600083815260200190815260200160002090506301e13380816003015442610b679190612070565b1115610b875760048101805460ff1916905585610b8381612099565b9650505b50508080610b9490612099565b915050610b13565b505050919050565b60016020528160005260406000208181548110610bc057600080fd5b90600052602060002001600091509150505481565b60408051610100810182526000808252602082018190529181018290526060808201839052608082015260a0810182905260c0810182905260e08101919091526000828152600560209081526040918290208251610100810184528154815260018201546001600160a01b039081169382019390935260028201549092169282019290925260038201546060820152600482018054919291608084019190610c7c90612020565b80601f0160208091040260200160405190810160405280929190818152602001828054610ca890612020565b8015610cf55780601f10610cca57610100808354040283529160200191610cf5565b820191906000526020600020905b815481529060010190602001808311610cd857829003601f168201915b50505091835250506005820154602082015260069091015460ff8082161515604084015261010090910416151560609091015292915050565b60008281526003602090815260408083206001600160a01b038516845290915290205460ff165b92915050565b600080835111610dc45760405162461bcd60e51b815260206004820152602e60248201527f43726564656e7469616c56657269666965723a20766572696669636174696f6e60448201526d081d1e5c19481c995c5d5a5c995960921b60648201526084016107aa565b61040082511115610e255760405162461bcd60e51b815260206004820152602560248201527f43726564656e7469616c56657269666965723a207369676e616c7320746f6f206044820152646c6172676560d81b60648201526084016107aa565b60008433428686604051602001610e409594939291906120b2565b60408051808303601f19018152828252805160209182012060e084018352808452338285019081528484018a8152426060870190815260016080880181815260a089018c815260c08a018e90526000878152978890529790962088518155935190840180546001600160a01b0319166001600160a01b0390921691909117905590516002830155516003820155915160048301805460ff19169115159190911790559151919350906005820190610ef7908261215d565b5060c08201516006820190610f0c908261215d565b50503360008181526001602081815260408084208054938401815584529220018490555187925083907f4d237b239024a88ae7b531102e8ff90c52631b12733981d491610f709f0816c390610f6290899061221d565b60405180910390a4949350505050565b60066020528160005260406000208181548110610bc057600080fd5b60026020528160005260406000208181548110610bc057600080fd5b60006020819052908152604090208054600182015460028301546003840154600485015460058601805495966001600160a01b03909516959394929360ff9092169291610ff690612020565b80601f016020809104026020016040519081016040528092919081815260200182805461102290612020565b801561106f5780601f106110445761010080835404028352916020019161106f565b820191906000526020600020905b81548152906001019060200180831161105257829003601f168201915b50505050509080600601805461108490612020565b80601f01602080910402602001604051908101604052809291908181526020018280546110b090612020565b80156110fd5780601f106110d2576101008083540402835291602001916110fd565b820191906000526020600020905b8154815290600101906020018083116110e057829003601f168201915b5050505050905087565b60006001600160a01b0384166111725760405162461bcd60e51b815260206004820152602a60248201527f43726564656e7469616c56657269666965723a20696e76616c696420686f6c646044820152696572206164647265737360b01b60648201526084016107aa565b6000338585428660405160200161118d959493929190612230565b60408051601f19818403018152828252805160209182012061010084018352808452338483019081526001600160a01b038a8116868601908152606087018b8152608088018b81524260a08a0152600060c08a0181905260e08a018190528681526005909752969095208751815592516001840180549184166001600160a01b03199283161790559051600284018054919093169116179055915160038301559151919350906004820190611242908261215d565b5060a0820151600582015560c08201516006918201805460e09094015115156101000261ff00199215159290921661ffff1990941693909317179091556001600160a01b0386166000818152602092835260408082208054600181018255908352939091209092018390559051339083907f8bc509fb30687af2b826633dcdb2b6647cd64944bb90fb84d6858f8ea2510fd390610f629089815260200190565b600081815260208181526040808320815160e0810183528154815260018201546001600160a01b03169381019390935260028101549183019190915260038101546060830152600481015460ff16151560808301526005810180548493929160a084019161134f90612020565b80601f016020809104026020016040519081016040528092919081815260200182805461137b90612020565b80156113c85780601f1061139d576101008083540402835291602001916113c8565b820191906000526020600020905b8154815290600101906020018083116113ab57829003601f168201915b505050505081526020016006820180546113e190612020565b80601f016020809104026020016040519081016040528092919081815260200182805461140d90612020565b801561145a5780601f1061142f5761010080835404028352916020019161145a565b820191906000526020600020905b81548152906001019060200180831161143d57829003601f168201915b5050505050815250509050828160000151146114885760405162461bcd60e51b81526004016107aa90612284565b60608101516107299042612070565b6001600160a01b0381166000908152600160209081526040918290208054835181840281018401909452808452606093928301828280156114f757602002820191906000526020600020905b8154815260200190600101908083116114e3575b50505050509050919050565b6000818152602081905260408120805483146115315760405162461bcd60e51b81526004016107aa90612284565b600481015460ff166115915760405162461bcd60e51b8152602060048201526024808201527f43726564656e7469616c56657269666965723a2070726f6f6620697320696e76604482015263185b1a5960e21b60648201526084016107aa565b6301e133808160030154426115a69190612070565b11156115fe5760405162461bcd60e51b815260206004820152602160248201527f43726564656e7469616c56657269666965723a2070726f6f66206578706972656044820152601960fa1b60648201526084016107aa565b600281018054600090815260036020908152604080832033808552908352818420805460ff19166001908117909155945484526004835281842081855283529281902042905551928352909185917fc30f4adce5910212952f577c97f2fa194ef8b40cd127b966f1854cece7977892910160405180910390a36002810154604051600181523391907f4767aacb91ba1d263dc4d0dc917007bae75cbf1f8d43991d495b3ee176bd24579060200160405180910390a350600192915050565b600081815260208190526040902060018101546001600160a01b031633146117445760405162461bcd60e51b815260206004820152603560248201527f43726564656e7469616c56657269666965723a206f6e6c792070726f6f662063604482015274726561746f722063616e20696e76616c696461746560581b60648201526084016107aa565b60048101805460ff1916905560405160008152339083907fc30f4adce5910212952f577c97f2fa194ef8b40cd127b966f1854cece79778929060200160405180910390a35050565b60005b81811015611874576000848152600360205260408120818585858181106117b8576117b8612083565b90506020020160208101906117cd9190611bf7565b6001600160a01b031681526020810191909152604001600020805460ff191691151591909117905582828281811061180757611807612083565b905060200201602081019061181c9190611bf7565b6001600160a01b0316847f4767aacb91ba1d263dc4d0dc917007bae75cbf1f8d43991d495b3ee176bd2457600060405161185a911515815260200190565b60405180910390a38061186c81612099565b91505061178f565b50505050565b606060008267ffffffffffffffff81111561189757611897611cf3565b6040519080825280602002602001820160405280156118c0578160200160208202803683370190505b50905060005b838110156119ef5760008060008787858181106118e5576118e5612083565b905060200201358152602001908152602001600020905085858381811061190e5761190e612083565b90506020020135816000015414801561192b5750600481015460ff165b801561194a57506301e133808160030154426119479190612070565b11155b156119b757600183838151811061196357611963612083565b911515602092830291909101820152600282018054600090815260038352604080822033808452908552818320805460ff1916600117905592548252600484528082209282529190925290204290556119dc565b60008383815181106119cb576119cb612083565b911515602092830291909101909101525b50806119e781612099565b9150506118c6565b509392505050565b6001600160a01b0381166000908152600260209081526040918290208054835181840281018401909452808452606093928301828280156114f757602002820191906000526020600020908154815260200190600101908083116114e35750505050509050919050565b600060208284031215611a7357600080fd5b5035919050565b60005b83811015611a95578181015183820152602001611a7d565b50506000910152565b60008151808452611ab6816020860160208601611a7a565b601f01601f19169290920160200192915050565b8881526001600160a01b038881166020830152871660408201526060810186905261010060808201819052600090611b0483820188611a9e565b60a0840196909652505091151560c0830152151560e09091015295945050505050565b60008060408385031215611b3a57600080fd5b8235915060208301358015158114611b5157600080fd5b809150509250929050565b602081528151602082015260018060a01b03602083015116604082015260408201516060820152606082015160808201526080820151151560a0820152600060a083015160e060c0840152611bb5610100840182611a9e565b905060c0840151601f198483030160e0850152611bd28282611a9e565b95945050505050565b80356001600160a01b0381168114611bf257600080fd5b919050565b600060208284031215611c0957600080fd5b61072982611bdb565b60008060408385031215611c2557600080fd5b611c2e83611bdb565b946020939093013593505050565b60208152815160208201526000602083015160018060a01b03808216604085015280604086015116606085015250506060830151608083015260808301516101008060a0850152611c91610120850183611a9e565b915060a085015160c085015260c0850151611cb060e086018215159052565b5060e0850151801515858301525090949350505050565b60008060408385031215611cda57600080fd5b82359150611cea60208401611bdb565b90509250929050565b634e487b7160e01b600052604160045260246000fd5b600067ffffffffffffffff80841115611d2457611d24611cf3565b604051601f8501601f19908116603f01168101908282118183101715611d4c57611d4c611cf3565b81604052809350858152868686011115611d6557600080fd5b858560208301376000602087830101525050509392505050565b600082601f830112611d9057600080fd5b61072983833560208501611d09565b600080600060608486031215611db457600080fd5b83359250602084013567ffffffffffffffff80821115611dd357600080fd5b611ddf87838801611d7f565b93506040860135915080821115611df557600080fd5b508401601f81018613611e0757600080fd5b611e1686823560208401611d09565b9150509250925092565b87815260018060a01b0387166020820152856040820152846060820152831515608082015260e060a08201526000611e5b60e0830185611a9e565b82810360c0840152611e6d8185611a9e565b9a9950505050505050505050565b600080600060608486031215611e9057600080fd5b611e9984611bdb565b925060208401359150604084013567ffffffffffffffff811115611ebc57600080fd5b611e1686828701611d7f565b6020808252825182820181905260009190848201906040850190845b81811015611f0057835183529284019291840191600101611ee4565b50909695505050505050565b60008083601f840112611f1e57600080fd5b50813567ffffffffffffffff811115611f3657600080fd5b6020830191508360208260051b8501011115611f5157600080fd5b9250929050565b600080600060408486031215611f6d57600080fd5b83359250602084013567ffffffffffffffff811115611f8b57600080fd5b611f9786828701611f0c565b9497909650939450505050565b60008060208385031215611fb757600080fd5b823567ffffffffffffffff811115611fce57600080fd5b611fda85828601611f0c565b90969095509350505050565b6020808252825182820181905260009190848201906040850190845b81811015611f00578351151583529284019291840191600101612002565b600181811c9082168061203457607f821691505b60208210810361205457634e487b7160e01b600052602260045260246000fd5b50919050565b634e487b7160e01b600052601160045260246000fd5b81810381811115610d5557610d5561205a565b634e487b7160e01b600052603260045260246000fd5b6000600182016120ab576120ab61205a565b5060010190565b8581526bffffffffffffffffffffffff198560601b166020820152836034820152600083516120e8816054850160208801611a7a565b8351908301906120ff816054840160208801611a7a565b01605401979650505050505050565b601f82111561215857600081815260208120601f850160051c810160208610156121355750805b601f850160051c820191505b8181101561215457828155600101612141565b5050505b505050565b815167ffffffffffffffff81111561217757612177611cf3565b61218b816121858454612020565b8461210e565b602080601f8311600181146121c057600084156121a85750858301515b600019600386901b1c1916600185901b178555612154565b600085815260208120601f198616915b828110156121ef578886015182559484019460019091019084016121d0565b508582101561220d5787850151600019600388901b60f8161c191681555b5050505050600190811b01905550565b6020815260006107296020830184611a9e565b60006bffffffffffffffffffffffff19808860601b168352808760601b166014840152508460288301528360488301528251612273816068850160208701611a7a565b919091016068019695505050505050565b60208082526028908201527f43726564656e7469616c56657269666965723a2070726f6f6620646f6573206e6040820152671bdd08195e1a5cdd60c21b60608201526080019056fea26469706673582212209f78fac7acac8d7fe4d0b30badbd2d3e84aa5fffb24ee512bf2b1615a39d3b8364736f6c63430008130033",
  "linkReferences": {},
  "deployedLinkReferences": {}
}